:100000000C9446000C946F000C946F000C946F00DD
:100010000C946F000C946F000C940C050C946F0002
:100020000C946F000C946F000C946F000C94CB0A2E
:100030000C946F000C946F000C942B0A0C946F00BE
:100040000C946F000C946F000C946F000C946F0074
:100050000C946F000C946F000C946F000C94ED0ADC
:100060000C946F000C946F007205EE0546053D057B
:100070004305D005C505500C2D0B2D0B4D0C590C0F
:10008000490C600C5C0C640C1C0CEE0B11241FBEA4
:10009000CFEFD8E0DEBFCDBF14BE0FB6F894A89561
:1000A00080916000886180936000109260000FBEB4
:1000B00012E0A0E0B1E0EEE7F7E202C005900D9299
:1000C000AC38B107D9F723E0ACE8B2E001C01D922B
:1000D000A533B207E1F70E94960D0C94BD130C9462
:1000E00000008093C6008091C00085FFFCCF80E0B7
:1000F00090E008958DE992E00895FC019CE0A1E96B
:10010000B2E001900D929A95E1F7CB010E946C0745
:1001100080930E0181E080938C020895CF93DF934A
:100120008AE191E00E946E1080912B038F93809161
:100130002A038F938EE791E09F938F930E9458102C
:10014000CDE9D2E0198680912A038883CE010E94EE
:10015000F70C9B878A871092AB021092AA028091BB
:10016000F4029091F502A091F602B091F7029093FB
:10017000D0028093CF021092A9020F900F900F909F
:100180000F90DF91CF910895F894519A8CE090E010
:100190009093C5008093C400E0ECF0E080818D7FF7
:1001A0008083E2ECF0E0808186608083E1ECF0E027
:1001B00080818860808380E091E090933203809317
:1001C000310378940895EF92FF920F931F93CF938A
:1001D00080919102E82EF12C1F928F9380E291E0A2
:1001E0009F938F930E9458102091AA020F900F9016
:1001F0000F900F90C0E030E000E010E0C217C0F4B4
:1002000031111DC0F801EE0FFF1FEE0FFF1FEE0FA3
:10021000FF1FE01BF10BE455FD4F858196818E1584
:100220009F0509F44DC0CF5F0C2F10E0C21740F3BB
:10023000311105C0253018F42F5F2093AA02F80170
:10024000EE0FFF1FEE0FFF1FEE0FFF1FE01BF10B66
:10025000E455FD4FF682E5828091F4029091F5021B
:10026000A091F602B091F70280839183A283B383B9
:1002700080910E0184831F928F9383818F9382815B
:100280008F9381818F9380818F9386818F938581D6
:100290008F9384E591E09F938F930E9458108FEF86
:1002A00080930E018DB79EB70A960FB6F8949EBF45
:1002B0000FBE8DBFCF911F910F91FF90EF900895CA
:1002C00089E391E00E946E102091AA0231E096CF5E
:1002D0006F927F928F929F92AF92BF92CF92DF9256
:1002E000EF92FF920F931F93CF93DF9382E891E0F9
:1002F0000E946E107090AA02772009F4ADC07A9423
:1003000077FC9BC02CEAE22E21E0F22E38EDA32EE2
:1003100031E0B32E46EEC42E41E0D42E57E0652ED8
:1003200088248A94982C05C07A94FFEF7F1609F4EC
:1003300084C0272D37E02302E0011124C455DD4F8E
:100340008C811F928F938B818F938A818F93898168
:100350008F9388818F938E010B5F1F4FF8018181EE
:100360008F938D818F93FF92EF920E94581080910E
:10037000F4029091F502A091F602B091F702488143
:1003800059816A817B81841B950BA60BB70B2DB716
:100390003EB7265F3F4F0FB6F8943EBF0FBE2DBF4E
:1003A00081349105A105B10508F4BECF8091F40216
:1003B0009091F502A091F602B091F702BF93AF932E
:1003C0009F938F93BF92AF920E945810F801818142
:1003D0008F938D818F93DF92CF920E9458108091DE
:1003E000AA02282F30E097E0899FF0011124E455FC
:1003F000FD4FDE01962D01900D929A95E1F7215067
:100400003109F901EE0FFF1FEE0FFF1FEE0FFF1F67
:10041000E21BF30BE455FD4F968285828150809359
:10042000AA02EDB7FEB73A960FB6F894FEBF0FBE1C
:10043000EDBF7A94FFEF7F127CCFDF91CF911F91B8
:100440000F91FF90EF90DF90CF90BF90AF909F9073
:100450008F907F906F90089585E991E0DF91CF9123
:100460001F910F91FF90EF90DF90CF90BF90AF90D2
:100470009F908F907F906F900C946E10EF92FF92F0
:100480000F931F93CF93DF9380918C02813009F4F7
:10049000DFC04091F4025091F5026091F602709134
:1004A000F7028091CF029091D0028096092E000C25
:1004B000AA0BBB0B84179507A607B70708F494C0CF
:1004C00084E192E09F938F930E94581087E392E01B
:1004D0000E946E108091AA021F928F938CE392E08B
:1004E0009F938F930E9458100E9468019091AA02D6
:1004F0000F900F900F900F900F900F90992309F489
:1005000026C18091B002823308F055C081E0C82F27
:100510009230E8F02091B702223308F481E0C82F2E
:100520009230A9F02091BE02223308F481E0C82F56
:10053000933069F02091C502223308F481E0C82F7E
:10054000943029F09091CC02923308F4C1E01F92CC
:10055000CF938EE492E09F938F930E9458100F9058
:100560000F900F900F90C11104C08091AA028111C9
:1005700024C08BE592E00E946E10C091A902809188
:10058000AB028C1779F0C23009F45AC0C33009F4B9
:100590004FC0C13009F443C060E080E00E9486068D
:1005A000C093AB0281E0DF91CF911F910F91FF903B
:1005B000EF900C94A70A80E0AACF87E792E00E9410
:1005C0006E108091AB02882331F060E080E00E94E1
:1005D00086061092AB0285E1DF91CF911F910F91BA
:1005E000FF90EF900C94A70A0E94E5069BEA899F72
:1005F000912D11249695292F220F920F891B8F5F21
:100600008093A9028091F4029091F502A091F602E4
:10061000B091F7029093D0028093CF0251CF0E9405
:100620008B0660912D0380912C030E948606B8CF23
:100630000E948B0660911A0380E00E948606B0CF6C
:100640000E948B0660E080912E030E948606A8CF50
:1006500080E092E00E946E10D0919102ED2EF12C7C
:100660001F92DF9380E291E09F938F930E94581036
:100670002091AA020F900F900F900F90C0E030E0F1
:1006800000E010E0C217C0F431111DC0F801EE0FF8
:10069000FF1FEE0FFF1FEE0FFF1FE01BF10BE455D6
:1006A000FD4F858196818E159F0509F448C0CF5F67
:1006B0000C2F10E0C21740F3311105C0253018F49B
:1006C0002F5F2093AA02F801EE0FFF1FEE0FFF1F0E
:1006D000EE0FFF1FE01BF10BE455FD4FF682E582A4
:1006E0008091F4029091F502A091F602B091F70288
:1006F00080839183A283B38380910E0184831F92B0
:100700008F9383818F9382818F9381818F93808157
:100710008F931F92DF9384E591E09F938F930E94C4
:1007200058108FEF80930E0110928C028DB79EB7F8
:100730000A960FB6F8949EBF0FBE8DBFAACE89E36E
:1007400091E00E946E102091AA0231E09BCF1F928F
:100750001F928EE492E09F938F930E9458100F9007
:100760000F900F900F9001CFCF939091AB0289170C
:1007700069F0C82F8230A1F0833051F08130C1F090
:1007800060E080E00E948606C093AB02CF9108959E
:100790000E948B0660911A0380E00E948606F4CFC7
:1007A0000E948B0660E080912E030E948606ECCFAB
:1007B0000E948B0660912D0380912C030E94860677
:1007C000E3CFCF938091AA028823C1F19091B00228
:1007D000923390F591E0C92F8230E8F02091B70272
:1007E000223308F491E0C92F8230A9F02091BE0293
:1007F000223308F491E0C92F833069F02091C502BB
:10080000223308F491E0C92F843029F08091CC0282
:10081000823308F4C1E08C2F90E09F938F938EE495
:1008200092E09F938F930E9458100F900F900F901B
:100830000F908C2FCF91089590E0CDCF80E090E085
:10084000C0E0EBCF089580E090E008950895DF9236
:10085000EF92FF920F931F93CF93DF93F89414B806
:1008600017B81AB815B818B81BB8529A5A9A14BCC7
:1008700085E085BD8FEF87BD82E080936E0010928A
:100880008000109281002FE83BE030938900209394
:10089000880080936F005398239891EA9093B0005A
:1008A0008093B1001092B4001092B3008BE080BF2F
:1008B00083E080937F0086E080937C0083E88093D0
:1008C0007A0080917A00806480937A0080917A0027
:1008D00086FDFCCF10927C0083EA80937A0081E051
:1008E00080937B0081E090E00E941C138F3F11F009
:1008F000809366001092F802C1E0C093D102C093C9
:1009000015031092EF021092290380E990E00E94F3
:100910001C138093EE028091EE02887311F0C09355
:10092000EE0210921903109218038FEF90E090934B
:100930001703809316031092F4021092F50210929E
:10094000F6021092F70281E08093900282E49FE029
:10095000909328038093270380EB90E00E941C1360
:10096000C82F81EB90E00E941C132C2F30E0382B15
:1009700030932B0320932A0385E090E00E941C1300
:1009800080932E0389E090E00E941C1380931A0349
:100990008CE090E00E941C1380932C0384E190E093
:1009A0000E941C1380932D0359EFE52E52E0F52E83
:1009B00002ED12E0C0E2D0E0CE010E941C13D82E5E
:1009C000CE0101960E941C132D2D30E0322F2227DC
:1009D000282BF701219331937F01CE01C0960E940D
:1009E0001C13D82ECE01C1960E941C132D2D30E071
:1009F000322F2227282BF801219331938F01229641
:100A0000CC33D105C9F67894DF91CF911F910F9126
:100A1000FF90EF90DF9008951F920F920FB60F9204
:100A200011248F930FB6F894A89580916000886187
:100A300080936000109260000FBE8F910F900FBEE8
:100A40000F901F9018953C01EB0110E099249A94A7
:100A500084E0C82E96E0A92E23E8B22E38E1D32EEA
:100A600049E2E42E90919002E92FF0E0E730F105A1
:100A7000C8F7EC5CFF4F0C94C30D112309F4FCC0C4
:100A8000C092900211E0FE010995ECCF8091F8022E
:100A90008111EBC0F894A0927C00B0927A00809112
:100AA0007A00806480937A0090917A0096FDFCCF62
:100AB000809178009091790078948B3AE2E09E07DB
:100AC0000CF0EDC08938F2E09F070CF0EFC08736DC
:100AD00092400CF4CAC0559A549A3B9A3A9A3D985F
:100AE0003C98C0CFF89480B7877F80BF80917A0010
:100AF0008F7780937A0014B817B81AB815B818B859
:100B00001BB80FB6F894A895D09260000FBEE09283
:100B100060008091600080648093600093B7917F53
:100B2000946093BFF89483B7816083BF789488956D
:100B300083B78E7F83BF78941092F802529A5A9AA4
:100B400080917A00806880937A0087E592E001972F
:100B5000F1F700C0000080B7886180BF559A549AB1
:100B60003B9A3A9A3D9A3C9AEFE1FEE43197F1F7CD
:100B700000C000008091F802811181C055985498FE
:100B80003B983A983D983C986DCF80918E028111A8
:100B900041C01092B3001092B40010928F0262CF45
:100BA0004899ECCF559A54983B983A983D983C9880
:100BB0008FEC97E00197F1F700C00000559854982A
:100BC0003B983A983D983C989FEFE1EEF4E09150C5
:100BD000E040F040E1F700C0000044CF5598549841
:100BE0003B9A3A9A3D983C98EFECF7E03197F1F751
:100BF00000C00000559854983B983A983D983C980E
:100C0000FFEF21EE84E0F15020408040E1F700C08A
:100C1000000028CF90918E0280918F02981709F4DE
:100C200021CF80918E0280938F0280918E0281303D
:100C300009F450C080918E021092B3009092B400DB
:100C40008230D9F19092B3009092B4008FE295E790
:100C50000197F1F700C0000080912D0390912C03C3
:100C60009093B3008093B400FDCE559A549A3B986C
:100C70003A983D983C98F6CEF301099501CF559AE4
:100C8000549A3B983A983D983C98FFEF20E782E0D1
:100C9000F15020408040E1F700C000006FCF559830
:100CA00054983B9A3A9A3D983C98DCCE5598549883
:100CB0003B983A983D9A3C9AD5CEEFE2F5E73197CA
:100CC000F1F700C0000080911A031092B3008093E6
:100CD000B400C8CE9092B3001092B4008FE295E7B2
:100CE0000197F1F700C0000080912E038093B300BC
:100CF0001092B400B7CE07C0EFECF7E03197F1F7F0
:100D000000C0000001970097B9F708958093B300E1
:100D10006093B40008958FEF8093B3008093B40084
:100D20008FE090E0EFECF7E03197F1F700C00000C2
:100D30000197C1F708958091F80281111EC0F894BF
:100D400087E080937C0083E880937A0080917A002A
:100D5000806480937A0080917A0086FDFCCF809138
:100D600078009091790010927C0023EA20937A0019
:100D700021E020937B00789408958FEF9FEF0895F2
:100D80008091F80281111EC0F89488EC80937C0059
:100D900087E880937A0080917A00806480937A005B
:100DA00080917A0086FDFCCF809178009091790047
:100DB00010927C0023EA20937A0021E020937B00AC
:100DC000789408958FEF9FEF08950F931F93CF931B
:100DD000DF93E0E0F0E080E003EA11E0D6E0C3E872
:100DE000A1E0B0E060E870E0F894D0937C00C0939C
:100DF0007A0090917A00906490937A0090917A00B2
:100E000096FDFCCF2091780030917900217090916F
:100E10007A00906490937A0090917A0096FDFCCFCE
:100E2000409178005091790010927C0000937A00F4
:100E300010937B0078944170241303C061507109B2
:100E400099F6222339F09D010E2E01C0220F0A943B
:100E5000EAF7822B3196E830F10509F0C3CFDF9134
:100E6000CF911F910F91089580910F01982F990FA5
:100E7000990F990F892790918D0221E0290F2093D6
:100E80008D02282F22952695277082279695969574
:100E9000892780930F01089580930F010895809111
:100EA000F802811116C0F89486E080937C0083E8F4
:100EB00080937A0080917A00806480937A00809198
:100EC0007A0086FDFCCF809178009091790078942B
:100ED00008958FEF9FEF08952F923F924F925F9268
:100EE0006F927F928F929F92AF92BF92CF92DF923A
:100EF000EF92FF920F931F93CF93DF9300D000D018
:100F000000D0CDB7DEB71C01DC0112960D90BC916C
:100F1000A02DBE83AD83A438E3E0BE070CF0C9C0AA
:100F20008091D2029091D3028A179B0708F437C1AF
:100F30000091D4021091D5020A171B0708F42FC2A2
:100F40000091D6021091D7020A171B0708F42FC28E
:100F50000091D8021091D9020A171B0708F42FC27A
:100F60000091DA021091DB020A171B0708F42FC266
:100F70000091DC021091DD020A171B0708F4EFC193
:100F80000091DE021091DF020A171B0708F427C246
:100F90000091E0021091E1020A171B0708F427C232
:100FA0000091E2021091E3020A171B0708F427C21E
:100FB0000091E4021091E5020A171B0708F427C20A
:100FC0000091E6021091E7020A171B0708F427C2F6
:100FD0000091E8021091E9020A171B0708F423C2E6
:100FE0000091EA021091EB020A171B0708F423C2D2
:100FF0000091EC021091ED020A171B0708F423C2BE
:1010000080E090E0A0EDB0E489839A83AB83BC8359
:101010004CE0E42EF12CF701EE0FFF1FEE52FD4FD6
:1010200080819181B801681B790B80E090E00E947B
:10103000010F9B01AC010E94ED0D6B017C01AD81A4
:10104000BE81BD01BB0F880B990B0E94030F4B01A2
:101050005C01B80180E090E00E94010F2B013C018F
:1010600029813A814B815C81C701B6010E948F0FB3
:101070009B01AC01C301B2010E94EC0D9B01AC01CC
:10108000C501B4010E94EC0D20E030E040E251E4E3
:101090000E948F0F0E94CB0E8B01C701B6010E94E8
:1010A000CB0EAB01BC01C801BA010E94AF0D162FD7
:1010B00077C0DC01CD90DC908091F9029091FA022A
:1010C0008C159D0508F48CC01FEFE090FB02F0909A
:1010D000FC02EC14FD0408F45EC1E090FD02F09007
:1010E000FE02EC14FD0408F45EC1E090FF02F090F3
:1010F0000003EC14FD0408F45EC1E0900103F090DD
:101100000203EC14FD0408F45EC1E0900303F090C8
:101110000403EC14FD0408F4C3C0E0900503F09050
:101120000603EC14FD0408F456C1E0900703F090A8
:101130000803EC14FD0408F456C1E0900903F09094
:101140000A03EC14FD0408F456C1E0900B03F09080
:101150000C03EC14FD0408F456C1E0900D03F0906C
:101160000E03EC14FD0408F456C1E0900F03F09058
:101170001003EC14FD0408F45AC1E0901103F09040
:101180001203EC14FD0408F45AC1E0901303F0902C
:101190001403EC14FD0408F45AC10AE531C010E050
:1011A000ED81FE81ED3BF240FCF481E2810F269659
:1011B0000FB6F894DEBF0FBECDBFDF91CF911F9168
:1011C0000F91FF90EF90DF90CF90BF90AF909F90E6
:1011D0008F907F906F905F904F903F902F900895E9
:1011E00000E081E2800FE3CFD101CD90DC908091CF
:1011F000F9029091FA028C159D0508F066CF00E087
:101200001F3F79F3ED81FE81BF01FF0F880B990B22
:101210000E94030F6B017C01612F70E080E090E081
:101220000E94010F4B015C01A701960160E070E094
:1012300081E694E40E94EC0D9B01AC01C501B40170
:101240000E948F0F4B015C01602F70E080E090E006
:101250000E94010F2B013C0120E030E04FE254E4FA
:10126000C701B6010E94EC0D9B01AC01C301B201A4
:101270000E948F0F9B01AC01C501B4010E94ED0DCE
:1012800020E030E048E453E40E94590E20E030E0D2
:1012900044E052E40E94ED0D0E94D20E862F87CFCB
:1012A00005E085E090E0880F991FFC01E950FD4FB3
:1012B00080819181B701681B790B80E090E00E94EA
:1012C000010F9B01AC010E94ED0D4B015C01B601C9
:1012D000DD0C880B990B0E94030F2B013C01B70119
:1012E00080E090E00E94010F6B017C01602F70E0B4
:1012F00080E090E00E94010F20E030E040E05FE3FA
:101300000E948F0F20E030E0A9010E94ED0DA501A1
:1013100094010E948F0F9B01AC01C701B6010E948E
:10132000EC0D9B01AC01C301B2010E94EC0D20E069
:1013300030E040E251E40E948F0F0E94CB0E7B010F
:10134000C501B4010E94CB0EAB01BC01C701BA01BB
:101350000E94AF0D062F6F3F09F052CF26CF65E0F8
:1013600085E090E07C01F1E0EF1AF10870E080E0A8
:1013700090E00E94010F20E030E040E05FE30E9437
:101380008F0F20E030E0A9010E94ED0D69837A8380
:101390008B839C8340CE01E081E090E084CF61E0CC
:1013A00081E090E0DFCF02E082E090E07CCF62E07D
:1013B00082E090E0D7CF03E083E090E074CF63E079
:1013C00083E090E0CFCF04E084E090E06CCF64E075
:1013D00084E090E0C7CF06E086E090E064CF66E06E
:1013E00086E090E0BFCF07E087E090E05CCF67E069
:1013F00087E090E0B7CF08E088E090E054CF68E065
:1014000088E090E0AFCF09E089E090E04CCF69E060
:1014100089E090E0A7CF0AE08AE090E044CF6AE05C
:101420008AE090E09FCF6BE08BE090E09BCF0BE0F9
:101430008BE090E038CF6CE08CE090E093CF0CE054
:101440008CE090E030CF6DE08DE090E08BCF0DE050
:101450008DE090E028CF1F920F920FB60F921124CB
:101460002F933F934F935F936F937F938F939F93AC
:10147000AF93BF93EF93FF9320911803309119031B
:101480008091160390911703820F931F9093190375
:10149000809318038FEF90E09093170380931603C7
:1014A0008FEF87BD8091F4029091F502A091F60232
:1014B000B091F7020196A11DB11D8093F4029093A3
:1014C000F502A093F602B093F7028091F802811121
:1014D0000FC0809127039091280320911803309129
:1014E00019038217930720F480919002843089F0C9
:1014F000FF91EF91BF91AF919F918F917F916F91EC
:101500005F914F913F912F910F900FBE0F901F90C1
:101510001895E0911201F09113010995009741F39C
:101520000E94130D811109C00E94481099279093C1
:1015300017038093160387BDDBCFE0911001F09174
:10154000110109951092190310921803D1CF80FF51
:1015500011C0559A81FF11C0549A82FF11C03B9A65
:1015600083FF11C03A9A84FF11C03D9A85FD11C0D6
:101570003C980895559881FDEFCF549882FDEFCFA8
:101580003B9883FDEFCF3A9884FDEFCF3D9885FFE0
:10159000EFCF3C9A08951F920F920FB60F9211242D
:1015A0008F939F9310928100109285001092840077
:1015B00081E08093D102809315031092F80210927B
:1015C0007C0093EA90937A0080937B009F918F91A7
:1015D0000F900FBE0F901F9018951F920F920FB68D
:1015E0000F9211242F933F934F935F936F937F93A9
:1015F0008F939F93AF93BF93CF93DF93EF93FF931B
:10160000209184003091850041E04093F802809160
:10161000D1028823A9F11092850010928400409392
:101620008100109229031092D10280911503882322
:10163000A1F080917A0086FDFCCF80917800909196
:1016400079009093F3028093F20281E080937C0012
:1016500093EA90937A0080937B00FF91EF91DF9162
:10166000CF91BF91AF919F918F917F916F915F913A
:101670004F913F912F910F900FBE0F901F90189593
:10168000C901875891098437994008F052C02658FB
:101690003109A4EFB0E00E94C90DAA27BB2788300A
:1016A0009105A105B10508F47BC04093D10280915A
:1016B0001503811152C08091EF02E82FF0E0E55E42
:1016C000FC4F9091290390838F5F8093EF028C30C1
:1016D00021F61092810010928500109284004093B0
:1016E00015031092F802C0912503D09126038BE1D7
:1016F00093E00E94F70CC817D90709F0AECF80918C
:10170000240387FF61C098E7980F933030F0539817
:1017100023981092B4001092B30090E0FC01E058BE
:10172000F109EB30F10508F098CFE55CFF4F0C9420
:10173000C30D109281001092850010928400409396
:10174000D102409315031092F80210927C0083EAB4
:1017500080937A0040937B0080CF80917A0086FD51
:10176000FCCF80917800909179009093F102809362
:10177000F00210927C0083EA80937A0081E08093EB
:101780007B00909129039923D1F01092810010924F
:10179000850010928400809315031092F8025DCFAB
:1017A00021E030E0F90102C0EE0FFF1F8A95E2F759
:1017B000CF0190912903892B809329034ECF10925A
:1017C00015031092EF0249CFE0911401F091150139
:1017D00060EF72E08BE193E009953FCF80911B03AE
:1017E000823009F4DDC008F4BAC0833009F4C6C001
:1017F000843009F0B1C080918E0290912103833032
:1018000009F4E3C08091200310928F0223E020931B
:101810008E0280932C0390932D038091900286304A
:1018200009F41BCF539A239A1092B4001092B3007C
:1018300086E08093900211CF80919002863099F0DB
:10184000539A239A1092B4001092B300559854986A
:101850003B983A983D983C9810928E0210928F02D5
:1018600086E08093900281E090E09C0100901B0351
:1018700002C0220F331F0A94E2F780912A0390914D
:101880002B0382239323892B09F086C010928E02AA
:10189000E4CE81E080939002E0CEE0E0F0E00995B4
:1018A00080916E008D7F80936E0016BCE0E0F0E7C3
:1018B000099510929002D1CE82E080939002CDCE15
:1018C00085E080939002C9CE80919002833009F424
:1018D000C4CE80919002843009F4BFCE539A239AEB
:1018E0001092B4001092B30083E080939002B5CEC2
:1018F00080919002863009F0B0CE60912A0380EB8F
:1019000090E00E94241360912B0381EB90E00E94F1
:10191000241360912E0385E090E00E9424136091CF
:101920001A0389E090E00E94241360912C038CE05C
:1019300090E00E94241360912D0384E190E00E94C6
:101940002413539823981092B4001092B30081E0AE
:101950008093900280911B0381115FCF7ECE8823FC
:1019600039F28130C9F780911C0390911D03909347
:101970002B0380932A0310928E024FCF80918E0208
:10198000823071F180911F0310928F0292E0909348
:101990008E0280931A0341CF81E080938E025DCE48
:1019A00080918E02813051F080911E0310928F023F
:1019B00091E090938E0280932E032FCF80911E038F
:1019C00090912E038913F2CF28CF80912D03981385
:1019D00019CF8091200320912C03821315CF1DCFA6
:1019E00080911F0390911A038913CECF16CFFC016B
:1019F000AC01465F5F4F8FEF9FEF21918227082E4A
:101A00008295807F8025092E982F82958F700826D9
:101A1000869598278927880F880F880F8025E417D7
:101A2000F50759F708950FB6F894A4B12091EE0286
:101A30002A2B24B921E03091EE02203029F0000059
:101A400025B1232B25B904C000000000000000C010
:101A5000000000000000309525B1232325B92EEAAF
:101A60002A95F1F72BEE30B735FF0AC0A4B93091B3
:101A7000EE02309525B1232325B90FBE80E00895ED
:101A800000002A9581F721E03091EE02203029F004
:101A9000000025B1232B25B904C000000000000080
:101AA00000C0000000000000309525B1232325B9B7
:101AB000000024E52A95F1F7FC018CE0619170E0CB
:101AC000660F771F616072609AE041E050E09A0112
:101AD00026233723232B3091EE02203029F00000FB
:101AE00025B1232B25B904C000000000000000C070
:101AF000000000000000309525B1232325B9000027
:101B000021E52A95F1F7440F551F9A9501F78A951B
:101B1000A9F620B7206120BFA4B93091EE0230951C
:101B200025B1232325B90FBE81E008950E94C4008A
:101B30000E9427048DE790E0909315018093140193
:101B40008AE790E090931301809312016EE372E0B4
:101B50008EE890E00E94230580E090E0089597FBD6
:101B6000072E16F4009407D077FD09D00E94D80DF7
:101B700007FC05D03EF4909581959F4F0895709590
:101B800061957F4F0895EE0FFF1F0590F491E02DB2
:101B90000994A29FB001B39FC001A39F700D811D46
:101BA0001124911DB29F700D811D1124911D089566
:101BB000AA1BBB1B51E107C0AA1FBB1FA617B70773
:101BC00010F0A61BB70B881F991F5A95A9F780958F
:101BD0009095BC01CD0108955058BB27AA270E94BB
:101BE000040E0C94550F0E94470F38F00E944E0FC0
:101BF00020F039F49F3F19F426F40C94440F0EF4AE
:101C0000E095E7FB0C943E0FE92F0E94660F58F316
:101C1000BA17620773078407950720F079F4A6F5D1
:101C20000C94880F0EF4E0950B2EBA2FA02D0B010B
:101C3000B90190010C01CA01A0011124FF27591B11
:101C400099F0593F50F4503E68F11A16F040A22F17
:101C5000232F342F4427585FF3CF46953795279588
:101C6000A795F0405395C9F77EF41F16BA0B620B87
:101C7000730B840BBAF09150A1F0FF0FBB1F661FCE
:101C8000771F881FC2F70EC0BA0F621F731F841F11
:101C900048F4879577956795B795F7959E3F08F037
:101CA000B0CF9395880F08F09927EE0F97958795F9
:101CB00008950E946D0E0C94550F0E944E0F58F01F
:101CC0000E94470F40F029F45F3F29F00C943E0F2B
:101CD00051110C94890F0C94440F0E94660F68F305
:101CE0009923B1F3552391F3951B550BBB27AA27D5
:101CF00062177307840738F09F5F5F4F220F331F0F
:101D0000441FAA1FA9F335D00E2E3AF0E0E832D0D6
:101D100091505040E695001CCAF72BD0FE2F29D0D9
:101D2000660F771F881FBB1F261737074807AB07AB
:101D3000B0E809F0BB0B802DBF01FF2793585F4F20
:101D40003AF09E3F510578F00C943E0F0C94890FA9
:101D50005F3FE4F3983ED4F3869577956795B79502
:101D6000F7959F5FC9F7880F911D9695879597F90D
:101D70000895E1E0660F771F881FBB1F6217730786
:101D80008407BA0720F0621B730B840BBA0BEE1F9B
:101D900088F7E09508950E94D20E6894B1110C94D2
:101DA000890F08950E946E0F88F09F5798F0B92F01
:101DB0009927B751B0F0E1F0660F771F881F991F80
:101DC0001AF0BA95C9F714C0B13091F00E94880F8B
:101DD000B1E008950C94880F672F782F8827B85F9B
:101DE00039F0B93FCCF3869577956795B395D9F7D8
:101DF0003EF490958095709561957F4F8F4F9F4FE2
:101E00000895E89409C097FB3EF4909580957095ED
:101E100061957F4F8F4F9F4F9923A9F0F92F96E936
:101E2000BB279395F695879577956795B795F111AB
:101E3000F8CFFAF4BB0F11F460FF1BC06F5F7F4F48
:101E40008F4F9F4F16C0882311F096E911C077235A
:101E500021F09EE8872F762F05C0662371F096E863
:101E6000862F70E060E02AF09A95660F771F881F32
:101E7000DAF7880F9695879597F9089597F99F67F0
:101E800080E870E060E008959FEF80EC0895002402
:101E90000A941616170618060906089500240A94CF
:101EA00012161306140605060895092E0394000C55
:101EB00011F4882352F0BB0F40F4BF2B11F460FFE4
:101EC00004C06F5F7F4F8F4F9F4F089557FD90580D
:101ED000440F551F59F05F3F71F04795880F97FBEE
:101EE000991F61F09F3F79F08795089512161306A8
:101EF0001406551FF2CF4695F1DF08C016161706D7
:101F00001806991FF1CF869571056105089408950B
:101F1000E894BB2766277727CB0197F908950E949D
:101F2000A20F0C94550F0E94470F38F00E944E0FDD
:101F300020F0952311F00C943E0F0C94440F1124C3
:101F40000C94890F0E94660F70F3959FC1F3950F53
:101F500050E0551F629FF001729FBB27F00DB11D2D
:101F6000639FAA27F00DB11DAA1F649F6627B00DBD
:101F7000A11D661F829F2227B00DA11D621F739FA6
:101F8000B00DA11D621F839FA00D611D221F749FB4
:101F90003327A00D611D231F849F600D211D822FFB
:101FA000762F6A2F11249F5750409AF0F1F0882322
:101FB0004AF0EE0FFF1FBB1F661F771F881F91504F
:101FC0005040A9F79E3F510580F00C943E0F0C94B1
:101FD000890F5F3FE4F3983ED4F386957795679534
:101FE000B795F795E7959F5FC1F7FE2B880F911D79
:101FF0009695879597F908958F929F92AF92BF9289
:10200000CF92DF92EF92FF92CF93DF93EC01688142
:1020100079818A819B81611571058105910521F482
:1020200064E279ED8BE597E02DE133EF41E050E09C
:102030000E94321349015A019B01AC01A7EAB1E4A5
:102040000E9451136B017C01ACEEB4EFA501940129
:102050000E945F13DC01CB018C0D9D1DAE1DBF1DC9
:10206000B7FF03C00197A109B04888839983AA8369
:10207000BB839F77DF91CF91FF90EF90DF90CF9060
:10208000BF90AF909F908F9008950E94FC0F08958D
:1020900086E191E00E94FC0F0895A0E0B0E08093FB
:1020A000160190931701A0931801B0931901089598
:1020B000A0E0B0E0EEE5F0E10C947413AE014B5FEC
:1020C0005F4FFA0161917191AF018091310390915D
:1020D00032030E949E10E2E00C9490130F931F9322
:1020E000CF93DF93E0913103F0913203238121FFFD
:1020F0001BC08C01D0E0C0E0F80181918F0160919C
:10210000310370913203DB011896ED91FC91199720
:10211000882331F00995892B79F3DFEFCFEFECCFEE
:102120008AE00995892B19F08FEF9FEF02C08D2F60
:102130009C2FDF91CF911F910F910895ACE0B0E0FB
:10214000E4EAF0E10C9464137C016B018A01FC0168
:1021500017821682838181FFBDC1CE0101964C0199
:10216000F7019381F60193FD859193FF81916F01B2
:10217000882309F4ABC1853239F493FD859193FF2F
:1021800081916F01853229F4B70190E00E94861297
:10219000E7CF512C312C20E02032A0F48B3269F0B3
:1021A00030F4803259F0833269F420612CC08D32D2
:1021B00039F0803339F4216026C02260246023C0C6
:1021C000286021C027FD27C030ED380F3A3078F461
:1021D00026FF06C0FAE05F9E300D1124532E13C077
:1021E0008AE0389E300D1124332E20620CC08E32CE
:1021F00021F426FD6BC1206406C08C3611F42068E2
:1022000002C0883641F4F60193FD859193FF8191D8
:102210006F018111C1CF982F9F7D9554933028F481
:102220000C5F1F4FFFE3F9830DC0833631F0833716
:1022300071F0833509F05BC022C0F8018081898389
:102240000E5F1F4F44244394512C540115C0380194
:10225000F2E06F0E711CF801A080B18026FF03C070
:10226000652D70E002C06FEF7FEFC5012C870E94E3
:102270007B122C0183012C852F77222E17C0380169
:10228000F2E06F0E711CF801A080B18026FF03C040
:10229000652D70E002C06FEF7FEFC5012C870E94B3
:1022A00070122C012C852068222E830123FC1BC078
:1022B000832D90E048165906B0F4B70180E290E013
:1022C0000E9486123A94F4CFF50127FC859127FEEF
:1022D00081915F01B70190E00E94861231103A941B
:1022E000F1E04F1A51084114510471F7E5C08436EA
:1022F00011F0893639F5F80127FF07C06081718137
:10230000828193810C5F1F4F08C060817181072E0D
:10231000000C880B990B0E5F1F4F2F76722E97FFC4
:1023200009C090958095709561957F4F8F4F9F4F15
:102330002068722E2AE030E0A4010E94BE12A82E6E
:10234000A81844C0853729F42F7EB22E2AE030E049
:1023500025C0F22FF97FBF2E8F36C1F018F48835D3
:1023600079F0B4C0803719F0883721F0AFC02F2F33
:102370002061B22EB4FE0DC08B2D8460B82E09C032
:1023800024FF0AC09F2F9660B92E06C028E030E0D7
:1023900005C020E130E002C020E132E0F801B7FEE4
:1023A00007C060817181828193810C5F1F4F06C0DD
:1023B0006081718180E090E00E5F1F4FA4010E9458
:1023C000BE12A82EA818FB2DFF777F2E76FE0BC01D
:1023D000372D3E7FA51450F474FE0AC072FC08C06D
:1023E000372D3E7E05C0BA2C372D03C0BA2C01C054
:1023F000B52C34FF0DC0FE01EA0DF11D8081803344
:1024000011F4397E09C032FF06C0B394B39404C0FE
:10241000832F867809F0B39433FD13C030FF06C0D4
:102420005A2CB31418F4530C5B18B32CB31468F47F
:10243000B70180E290E03C870E948612B3943C850D
:10244000F5CFB31410F43B1801C0312C34FF12C087
:10245000B70180E390E03C870E9486123C8532FF02
:1024600017C031FD03C088E790E002C088E590E026
:10247000B7010CC0832F867859F031FF02C08BE280
:1024800001C080E237FD8DE2B70190E00E94861224
:10249000A51438F4B70180E390E00E9486125A94A4
:1024A000F7CFAA94F401EA0DF11D8081B70190E005
:1024B0000E948612A110F5CF332009F451CEB70146
:1024C00080E290E00E9486123A94F6CFF70186816E
:1024D000978102C08FEF9FEF2C96E2E10C9480135E
:1024E000FC010590615070400110D8F780959095DF
:1024F0008E0F9F1F0895FC016150704001900110E4
:10250000D8F7809590958E0F9F1F08950F931F9376
:10251000CF93DF93FB01238121FD03C08FEF9FEF5A
:1025200028C022FF16C04681578124813581421779
:10253000530744F4A081B1819D012F5F3F4F318348
:1025400020838C93268137812F5F3F4F37832683EB
:1025500010C0EB01092F182F0084F185E02D09959B
:10256000892BE1F68E819F8101969F838E83812F37
:10257000902FDF91CF911F910F910895FA01AA2713
:10258000283051F1203181F1E8946F936E7F6E5FB6
:102590007F4F8F4F9F4FAF4FB1E03ED0B4E03CD064
:1025A000670F781F891F9A1FA11D680F791F8A1F47
:1025B000911DA11D6A0F711D811D911DA11D20D0AE
:1025C00009F468943F912AE0269F11243019305D68
:1025D0003193DEF6CF010895462F4770405D419359
:1025E000B3E00FD0C9F7F6CF462F4F70405D4A33A6
:1025F00018F0495D31FD4052419302D0A9F7EACF6E
:10260000B4E0A6959795879577956795BA95C9F79C
:1026100000976105710508959B01AC010A2E06948F
:102620005795479537952795BA95C9F7620F731F48
:10263000841F951FA01D0895F999FECF92BD81BDFD
:10264000F89A992780B50895262FF999FECF1FBAD9
:1026500092BD81BD20BD0FB6F894FA9AF99A0FBECB
:1026600001960895052E97FB1EF400940E944913CD
:1026700057FD07D00E949B1307FC03D04EF40C9427
:10268000491350954095309521953F4F4F4F5F4FDF
:10269000089590958095709561957F4F8F4F9F4FCE
:1026A00008950E94C90DA59F900DB49F900DA49F01
:1026B000800D911D11240895B7FF0C9451130E94B1
:1026C0005113821B930B08952F923F924F925F926A
:1026D0006F927F928F929F92AF92BF92CF92DF9232
:1026E000EF92FF920F931F93CF93DF93CDB7DEB797
:1026F000CA1BDB0B0FB6F894DEBF0FBECDBF09942B
:102700002A88398848885F846E847D848C849B8481
:10271000AA84B984C884DF80EE80FD800C811B818F
:10272000AA81B981CE0FD11D0FB6F894DEBF0FBEBE
:10273000CDBFED010895A1E21A2EAA1BBB1BFD011E
:102740000DC0AA1FBB1FEE1FFF1FA217B307E40790
:10275000F50720F0A21BB30BE40BF50B661F771FE8
:10276000881F991F1A9469F76095709580959095C8
:0E2770009B01AC01BD01CF010895F894FFCF8D
:10277E000000000200000000710000000000FFAA2F
:10278E002604230422040100000073657475700092
:10279E0020202020202020206D6573736167652026
:1027AE0066726F6D2025640A0020202020202020D4
:1027BE002064656A612064616E73206C61206C69AF
:1027CE00737465006D6973652061206A6F75722080
:1027DE003A206964203A2025642074696D65203A98
:1027EE002025642064697374616365203A20256432
:1027FE000A00202020207570646174655F766F6911
:10280E0073696E73002020202020202020706173B9
:10281E0020646520766F6973696E73002020202016
:10282E00202020206C69737465203A2069643A2058
:10283E0025642074696D653A20256420646973747B
:10284E00203A202564200A006B696C6F7469636BF3
:10285E00732025640A00202020202020202064657B
:10286E006C65746520766F6973696E2025640A0045
:10287E00202020204E6F7576656175206D6573730F
:10288E00616765002D2D2D2D2D2D2D2D2D2D2D2DF1
:10289E002D2D2D2D2D2D2D2D2D2D2D2D2D2D2D2D5A
:1028AE002D2D2D2D2D2D006C6F6F700020202020D2
:1028BE006E625F766F6973696E7325640A00746F5A
:1028CE006F436C6F73652025640A002020202074EE
:1028DE006F6F636C6F7365206F72206E65772076F5
:1028EE006F6973696E7300202020207065726665B3
:0C28FE0063742064697374616E6365008C
:00000001FF
