:100000000C9446000C946F000C946F000C946F00DD
:100010000C946F000C946F000C9404040C946F000B
:100020000C946F000C946F000C946F000C94C30937
:100030000C946F000C946F000C9423090C946F00C7
:100040000C946F000C946F000C946F000C946F0074
:100050000C946F000C946F000C946F000C94E509E5
:100060000C946F000C946F006A04E6043E0435049F
:100070003B04C804BD04480B250A250A450B510B57
:10008000410B580B540B5C0B140BE60A11241FBEDA
:10009000CFEFD8E0DEBFCDBF14BE0FB6F894A89561
:1000A00080916000886180936000109260000FBEB4
:1000B00011E0A0E0B1E0E4E7FFE102C005900D929D
:1000C000AE30B107D9F721E0AEE0B1E001C01D923A
:1000D000AB39B207E1F70E948E0C0C94B80F0C9468
:1000E000000081E291E00895FC019CE0A5E1B1E00F
:1000F00001900D929A95E1F7CB010E94640690E081
:10010000909301018093000181E090E090930F01B2
:1001100080930E010895CF93DF93C1E2D1E0198659
:10012000809196018883CE010E94EF0B9B878A877E
:1001300010921001DF91CF910895CF93DF938091BA
:100140002D01882309F47AC09FEF980F97FDCCC04A
:100150004091600150916101609162017091630171
:10016000292F092E000C330BF901EE0FFF1F2E0F64
:100170003F1FF901E25DFE4F2081421B51096109D9
:100180007109413451056105710598F0282F30E05F
:10019000D901AA0FBB1F2A0F3B1FD901A25DBE4F79
:1001A0002D913D914C9120833183428381508093E6
:1001B0002D01915068F620910E0130910F012130F0
:1001C000310509F499C0882309F440C090912F01AA
:1001D000923390F591E0292F8230E8F0209132019E
:1001E000223308F491E0292F8230A9F020913501C3
:1001F000223308F491E0292F833069F020913801EF
:10020000223308F491E0292F843029F080913B01BA
:10021000823308F421E0211119C080911001882354
:1002200031F01092100160E080E00E947E0585E1CF
:10023000DF91CF910C949F0990E0CDCF20910E01DA
:1002400030910F012130310509F4B8C00E942C060D
:100250008170C82F80E0D82F229680911001282F1E
:1002600030E0C217D307B1F0882331F1C0931001F9
:10027000C130D10589F1C230D105B4F0C230D10509
:1002800061F0239739F46091860180E0DF91CF918E
:100290000C947E05DF91CF91089560E080919A01E2
:1002A000DF91CF910C947E05CD2BA1F760E080E02B
:1002B000DF91CF910C947E050E9483050E948305F7
:1002C0000E9483050E94830585E10E949F09C093D7
:1002D0001001C130D10579F66091990180919801A2
:1002E000DF91CF910C947E0520910E0130910F018A
:1002F0002130310509F06ACF90911501282F30E0A7
:100300002115310509F45CC040913001941709F4BE
:1003100046C02130310509F459C04091330194178A
:1003200009F449C02230310509F44DC0409136012D
:100330009417F1F12330310509F44EC04091390191
:10034000941799F12430310509F443C020913C0100
:10035000921741F125E030E08F5F80932D01F90184
:10036000EE0FFF1FE20FF31FE25DFE4F92838091BD
:10037000600190916101A0916201B091630180835D
:100380008091000181838FEF9FEF90930101809313
:10039000000184E00E949F0980912D0114CF20E08C
:1003A00030E0DDCF24E030E0DACF23E030E0D7CF1B
:1003B00022E030E0D4CF21E030E0D1CF90911501A0
:1003C00020E030E0C9CF22E030E0C6CF21E030E0CD
:1003D000C3CF24E030E0C0CF23E030E0BDCF209198
:1003E000150130912D01832F90E0009709F451C041
:1003F000409130014217F1F18130910509F452C06A
:10040000409133014217C9F18230910509F44DC082
:10041000409136014217A1F18330910509F43FC0A4
:1004200040913901421779F10497B1F180913C0173
:10043000821761F185E090E03F5F30932D01FC0170
:10044000EE0FFF1FE80FF91FE25DFE4F2283809140
:10045000600190916101A0916201B091630180837C
:100460008091000181838FEF9FEF90930101809332
:100470000001089580E090E0E2CF81E090E0DFCFDE
:1004800082E090E0DCCF83E090E0D9CF84E090E0A0
:10049000D6CF80E090E0D0CF84E090E0CDCF83E075
:1004A00090E0CACF81E090E0C7CF82E090E0C4CF77
:1004B000EF92FF920F931F9330912D013323D9F1C7
:1004C0002FEF230F27FD37C040916001509161014C
:1004D0006091620170916301822F022E000C990BD2
:1004E000FC01EE0FFF1F8E0F9F1FFC01E25DFE4F10
:1004F00080817A018B01E81AF10801091109D801FC
:10050000C70181349105A105B10598F0832F90E0D2
:10051000DC01AA0FBB1F8A0F9B1FDC01A25DBE4F2F
:100520008D919D91AC9180839183A28331503093C2
:100530002D01215048F61F910F91FF90EF900895E3
:10054000CF93DF93EC0180911001282F30E02C171E
:100550003D07F1F08823F9F0C0931001C130D105B7
:1005600051F1C230D10564F0C230D10561F1239759
:1005700079F46091860180E0DF91CF910C947E0543
:10058000CD2B31F460E080E0DF91CF910C947E05BB
:10059000DF91CF9108950E9483050E9483050E94F8
:1005A00083050E94830585E10E949F09C093100185
:1005B000C130D105B1F66091990180919801DF9128
:1005C000CF910C947E0560E080919A01DF91CF91EC
:1005D0000C947E0520912D01222341F180912F0161
:1005E000823310F591E0892F223008F18091320199
:1005F000823308F491E0892F2230C9F080913501CF
:10060000823308F491E0892F233089F080913801FA
:10061000823308F491E0892F243049F080913B0126
:10062000823330F0892F089590E0DDCF80E0089587
:1006300081E00895089580E090E008950895DF92A4
:10064000EF92FF920F931F93CF93DF93F89414B818
:1006500017B81AB815B818B81BB8529A5A9A14BCD9
:1006600085E085BD8FEF87BD82E080936E0010929C
:100670008000109281002FE83BE0309389002093A6
:10068000880080936F005398239891EA9093B0006C
:100690008093B1001092B4001092B3008BE080BF41
:1006A00083E080937F0086E080937C0083E88093E2
:1006B0007A0080917A00806480937A0080917A0039
:1006C00086FDFCCF10927C0083EA80937A0081E063
:1006D00080937B0081E090E00E944E0F8F3F11F0ED
:1006E0008093660010926401C1E0C0933D01C09305
:1006F000810110925B011092950180E990E00E94C7
:100700004E0F80935A0180915A01887311F0C09363
:100710005A0110928501109284018FEF90E090931E
:100720008301809382011092600110926101109206
:1007300062011092630181E08093140182E49FE0E2
:10074000909394018093930180EB90E00E944E0F70
:10075000C82F81EB90E00E944E0F2C2F30E0382BF9
:10076000309397012093960185E090E00E944E0F10
:1007700080939A0189E090E00E944E0F8093860159
:100780008CE090E00E944E0F8093980184E190E00D
:100790000E944E0F8093990155E6E52E51E0F52E0B
:1007A0000EE311E0C0E2D0E0CE010E944E0FD82E41
:1007B000CE0101960E944E0F2D2D30E0322F2227C0
:1007C000282BF701219331937F01CE01C0960E941F
:1007D0004E0FD82ECE01C1960E944E0F2D2D30E027
:1007E000322F2227282BF801219331938F01229653
:1007F000CC33D105C9F67894DF91CF911F910F9139
:10080000FF90EF90DF9008951F920F920FB60F9216
:1008100011248F930FB6F894A89580916000886199
:1008200080936000109260000FBE8F910F900FBEFA
:100830000F901F9018953C01EB0110E099249A94B9
:1008400084E0C82E96E0A92E23E8B22E38E1D32EFC
:1008500049E2E42E90911401E92FF0E0E730F10530
:10086000C8F7EC5CFF4F0C94B90C112309F4FCC0E1
:10087000C092140111E0FE010995ECCF8091640152
:100880008111EBC0F894A0927C00B0927A00809124
:100890007A00806480937A0090917A0096FDFCCF74
:1008A000809178009091790078948B3AE2E09E07ED
:1008B0000CF0EDC08938F2E09F070CF0EFC08736EE
:1008C00092400CF4CAC0559A549A3B9A3A9A3D9871
:1008D0003C98C0CFF89480B7877F80BF80917A0022
:1008E0008F7780937A0014B817B81AB815B818B86B
:1008F0001BB80FB6F894A895D09260000FBEE09296
:1009000060008091600080648093600093B7917F65
:10091000946093BFF89483B7816083BF789488957F
:1009200083B78E7F83BF789410926401529A5A9A4B
:1009300080917A00806880937A0087E592E0019741
:10094000F1F700C0000080B7886180BF559A549AC3
:100950003B9A3A9A3D9A3C9AEFE1FEE43197F1F7DF
:1009600000C0000080916401811181C055985498A5
:100970003B983A983D983C986DCF80911201811137
:1009800041C01092B3001092B4001092130162CFD4
:100990004899ECCF559A54983B983A983D983C9892
:1009A0008FEC97E00197F1F700C00000559854983C
:1009B0003B983A983D983C989FEFE1EEF4E09150D7
:1009C000E040F040E1F700C0000044CF5598549853
:1009D0003B9A3A9A3D983C98EFECF7E03197F1F763
:1009E00000C00000559854983B983A983D983C9820
:1009F000FFEF21EE84E0F15020408040E1F700C09D
:100A0000000028CF9091120180911301981709F4EA
:100A100021CF8091120180931301809112018130C6
:100A200009F450C0809112011092B3009092B4006A
:100A30008230D9F19092B3009092B4008FE295E7A2
:100A40000197F1F700C00000809199019091980101
:100A50009093B3008093B400FDCE559A549A3B987E
:100A60003A983D983C98F6CEF301099501CF559AF6
:100A7000549A3B983A983D983C98FFEF20E782E0E3
:100A8000F15020408040E1F700C000006FCF559842
:100A900054983B9A3A9A3D983C98DCCE5598549895
:100AA0003B983A983D9A3C9AD5CEEFE2F5E73197DC
:100AB000F1F700C00000809186011092B30080938E
:100AC000B400C8CE9092B3001092B4008FE295E7C4
:100AD0000197F1F700C0000080919A018093B30064
:100AE0001092B400B7CE07C0EFECF7E03197F1F702
:100AF00000C0000001970097B9F708958093B300F4
:100B00006093B40008958FEF8093B3008093B40096
:100B10008FE090E0EFECF7E03197F1F700C00000D4
:100B20000197C1F708958091640181111EC0F89466
:100B300087E080937C0083E880937A0080917A003C
:100B4000806480937A0080917A0086FDFCCF80914A
:100B500078009091790010927C0023EA20937A002B
:100B600021E020937B00789408958FEF9FEF089504
:100B70008091640181111EC0F89488EC80937C0000
:100B800087E880937A0080917A00806480937A006D
:100B900080917A0086FDFCCF809178009091790059
:100BA00010927C0023EA20937A0021E020937B00BE
:100BB000789408958FEF9FEF08950F931F93CF932D
:100BC000DF93E0E0F0E080E003EA11E0D6E0C3E884
:100BD000A1E0B0E060E870E0F894D0937C00C093AE
:100BE0007A0090917A00906490937A0090917A00C4
:100BF00096FDFCCF20917800309179002170909182
:100C00007A00906490937A0090917A0096FDFCCFE0
:100C1000409178005091790010927C0000937A0006
:100C200010937B0078944170241303C061507109C4
:100C300099F6222339F09D010E2E01C0220F0A944D
:100C4000EAF7822B3196E830F10509F0C3CFDF9146
:100C5000CF911F910F91089580910201982F990FC4
:100C6000990F990F89279091110121E0290F209365
:100C70001101282F22952695277082279695969503
:100C8000892780930201089580930201089580913D
:100C90006401811116C0F89486E080937C0083E89B
:100CA00080937A0080917A00806480937A008091AA
:100CB0007A0086FDFCCF809178009091790078943D
:100CC00008958FEF9FEF08952F923F924F925F927A
:100CD0006F927F928F929F92AF92BF92CF92DF924C
:100CE000EF92FF920F931F93CF93DF9300D000D02A
:100CF00000D0CDB7DEB71C01DC0112960D90BC917F
:100D0000A02DBE83AD83A438E3E0BE070CF0C9C0BC
:100D100080913E0190913F018A179B0708F437C1EB
:100D200000914001109141010A171B0708F42FC2DE
:100D300000914201109143010A171B0708F42FC2CA
:100D400000914401109145010A171B0708F42FC2B6
:100D500000914601109147010A171B0708F42FC2A2
:100D600000914801109149010A171B0708F4EFC1CF
:100D700000914A0110914B010A171B0708F427C282
:100D800000914C0110914D010A171B0708F427C26E
:100D900000914E0110914F010A171B0708F427C25A
:100DA00000915001109151010A171B0708F427C246
:100DB00000915201109153010A171B0708F427C232
:100DC00000915401109155010A171B0708F423C222
:100DD00000915601109157010A171B0708F423C20E
:100DE00000915801109159010A171B0708F423C2FA
:100DF00080E090E0A0EDB0E489839A83AB83BC836C
:100E00004CE0E42EF12CF701EE0FFF1FE25CFE4FE9
:100E100080819181B801681B790B80E090E00E948D
:100E2000F70D9B01AC010E94E30C6B017C01AD81CD
:100E3000BE81BD01BB0F880B990B0E94F90D4B01C0
:100E40005C01B80180E090E00E94F70D2B013C01AD
:100E500029813A814B815C81C701B6010E94850ED0
:100E60009B01AC01C301B2010E94E20C9B01AC01E9
:100E7000C501B4010E94E20C20E030E040E251E400
:100E80000E94850E0E94C10D8B01C701B6010E9410
:100E9000C10DAB01BC01C801BA010E94A50C162FFF
:100EA00077C0DC01CD90DC90809165019091660166
:100EB0008C159D0508F48CC01FEFE0906701F09041
:100EC0006801EC14FD0408F45EC1E0906901F09043
:100ED0006A01EC14FD0408F45EC1E0906B01F0902F
:100EE0006C01EC14FD0408F45EC1E0906D01F0901B
:100EF0006E01EC14FD0408F45EC1E0906F01F09007
:100F00007001EC14FD0408F4C3C0E0907101F0908E
:100F10007201EC14FD0408F456C1E0907301F090E6
:100F20007401EC14FD0408F456C1E0907501F090D2
:100F30007601EC14FD0408F456C1E0907701F090BE
:100F40007801EC14FD0408F456C1E0907901F090AA
:100F50007A01EC14FD0408F456C1E0907B01F09096
:100F60007C01EC14FD0408F45AC1E0907D01F0907E
:100F70007E01EC14FD0408F45AC1E0907F01F0906A
:100F80008001EC14FD0408F45AC10AE531C010E0F8
:100F9000ED81FE81ED3BF240FCF481E2810F26966B
:100FA0000FB6F894DEBF0FBECDBFDF91CF911F917A
:100FB0000F91FF90EF90DF90CF90BF90AF909F90F8
:100FC0008F907F906F905F904F903F902F900895FB
:100FD00000E081E2800FE3CFD101CD90DC908091E1
:100FE0006501909166018C159D0508F066CF00E0C3
:100FF0001F3F79F3ED81FE81BF01FF0F880B990B35
:101000000E94F90D6B017C01612F70E080E090E09F
:101010000E94F70D4B015C01A701960160E070E0B2
:1010200081E694E40E94E20C9B01AC01C501B4018D
:101030000E94850E4B015C01602F70E080E090E023
:101040000E94F70D2B013C0120E030E04FE254E418
:10105000C701B6010E94E20C9B01AC01C301B201C1
:101060000E94850E9B01AC01C501B4010E94E30CF6
:1010700020E030E048E453E40E944F0D20E030E0EF
:1010800044E052E40E94E30C0E94C80D862F87CFF3
:1010900005E085E090E0880F991FFC01ED59FE4FB7
:1010A00080819181B701681B790B80E090E00E94FC
:1010B000F70D9B01AC010E94E30C4B015C01B601F2
:1010C000DD0C880B990B0E94F90D2B013C01B70137
:1010D00080E090E00E94F70D6B017C01602F70E0D2
:1010E00080E090E00E94F70D20E030E040E05FE318
:1010F0000E94850E20E030E0A9010E94E30CA501CA
:1011000094010E94850E9B01AC01C701B6010E94AB
:10111000E20C9B01AC01C301B2010E94E20C20E091
:1011200030E040E251E40E94850E0E94C10D7B0137
:10113000C501B4010E94C10DAB01BC01C701BA01D8
:101140000E94A50C062F6F3F09F052CF26CF65E015
:1011500085E090E07C01F1E0EF1AF10870E080E0BA
:1011600090E00E94F70D20E030E040E05FE30E9455
:10117000850E20E030E0A9010E94E30C69837A83A8
:101180008B839C8340CE01E081E090E084CF61E0DE
:1011900081E090E0DFCF02E082E090E07CCF62E08F
:1011A00082E090E0D7CF03E083E090E074CF63E08B
:1011B00083E090E0CFCF04E084E090E06CCF64E087
:1011C00084E090E0C7CF06E086E090E064CF66E080
:1011D00086E090E0BFCF07E087E090E05CCF67E07B
:1011E00087E090E0B7CF08E088E090E054CF68E077
:1011F00088E090E0AFCF09E089E090E04CCF69E073
:1012000089E090E0A7CF0AE08AE090E044CF6AE06E
:101210008AE090E09FCF6BE08BE090E09BCF0BE00B
:101220008BE090E038CF6CE08CE090E093CF0CE066
:101230008CE090E030CF6DE08DE090E08BCF0DE062
:101240008DE090E028CF1F920F920FB60F921124DD
:101250002F933F934F935F936F937F938F939F93BE
:10126000AF93BF93EF93FF93209184013091850159
:101270008091820190918301820F931F9093850149
:10128000809384018FEF90E090938301809382019B
:101290008FEF87BD8091600190916101A091620103
:1012A000B09163010196A11DB11D809360019093DF
:1012B0006101A0936201B093630180916401811187
:1012C0000FC08091930190919401209184013091FD
:1012D00085018217930720F480911401843089F0EE
:1012E000FF91EF91BF91AF919F918F917F916F91FE
:1012F0005F914F913F912F910F900FBE0F901F90D4
:101300001895E0910501F09106010995009741F3C8
:101310000E940B0C811109C00E943E0F99279093E7
:1013200083018093820187BDDBCFE0910301F091BF
:10133000040109951092850110928401D1CF80FF9C
:1013400011C0559A81FF11C0549A82FF11C03B9A77
:1013500083FF11C03A9A84FF11C03D9A85FD11C0E8
:101360003C980895559881FDEFCF549882FDEFCFBA
:101370003B9883FDEFCF3A9884FDEFCF3D9885FFF2
:10138000EFCF3C9A08951F920F920FB60F9211243F
:101390008F939F9310928100109285001092840089
:1013A00081E080933D01809381011092640110924D
:1013B0007C0093EA90937A0080937B009F918F91B9
:1013C0000F900FBE0F901F9018951F920F920FB69F
:1013D0000F9211242F933F934F935F936F937F93BB
:1013E0008F939F93AF93BF93CF93DF93EF93FF932D
:1013F000209184003091850041E040936401809108
:101400003D018823A9F11092850010928400409339
:1014100081001092950110923D01809181018823F5
:10142000A1F080917A0086FDFCCF809178009091A8
:10143000790090935F0180935E0181E080937C004E
:1014400093EA90937A0080937B00FF91EF91DF9174
:10145000CF91BF91AF919F918F917F916F915F914C
:101460004F913F912F910F900FBE0F901F901895A5
:10147000C901875891098437994008F052C026580D
:101480003109A4EFB0E00E94BF0CAA27BB27883027
:101490009105A105B10508F47BC040933D01809101
:1014A0008101811152C080915B01E82FF0E0E95782
:1014B000FE4F9091950190838F5F80935B018C30FC
:1014C00021F61092810010928500109284004093C2
:1014D000810110926401C0919101D091920187E83D
:1014E00091E00E94EF0BC817D90709F0AECF8091A9
:1014F000900187FF61C098E7980F933030F05398C0
:1015000023981092B4001092B30090E0FC01E058D0
:10151000F109EB30F10508F098CFE55CFF4F0C9432
:10152000B90C1092810010928500109284004093B3
:101530003D01409381011092640110927C0083EA86
:1015400080937A0040937B0080CF80917A0086FD63
:10155000FCCF809178009091790090935D01809309
:101560005C0110927C0083EA80937A0081E0809392
:101570007B00909195019923D1F0109281001092F7
:1015800085001092840080938101109264015DCFE8
:1015900021E030E0F90102C0EE0FFF1F8A95E2F76B
:1015A000CF0190919501892B809395014ECF109298
:1015B000810110925B0149CFE0910701F091080190
:1015C0006CE571E087E891E009953FCF8091870154
:1015D000823009F4DDC008F4BAC0833009F4C6C013
:1015E000843009F0B1C08091120190918D01833057
:1015F00009F4E3C080918C011092130123E0209341
:101600001201809398019093990180911401863082
:1016100009F41BCF539A239A1092B4001092B3008E
:1016200086E08093140111CF80911401863099F0E7
:10163000539A239A1092B4001092B300559854987C
:101640003B983A983D983C981092120110921301E1
:1016500086E08093140181E090E09C010090870176
:1016600002C0220F331F0A94E2F7809196019091F5
:10167000970182239323892B09F086C010921201CF
:10168000E4CE81E080931401E0CEE0E0F0E0099543
:1016900080916E008D7F80936E0016BCE0E0F0E7D5
:1016A000099510921401D1CE82E080931401CDCE21
:1016B00085E080931401C9CE80911401833009F430
:1016C000C4CE80911401843009F4BFCE539A239A7A
:1016D0001092B4001092B30083E080931401B5CE51
:1016E00080911401863009F0B0CE6091960180EBB4
:1016F00090E00E94560F6091970181EB90E00E946C
:10170000560F60919A0185E090E00E94560F60911B
:10171000860189E090E00E94560F609198018CE06C
:1017200090E00E94560F6091990184E190E00E9440
:10173000560F539823981092B4001092B30081E092
:10174000809314018091870181115FCF7ECE882321
:1017500039F28130C9F78091880190918901909385
:10176000970180939601109212014FCF8091120140
:10177000823071F180918B011092130192E090936D
:1017800012018093860141CF81E0809312015DCEEA
:1017900080911201813051F080918A0110921301E1
:1017A00091E09093120180939A012FCF80918A014A
:1017B00090919A018913F2CF28CF809199019813C3
:1017C00019CF80918C0120919801821315CF1DCFE4
:1017D00080918B01909186018913CECF16CFFC01A9
:1017E000AC01465F5F4F8FEF9FEF21918227082E5C
:1017F0008295807F8025092E982F82958F700826EC
:10180000869598278927880F880F880F8025E417E9
:10181000F50759F708950FB6F894A4B120915A012D
:101820002A2B24B921E030915A01203029F0000000
:1018300025B1232B25B904C000000000000000C022
:10184000000000000000309525B1232325B92EEAC1
:101850002A95F1F72BEE30B735FF0AC0A4B93091C5
:101860005A01309525B1232325B90FBE80E0089594
:1018700000002A9581F721E030915A01203029F0AB
:10188000000025B1232B25B904C000000000000092
:1018900000C0000000000000309525B1232325B9C9
:1018A000000024E52A95F1F7FC018CE0619170E0DD
:1018B000660F771F616072609AE041E050E09A0124
:1018C00026233723232B30915A01203029F00000A2
:1018D00025B1232B25B904C000000000000000C082
:1018E000000000000000309525B1232325B9000039
:1018F00021E52A95F1F7440F551F9A9501F78A952E
:10190000A9F620B7206120BFA4B930915A013095C3
:1019100025B1232325B90FBE81E008950E941F033E
:1019200084E790E0909308018093070181E790E0BD
:1019300090930601809305016DE970E08BE890E0DB
:101940000E941B0480E090E0089597FB072E16F498
:10195000009407D077FD09D00E94CE0C07FC05D07B
:101960003EF4909581959F4F0895709561957F4FB6
:101970000895EE0FFF1F0590F491E02D0994A29FAA
:10198000B001B39FC001A39F700D811D1124911D53
:10199000B29F700D811D1124911D0895AA1BBB1BC0
:1019A00051E107C0AA1FBB1FA617B70710F0A61B5F
:1019B000B70B881F991F5A95A9F780959095BC0180
:1019C000CD0108955058BB27AA270E94FA0C0C9409
:1019D0004B0E0E943D0E38F00E94440E20F039F468
:1019E0009F3F19F426F40C943A0E0EF4E095E7FBB1
:1019F0000C94340EE92F0E945C0E58F3BA1762075C
:101A000073078407950720F079F4A6F50C947E0EF1
:101A10000EF4E0950B2EBA2FA02D0B01B901900109
:101A20000C01CA01A0011124FF27591B99F0593F4D
:101A300050F4503E68F11A16F040A22F232F342F95
:101A40004427585FF3CF469537952795A795F040E3
:101A50005395C9F77EF41F16BA0B620B730B840BF8
:101A6000BAF09150A1F0FF0FBB1F661F771F881FB0
:101A7000C2F70EC0BA0F621F731F841F48F4879508
:101A800077956795B795F7959E3F08F0B0CF9395FA
:101A9000880F08F09927EE0F9795879508950E9473
:101AA000630D0C944B0E0E94440E58F00E943D0EA4
:101AB00040F029F45F3F29F00C94340E51110C943E
:101AC0007F0E0C943A0E0E945C0E68F39923B1F3DA
:101AD000552391F3951B550BBB27AA276217730754
:101AE000840738F09F5F5F4F220F331F441FAA1FE8
:101AF000A9F335D00E2E3AF0E0E832D091505040A4
:101B0000E695001CCAF72BD0FE2F29D0660F771F51
:101B1000881FBB1F261737074807AB07B0E809F037
:101B2000BB0B802DBF01FF2793585F4F3AF09E3FBC
:101B3000510578F00C94340E0C947F0E5F3FE4F363
:101B4000983ED4F3869577956795B795F7959F5FFF
:101B5000C9F7880F911D9695879597F90895E1E04B
:101B6000660F771F881FBB1F621773078407BA07AA
:101B700020F0621B730B840BBA0BEE1F88F7E09505
:101B800008950E94C80D6894B1110C947F0E0895B9
:101B90000E94640E88F09F5798F0B92F9927B7518B
:101BA000B0F0E1F0660F771F881F991F1AF0BA9501
:101BB000C9F714C0B13091F00E947E0EB1E00895D3
:101BC0000C947E0E672F782F8827B85F39F0B93FC5
:101BD000CCF3869577956795B395D9F73EF49095B4
:101BE0008095709561957F4F8F4F9F4F0895E89432
:101BF00009C097FB3EF490958095709561957F4F55
:101C00008F4F9F4F9923A9F0F92F96E9BB27939502
:101C1000F695879577956795B795F111F8CFFAF412
:101C2000BB0F11F460FF1BC06F5F7F4F8F4F9F4F43
:101C300016C0882311F096E911C0772321F09EE8A1
:101C4000872F762F05C0662371F096E8862F70E007
:101C500060E02AF09A95660F771F881FDAF7880FE1
:101C60009695879597F9089597F99F6780E870E0B2
:101C700060E008959FEF80EC089500240A94161602
:101C8000170618060906089500240A94121613066A
:101C9000140605060895092E0394000C11F48823F8
:101CA00052F0BB0F40F4BF2B11F460FF04C06F5F14
:101CB0007F4F8F4F9F4F089557FD9058440F551FEA
:101CC00059F05F3F71F04795880F97FB991F61F0BE
:101CD0009F3F79F087950895121613061406551F35
:101CE000F2CF4695F1DF08C0161617061806991FA1
:101CF000F1CF86957105610508940895E894BB2796
:101D000066277727CB0197F908950E94980E0C94C7
:101D10004B0E0E943D0E38F00E94440E20F0952399
:101D200011F00C94340E0C943A0E11240C947F0E86
:101D30000E945C0E70F3959FC1F3950F50E0551F04
:101D4000629FF001729FBB27F00DB11D639FAA2710
:101D5000F00DB11DAA1F649F6627B00DA11D661F5F
:101D6000829F2227B00DA11D621F739FB00DA11D80
:101D7000621F839FA00D611D221F749F3327A00D3A
:101D8000611D231F849F600D211D822F762F6A2FD6
:101D900011249F5750409AF0F1F088234AF0EE0F3B
:101DA000FF1FBB1F661F771F881F91505040A9F768
:101DB0009E3F510580F00C94340E0C947F0E5F3FD3
:101DC000E4F3983ED4F3869577956795B795F795A4
:101DD000E7959F5FC1F7FE2B880F911D969587951C
:101DE00097F908958F929F92AF92BF92CF92DF9210
:101DF000EF92FF92CF93DF93EC01688179818A8122
:101E00009B81611571058105910521F464E279EDED
:101E10008BE597E02DE133EF41E050E00E94640F45
:101E200049015A019B01AC01A7EAB1E40E94830F6A
:101E30006B017C01ACEEB4EFA50194010E94910FFF
:101E4000DC01CB018C0D9D1DAE1DBF1DB7FF03C076
:101E50000197A109B04888839983AA83BB839F77A0
:101E6000DF91CF91FF90EF90DF90CF90BF90AF9038
:101E70009F908F9008950E94F20E089589E091E05E
:101E80000E94F20E0895A0E0B0E0809309019093C3
:101E90000A01A0930B01B0930C010895F999FECFAC
:101EA00092BD81BDF89A992780B50895262FF9999A
:101EB000FECF1FBA92BD81BD20BD0FB6F894FA9A2D
:101EC000F99A0FBE01960895052E97FB1EF4009413
:101ED0000E947B0F57FD07D00E94960F07FC03D08E
:101EE0004EF40C947B0F50954095309521953F4FC3
:101EF0004F4F5F4F089590958095709561957F4FF6
:101F00008F4F9F4F08950E94BF0CA59F900DB49FC7
:101F1000900DA49F800D911D11240895B7FF0C947E
:101F2000830F0E94830F821B930B0895A1E21A2E48
:101F3000AA1BBB1BFD010DC0AA1FBB1FEE1FFF1F6D
:101F4000A217B307E407F50720F0A21BB30BE40BBD
:101F5000F50B661F771F881F991F1A9469F7609504
:101F60007095809590959B01AC01BD01CF010895BE
:041F7000F894FFCF13
:0E1F7400FFFFAA1E031B031A0301000000005A
:00000001FF
