:100000000C9446000C946F000C946F000C946F00DD
:100010000C946F000C946F000C941D050C946F00F1
:100020000C946F000C946F000C946F000C94DC0A1D
:100030000C946F000C946F000C943C0A0C946F00AD
:100040000C946F000C946F000C946F000C946F0074
:100050000C946F000C946F000C946F000C94FE0ACB
:100060000C946F000C946F008305FF0557054E0537
:100070005405E105D605610C3E0B3E0B5E0C6A0C87
:100080005A0C710C6D0C750C2D0CFF0B11241FBE3E
:10009000CFEFD8E0DEBFCDBF14BE0FB6F894A89561
:1000A00080916000886180936000109260000FBEB4
:1000B00012E0A0E0B1E0E0EAF7E202C005900D92A4
:1000C000AE38B107D9F723E0AEE8B2E001C01D9227
:1000D000A733B207E1F70E94A70D0C94CE130C943E
:1000E00000008093C6008091C00085FFFCCF80E0B7
:1000F00090E008958FE992E00895FC019CE0A3E967
:10010000B2E001900D929A95E1F7CB010E947D0734
:1001100080930F0181E080938E020895CF93DF9347
:100120008BE191E00E947F1080912D038F9380914D
:100130002C038F938FE791E09F938F930E94691018
:10014000CFE9D2E0198680912C038883CE010E94EA
:10015000080D9B878A871092AD021092AC028091A5
:10016000F6029091F702A091F802B091F9029093F3
:10017000D2028093D1021092AB020F900F900F9099
:100180000F90DF91CF910895F894519A8CE090E010
:100190009093C5008093C400E0ECF0E080818D7FF7
:1001A0008083E2ECF0E0808186608083E1ECF0E027
:1001B00080818860808380E091E090933403809315
:1001C000330378940895EF92FF920F931F93CF9388
:1001D00080919302E82EF12C1F928F9381E291E09F
:1001E0009F938F930E9469102091AC020F900F9003
:1001F0000F900F90C0E030E000E010E0C217C0F4B4
:1002000031111DC0F801EE0FFF1FEE0FFF1FEE0FA3
:10021000FF1FE01BF10BE255FD4F858196818E1586
:100220009F0509F44DC0CF5F0C2F10E0C21740F3BB
:10023000311105C0253018F42F5F2093AC02F8016E
:10024000EE0FFF1FEE0FFF1FEE0FFF1FE01BF10B66
:10025000E255FD4FF682E5828091F6029091F70219
:10026000A091F802B091F90280839183A283B383B5
:1002700080910F0184831F928F9383818F9382815A
:100280008F9381818F9380818F9386818F938581D6
:100290008F9385E591E09F938F930E9469108FEF74
:1002A00080930F018DB79EB70A960FB6F8949EBF44
:1002B0000FBE8DBFCF911F910F91FF90EF900895CA
:1002C0008AE391E00E947F102091AC0231E096CF4A
:1002D0006F927F928F929F92AF92BF92CF92DF9256
:1002E000EF92FF920F931F93CF93DF9383E891E0F8
:1002F0000E947F107090AC02772009F4ADC07A9410
:1003000077FC9BC02DEAE22E21E0F22E39EDA32EE0
:1003100031E0B32E47EEC42E41E0D42E57E0652ED7
:1003200088248A94982C05C07A94FFEF7F1609F4EC
:1003300084C0272D37E02302E0011124C255DD4F90
:100340008C811F928F938B818F938A818F93898168
:100350008F9388818F938E010B5F1F4FF8018181EE
:100360008F938D818F93FF92EF920E9469108091FD
:10037000F6029091F702A091F802B091F90248813B
:1003800059816A817B81841B950BA60BB70B2DB716
:100390003EB7265F3F4F0FB6F8943EBF0FBE2DBF4E
:1003A00081349105A105B10508F4BECF8091F60214
:1003B0009091F702A091F802B091F902BF93AF9328
:1003C0009F938F93BF92AF920E946910F801818131
:1003D0008F938D818F93DF92CF920E9469108091CD
:1003E000AC02282F30E097E0899FF0011124E255FC
:1003F000FD4FDE01962D01900D929A95E1F7215067
:100400003109F901EE0FFF1FEE0FFF1FEE0FFF1F67
:10041000E21BF30BE255FD4F96828582815080935B
:10042000AC02EDB7FEB73A960FB6F894FEBF0FBE1A
:10043000EDBF7A94FFEF7F127CCFDF91CF911F91B8
:100440000F91FF90EF90DF90CF90BF90AF909F9073
:100450008F907F906F90089586E991E0DF91CF9122
:100460001F910F91FF90EF90DF90CF90BF90AF90D2
:100470009F908F907F906F900C947F10EF92FF92DF
:100480000F931F93CF93DF9380918E02813009F4F5
:10049000FDC020910E014091F6025091F70260914B
:1004A000F8027091F9028091D1029091D20230E26B
:1004B000239F800D911D1124092E000CAA0BBB0B4C
:1004C00084179507A607B70708F4ACC085E192E04A
:1004D0009F938F930E94691088E392E00E947F109F
:1004E0008091AC021F928F938DE392E09F938F9344
:1004F0000E9469100E9468019091AC020F900F90C9
:100500000F900F900F900F90992309F45FC0809186
:10051000B202823308F058C081E0C82F9230E8F070
:100520002091B902223308F481E0C82F9230A9F05B
:100530002091C002223308F481E0C82F933069F083
:100540002091C702223308F481E0C82F943029F0AB
:100550009091CE02923308F4C1E01F92CF938FE4C2
:1005600092E09F938F930E9469100F900F900F90CD
:100570000F90CC23B9F18091AB02882319F081E070
:1005800080930E018CE592E00E947F10C091AB0237
:100590008091AD028C1779F0C23009F46FC0C3307E
:1005A00009F464C0C13009F458C060E080E00E94E2
:1005B0009706C093AD0281E0DF91CF911F910F911B
:1005C000FF90EF900C94B80A80E0A7CF1F921F9283
:1005D0008FE492E09F938F930E9469100F900F9089
:1005E0000F900F908091AC02882329F282E08093D3
:1005F0000E0188E792E00E947F108091AD0288236F
:1006000031F060E080E00E9497061092AD021092F7
:10061000AB0285E1DF91CF911F910F91FF90EF9099
:100620000C94B80A0E94F6069BEA899F912D11242A
:100630009695292F220F920F891B8F5F8093AB0213
:100640008091F6029091F702A091F802B091F90220
:100650009093D2028093D10239CF0E949C06609180
:100660002F0380912E030E949706A3CF0E949C0621
:1006700060911C0380E00E9497069BCF0E949C061D
:1006800060E0809130030E94970693CF81E092E072
:100690000E947F10D0919302ED2EF12C1F92DF93D8
:1006A00081E291E09F938F930E9469102091AC02A8
:1006B0000F900F900F900F90C0E030E000E010E03E
:1006C000C217C0F431111DC0F801EE0FFF1FEE0F6D
:1006D000FF1FEE0FFF1FE01BF10BE255FD4F858161
:1006E00096818E159F0509F448C0CF5F0C2F10E04E
:1006F000C21740F3311105C0253018F42F5F209345
:10070000AC02F801EE0FFF1FEE0FFF1FEE0FFF1FF1
:10071000E01BF10BE255FD4FF682E5828091F60277
:100720009091F702A091F802B091F9028083918331
:10073000A283B38380910F0184831F928F9383815F
:100740008F9382818F9381818F9380818F931F926A
:10075000DF9385E591E09F938F930E9469108FEF5F
:1007600080930F0110928E028DB79EB70A960FB636
:10077000F8949EBF0FBE8DBF8CCE8AE391E00E949D
:100780007F102091AC0231E09BCFCF939091AD02CE
:10079000891769F0C82F8230A1F0833051F0813081
:1007A000C1F060E080E00E949706C093AD02CF9157
:1007B00008950E949C0660911C0380E00E949706A9
:1007C000F4CF0E949C0660E0809130030E9497065F
:1007D000ECCF0E949C0660912F0380912E030E9413
:1007E0009706E3CFCF938091AC028823C1F190911B
:1007F000B202923390F591E0C92F8230E8F0209157
:10080000B902223308F491E0C92F8230A9F0209177
:10081000C002223308F491E0C92F833069F020919F
:10082000C702223308F491E0C92F843029F0809167
:10083000CE02823308F4C1E08C2F90E09F938F9317
:100840008FE492E09F938F930E9469100F900F9016
:100850000F900F908C2FCF91089590E0CDCF80E036
:1008600090E0C0E0EBCF089580E090E00895089517
:10087000DF92EF92FF920F931F93CF93DF93F89441
:1008800014B817B81AB815B818B81BB8529A5A9AAB
:1008900014BC85E085BD8FEF87BD82E080936E003C
:1008A00010928000109281002FE83BE03093890085
:1008B0002093880080936F005398239891EA909337
:1008C000B0008093B1001092B4001092B3008BE09E
:1008D00080BF83E080937F0086E080937C0083E884
:1008E00080937A0080917A00806480937A0080916E
:1008F0007A0086FDFCCF10927C0083EA80937A0018
:1009000081E080937B0081E090E00E942D138F3F77
:1009100011F0809366001092FA02C1E0C093D302F6
:10092000C09317031092F10210922B0380E990E01C
:100930000E942D138093F0028091F002887311F0D1
:10094000C093F00210921B0310921A038FEF90E0F5
:1009500090931903809318031092F6021092F702F5
:100960001092F8021092F90281E08093920282E4E0
:100970009FE090932A038093290380EB90E00E94EC
:100980002D13C82F81EB90E00E942D132C2F30E007
:10099000382B30932D0320932C0385E090E00E94A8
:1009A0002D138093300389E090E00E942D138093F3
:1009B0001C038CE090E00E942D1380932E0384E1B1
:1009C00090E00E942D1380932F035BEFE52E52E001
:1009D000F52E04ED12E0C0E2D0E0CE010E942D130E
:1009E000D82ECE0101960E942D132D2D30E0322FEE
:1009F0002227282BF701219331937F01CE01C09646
:100A00000E942D13D82ECE01C1960E942D132D2D9C
:100A100030E0322F2227282BF801219331938F01C8
:100A20002296CC33D105C9F67894DF91CF911F91EE
:100A30000F91FF90EF90DF9008951F920F920FB6E5
:100A40000F9211248F930FB6F894A89580916000AF
:100A5000886180936000109260000FBE8F910F90AC
:100A60000FBE0F901F9018953C01EB0110E09924E8
:100A70009A9484E0C82E96E0A92E23E8B22E38E19D
:100A8000D32E49E2E42E90919202E92FF0E0E73074
:100A9000F105C8F7EC5CFF4F0C94D40D112309F459
:100AA000FCC0C092920211E0FE010995ECCF80914A
:100AB000FA028111EBC0F894A0927C00B0927A0007
:100AC00080917A00806480937A0090917A0096FDFC
:100AD000FCCF809178009091790078948B3AE2E095
:100AE0009E070CF0EDC08938F2E09F070CF0EFC0D4
:100AF000873692400CF4CAC0559A549A3B9A3A9A57
:100B00003D983C98C0CFF89480B7877F80BF809194
:100B10007A008F7780937A0014B817B81AB815B88E
:100B200018B81BB80FB6F894A895D09260000FBE05
:100B3000E09260008091600080648093600093B7D1
:100B4000917F946093BFF89483B7816083BF78945A
:100B5000889583B78E7F83BF78941092FA02529A59
:100B60005A9A80917A00806880937A0087E592E0B3
:100B70000197F1F700C0000080B7886180BF559AE7
:100B8000549A3B9A3A9A3D9A3C9AEFE1FEE43197A7
:100B9000F1F700C000008091FA02811181C05598E0
:100BA00054983B983A983D983C986DCF809190022C
:100BB000811141C01092B3001092B40010929102C2
:100BC00062CF4899ECCF559A54983B983A983D9803
:100BD0003C988FEC97E00197F1F700C00000559822
:100BE00054983B983A983D983C989FEFE1EEF4E09A
:100BF0009150E040F040E1F700C0000044CF55982C
:100C000054983B9A3A9A3D983C98EFECF7E031972C
:100C1000F1F700C00000559854983B983A983D98D9
:100C20003C98FFEF21EE84E0F15020408040E1F756
:100C300000C0000028CF90919002809191029817F7
:100C400009F421CF809190028093910280919002CB
:100C5000813009F450C0809190021092B3009092BC
:100C6000B4008230D9F19092B3009092B4008FE238
:100C700095E70197F1F700C0000080912F03909154
:100C80002E039093B3008093B400FDCE559A549AEE
:100C90003B983A983D983C98F6CEF301099501CFE0
:100CA000559A549A3B983A983D983C98FFEF20E724
:100CB00082E0F15020408040E1F700C000006FCF9B
:100CC000559854983B9A3A9A3D983C98DCCE559862
:100CD00054983B983A983D9A3C9AD5CEEFE2F5E786
:100CE0003197F1F700C0000080911C031092B3000F
:100CF0008093B400C8CE9092B3001092B4008FE2FB
:100D000095E70197F1F700C00000809130038093D0
:100D1000B3001092B400B7CE07C0EFECF7E0319704
:100D2000F1F700C0000001970097B9F7089580938C
:100D3000B3006093B40008958FEF8093B300809365
:100D4000B4008FE090E0EFECF7E03197F1F700C0EE
:100D500000000197C1F708958091FA0281111EC029
:100D6000F89487E080937C0083E880937A008091F8
:100D70007A00806480937A0080917A0086FDFCCFAF
:100D8000809178009091790010927C0023EA209362
:100D90007A0021E020937B00789408958FEF9FEFF5
:100DA00008958091FA0281111EC0F89488EC809316
:100DB0007C0087E880937A0080917A008064809339
:100DC0007A0080917A0086FDFCCF80917800909126
:100DD000790010927C0023EA20937A0021E020938E
:100DE0007B00789408958FEF9FEF08950F931F93E2
:100DF000CF93DF93E0E0F0E080E003EA11E0D6E09B
:100E0000C3E8A1E0B0E060E870E0F894D0937C0023
:100E1000C0937A0090917A00906490937A009091B8
:100E20007A0096FDFCCF20917800309179002170F6
:100E300090917A00906490937A0090917A0096FD58
:100E4000FCCF409178005091790010927C00009383
:100E50007A0010937B0078944170241303C0615092
:100E6000710999F6222339F09D010E2E01C0220F3F
:100E70000A94EAF7822B3196E830F10509F0C3CFE6
:100E8000DF91CF911F910F91089580911001982FBC
:100E9000990F990F990F892790918F0221E0290FBF
:100EA00020938F02282F22952695277082279695CA
:100EB00096958927809310010895809310010895D5
:100EC0008091FA02811116C0F89486E080937C002C
:100ED00083E880937A0080917A00806480937A001E
:100EE00080917A0086FDFCCF809178009091790006
:100EF000789408958FEF9FEF08952F923F924F922D
:100F00005F926F927F928F929F92AF92BF92CF9299
:100F1000DF92EF92FF920F931F93CF93DF9300D056
:100F200000D000D0CDB7DEB71C01DC0112960D90C9
:100F3000BC91A02DBE83AD83A438E3E0BE070CF0C6
:100F4000C9C08091D4029091D5028A179B0708F4FA
:100F500037C10091D6021091D7020A171B0708F477
:100F60002FC20091D8021091D9020A171B0708F46A
:100F70002FC20091DA021091DB020A171B0708F456
:100F80002FC20091DC021091DD020A171B0708F442
:100F90002FC20091DE021091DF020A171B0708F42E
:100FA000EFC10091E0021091E1020A171B0708F45B
:100FB00027C20091E2021091E3020A171B0708F40E
:100FC00027C20091E4021091E5020A171B0708F4FA
:100FD00027C20091E6021091E7020A171B0708F4E6
:100FE00027C20091E8021091E9020A171B0708F4D2
:100FF00027C20091EA021091EB020A171B0708F4BE
:1010000023C20091EC021091ED020A171B0708F4AD
:1010100023C20091EE021091EF020A171B0708F499
:1010200023C280E090E0A0EDB0E489839A83AB8393
:10103000BC834CE0E42EF12CF701EE0FFF1FEC52C5
:10104000FD4F80819181B801681B790B80E090E0B1
:101050000E94120F9B01AC010E94FE0D6B017C01EE
:10106000AD81BE81BD01BB0F880B990B0E94140F8F
:101070004B015C01B80180E090E00E94120F2B014F
:101080003C0129813A814B815C81C701B6010E94F4
:10109000A00F9B01AC01C301B2010E94FD0D9B0199
:1010A000AC01C501B4010E94FD0D20E030E040E23A
:1010B00051E40E94A00F0E94DC0E8B01C701B60113
:1010C0000E94DC0EAB01BC01C801BA010E94C00D38
:1010D000162F77C0DC01CD90DC908091FB029091BF
:1010E000FC028C159D0508F48CC01FEFE090FD02FA
:1010F000F090FE02EC14FD0408F45EC1E090FF02E3
:10110000F0900003EC14FD0408F45EC1E0900103CC
:10111000F0900203EC14FD0408F45EC1E0900303B8
:10112000F0900403EC14FD0408F45EC1E0900503A4
:10113000F0900603EC14FD0408F4C3C0E09007032C
:10114000F0900803EC14FD0408F456C1E090090384
:10115000F0900A03EC14FD0408F456C1E0900B0370
:10116000F0900C03EC14FD0408F456C1E0900D035C
:10117000F0900E03EC14FD0408F456C1E0900F0348
:10118000F0901003EC14FD0408F456C1E090110334
:10119000F0901203EC14FD0408F45AC1E09013031C
:1011A000F0901403EC14FD0408F45AC1E090150308
:1011B000F0901603EC14FD0408F45AC10AE531C09E
:1011C00010E0ED81FE81ED3BF240FCF481E2810F05
:1011D00026960FB6F894DEBF0FBECDBFDF91CF913C
:1011E0001F910F91FF90EF90DF90CF90BF90AF9045
:1011F0009F908F907F906F905F904F903F902F9037
:10120000089500E081E2800FE3CFD101CD90DC9022
:101210008091FB029091FC028C159D0508F066CF31
:1012200000E01F3F79F3ED81FE81BF01FF0F880BC6
:10123000990B0E94140F6B017C01612F70E080E01C
:1012400090E00E94120F4B015C01A701960160E043
:1012500070E081E694E40E94FD0D9B01AC01C501A4
:10126000B4010E94A00F4B015C01602F70E080E090
:1012700090E00E94120F2B013C0120E030E04FE291
:1012800054E4C701B6010E94FD0D9B01AC01C301EE
:10129000B2010E94A00F9B01AC01C501B4010E94E4
:1012A000FE0D20E030E048E453E40E946A0E20E0A6
:1012B00030E044E052E40E94FE0D0E94E30E862FCF
:1012C00087CF05E085E090E0880F991FFC01E7508B
:1012D000FD4F80819181B701681B790B80E090E020
:1012E0000E94120F9B01AC010E94FE0D4B015C019C
:1012F000B601DD0C880B990B0E94140F2B013C01E9
:10130000B70180E090E00E94120F6B017C01602F1A
:1013100070E080E090E00E94120F20E030E040E0BA
:101320005FE30E94A00F20E030E0A9010E94FE0DC3
:10133000A50194010E94A00F9B01AC01C701B60159
:101340000E94FD0D9B01AC01C301B2010E94FD0D85
:1013500020E030E040E251E40E94A00F0E94DC0E49
:101360007B01C501B4010E94DC0EAB01BC01C701C9
:10137000BA010E94C00D062F6F3F09F052CF26CF51
:1013800065E085E090E07C01F1E0EF1AF10870E0A3
:1013900080E090E00E94120F20E030E040E05FE348
:1013A0000E94A00F20E030E0A9010E94FE0D698399
:1013B0007A838B839C8340CE01E081E090E084CFF0
:1013C00061E081E090E0DFCF02E082E090E07CCF5E
:1013D00062E082E090E0D7CF03E083E090E074CF5A
:1013E00063E083E090E0CFCF04E084E090E06CCF56
:1013F00064E084E090E0C7CF06E086E090E064CF50
:1014000066E086E090E0BFCF07E087E090E05CCF49
:1014100067E087E090E0B7CF08E088E090E054CF45
:1014200068E088E090E0AFCF09E089E090E04CCF41
:1014300069E089E090E0A7CF0AE08AE090E044CF3D
:101440006AE08AE090E09FCF6BE08BE090E09BCF7A
:101450000BE08BE090E038CF6CE08CE090E093CF35
:101460000CE08CE090E030CF6DE08DE090E08BCF31
:101470000DE08DE090E028CF1F920F920FB60F92F3
:1014800011242F933F934F935F936F937F938F9389
:101490009F93AF93BF93EF93FF9320911A033091E3
:1014A0001B038091180390911903820F931F90934F
:1014B0001B0380931A038FEF90E09093190380939E
:1014C00018038FEF87BD8091F6029091F702A091EB
:1014D000F802B091F9020196A11DB11D8093F602A8
:1014E0009093F702A093F802B093F9028091FA0268
:1014F00081110FC08091290390912A0320911A0332
:1015000030911B038217930720F48091920284305C
:1015100089F0FF91EF91BF91AF919F918F917F9152
:101520006F915F914F913F912F910F900FBE0F9050
:101530001F901895E0911301F091140109950097FF
:1015400041F30E94240D811109C00E94591099276E
:10155000909319038093180387BDDBCFE0911101AD
:10156000F0911201099510921B0310921A03D1CF2A
:1015700080FF11C0559A81FF11C0549A82FF11C09B
:101580003B9A83FF11C03A9A84FF11C03D9A85FDB2
:1015900011C03C980895559881FDEFCF549882FD75
:1015A000EFCF3B9883FDEFCF3A9884FDEFCF3D9886
:1015B00085FFEFCF3C9A08951F920F920FB60F92BE
:1015C00011248F939F9310928100109285001092A6
:1015D000840081E08093D302809317031092FA0273
:1015E00010927C0093EA90937A0080937B009F9105
:1015F0008F910F900FBE0F901F9018951F920F9212
:101600000FB60F9211242F933F934F935F936F93D5
:101610007F938F939F93AF93BF93CF93DF93EF937A
:10162000FF93209184003091850041E04093FA02BD
:101630008091D3028823A9F1109285001092840032
:101640004093810010922B031092D30280911703D4
:101650008823A1F080917A0086FDFCCF80917800EC
:10166000909179009093F5028093F40281E0809349
:101670007C0093EA90937A0080937B00FF91EF9136
:10168000DF91CF91BF91AF919F918F917F916F919A
:101690005F914F913F912F910F900FBE0F901F9030
:1016A0001895C901875891098437994008F052C0AC
:1016B00026583109A4EFB0E00E94DA0DAA27BB2713
:1016C00088309105A105B10508F47BC04093D30291
:1016D00080911703811152C08091F102E82FF0E050
:1016E000E35EFC4F90912B0390838F5F8093F10218
:1016F0008C3021F6109281001092850010928400A7
:10170000409317031092FA02C0912703D091280347
:101710008DE193E00E94080DC817D90709F0AECFFC
:101720008091260387FF61C098E7980F933030F0CF
:10173000539823981092B4001092B30090E0FC01EB
:10174000E058F109EB30F10508F098CFE55CFF4F68
:101750000C94D40D10928100109285001092840098
:101760004093D302409317031092FA0210927C0028
:1017700083EA80937A0040937B0080CF80917A0047
:1017800086FDFCCF80917800909179009093F302D0
:101790008093F20210927C0083EA80937A0081E0C9
:1017A00080937B0090912B039923D1F010928100BC
:1017B0001092850010928400809317031092FA0211
:1017C0005DCF21E030E0F90102C0EE0FFF1F8A95E6
:1017D000E2F7CF0190912B03892B80932B034ECFFF
:1017E000109217031092F10249CFE0911501F09188
:1017F000160162EF72E08DE193E009953FCF809191
:101800001D03823009F4DDC008F4BAC0833009F446
:10181000C6C0843009F0B1C080919002909123033A
:10182000833009F4E3C0809122031092910223E0F7
:101830002093900280932E0390932F038091920225
:10184000863009F41BCF539A239A1092B400109259
:10185000B30086E08093920211CF8091920286308D
:1018600099F0539A239A1092B4001092B3005598AD
:1018700054983B983A983D983C9810929002109258
:10188000910286E08093920281E090E09C010090BA
:101890001D0302C0220F331F0A94E2F780912C032C
:1018A00090912D0382239323892B09F086C01092F7
:1018B0009002E4CE81E080939202E0CEE0E0F0E09E
:1018C000099580916E008D7F80936E0016BCE0E0DC
:1018D000F0E7099510929202D1CE82E080939202B5
:1018E000CDCE85E080939202C9CE80919202833062
:1018F00009F4C4CE80919202843009F4BFCE539A89
:10190000239A1092B4001092B30083E08093920265
:10191000B5CE80919202863009F0B0CE60912C0352
:1019200080EB90E00E94351360912D0381EB90E0F5
:101930000E9435136091300385E090E00E943513DA
:1019400060911C0389E090E00E94351360912E03A2
:101950008CE090E00E94351360912F0384E190E0C9
:101960000E943513539823981092B4001092B3003C
:1019700081E08093920280911D0381115FCF7ECE22
:10198000882339F28130C9F780911E0390911F039B
:1019900090932D0380932C03109290024FCF80914F
:1019A0009002823071F1809121031092910292E0B5
:1019B0009093900280931C0341CF81E0809390022A
:1019C0005DCE80919002813051F080912003109281
:1019D000910291E090939002809330032FCF8091F9
:1019E0002003909130038913F2CF28CF80912F03E9
:1019F000981319CF8091220320912E03821315CFC3
:101A00001DCF8091210390911C038913CECF16CF57
:101A1000FC01AC01465F5F4F8FEF9FEF2191822762
:101A2000082E8295807F8025092E982F82958F70B1
:101A30000826869598278927880F880F880F802584
:101A4000E417F50759F708950FB6F894A4B120915B
:101A5000F0022A2B24B921E03091F002203029F045
:101A6000000025B1232B25B904C0000000000000B0
:101A700000C0000000000000309525B1232325B9E7
:101A80002EEA2A95F1F72BEE30B735FF0AC0A4B93C
:101A90003091F002309525B1232325B90FBE80E0A7
:101AA000089500002A9581F721E03091F00220305E
:101AB00029F0000025B1232B25B904C00000000047
:101AC000000000C0000000000000309525B1232375
:101AD00025B9000024E52A95F1F7FC018CE061911D
:101AE00070E0660F771F616072609AE041E050E03D
:101AF0009A0126233723232B3091F002203029F03E
:101B0000000025B1232B25B904C00000000000000F
:101B100000C0000000000000309525B1232325B946
:101B2000000021E52A95F1F7440F551F9A9501F71A
:101B30008A95A9F620B7206120BFA4B93091F002A0
:101B4000309525B1232325B90FBE81E008950E9469
:101B5000C4000E9438048DE790E0909316018093B2
:101B600015018AE790E090931401809313016EE3CE
:101B700072E08EE890E00E94340580E090E00895E5
:101B800097FB072E16F4009407D077FD09D00E942A
:101B9000E90D07FC05D03EF4909581959F4F08957F
:101BA000709561957F4F0895EE0FFF1F0590F4919A
:101BB000E02D0994A29FB001B39FC001A39F700DB7
:101BC000811D1124911DB29F700D811D1124911D45
:101BD0000895AA1BBB1B51E107C0AA1FBB1FA61774
:101BE000B70710F0A61BB70B881F991F5A95A9F7C6
:101BF00080959095BC01CD0108955058BB27AA2728
:101C00000E94150E0C94660F0E94580F38F00E9427
:101C10005F0F20F039F49F3F19F426F40C94550F10
:101C20000EF4E095E7FB0C944F0FE92F0E94770F1D
:101C300058F3BA17620773078407950720F079F401
:101C4000A6F50C94990F0EF4E0950B2EBA2FA02D4B
:101C50000B01B90190010C01CA01A0011124FF2759
:101C6000591B99F0593F50F4503E68F11A16F04054
:101C7000A22F232F342F4427585FF3CF4695379553
:101C80002795A795F0405395C9F77EF41F16BA0B18
:101C9000620B730B840BBAF09150A1F0FF0FBB1FC6
:101CA000661F771F881FC2F70EC0BA0F621F731F0F
:101CB000841F48F4879577956795B795F7959E3F6C
:101CC00008F0B0CF9395880F08F09927EE0F9795FD
:101CD000879508950E947E0E0C94660F0E945F0FF8
:101CE00058F00E94580F40F029F45F3F29F00C94FF
:101CF0004F0F51110C949A0F0C94550F0E94770FAF
:101D000068F39923B1F3552391F3951B550BBB272A
:101D1000AA2762177307840738F09F5F5F4F220F6F
:101D2000331F441FAA1FA9F335D00E2E3AF0E0E866
:101D300032D091505040E695001CCAF72BD0FE2FB0
:101D400029D0660F771F881FBB1F26173707480744
:101D5000AB07B0E809F0BB0B802DBF01FF279358FC
:101D60005F4F3AF09E3F510578F00C944F0F0C9462
:101D70009A0F5F3FE4F3983ED4F386957795679585
:101D8000B795F7959F5FC9F7880F911D9695879531
:101D900097F90895E1E0660F771F881FBB1F621750
:101DA00073078407BA0720F0621B730B840BBA0B0E
:101DB000EE1F88F7E09508950E94E30E6894B11134
:101DC0000C949A0F08950E947F0F88F09F5798F007
:101DD000B92F9927B751B0F0E1F0660F771F881F30
:101DE000991F1AF0BA95C9F714C0B13091F00E944A
:101DF000990FB1E008950C94990F672F782F8827D9
:101E0000B85F39F0B93FCCF3869577956795B39570
:101E1000D9F73EF490958095709561957F4F8F4FDF
:101E20009F4F0895E89409C097FB3EF490958095E4
:101E3000709561957F4F8F4F9F4F9923A9F0F92F90
:101E400096E9BB279395F695879577956795B7950E
:101E5000F111F8CFFAF4BB0F11F460FF1BC06F5FF4
:101E60007F4F8F4F9F4F16C0882311F096E911C006
:101E7000772321F09EE8872F762F05C0662371F027
:101E800096E8862F70E060E02AF09A95660F771F3B
:101E9000881FDAF7880F9695879597F9089597F92F
:101EA0009F6780E870E060E008959FEF80EC089500
:101EB00000240A9416161706180609060895002429
:101EC0000A9412161306140605060895092E0394A3
:101ED000000C11F4882352F0BB0F40F4BF2B11F417
:101EE00060FF04C06F5F7F4F8F4F9F4F089557FD76
:101EF0009058440F551F59F05F3F71F04795880F78
:101F000097FB991F61F09F3F79F08795089512160E
:101F100013061406551FF2CF4695F1DF08C01616BA
:101F200017061806991FF1CF86957105610508946B
:101F30000895E894BB2766277727CB0197F9089582
:101F40000E94B30F0C94660F0E94580F38F00E9445
:101F50005F0F20F0952311F00C944F0F0C94550F48
:101F600011240C949A0F0E94770F70F3959FC1F380
:101F7000950F50E0551F629FF001729FBB27F00D37
:101F8000B11D639FAA27F00DB11DAA1F649F66278C
:101F9000B00DA11D661F829F2227B00DA11D621FDB
:101FA000739FB00DA11D621F839FA00D611D221F95
:101FB000749F3327A00D611D231F849F600D211D79
:101FC000822F762F6A2F11249F5750409AF0F1F0FC
:101FD00088234AF0EE0FFF1FBB1F661F771F881F65
:101FE00091505040A9F79E3F510580F00C944F0F3F
:101FF0000C949A0F5F3FE4F3983ED4F3869577955F
:102000006795B795F795E7959F5FC1F7FE2B880F0A
:10201000911D9695879597F908958F929F92AF920B
:10202000BF92CF92DF92EF92FF92CF93DF93EC01BA
:10203000688179818A819B8161157105810591058E
:1020400021F464E279ED8BE597E02DE133EF41E097
:1020500050E00E94431349015A019B01AC01A7EAD9
:10206000B1E40E9462136B017C01ACEEB4EFA501F8
:1020700094010E947013DC01CB018C0D9D1DAE1DDF
:10208000BF1DB7FF03C00197A109B048888399839A
:10209000AA83BB839F77DF91CF91FF90EF90DF9072
:1020A000CF90BF90AF909F908F9008950E940D1099
:1020B000089587E191E00E940D100895A0E0B0E03E
:1020C0008093170190931801A0931901B0931A01FE
:1020D0000895A0E0B0E0EFE6F0E10C948513AE01C6
:1020E0004B5F5F4FFA0161917191AF0180913303B2
:1020F000909134030E94AF10E2E00C94A1130F936F
:102100001F93CF93DF93E0913303F0913403238146
:1021100021FF1BC08C01D0E0C0E0F80181918F014C
:102120006091330370913403DB011896ED91FC91BB
:102130001997882331F00995892B79F3DFEFCFEFD9
:10214000ECCF8AE00995892B19F08FEF9FEF02C041
:102150008D2F9C2FDF91CF911F910F910895ACE0AF
:10216000B0E0E5EBF0E10C9475137C016B018A01A2
:10217000FC0117821682838181FFBDC1CE010196C9
:102180004C01F7019381F60193FD859193FF8191B5
:102190006F01882309F4ABC1853239F493FD859131
:1021A00093FF81916F01853229F4B70190E00E947D
:1021B0009712E7CF512C312C20E02032A0F48B3243
:1021C00069F030F4803259F0833269F420612CC018
:1021D0008D3239F0803339F4216026C022602460CA
:1021E00023C0286021C027FD27C030ED380F3A30CA
:1021F00078F426FF06C0FAE05F9E300D1124532EBE
:1022000013C08AE0389E300D1124332E20620CC09A
:102210008E3221F426FD6BC1206406C08C3611F489
:10222000206802C0883641F4F60193FD859193FF42
:1022300081916F018111C1CF982F9F7D955493306B
:1022400028F40C5F1F4FFFE3F9830DC0833631F094
:10225000833771F0833509F05BC022C0F8018081BB
:1022600089830E5F1F4F44244394512C540115C0A1
:102270003801F2E06F0E711CF801A080B18026FFDA
:1022800003C0652D70E002C06FEF7FEFC5012C87A2
:102290000E948C122C0183012C852F77222E17C0CF
:1022A0003801F2E06F0E711CF801A080B18026FFAA
:1022B00003C0652D70E002C06FEF7FEFC5012C8772
:1022C0000E9481122C012C852068222E830123FC80
:1022D0001BC0832D90E048165906B0F4B70180E288
:1022E00090E00E9497123A94F4CFF50127FC859173
:1022F00027FE81915F01B70190E00E949712311093
:102300003A94F1E04F1A51084114510471F7E5C0B5
:10231000843611F0893639F5F80127FF07C060814E
:102320007181828193810C5F1F4F08C06081718130
:10233000072E000C880B990B0E5F1F4F2F76722E05
:1023400097FF09C090958095709561957F4F8F4F4D
:102350009F4F2068722E2AE030E0A4010E94CF1225
:10236000A82EA81844C0853729F42F7EB22E2AE063
:1023700030E025C0F22FF97FBF2E8F36C1F018F460
:10238000883579F0B4C0803719F0883721F0AFC0B4
:102390002F2F2061B22EB4FE0DC08B2D8460B82E7D
:1023A00009C024FF0AC09F2F9660B92E06C028E0FE
:1023B00030E005C020E130E002C020E132E0F80169
:1023C000B7FE07C060817181828193810C5F1F4FCE
:1023D00006C06081718180E090E00E5F1F4FA40114
:1023E0000E94CF12A82EA818FB2DFF777F2E76FE15
:1023F0000BC0372D3E7FA51450F474FE0AC072FC4A
:1024000008C0372D3E7E05C0BA2C372D03C0BA2C2C
:1024100001C0B52C34FF0DC0FE01EA0DF11D808115
:10242000803311F4397E09C032FF06C0B394B394EF
:1024300004C0832F867809F0B39433FD13C030FFB6
:1024400006C05A2CB31418F4530C5B18B32CB314F5
:1024500068F4B70180E290E03C870E949712B39441
:102460003C85F5CFB31410F43B1801C0312C34FF78
:1024700012C0B70180E390E03C870E9497123C8530
:1024800032FF17C031FD03C088E790E002C088E545
:1024900090E0B7010CC0832F867859F031FF02C05D
:1024A0008BE201C080E237FD8DE2B70190E00E942F
:1024B0009712A51438F4B70180E390E00E949712B8
:1024C0005A94F7CFAA94F401EA0DF11D8081B70167
:1024D00090E00E949712A110F5CF332009F451CE5D
:1024E000B70180E290E00E9497123A94F6CFF7018C
:1024F0008681978102C08FEF9FEF2C96E2E10C94CA
:102500009113FC010590615070400110D8F780953F
:1025100090958E0F9F1F0895FC01615070400190AF
:102520000110D8F7809590958E0F9F1F08950F93F7
:102530001F93CF93DF93FB01238121FD03C08FEF16
:102540009FEF28C022FF16C0468157812481358124
:102550004217530744F4A081B1819D012F5F3F4F83
:10256000318320838C93268137812F5F3F4F3783C0
:10257000268310C0EB01092F182F0084F185E02D70
:102580000995892BE1F68E819F8101969F838E8329
:10259000812F902FDF91CF911F910F910895FA0114
:1025A000AA27283051F1203181F1E8946F936E7F92
:1025B0006E5F7F4F8F4F9F4FAF4FB1E03ED0B4E083
:1025C0003CD0670F781F891F9A1FA11D680F791FC4
:1025D0008A1F911DA11D6A0F711D811D911DA11DD5
:1025E00020D009F468943F912AE0269F11243019E5
:1025F000305D3193DEF6CF010895462F4770405D80
:102600004193B3E00FD0C9F7F6CF462F4F70405D2E
:102610004A3318F0495D31FD4052419302D0A9F789
:10262000EACFB4E0A6959795879577956795BA9583
:10263000C9F700976105710508959B01AC010A2E49
:1026400006945795479537952795BA95C9F7620F20
:10265000731F841F951FA01D0895F999FECF92BD89
:1026600081BDF89A992780B50895262FF999FECF54
:102670001FBA92BD81BD20BD0FB6F894FA9AF99A9F
:102680000FBE01960895052E97FB1EF400940E943C
:102690005A1357FD07D00E94AC1307FC03D04EF429
:1026A0000C945A1350954095309521953F4F4F4FBC
:1026B0005F4F089590958095709561957F4F8F4FEE
:1026C0009F4F08950E94DA0DA59F900DB49F900D25
:1026D000A49F800D911D11240895B7FF0C946213DF
:1026E0000E946213821B930B08952F923F924F9288
:1026F0005F926F927F928F929F92AF92BF92CF9292
:10270000DF92EF92FF920F931F93CF93DF93CDB79A
:10271000DEB7CA1BDB0B0FB6F894DEBF0FBECDBF12
:1027200009942A88398848885F846E847D848C84E3
:102730009B84AA84B984C884DF80EE80FD800C81EC
:102740001B81AA81B981CE0FD11D0FB6F894DEBFCF
:102750000FBECDBFED010895A1E21A2EAA1BBB1B2F
:10276000FD010DC0AA1FBB1FEE1FFF1FA217B3075D
:10277000E407F50720F0A21BB30BE40BF50B661F73
:10278000771F881F991F1A9469F760957095809537
:1027900090959B01AC01BD01CF010895F894FFCF46
:1027A000000000020000000071000000000001FFB6
:1027B000AA37043404330401000000736574757093
:1027C0000020202020202020206D65737361676524
:1027D0002066726F6D2025640A00202020202020B2
:1027E000202064656A612064616E73206C61206CD6
:1027F00069737465006D6973652061206A6F757215
:10280000203A206964203A2025642074696D65208F
:102810003A2025642064697374616365203A202539
:10282000640A00202020207570646174655F766FF3
:102830006973696E730020202020202020207061A1
:102840007320646520766F6973696E7300202020A1
:1028500020202020206C69737465203A2069643A36
:102860002025642074696D653A20256420646973AD
:1028700074203A202564200A006B696C6F746963C8
:102880006B732025640A0020202020202020206453
:10289000656C65746520766F6973696E2025640ABE
:1028A00000202020204E6F7576656175206D657360
:1028B00073616765002D2D2D2D2D2D2D2D2D2D2D89
:1028C0002D2D2D2D2D2D2D2D2D2D2D2D2D2D2D2D38
:1028D0002D2D2D2D2D2D2D006C6F6F7000202020A3
:1028E000206E625F766F6973696E7325640A007487
:1028F0006F6F436C6F73652025640A0020202020D1
:10290000746F6F636C6F7365206F72206E657720D4
:10291000766F6973696E730020202020706572667F
:0E2920006563742064697374616E6365000002
:00000001FF
