:100000000C9446000C946F000C946F000C946F00DD
:100010000C946F000C946F000C94CA040C946F0045
:100020000C946F000C946F000C946F000C94890A70
:100030000C946F000C946F000C94E9090C946F0001
:100040000C946F000C946F000C946F000C946F0074
:100050000C946F000C946F000C946F000C94AB0A1E
:100060000C946F000C946F003005AC050405FB0484
:1000700001058E0583050E0CEB0AEB0A0B0C170C21
:10008000070C1E0C1A0C220CDA0BAC0B11241FBE31
:10009000CFEFD8E0DEBFCDBF14BE0FB6F894A89561
:1000A00080916000886180936000109260000FBEB4
:1000B00011E0A0E0B1E0E6EAF6E202C005900D92A0
:1000C000A23AB107D9F722E0A2EAB1E001C01D923D
:1000D000A233B207E1F70E94540D0C9451130C9413
:1000E00000008093C6008091C00085FFFCCF80E0B7
:1000F00090E00895E0910E01F0910F0181E0838F6F
:100100000895E0910E01F0910F01828D882329F16D
:1001100086851F928F938BE191E09F938F930E942E
:100120001C1080910E0190910F010E969F938F935A
:100130008CE291E09F938F930E941C1080910E019E
:1001400090910F010E962DB73EB7285F3F4F0FB627
:10015000F8943EBF0FBE2DBF089580E090E0089553
:10016000CF93DF93CB01C0910E01D0910F0121E01D
:100170002E830E942A078987E0910E01F0910F01DA
:1001800081851F928F9382E491E09F938F930E94C9
:100190001C100F900F900F900F90DF91CF9108954A
:1001A000CF93DF93C0910E01D0910F011F8A8091F0
:1001B00027028E87CE010E960E94B50C998F888FEC
:1001C0001092AF01809127028093A60186EA91E008
:1001D0000E94B50C9093B1018093B001E0910E01A3
:1001E000F0910F0116828FEF808781871082128E27
:1001F000138E8181882349F060E080E00E944406EC
:10020000E0910E01F0910F011182DF91CF910895DD
:10021000F894519A8CE090E09093C5008093C400CC
:10022000E0ECF0E080818D7F8083E2ECF0E0808183
:1002300086608083E1ECF0E080818860808380E0EC
:1002400091E090932F0280932E0278940895CF939B
:1002500081E00E94650AE0910E01F0910F0180910A
:10026000F1019091F201A091F301B091F401828328
:100270009383A483B58386811F928F938DE591E04C
:100280009F938F930E941C10E0910E01F0910F013B
:100290000F900F900F900F9086818130C1F11082E6
:1002A0000E94A306C82FC370D9F0C330C9F0E091F3
:1002B0000E01F0910F018181C13009F44BC08230F1
:1002C00069F00E9449066091170280E00E9444068E
:1002D000E0910E01F0910F0182E08183CF910895AA
:1002E000E0910E01F0910F0181818330B9F30E94FA
:1002F000490660912A02809129020E944406E091F9
:100300000E01F0910F0183E08183CF910895168251
:100310004091F1015091F2016091F3017091F4016B
:10032000428753876487758780838181833071F02A
:100330000E94490660912A02809129020E94440687
:10034000E0910E01F0910F0183E081838185808728
:10035000CF910895813011F20E94490660E08091AA
:100360002B020E944406E0910E01F0910F01C1831F
:10037000B5CFE0910E01F0910F018681813011F02F
:1003800080E0089516828091F1019091F201A09190
:10039000F301B091F40182879387A487B58781E048
:1003A000089584E00E94650AE0910E01F0910F012A
:1003B00081851F928F938FE691E09F938F930E9488
:1003C0001C10E0910E01F0910F0181850F900F90AC
:1003D0000F900F90833380F482E0808381818823A3
:1003E00009F44EC060E080E00E944406E0910E01F6
:1003F000F0910F01118208959085891738F0868158
:10040000813071F110828185808708958AE891E0BA
:100410009F938F930E941C100F900F90E0910E01FC
:10042000F0910F018181813069F0823071F10E9479
:10043000A306E0910E01F0910F0180FF22C081819F
:100440008230E9F20E9449066091170280E00E9422
:100450004406E0910E01F0910F0182E08183CFCF3D
:1004600016828091F1019091F201A091F301B09177
:10047000F40182879387A487B58781858087089553
:1004800008958181813009F4BACF0E94490660E065
:1004900080912B020E944406E0910E01F0910F0121
:1004A00081E08183ACCFE0910E01F0910F0140918A
:1004B000F1015091F2016091F3017091F401828198
:1004C0009381A481B5818096A11DB11D84179507E4
:1004D000A607B707C0F58091F1019091F201A091B4
:1004E000F301B091F40182839383A483B583808167
:1004F000813059F160F1823039F58181882349F0EA
:1005000060E080E00E944406E0910E01F0910F014E
:10051000118281E0828F86818130D9F01082128E23
:10052000168280E090E0238D213019F19F938F9304
:1005300082E991E09F938F930E941C100F900F907F
:100540000F900F900895089508950C94D1010C9484
:10055000270116828091F1019091F201A091F3019F
:10056000B091F40182879387A487B58781E090E0FA
:10057000DACF138E81E10E94650A84E690E00E9442
:10058000390680E00E94650AE0910E01F0910F01AA
:10059000828D90E0CBCFE0910E01F0910F0181812F
:1005A000882349F060E080E00E944406E0910E015B
:1005B000F0910F01118281E0828F86818130A9F054
:1005C0001082128E168280E090E0238D2130F9F0A7
:1005D0009F938F9382E991E09F938F930E941C10C9
:1005E0000F900F900F900F90089516828091F10157
:1005F0009091F201A091F301B091F4018287938769
:10060000A487B58781E090E0238D213009F7138E10
:1006100081E10E94650A84E690E00E94390680E04C
:100620000E94650AE0910E01F0910F01828D90E029
:10063000CFCFE0910E01F0910F0181851F928F9332
:100640008FE691E09F938F930E941C10E0910E0122
:10065000F0910F0181E00F900F900F900F90918516
:10066000933308F080E00895CF93E0910E01F0916C
:100670000F019181981781F0C82F8230C1F083302B
:1006800069F08130E1F060E080E00E944406E09192
:100690000E01F0910F01C183CF9108950E94490688
:1006A00060912A02809129020E944406F0CF0E94A4
:1006B00049066091170280E00E944406E8CF0E943C
:1006C000490660E080912B020E944406E0CFCF9360
:1006D0000E94A306C82FC370E0910E01F0910F0194
:1006E0008181CC23A9F0C33099F0C13019F1823057
:1006F00069F00E9449066091170280E00E9444065A
:10070000E0910E01F0910F0182E08183CF91089575
:100710008330E1F30E94490660912A028091290208
:100720000E944406E0910E01F0910F0183E0818365
:10073000CF910895813051F30E94490660E0809185
:100740002B020E944406E0910E01F0910F01C1833B
:10075000CF9108950E94A306E0910E01F0910F0140
:1007600080FF11C08181823069F00E94490660914A
:10077000170280E00E944406E0910E01F0910F0103
:1007800082E08183089581818130E1F30E944906EE
:1007900060E080912B020E944406E0910E01F091EE
:1007A0000F0181E081830895E0910E01F0910F0126
:1007B00081E090E02681222311F080E090E008950E
:1007C000089580E090E008950895DF92EF92FF92FF
:1007D0000F931F93CF93DF93F89414B817B81AB8F8
:1007E00015B818B81BB8529A5A9A14BC85E085BD42
:1007F0008FEF87BD82E080936E0010928000109290
:1008000081002FE83BE0309389002093880080939B
:100810006F005398239891EA9093B0008093B100B1
:100820001092B4001092B3008BE080BF83E08093FD
:100830007F0086E080937C0083E880937A0080913B
:100840007A00806480937A0080917A0086FDFCCFE4
:1008500010927C0083EA80937A0081E080937B0091
:1008600081E090E00E94B0128F3F11F0809366000B
:100870001092F501C1E0C093CE01C0931202109214
:10088000EC011092260280E990E00E94B012809361
:10089000EB018091EB01887311F0C093EB01109292
:1008A0001602109215028FEF90E09093140280933D
:1008B00013021092F1011092F2011092F3011092C2
:1008C000F40181E08093A50182E49FE090932502EA
:1008D0008093240280EB90E00E94B012C82F81EB3D
:1008E00090E00E94B0122C2F30E0382B3093280279
:1008F0002093270285E090E00E94B01280932B02A3
:1009000089E090E00E94B012809317028CE090E0A2
:100910000E94B0128093290284E190E00E94B012FC
:1009200080932A0256EFE52E51E0F52E0FEC11E0F0
:10093000C0E2D0E0CE010E94B012D82ECE010196C6
:100940000E94B0122D2D30E0322F2227282BF701E4
:10095000219331937F01CE01C0960E94B012D82E10
:10096000CE01C1960E94B0122D2D30E0322F2227E9
:10097000282BF801219331938F012296CC33D10596
:10098000C9F67894DF91CF911F910F91FF90EF906E
:10099000DF9008951F920F920FB60F9211248F933C
:1009A0000FB6F894A89580916000886180936000EC
:1009B000109260000FBE8F910F900FBE0F901F908E
:1009C00018953C01EB0110E099249A9484E0C82E1C
:1009D00096E0A92E23E8B22E38E1D32E49E2E42E88
:1009E0009091A501E92FF0E0E730F105C8F7EC5C44
:1009F000FF4F0C94870D112309F4FCC0C092A50190
:100A000011E0FE010995ECCF8091F5018111EBC059
:100A1000F894A0927C00B0927A0080917A00806471
:100A200080937A0090917A0096FDFCCF80917800B7
:100A30009091790078948B3AE2E09E070CF0EDC03B
:100A40008938F2E09F070CF0EFC0873692400CF433
:100A5000CAC0559A549A3B9A3A9A3D983C98C0CF4E
:100A6000F89480B7877F80BF80917A008F778093DA
:100A70007A0014B817B81AB815B818B81BB80FB65A
:100A8000F894A895D09260000FBEE092600080912B
:100A9000600080648093600093B7917F946093BFFF
:100AA000F89483B7816083BF7894889583B78E7FED
:100AB00083BF78941092F501529A5A9A80917A00E5
:100AC000806880937A0087E592E00197F1F700C093
:100AD000000080B7886180BF559A549A3B9A3A9A31
:100AE0003D9A3C9AEFE1FEE43197F1F700C0000037
:100AF0008091F501811181C0559854983B983A989E
:100B00003D983C986DCF8091A301811141C0109216
:100B1000B3001092B4001092A40162CF4899ECCFB8
:100B2000559A54983B983A983D983C988FEC97E0AA
:100B30000197F1F700C00000559854983B983A98F7
:100B40003D983C989FEFE1EEF4E09150E040F0409A
:100B5000E1F700C0000044CF559854983B9A3A9A68
:100B60003D983C98EFECF7E03197F1F700C00000BA
:100B7000559854983B983A983D983C98FFEF21EE51
:100B800084E0F15020408040E1F700C0000028CF11
:100B90009091A3018091A401981709F421CF80912D
:100BA000A3018093A4018091A301813009F450C076
:100BB0008091A3011092B3009092B4008230D9F1D9
:100BC0009092B3009092B4008FE295E70197F1F70D
:100BD00000C0000080912A02909129029093B300F6
:100BE0008093B400FDCE559A549A3B983A983D981C
:100BF0003C98F6CEF301099501CF559A549A3B984B
:100C00003A983D983C98FFEF20E782E0F150204071
:100C10008040E1F700C000006FCF559854983B9A90
:100C20003A9A3D983C98DCCE559854983B983A981F
:100C30003D9A3C9AD5CEEFE2F5E73197F1F700C047
:100C40000000809117021092B3008093B400C8CEC8
:100C50009092B3001092B4008FE295E70197F1F7FC
:100C600000C0000080912B028093B3001092B4006A
:100C7000B7CE07C0EFECF7E03197F1F700C0000006
:100C800001970097B9F708958093B3006093B4007B
:100C900008958FEF8093B3008093B4008FE090E0CD
:100CA000EFECF7E03197F1F700C000000197C1F7D2
:100CB00008958091F50181111EC0F89487E080931A
:100CC0007C0083E880937A0080917A00806480932E
:100CD0007A0080917A0086FDFCCF80917800909117
:100CE000790010927C0023EA20937A0021E020937F
:100CF0007B00789408958FEF9FEF08958091F50120
:100D000081111EC0F89488EC80937C0087E8809362
:100D10007A0080917A00806480937A0080917A00D2
:100D200086FDFCCF809178009091790010927C0034
:100D300023EA20937A0021E020937B0078940895A1
:100D40008FEF9FEF08950F931F93CF93DF93E0E012
:100D5000F0E080E003EA11E0D6E0C3E8A1E0B0E013
:100D600060E870E0F894D0937C00C0937A00909192
:100D70007A00906490937A0090917A0096FDFCCF6F
:100D80002091780030917900217090917A009064E0
:100D900090937A0090917A0096FDFCCF4091780074
:100DA0005091790010927C0000937A0010937B00A0
:100DB00078944170241303C06150710999F622237D
:100DC00039F09D010E2E01C0220F0A94EAF7822B02
:100DD0003196E830F10509F0C3CFDF91CF911F9133
:100DE0000F91089580911001982F990F990F990FE5
:100DF00089279091A20121E0290F2093A201282F99
:100E00002295269527708227969596958927809317
:100E1000100108958093100108958091F5018111CA
:100E200016C0F89486E080937C0083E880937A0073
:100E300080917A00806480937A0080917A0086FDA8
:100E4000FCCF8091780090917900789408958FEF8D
:100E50009FEF08952F923F924F925F926F927F92F1
:100E60008F929F92AF92BF92CF92DF92EF92FF92BA
:100E70000F931F93CF93DF9300D000D000D0CDB756
:100E8000DEB71C01DC0112960D90BC91A02DBE8333
:100E9000AD83A438E3E0BE070CF0C9C08091CF0158
:100EA0009091D0018A179B0708F437C10091D101B6
:100EB0001091D2010A171B0708F42FC20091D30129
:100EC0001091D4010A171B0708F42FC20091D50115
:100ED0001091D6010A171B0708F42FC20091D70101
:100EE0001091D8010A171B0708F42FC20091D901ED
:100EF0001091DA010A171B0708F4EFC10091DB011A
:100F00001091DC010A171B0708F427C20091DD01CC
:100F10001091DE010A171B0708F427C20091DF01B8
:100F20001091E0010A171B0708F427C20091E101A4
:100F30001091E2010A171B0708F427C20091E30190
:100F40001091E4010A171B0708F427C20091E5017C
:100F50001091E6010A171B0708F423C20091E7016C
:100F60001091E8010A171B0708F423C20091E90158
:100F70001091EA010A171B0708F423C280E090E0F1
:100F8000A0EDB0E489839A83AB83BC834CE0E42E6C
:100F9000F12CF701EE0FFF1FE153FE4F808191818D
:100FA000B801681B790B80E090E00E94C50E9B01A0
:100FB000AC010E94B10D6B017C01AD81BE81BD0110
:100FC000BB0F880B990B0E94C70E4B015C01B80147
:100FD00080E090E00E94C50E2B013C0129813A81FE
:100FE0004B815C81C701B6010E94530F9B01AC018C
:100FF000C301B2010E94B00D9B01AC01C501B40157
:101000000E94B00D20E030E040E251E40E94530F16
:101010000E948F0E8B01C701B6010E948F0EAB019B
:10102000BC01C801BA010E94730D162F77C0DC0104
:10103000CD90DC908091F6019091F7018C159D0583
:1010400008F48CC01FEFE090F801F090F901EC1467
:10105000FD0408F45EC1E090FA01F090FB01EC148D
:10106000FD0408F45EC1E090FC01F090FD01EC1479
:10107000FD0408F45EC1E090FE01F090FF01EC1465
:10108000FD0408F45EC1E0900002F0900102EC144F
:10109000FD0408F4C3C0E0900202F0900302EC14D7
:1010A000FD0408F456C1E0900402F0900502EC142F
:1010B000FD0408F456C1E0900602F0900702EC141B
:1010C000FD0408F456C1E0900802F0900902EC1407
:1010D000FD0408F456C1E0900A02F0900B02EC14F3
:1010E000FD0408F456C1E0900C02F0900D02EC14DF
:1010F000FD0408F45AC1E0900E02F0900F02EC14C7
:10110000FD0408F45AC1E0901002F0901102EC14B2
:10111000FD0408F45AC10AE531C010E0ED81FE81FA
:10112000ED3BF240FCF481E2810F26960FB6F89475
:10113000DEBF0FBECDBFDF91CF911F910F91FF900A
:10114000EF90DF90CF90BF90AF909F908F907F9067
:101150006F905F904F903F902F90089500E081E254
:10116000800FE3CFD101CD90DC908091F60190917A
:10117000F7018C159D0508F066CF00E01F3F79F35D
:10118000ED81FE81BF01FF0F880B990B0E94C70EF6
:101190006B017C01612F70E080E090E00E94C50E41
:1011A0004B015C01A701960160E070E081E694E4E8
:1011B0000E94B00D9B01AC01C501B4010E94530F08
:1011C0004B015C01602F70E080E090E00E94C50E52
:1011D0002B013C0120E030E04FE254E4C701B601AE
:1011E0000E94B00D9B01AC01C301B2010E94530FDC
:1011F0009B01AC01C501B4010E94B10D20E030E0BB
:1012000048E453E40E941D0E20E030E044E052E444
:101210000E94B10D0E94960E862F87CF05E085E0D3
:1012200090E0880F991FFC01EC50FE4F8081918166
:10123000B701681B790B80E090E00E94C50E9B010E
:10124000AC010E94B10D4B015C01B601DD0C880BB5
:10125000990B0E94C70E2B013C01B70180E090E082
:101260000E94C50E6B017C01602F70E080E090E071
:101270000E94C50E20E030E040E05FE30E94530F83
:1012800020E030E0A9010E94B10DA50194010E9467
:10129000530F9B01AC01C701B6010E94B00D9B0129
:1012A000AC01C301B2010E94B00D20E030E040E289
:1012B00051E40E94530F0E948F0E7B01C501B401BF
:1012C0000E948F0EAB01BC01C701BA010E94730DD1
:1012D000062F6F3F09F052CF26CF65E085E090E002
:1012E0007C01F1E0EF1AF10870E080E090E00E94EC
:1012F000C50E20E030E040E05FE30E94530F20E0A5
:1013000030E0A9010E94B10D69837A838B839C83AD
:1013100040CE01E081E090E084CF61E081E090E0A8
:10132000DFCF02E082E090E07CCF62E082E090E0FC
:10133000D7CF03E083E090E074CF63E083E090E0F8
:10134000CFCF04E084E090E06CCF64E084E090E0F4
:10135000C7CF06E086E090E064CF66E086E090E0EC
:10136000BFCF07E087E090E05CCF67E087E090E0E8
:10137000B7CF08E088E090E054CF68E088E090E0E4
:10138000AFCF09E089E090E04CCF69E089E090E0E0
:10139000A7CF0AE08AE090E044CF6AE08AE090E0DC
:1013A0009FCF6BE08BE090E09BCF0BE08BE090E079
:1013B00038CF6CE08CE090E093CF0CE08CE090E0D4
:1013C00030CF6DE08DE090E08BCF0DE08DE090E0D0
:1013D00028CF1F920F920FB60F9211242F933F9395
:1013E0004F935F936F937F938F939F93AF93BF932D
:1013F000EF93FF9320911502309116028091130212
:1014000090911402820F931F9093160280931502FD
:101410008FEF90E090931402809313028FEF87BDBB
:101420008091F1019091F201A091F301B091F4014A
:101430000196A11DB11D8093F1019093F201A0933B
:10144000F301B093F4018091F50181110FC08091F7
:1014500024029091250220911502309116028217E4
:10146000930720F48091A501843089F0FF91EF91DA
:10147000BF91AF919F918F917F916F915F914F91AC
:101480003F912F910F900FBE0F901F901895E091F4
:101490001301F09114010995009741F30E94D10CBA
:1014A000811109C00E940C10992790931402809317
:1014B000130287BDDBCFE0911101F0911201099574
:1014C0001092160210921502D1CF80FF11C0559ACA
:1014D00081FF11C0549A82FF11C03B9A83FF11C053
:1014E0003A9A84FF11C03D9A85FD11C03C98089539
:1014F000559881FDEFCF549882FDEFCF3B9883FD47
:10150000EFCF3A9884FDEFCF3D9885FFEFCF3C9A1F
:1015100008951F920F920FB60F9211248F939F93ED
:1015200010928100109285001092840081E08093D7
:10153000CE01809312021092F50110927C0093EA82
:1015400090937A0080937B009F918F910F900FBEB4
:101550000F901F9018951F920F920FB60F921124A3
:101560002F933F934F935F936F937F938F939F93AB
:10157000AF93BF93CF93DF93EF93FF9320918400BA
:101580003091850041E04093F5018091CE018823A0
:10159000A9F110928500109284004093810010926E
:1015A00026021092CE01809112028823A1F0809130
:1015B0007A0086FDFCCF809178009091790090931D
:1015C000F0018093EF0181E080937C0093EA909397
:1015D0007A0080937B00FF91EF91DF91CF91BF91D3
:1015E000AF919F918F917F916F915F914F913F91BB
:1015F0002F910F900FBE0F901F901895C90187581B
:1016000091098437994008F052C026583109A4EF57
:10161000B0E00E948D0DAA27BB2788309105A10557
:10162000B10508F47BC04093CE0180911202811174
:1016300052C08091EC01E82FF0E0E85EFD4F909100
:10164000260290838F5F8093EC018C3021F61092FC
:101650008100109285001092840040931202109233
:10166000F501C0912202D091230288E192E00E940C
:10167000B50CC817D90709F0AECF8091210287FFBA
:1016800061C098E7980F933030F0539823981092E8
:10169000B4001092B30090E0FC01E058F109EB3087
:1016A000F10508F098CFE55CFF4F0C94870D109280
:1016B000810010928500109284004093CE014093E7
:1016C00012021092F50110927C0083EA80937A0056
:1016D00040937B0080CF80917A0086FDFCCF809183
:1016E0007800909179009093EE018093ED01109233
:1016F0007C0083EA80937A0081E080937B00909164
:1017000026029923D1F01092810010928500109248
:101710008400809312021092F5015DCF21E030E049
:10172000F90102C0EE0FFF1F8A95E2F7CF019091F9
:101730002602892B809326024ECF1092120210921D
:10174000EC0149CFE0911501F09116016DEE71E0C9
:1017500088E192E009953FCF80911802823009F428
:10176000DDC008F4BAC0833009F4C6C0843009F083
:10177000B1C08091A30190911E02833009F4E3C0AF
:1017800080911D021092A40123E02093A301809375
:10179000290290932A028091A501863009F41BCF7B
:1017A000539A239A1092B4001092B30086E080936B
:1017B000A50111CF8091A501863099F0539A239A03
:1017C0001092B4001092B300559854983B983A98F0
:1017D0003D983C981092A3011092A40186E080935A
:1017E000A50181E090E09C010090180202C0220F48
:1017F000331F0A94E2F780912702909128028223F6
:101800009323892B09F086C01092A301E4CE81E0D6
:101810008093A501E0CEE0E0F0E0099580916E00B4
:101820008D7F80936E0016BCE0E0F0E70995109282
:10183000A501D1CE82E08093A501CDCE85E0809335
:10184000A501C9CE8091A501833009F4C4CE809151
:10185000A501843009F4BFCE539A239A1092B400A4
:101860001092B30083E08093A501B5CE8091A501CD
:10187000863009F0B0CE6091270280EB90E00E94A4
:10188000B8126091280281EB90E00E94B81260913A
:101890002B0285E090E00E94B8126091170289E067
:1018A00090E00E94B812609129028CE090E00E94C2
:1018B000B81260912A0284E190E00E94B812539815
:1018C00023981092B4001092B30081E08093A50198
:1018D0008091180281115FCF7ECE882339F281304A
:1018E000C9F78091190290911A029093280280936F
:1018F00027021092A3014FCF8091A301823071F192
:1019000080911C021092A40192E09093A301809315
:10191000170241CF81E08093A3015DCE8091A301A6
:10192000813051F080911B021092A40191E09093BC
:10193000A30180932B022FCF80911B0290912B0249
:101940008913F2CF28CF80912A02981319CF809162
:101950001D0220912902821315CF1DCF80911C02F8
:10196000909117028913CECF16CFFC01AC01465FD0
:101970005F4F8FEF9FEF21918227082E8295807F06
:101980008025092E982F82958F7008268695982796
:101990008927880F880F880F8025E417F50759F7E6
:1019A00008950FB6F894A4B12091EB012A2B24B925
:1019B00021E03091EB01203029F0000025B1232BEC
:1019C00025B904C000000000000000C000000000B5
:1019D0000000309525B1232325B92EEA2A95F1F789
:1019E0002BEE30B735FF0AC0A4B93091EB0130952A
:1019F00025B1232325B90FBE80E0089500002A9564
:101A000081F721E03091EB01203029F0000025B171
:101A1000232B25B904C000000000000000C0000016
:101A200000000000309525B1232325B9000024E5EE
:101A30002A95F1F7FC018CE0619170E0660F771F49
:101A4000616072609AE041E050E09A0126233723FA
:101A5000232B3091EB01203029F0000025B1232BFE
:101A600025B904C000000000000000C00000000014
:101A70000000309525B1232325B9000021E52A95E2
:101A8000F1F7440F551F9A9501F78A95A9F620B7EB
:101A9000206120BFA4B93091EB01309525B12323FB
:101AA00025B90FBE81E008950E94E5030E94080158
:101AB00080EB90E0909316018093150181E890E00F
:101AC00090931401809313018AE790E090931201A0
:101AD0008093110163E572E080ED90E00E94E104E3
:101AE00080E090E0089597FB072E16F4009407D04D
:101AF00077FD09D00E949C0D07FC05D03EF490951F
:101B000081959F4F0895709561957F4F0895EE0FD1
:101B1000FF1F0590F491E02D0994A29FB001B39F9F
:101B2000C001A39F700D811D1124911DB29F700DE6
:101B3000811D1124911D0895AA1BBB1B51E107C0F3
:101B4000AA1FBB1FA617B70710F0A61BB70B881F4D
:101B5000991F5A95A9F780959095BC01CD010895DC
:101B60005058BB27AA270E94C80D0C94190F0E9439
:101B70000B0F38F00E94120F20F039F49F3F19F438
:101B800026F40C94080F0EF4E095E7FB0C94020F7A
:101B9000E92F0E942A0F58F3BA17620773078407C8
:101BA000950720F079F4A6F50C944C0F0EF4E0950F
:101BB0000B2EBA2FA02D0B01B90190010C01CA0107
:101BC000A0011124FF27591B99F0593F50F4503EB2
:101BD00068F11A16F040A22F232F342F4427585FA4
:101BE000F3CF469537952795A795F0405395C9F7BC
:101BF0007EF41F16BA0B620B730B840BBAF0915074
:101C0000A1F0FF0FBB1F661F771F881FC2F70EC012
:101C1000BA0F621F731F841F48F4879577956795E5
:101C2000B795F7959E3F08F0B0CF9395880F08F0D1
:101C30009927EE0F9795879508950E94310E0C9481
:101C4000190F0E94120F58F00E940B0F40F029F458
:101C50005F3F29F00C94020F51110C944D0F0C941E
:101C6000080F0E942A0F68F39923B1F3552391F3CB
:101C7000951B550BBB27AA2762177307840738F0FB
:101C80009F5F5F4F220F331F441FAA1FA9F335D058
:101C90000E2E3AF0E0E832D091505040E695001C0C
:101CA000CAF72BD0FE2F29D0660F771F881FBB1FC6
:101CB000261737074807AB07B0E809F0BB0B802DA4
:101CC000BF01FF2793585F4F3AF09E3F510578F0D0
:101CD0000C94020F0C944D0F5F3FE4F3983ED4F345
:101CE000869577956795B795F7959F5FC9F7880FA4
:101CF000911D9695879597F90895E1E0660F771FF6
:101D0000881FBB1F621773078407BA0720F0621B86
:101D1000730B840BBA0BEE1F88F7E09508950E94B1
:101D2000960E6894B1110C944D0F08950E94320FD5
:101D300088F09F5798F0B92F9927B751B0F0E1F08C
:101D4000660F771F881F991F1AF0BA95C9F714C03C
:101D5000B13091F00E944C0FB1E008950C944C0FFB
:101D6000672F782F8827B85F39F0B93FCCF3869575
:101D700077956795B395D9F73EF4909580957095D2
:101D800061957F4F8F4F9F4F0895E89409C097FB4F
:101D90003EF490958095709561957F4F8F4F9F4F42
:101DA0009923A9F0F92F96E9BB279395F695879586
:101DB00077956795B795F111F8CFFAF4BB0F11F449
:101DC00060FF1BC06F5F7F4F8F4F9F4F16C08823F0
:101DD00011F096E911C0772321F09EE8872F762F26
:101DE00005C0662371F096E8862F70E060E02AF067
:101DF0009A95660F771F881FDAF7880F9695879553
:101E000097F9089597F99F6780E870E060E008957A
:101E10009FEF80EC089500240A9416161706180602
:101E20000906089500240A941216130614060506DE
:101E30000895092E0394000C11F4882352F0BB0F6F
:101E400040F4BF2B11F460FF04C06F5F7F4F8F4FD2
:101E50009F4F089557FD9058440F551F59F05F3F0D
:101E600071F04795880F97FB991F61F09F3F79F0BC
:101E700087950895121613061406551FF2CF46953E
:101E8000F1DF08C0161617061806991FF1CF8695C0
:101E90007105610508940895E894BB2766277727A4
:101EA000CB0197F908950E94660F0C94190F0E94B8
:101EB0000B0F38F00E94120F20F0952311F00C94B4
:101EC000020F0C94080F11240C944D0F0E942A0F3E
:101ED00070F3959FC1F3950F50E0551F629FF0017D
:101EE000729FBB27F00DB11D639FAA27F00DB11D96
:101EF000AA1F649F6627B00DA11D661F829F22271F
:101F0000B00DA11D621F739FB00DA11D621F839FA5
:101F1000A00D611D221F749F3327A00D611D231F7B
:101F2000849F600D211D822F762F6A2F11249F57C9
:101F300050409AF0F1F088234AF0EE0FFF1FBB1FCC
:101F4000661F771F881F91505040A9F79E3F51058B
:101F500080F00C94020F0C944D0F5F3FE4F3983E19
:101F6000D4F3869577956795B795F795E7959F5F35
:101F7000C1F7FE2B880F911D9695879597F90895C7
:101F80008F929F92AF92BF92CF92DF92EF92FF9289
:101F9000CF93DF93EC01688179818A819B81611500
:101FA00071058105910521F464E279ED8BE597E0F7
:101FB0002DE133EF41E050E00E94C61249015A0181
:101FC0009B01AC01A7EAB1E40E94E5126B017C0120
:101FD000ACEEB4EFA50194010E94F312DC01CB0139
:101FE0008C0D9D1DAE1DBF1DB7FF03C00197A1093C
:101FF000B04888839983AA83BB839F77DF91CF9171
:10200000FF90EF90DF90CF90BF90AF909F908F9018
:1020100008950E94C00F089587E191E00E94C00FCB
:102020000895A0E0B0E08093170190931801A09369
:102030001901B0931A010895A0E0B0E0E2E2F0E1E6
:102040000C940813AE014B5F5F4FFA0161917191DF
:10205000AF0180912E0290912F020E943210E2E097
:102060000C942413ACE0B0E0E8E3F0E10C94F81237
:102070007C016B018A01FC0117821682838181FF3A
:10208000BDC1CE0101964C01F7019381F60193FD8C
:10209000859193FF81916F01882309F4ABC185324B
:1020A00039F493FD859193FF81916F01853229F475
:1020B000B70190E00E941A12E7CF512C312C20E09A
:1020C0002032A0F48B3269F030F4803259F0833240
:1020D00069F420612CC08D3239F0803339F42160ED
:1020E00026C02260246023C0286021C027FD27C0AD
:1020F00030ED380F3A3078F426FF06C0FAE05F9EE4
:10210000300D1124532E13C08AE0389E300D112457
:10211000332E20620CC08E3221F426FD6BC1206468
:1021200006C08C3611F4206802C0883641F4F601EE
:1021300093FD859193FF81916F018111C1CF982FFC
:102140009F7D9554933028F40C5F1F4FFFE3F98374
:102150000DC0833631F0833771F0833509F05BC0F1
:1021600022C0F801808189830E5F1F4F442443946D
:10217000512C540115C03801F2E06F0E711CF801AA
:10218000A080B18026FF03C0652D70E002C06FEF14
:102190007FEFC5012C870E940F122C0183012C8533
:1021A0002F77222E17C03801F2E06F0E711CF80154
:1021B000A080B18026FF03C0652D70E002C06FEFE4
:1021C0007FEFC5012C870E9404122C012C8520680A
:1021D000222E830123FC1BC0832D90E04816590654
:1021E000B0F4B70180E290E00E941A123A94F4CF62
:1021F000F50127FC859127FE81915F01B70190E0F1
:102200000E941A1231103A94F1E04F1A5108411409
:10221000510471F7E5C0843611F0893639F5F801BB
:1022200027FF07C060817181828193810C5F1F4FFE
:1022300008C060817181072E000C880B990B0E5F1E
:102240001F4F2F76722E97FF09C09095809570953D
:1022500061957F4F8F4F9F4F2068722E2AE030E0AC
:10226000A4010E945212A82EA81844C0853729F450
:102270002F7EB22E2AE030E025C0F22FF97FBF2E4C
:102280008F36C1F018F4883579F0B4C0803719F072
:10229000883721F0AFC02F2F2061B22EB4FE0DC0C1
:1022A0008B2D8460B82E09C024FF0AC09F2F966032
:1022B000B92E06C028E030E005C020E130E002C0C1
:1022C00020E132E0F801B7FE07C0608171818281B0
:1022D00093810C5F1F4F06C06081718180E090E0A8
:1022E0000E5F1F4FA4010E945212A82EA818FB2DAA
:1022F000FF777F2E76FE0BC0372D3E7FA51450F45E
:1023000074FE0AC072FC08C0372D3E7E05C0BA2C90
:10231000372D03C0BA2C01C0B52C34FF0DC0FE010F
:10232000EA0DF11D8081803311F4397E09C032FF3E
:1023300006C0B394B39404C0832F867809F0B39495
:1023400033FD13C030FF06C05A2CB31418F4530CDD
:102350005B18B32CB31468F4B70180E290E03C87BB
:102360000E941A12B3943C85F5CFB31410F43B18B5
:1023700001C0312C34FF12C0B70180E390E03C87EC
:102380000E941A123C8532FF17C031FD03C088E756
:1023900090E002C088E590E0B7010CC0832F8678FA
:1023A00059F031FF02C08BE201C080E237FD8DE2BF
:1023B000B70190E00E941A12A51438F4B70180E327
:1023C00090E00E941A125A94F7CFAA94F401EA0DF1
:1023D000F11D8081B70190E00E941A12A110F5CF83
:1023E000332009F451CEB70180E290E00E941A1226
:1023F0003A94F6CFF7018681978102C08FEF9FEF65
:102400002C96E2E10C941413FC010590615070408D
:102410000110D8F7809590958E0F9F1F0895FC01AD
:102420006150704001900110D8F7809590958E0F03
:102430009F1F08950F931F93CF93DF93FB01238179
:1024400021FD03C08FEF9FEF28C022FF16C04681F9
:102450005781248135814217530744F4A081B1810B
:102460009D012F5F3F4F318320838C9326813781DD
:102470002F5F3F4F3783268310C0EB01092F182FA2
:102480000084F185E02D0995892BE1F68E819F81ED
:1024900001969F838E83812F902FDF91CF911F9183
:1024A0000F910895FA01AA27283051F1203181F1C6
:1024B000E8946F936E7F6E5F7F4F8F4F9F4FAF4F4C
:1024C000B1E03ED0B4E03CD0670F781F891F9A1F5F
:1024D000A11D680F791F8A1F911DA11D6A0F711D13
:1024E000811D911DA11D20D009F468943F912AE01F
:1024F000269F11243019305D3193DEF6CF01089507
:10250000462F4770405D4193B3E00FD0C9F7F6CF37
:10251000462F4F70405D4A3318F0495D31FD4052FF
:10252000419302D0A9F7EACFB4E0A6959795879595
:1025300077956795BA95C9F7009761057105089574
:102540009B01AC010A2E0694579547953795279520
:10255000BA95C9F7620F731F841F951FA01D0895B8
:10256000F999FECF92BD81BDF89A992780B508955B
:10257000262FF999FECF1FBA92BD81BD20BD0FB69F
:10258000F894FA9AF99A0FBE01960895052E97FBD2
:102590001EF400940E94DD1257FD07D00E942F13F5
:1025A00007FC03D04EF40C94DD1250954095309505
:1025B00021953F4F4F4F5F4F0895909580957095AF
:1025C00061957F4F8F4F9F4F08950E948D0DA59F5E
:1025D000900DB49F900DA49F800D911D112408951E
:1025E000B7FF0C94E5120E94E512821B930B08952D
:1025F0002F923F924F925F926F927F928F929F9213
:10260000AF92BF92CF92DF92EF92FF920F931F9300
:10261000CF93DF93CDB7DEB7CA1BDB0B0FB6F894B1
:10262000DEBF0FBECDBF09942A88398848885F84F1
:102630006E847D848C849B84AA84B984C884DF8062
:10264000EE80FD800C811B81AA81B981CE0FD11D46
:102650000FB6F894DEBF0FBECDBFED010895A1E225
:102660001A2EAA1BBB1BFD010DC0AA1FBB1FEE1F0C
:10267000FF1FA217B307E407F50720F0A21BB30B57
:10268000E40BF50B661F771F881F991F1A9469F7D3
:1026900060957095809590959B01AC01BD01CF012F
:0626A0000895F894FFCF3D
:1026A6000000000200000000710000000000B201FE
:1026B600AAE403E103E0030100000042524F414453
:1026C60043415354494E472025640A0041647265CC
:1026D600737365206D657373616765203A202564A1
:1026E6000A0044495354414E43452E746F4167676F
:1026F600726567617465203A2025640A004E455765
:10270600204D455353414745203A2025640A00642D
:102716006973742064616E732069735F746F6F5F91
:10272600636C6F73652025640A00494E2054455337
:10273600540062726F616463617374203A20256489
:022746000A0087
:00000001FF
