:100000000C9446000C946F000C946F000C946F00DD
:100010000C946F000C946F000C942C040C946F00E3
:100020000C946F000C946F000C946F000C94EB090F
:100030000C946F000C946F000C944B090C946F009F
:100040000C946F000C946F000C946F000C946F0074
:100050000C946F000C946F000C946F000C940D0ABC
:100060000C946F000C946F0092040E0566045D04FE
:100070006304F004E504700B4D0A4D0A6D0B790B17
:10008000690B800B7C0B840B3C0B0E0B11241FBEE9
:10009000CFEFD8E0DEBFCDBF14BE0FB6F894A89561
:1000A00080916000886180936000109260000FBEB4
:1000B00011E0A0E0B1E0E2E5F5E202C005900D92AA
:1000C000AA37B107D9F721E0AAE7B1E001C01D9234
:1000D000A03FB207E1F70E94B60C0C94A7120C9453
:1000E00000008093C6008091C00085FFFCCF80E0B7
:1000F00090E00895CF93DF93CB01C0910E01D09192
:100100000F0121E02E830E948C068987E0910E0169
:10011000F0910F0181851F928F938BE191E09F9366
:100120008F930E94720F0F900F900F900F90DF919E
:10013000CF910895E0910E01F0910F0116828FEF9B
:100140008087818710828181882349F060E080E088
:100150000E94A605E0910E01F0910F011182089511
:10016000F894519A8CE090E09093C5008093C4007D
:10017000E0ECF0E080818D7F8083E2ECF0E0808134
:1001800086608083E1ECF0E080818860808380E09D
:1001900091E09093ED018093EC0178940895CF93D2
:1001A00081E00E94C709E0910E01F0910F0180915A
:1001B000AF019091B001A091B101B091B2018283E1
:1001C0009383A483B58386818130C1F110820E941C
:1001D0000506C82FC370D9F0C330C9F0E0910E01F5
:1001E000F0910F018181C13009F44BC0823069F078
:1001F0000E94AB056091D50180E00E94A605E091C8
:100200000E01F0910F0182E08183CF910895E0917A
:100210000E01F0910F0181818330B9F30E94AB058B
:100220006091E8018091E7010E94A605E0910E012E
:10023000F0910F0183E08183CF9108951682409160
:10024000AF015091B0016091B1017091B20142874C
:1002500053876487758780838181833071F00E9422
:10026000AB056091E8018091E7010E94A605E0914D
:100270000E01F0910F0183E0818381858087CF910A
:100280000895813011F20E94AB0560E08091E90190
:100290000E94A605E0910E01F0910F01C183B5CF38
:1002A000E0910E01F0910F018681813011F080E024
:1002B000089516828091AF019091B001A091B10193
:1002C000B091B20182879387A487B58781E00895B2
:1002D00084E00E94C709E0910E01F0910F01818531
:1002E0001F928F9386E391E09F938F930E94720FEA
:1002F000E0910E01F0910F0181850F900F900F900A
:100300000F90893280F482E080838181882309F410
:100310004EC060E080E00E94A605E0910E01F091E1
:100320000F01118208959085981738F086818130E9
:1003300071F1108281858087089581E591E09F9316
:100340008F930E94720F0F900F90E0910E01F09129
:100350000F018181813069F0823071F10E940506C0
:10036000E0910E01F0910F0180FF22C08181823067
:10037000E9F20E94AB056091D50180E00E94A605DC
:10038000E0910E01F0910F0182E08183CFCF1682C0
:100390008091AF019091B001A091B101B091B201F3
:1003A00082879387A487B58781858087089508957C
:1003B0008181813009F4BACF0E94AB0560E0809161
:1003C000E9010E94A605E0910E01F0910F0181E084
:1003D0008183ACCFE0910E01F0910F014091AF010C
:1003E0005091B0016091B1017091B201828193810D
:1003F000A481B5818096A11DB11D84179507A6071C
:10040000B70748F58091AF019091B001A091B1017B
:10041000B091B20182839383A483B58380818130BC
:1004200041F170F18230B9F480E10E94C709E09196
:100430000E01F0910F018181882349F060E080E096
:100440000E94A605E0910E01F0910F0111828681B4
:100450008130E9F0108280851F928F9389E591E0C9
:100460009F938F930E94720F0F900F900F900F9099
:1004700008950E946801E0910E01F0910F01EBCF09
:100480000E94CF00E0910E01F0910F01E4CF16829F
:100490008091AF019091B001A091B101B091B201F2
:1004A00082879387A487B587D6CF80E10E94C7094A
:1004B000E0910E01F0910F018181882349F060E005
:1004C00080E00E94A605E0910E01F0910F011182DB
:1004D0008681813011F01082089516828091AF01DB
:1004E0009091B001A091B101B091B2018287938740
:1004F000A487B5870895E0910E01F0910F018185E1
:100500001F928F9386E391E09F938F930E94720FC7
:10051000E0910E01F0910F0181E00F900F900F908C
:100520000F909185993208F080E00895CF93E09183
:100530000E01F0910F019181981781F0C82F823040
:10054000C1F0833069F08130E1F060E080E00E942A
:10055000A605E0910E01F0910F01C183CF9108959E
:100560000E94AB056091E8018091E7010E94A60519
:10057000F0CF0E94AB056091D50180E00E94A605F6
:10058000E8CF0E94AB0560E08091E9010E94A605DA
:10059000E0CFCF930E940506C82FC370E0910E01F3
:1005A000F0910F018181CC23A9F0C33099F0C130C3
:1005B00019F1823069F00E94AB056091D50180E0AD
:1005C0000E94A605E0910E01F0910F0182E0818367
:1005D000CF9108958330E1F30E94AB056091E8016B
:1005E0008091E7010E94A605E0910E01F0910F01B4
:1005F00083E08183CF910895813051F30E94AB0550
:1006000060E08091E9010E94A605E0910E01F09161
:100610000F01C183CF9108950E940506E0910E015C
:10062000F0910F0180FF11C08181823069F00E943A
:10063000AB056091D50180E00E94A605E0910E0116
:10064000F0910F0182E08183089581818130E1F38F
:100650000E94AB0560E08091E9010E94A605E0914F
:100660000E01F0910F0181E081830895E0910E0168
:10067000F0910F0181E090E02681222311F080E0CB
:1006800090E00895089580E090E008950895DF9245
:10069000EF92FF920F931F93CF93DF93F89414B8C8
:1006A00017B81AB815B818B81BB8529A5A9A14BC89
:1006B00085E085BD8FEF87BD82E080936E0010924C
:1006C0008000109281002FE83BE030938900209356
:1006D000880080936F005398239891EA9093B0001C
:1006E0008093B1001092B4001092B3008BE080BFF1
:1006F00083E080937F0086E080937C0083E8809392
:100700007A0080917A00806480937A0080917A00E8
:1007100086FDFCCF10927C0083EA80937A0081E012
:1007200080937B0081E090E00E9406128F3F11F0E1
:10073000809366001092B301C1E0C0938C01C09316
:10074000D0011092AA011092E40180E990E00E9489
:1007500006128093A9018091A901887311F0C093BA
:10076000A9011092D4011092D3018FEF90E09093E1
:10077000D2018093D1011092AF011092B00110927A
:10078000B1011092B20181E080937D0182E49FE08B
:100790009093E3018093E20180EB90E00E940612C7
:1007A000C82F81EB90E00E9406122C2F30E0382BEE
:1007B0003093E6012093E50185E090E00E94061267
:1007C0008093E90189E090E00E9406128093D501B0
:1007D0008CE090E00E9406128093E70184E190E0B3
:1007E0000E9406128093E80154EBE52E51E0F52EAD
:1007F0000DE811E0C0E2D0E0CE010E940612D82E32
:10080000CE0101960E9406122D2D30E0322F2227B4
:10081000282BF701219331937F01CE01C0960E94CE
:100820000612D82ECE01C1960E9406122D2D30E060
:10083000322F2227282BF801219331938F01229602
:10084000CC33D105C9F67894DF91CF911F910F91E8
:10085000FF90EF90DF9008951F920F920FB60F92C6
:1008600011248F930FB6F894A89580916000886149
:1008700080936000109260000FBE8F910F900FBEAA
:100880000F901F9018953C01EB0110E099249A9469
:1008900084E0C82E96E0A92E23E8B22E38E1D32EAC
:1008A00049E2E42E90917D01E92FF0E0E730F10577
:1008B000C8F7EC5CFF4F0C94DD0C112309F4FCC06D
:1008C000C0927D0111E0FE010995ECCF8091B3014A
:1008D0008111EBC0F894A0927C00B0927A008091D4
:1008E0007A00806480937A0090917A0096FDFCCF24
:1008F000809178009091790078948B3AE2E09E079D
:100900000CF0EDC08938F2E09F070CF0EFC087369D
:1009100092400CF4CAC0559A549A3B9A3A9A3D9820
:100920003C98C0CFF89480B7877F80BF80917A00D1
:100930008F7780937A0014B817B81AB815B818B81A
:100940001BB80FB6F894A895D09260000FBEE09245
:1009500060008091600080648093600093B7917F15
:10096000946093BFF89483B7816083BF789488952F
:1009700083B78E7F83BF78941092B301529A5A9AAC
:1009800080917A00806880937A0087E592E00197F1
:10099000F1F700C0000080B7886180BF559A549A73
:1009A0003B9A3A9A3D9A3C9AEFE1FEE43197F1F78F
:1009B00000C000008091B301811181C05598549806
:1009C0003B983A983D983C986DCF80917B0181117E
:1009D00041C01092B3001092B40010927C0162CF1B
:1009E0004899ECCF559A54983B983A983D983C9842
:1009F0008FEC97E00197F1F700C0000055985498EC
:100A00003B983A983D983C989FEFE1EEF4E0915086
:100A1000E040F040E1F700C0000044CF5598549802
:100A20003B9A3A9A3D983C98EFECF7E03197F1F712
:100A300000C00000559854983B983A983D983C98CF
:100A4000FFEF21EE84E0F15020408040E1F700C04C
:100A5000000028CF90917B0180917C01981709F4C8
:100A600021CF80917B0180937C0180917B0181303B
:100A700009F450C080917B011092B3009092B400B1
:100A80008230D9F19092B3009092B4008FE295E752
:100A90000197F1F700C000008091E8019091E70113
:100AA0009093B3008093B400FDCE559A549A3B982E
:100AB0003A983D983C98F6CEF301099501CF559AA6
:100AC000549A3B983A983D983C98FFEF20E782E093
:100AD000F15020408040E1F700C000006FCF5598F2
:100AE00054983B9A3A9A3D983C98DCCE5598549845
:100AF0003B983A983D9A3C9AD5CEEFE2F5E731978C
:100B0000F1F700C000008091D5011092B3008093EE
:100B1000B400C8CE9092B3001092B4008FE295E773
:100B20000197F1F700C000008091E9018093B300C4
:100B30001092B400B7CE07C0EFECF7E03197F1F7B1
:100B400000C0000001970097B9F708958093B300A3
:100B50006093B40008958FEF8093B3008093B40046
:100B60008FE090E0EFECF7E03197F1F700C0000084
:100B70000197C1F708958091B30181111EC0F894C7
:100B800087E080937C0083E880937A0080917A00EC
:100B9000806480937A0080917A0086FDFCCF8091FA
:100BA00078009091790010927C0023EA20937A00DB
:100BB00021E020937B00789408958FEF9FEF0895B4
:100BC0008091B30181111EC0F89488EC80937C0061
:100BD00087E880937A0080917A00806480937A001D
:100BE00080917A0086FDFCCF809178009091790009
:100BF00010927C0023EA20937A0021E020937B006E
:100C0000789408958FEF9FEF08950F931F93CF93DC
:100C1000DF93E0E0F0E080E003EA11E0D6E0C3E833
:100C2000A1E0B0E060E870E0F894D0937C00C0935D
:100C30007A0090917A00906490937A0090917A0073
:100C400096FDFCCF20917800309179002170909131
:100C50007A00906490937A0090917A0096FDFCCF90
:100C6000409178005091790010927C0000937A00B6
:100C700010937B0078944170241303C06150710974
:100C800099F6222339F09D010E2E01C0220F0A94FD
:100C9000EAF7822B3196E830F10509F0C3CFDF91F6
:100CA000CF911F910F91089580911001982F990F66
:100CB000990F990F892790917A0121E0290F2093AC
:100CC0007A01282F2295269527708227969596954A
:100CD00089278093100108958093100108958091D1
:100CE000B301811116C0F89486E080937C0083E8FC
:100CF00080937A0080917A00806480937A0080915A
:100D00007A0086FDFCCF80917800909179007894EC
:100D100008958FEF9FEF08952F923F924F925F9229
:100D20006F927F928F929F92AF92BF92CF92DF92FB
:100D3000EF92FF920F931F93CF93DF9300D000D0D9
:100D400000D0CDB7DEB71C01DC0112960D90BC912E
:100D5000A02DBE83AD83A438E3E0BE070CF0C9C06C
:100D600080918D0190918E018A179B0708F437C1FD
:100D700000918F01109190010A171B0708F42FC2F0
:100D800000919101109192010A171B0708F42FC2DC
:100D900000919301109194010A171B0708F42FC2C8
:100DA00000919501109196010A171B0708F42FC2B4
:100DB00000919701109198010A171B0708F4EFC1E1
:100DC0000091990110919A010A171B0708F427C294
:100DD00000919B0110919C010A171B0708F427C280
:100DE00000919D0110919E010A171B0708F427C26C
:100DF00000919F011091A0010A171B0708F427C258
:100E00000091A1011091A2010A171B0708F427C243
:100E10000091A3011091A4010A171B0708F423C233
:100E20000091A5011091A6010A171B0708F423C21F
:100E30000091A7011091A8010A171B0708F423C20B
:100E400080E090E0A0EDB0E489839A83AB83BC831B
:100E50004CE0E42EF12CF701EE0FFF1FE357FE4F9D
:100E600080819181B801681B790B80E090E00E943D
:100E70001B0E9B01AC010E94070D6B017C01AD8133
:100E8000BE81BD01BB0F880B990B0E941D0E4B014B
:100E90005C01B80180E090E00E941B0E2B013C0138
:100EA00029813A814B815C81C701B6010E94A90E5C
:100EB0009B01AC01C301B2010E94060D9B01AC0174
:100EC000C501B4010E94060D20E030E040E251E48B
:100ED0000E94A90E0E94E50D8B01C701B6010E9478
:100EE000E50DAB01BC01C801BA010E94C90C162F67
:100EF00077C0DC01CD90DC908091B4019091B50178
:100F00008C159D0508F48CC01FEFE090B601F090A1
:100F1000B701EC14FD0408F45EC1E090B801F09054
:100F2000B901EC14FD0408F45EC1E090BA01F09040
:100F3000BB01EC14FD0408F45EC1E090BC01F0902C
:100F4000BD01EC14FD0408F45EC1E090BE01F09018
:100F5000BF01EC14FD0408F4C3C0E090C001F090A0
:100F6000C101EC14FD0408F456C1E090C201F090F8
:100F7000C301EC14FD0408F456C1E090C401F090E4
:100F8000C501EC14FD0408F456C1E090C601F090D0
:100F9000C701EC14FD0408F456C1E090C801F090BC
:100FA000C901EC14FD0408F456C1E090CA01F090A8
:100FB000CB01EC14FD0408F45AC1E090CC01F09090
:100FC000CD01EC14FD0408F45AC1E090CE01F0907C
:100FD000CF01EC14FD0408F45AC10AE531C010E059
:100FE000ED81FE81ED3BF240FCF481E2810F26961B
:100FF0000FB6F894DEBF0FBECDBFDF91CF911F912A
:101000000F91FF90EF90DF90CF90BF90AF909F90A7
:101010008F907F906F905F904F903F902F900895AA
:1010200000E081E2800FE3CFD101CD90DC90809190
:10103000B4019091B5018C159D0508F066CF00E0D4
:101040001F3F79F3ED81FE81BF01FF0F880B990BE4
:101050000E941D0E6B017C01612F70E080E090E02A
:101060000E941B0E4B015C01A701960160E070E03D
:1010700081E694E40E94060D9B01AC01C501B40118
:101080000E94A90E4B015C01602F70E080E090E0AF
:101090000E941B0E2B013C0120E030E04FE254E4A3
:1010A000C701B6010E94060D9B01AC01C301B2014C
:1010B0000E94A90E9B01AC01C501B4010E94070D5D
:1010C00020E030E048E453E40E94730D20E030E07B
:1010D00044E052E40E94070D0E94EC0D862F87CF5A
:1010E00005E085E090E0880F991FFC01EE54FE4F6B
:1010F00080819181B701681B790B80E090E00E94AC
:101100001B0E9B01AC010E94070D4B015C01B60157
:10111000DD0C880B990B0E941D0E2B013C01B701C1
:1011200080E090E00E941B0E6B017C01602F70E05C
:1011300080E090E00E941B0E20E030E040E05FE3A2
:101140000E94A90E20E030E0A9010E94070DA50130
:1011500094010E94A90E9B01AC01C701B6010E9437
:10116000060D9B01AC01C301B2010E94060D20E0F7
:1011700030E040E251E40E94A90E0E94E50D7B019F
:10118000C501B4010E94E50DAB01BC01C701BA0164
:101190000E94C90C062F6F3F09F052CF26CF65E0A1
:1011A00085E090E07C01F1E0EF1AF10870E080E06A
:1011B00090E00E941B0E20E030E040E05FE30E94E0
:1011C000A90E20E030E0A9010E94070D69837A830F
:1011D0008B839C8340CE01E081E090E084CF61E08E
:1011E00081E090E0DFCF02E082E090E07CCF62E03F
:1011F00082E090E0D7CF03E083E090E074CF63E03B
:1012000083E090E0CFCF04E084E090E06CCF64E036
:1012100084E090E0C7CF06E086E090E064CF66E02F
:1012200086E090E0BFCF07E087E090E05CCF67E02A
:1012300087E090E0B7CF08E088E090E054CF68E026
:1012400088E090E0AFCF09E089E090E04CCF69E022
:1012500089E090E0A7CF0AE08AE090E044CF6AE01E
:101260008AE090E09FCF6BE08BE090E09BCF0BE0BB
:101270008BE090E038CF6CE08CE090E093CF0CE016
:101280008CE090E030CF6DE08DE090E08BCF0DE012
:101290008DE090E028CF1F920F920FB60F9211248D
:1012A0002F933F934F935F936F937F938F939F936E
:1012B000AF93BF93EF93FF932091D3013091D4016B
:1012C0008091D1019091D201820F931F9093D4010C
:1012D0008093D3018FEF90E09093D2018093D1015E
:1012E0008FEF87BD8091AF019091B001A091B101C6
:1012F000B091B2010196A11DB11D8093AF019093F1
:10130000B001A093B101B093B2018091B3018111FA
:101310000FC08091E2019091E3012091D3013091BF
:10132000D4018217930720F480917D01843089F0E5
:10133000FF91EF91BF91AF919F918F917F916F91AD
:101340005F914F913F912F910F900FBE0F901F9083
:101350001895E0911301F09114010995009741F35C
:101360000E94330C811109C00E94620F992790934B
:10137000D2018093D10187BDDBCFE0911101F091C3
:10138000120109951092D4011092D301D1CF80FFA0
:1013900011C0559A81FF11C0549A82FF11C03B9A27
:1013A00083FF11C03A9A84FF11C03D9A85FD11C098
:1013B0003C980895559881FDEFCF549882FDEFCF6A
:1013C0003B9883FDEFCF3A9884FDEFCF3D9885FFA2
:1013D000EFCF3C9A08951F920F920FB60F921124EF
:1013E0008F939F9310928100109285001092840039
:1013F00081E080938C018093D0011092B301109210
:101400007C0093EA90937A0080937B009F918F9168
:101410000F900FBE0F901F9018951F920F920FB64E
:101420000F9211242F933F934F935F936F937F936A
:101430008F939F93AF93BF93CF93DF93EF93FF93DC
:10144000209184003091850041E04093B301809168
:101450008C018823A9F1109285001092840040939A
:1014600081001092E40110928C018091D0018823B8
:10147000A1F080917A0086FDFCCF80917800909158
:1014800079009093AE018093AD0181E080937C0060
:1014900093EA90937A0080937B00FF91EF91DF9124
:1014A000CF91BF91AF919F918F917F916F915F91FC
:1014B0004F913F912F910F900FBE0F901F90189555
:1014C000C901875891098437994008F052C02658BD
:1014D0003109A4EFB0E00E94E30CAA27BB278830B3
:1014E0009105A105B10508F47BC040938C01809162
:1014F000D001811152C08091AA01E82FF0E0EA5298
:10150000FE4F9091E40190838F5F8093AA018C300D
:1015100021F6109281001092850010928400409371
:10152000D0011092B301C091E001D091E10186EDAC
:1015300091E00E94170CC817D90709F0AECF80912F
:10154000DF0187FF61C098E7980F933030F0539820
:1015500023981092B4001092B30090E0FC01E05880
:10156000F109EB30F10508F098CFE55CFF4F0C94E2
:10157000DD0C10928100109285001092840040933F
:101580008C014093D0011092B30110927C0083EA49
:1015900080937A0040937B0080CF80917A0086FD13
:1015A000FCCF80917800909179009093AC0180936A
:1015B000AB0110927C0083EA80937A0081E08093F3
:1015C0007B009091E4019923D1F010928100109258
:1015D0008500109284008093D0011092B3015DCFFA
:1015E00021E030E0F90102C0EE0FFF1F8A95E2F71B
:1015F000CF019091E401892B8093E4014ECF1092AA
:10160000D0011092AA0149CFE0911501F091160185
:101610006BEA71E086ED91E009953FCF8091D601AC
:10162000823009F4DDC008F4BAC0833009F4C6C0C2
:10163000843009F0B1C080917B019091DC0183304E
:1016400009F4E3C08091DB0110927C0123E0209338
:101650007B018093E7019093E80180917D018630C2
:1016600009F41BCF539A239A1092B4001092B3003E
:1016700086E080937D0111CF80917D01863099F0C5
:10168000539A239A1092B4001092B300559854982C
:101690003B983A983D983C9810927B0110927C01BF
:1016A00086E080937D0181E090E09C010090D6016E
:1016B00002C0220F331F0A94E2F78091E501909156
:1016C000E60182239323892B09F086C010927B01C7
:1016D000E4CE81E080937D01E0CEE0E0F0E009958A
:1016E00080916E008D7F80936E0016BCE0E0F0E785
:1016F000099510927D01D1CE82E080937D01CDCEFF
:1017000085E080937D01C9CE80917D01833009F40D
:10171000C4CE80917D01843009F4BFCE539A239AC0
:101720001092B4001092B30083E080937D01B5CE97
:1017300080917D01863009F0B0CE6091E50180EBAB
:1017400090E00E940E126091E60181EB90E00E9411
:101750000E126091E90185E090E00E940E12609106
:10176000D50189E090E00E940E126091E7018CE0C3
:1017700090E00E940E126091E80184E190E00E94E6
:101780000E12539823981092B4001092B30081E087
:1017900080937D018091D60181115FCF7ECE882319
:1017A00039F28130C9F78091D7019091D801909397
:1017B000E6018093E50110927B014FCF80917B0180
:1017C000823071F18091DA0110927C0192E0909365
:1017D0007B018093D50141CF81E080937B015DCE79
:1017E00080917B01813051F08091D90110927C0170
:1017F00091E090937B018093E9012FCF8091D901F3
:101800009091E9018913F2CF28CF8091E8019813D4
:1018100019CF8091DB012091E701821315CF1DCFF5
:101820008091DA019091D5018913CECF16CFFC01BA
:10183000AC01465F5F4F8FEF9FEF21918227082E0B
:101840008295807F8025092E982F82958F7008269B
:10185000869598278927880F880F880F8025E41799
:10186000F50759F708950FB6F894A4B12091A9018E
:101870002A2B24B921E03091A901203029F0000061
:1018800025B1232B25B904C000000000000000C0D2
:10189000000000000000309525B1232325B92EEA71
:1018A0002A95F1F72BEE30B735FF0AC0A4B9309175
:1018B000A901309525B1232325B90FBE80E00895F5
:1018C00000002A9581F721E03091A901203029F00C
:1018D000000025B1232B25B904C000000000000042
:1018E00000C0000000000000309525B1232325B979
:1018F000000024E52A95F1F7FC018CE0619170E08D
:10190000660F771F616072609AE041E050E09A01D3
:1019100026233723232B3091A901203029F0000002
:1019200025B1232B25B904C000000000000000C031
:10193000000000000000309525B1232325B90000E8
:1019400021E52A95F1F7440F551F9A9501F78A95DD
:10195000A9F620B7206120BFA4B93091A901309524
:1019600025B1232325B90FBE81E008950E944703C6
:101970000E94B0008AE790E09093160180931501D1
:101980006AEE71E08AE990E00E94430480E090E012
:10199000089597FB072E16F4009407D077FD09D021
:1019A0000E94F20C07FC05D03EF4909581959F4F64
:1019B0000895709561957F4F0895EE0FFF1F059074
:1019C000F491E02D0994A29FB001B39FC001A39FA1
:1019D000700D811D1124911DB29F700D811D112468
:1019E000911D0895AA1BBB1B51E107C0AA1FBB1F75
:1019F000A617B70710F0A61BB70B881F991F5A959B
:101A0000A9F780959095BC01CD0108955058BB274A
:101A1000AA270E941E0D0C946F0E0E94610E38F0D2
:101A20000E94680E20F039F49F3F19F426F40C94BC
:101A30005E0E0EF4E095E7FB0C94580EE92F0E9421
:101A4000800E58F3BA17620773078407950720F0D2
:101A500079F4A6F50C94A20E0EF4E0950B2EBA2F95
:101A6000A02D0B01B90190010C01CA01A0011124A4
:101A7000FF27591B99F0593F50F4503E68F11A1650
:101A8000F040A22F232F342F4427585FF3CF4695E1
:101A900037952795A795F0405395C9F77EF41F1603
:101AA000BA0B620B730B840BBAF09150A1F0FF0FCD
:101AB000BB1F661F771F881FC2F70EC0BA0F621FB9
:101AC000731F841F48F4879577956795B795F795A9
:101AD0009E3F08F0B0CF9395880F08F09927EE0F3E
:101AE0009795879508950E94870D0C946F0E0E941C
:101AF000680E58F00E94610E40F029F45F3F29F013
:101B00000C94580E51110C94A30E0C945E0E0E946E
:101B1000800E68F39923B1F3552391F3951B550B70
:101B2000BB27AA2762177307840738F09F5F5F4FB0
:101B3000220F331F441FAA1FA9F335D00E2E3AF0EF
:101B4000E0E832D091505040E695001CCAF72BD007
:101B5000FE2F29D0660F771F881FBB1F2617370758
:101B60004807AB07B0E809F0BB0B802DBF01FF278A
:101B700093585F4F3AF09E3F510578F00C94580E01
:101B80000C94A30E5F3FE4F3983ED4F386957795CB
:101B90006795B795F7959F5FC9F7880F911D969543
:101BA000879597F90895E1E0660F771F881FBB1F9F
:101BB000621773078407BA0720F0621B730B840B4C
:101BC000BA0BEE1F88F7E09508950E94EC0D68941B
:101BD000B1110C94A30E08950E94880E88F09F57AF
:101BE00098F0B92F9927B751B0F0E1F0660F771F41
:101BF000881F991F1AF0BA95C9F714C0B13091F037
:101C00000E94A20EB1E008950C94A20E672F782FC7
:101C10008827B85F39F0B93FCCF3869577956795FB
:101C2000B395D9F73EF490958095709561957F4F67
:101C30008F4F9F4F0895E89409C097FB3EF490950D
:101C40008095709561957F4F8F4F9F4F9923A9F095
:101C5000F92F96E9BB279395F69587957795679524
:101C6000B795F111F8CFFAF4BB0F11F460FF1BC068
:101C70006F5F7F4F8F4F9F4F16C0882311F096E9FB
:101C800011C0772321F09EE8872F762F05C06623A9
:101C900071F096E8862F70E060E02AF09A95660F62
:101CA000771F881FDAF7880F9695879597F908951B
:101CB00097F99F6780E870E060E008959FEF80ECFF
:101CC000089500240A9416161706180609060895A2
:101CD00000240A9412161306140605060895092E08
:101CE0000394000C11F4882352F0BB0F40F4BF2B77
:101CF00011F460FF04C06F5F7F4F8F4F9F4F0895B7
:101D000057FD9058440F551F59F05F3F71F04795AC
:101D1000880F97FB991F61F09F3F79F08795089591
:101D2000121613061406551FF2CF4695F1DF08C0B0
:101D3000161617061806991FF1CF869571056105CD
:101D400008940895E894BB2766277727CB0197F975
:101D500008950E94BC0E0C946F0E0E94610E38F024
:101D60000E94680E20F0952311F00C94580E0C94EC
:101D70005E0E11240C94A30E0E94800E70F3959FAA
:101D8000C1F3950F50E0551F629FF001729FBB2772
:101D9000F00DB11D639FAA27F00DB11DAA1F649F0E
:101DA0006627B00DA11D661F829F2227B00DA11DC1
:101DB000621F739FB00DA11D621F839FA00D611D47
:101DC000221F749F3327A00D611D231F849F600D68
:101DD000211D822F762F6A2F11249F5750409AF091
:101DE000F1F088234AF0EE0FFF1FBB1F661F771F1D
:101DF000881F91505040A9F79E3F510580F00C94E8
:101E0000580E0C94A30E5F3FE4F3983ED4F38695EE
:101E100077956795B795F795E7959F5FC1F7FE2B87
:101E2000880F911D9695879597F908958F929F92A7
:101E3000AF92BF92CF92DF92EF92FF92CF93DF9358
:101E4000EC01688179818A819B8161157105810529
:101E5000910521F464E279ED8BE597E02DE133EF14
:101E600041E050E00E941C1249015A019B01AC0163
:101E7000A7EAB1E40E943B126B017C01ACEEB4EF27
:101E8000A50194010E944912DC01CB018C0D9D1D1E
:101E9000AE1DBF1DB7FF03C00197A109B0488883DD
:101EA0009983AA83BB839F77DF91CF91FF90EF90B7
:101EB000DF90CF90BF90AF909F908F9008950E9439
:101EC000160F089587E191E00E94160F0895A0E093
:101ED000B0E08093170190931801A0931901B0937B
:101EE0001A010895A0E0B0E0E8E7FFE00C945E126C
:101EF000AE014B5F5F4FFA0161917191AF0180912B
:101F0000EC019091ED010E94880FE2E00C947A12AE
:101F1000ACE0B0E0EEE8FFE00C944E127C016B0107
:101F20008A01FC0117821682838181FFBDC1CE0127
:101F300001964C01F7019381F60193FD859193FF82
:101F400081916F01882309F4ABC1853239F493FD87
:101F5000859193FF81916F01853229F4B70190E05B
:101F60000E947011E7CF512C312C20E02032A0F4D8
:101F70008B3269F030F4803259F0833269F4206199
:101F80002CC08D3239F0803339F4216026C02260B4
:101F9000246023C0286021C027FD27C030ED380F02
:101FA0003A3078F426FF06C0FAE05F9E300D112427
:101FB000532E13C08AE0389E300D1124332E206238
:101FC0000CC08E3221F426FD6BC1206406C08C3615
:101FD00011F4206802C0883641F4F60193FD859122
:101FE00093FF81916F018111C1CF982F9F7D9554EF
:101FF000933028F40C5F1F4FFFE3F9830DC0833645
:1020000031F0833771F0833509F05BC022C0F801ED
:10201000808189830E5F1F4F44244394512C5401C7
:1020200015C03801F2E06F0E711CF801A080B1807C
:1020300026FF03C0652D70E002C06FEF7FEFC50182
:102040002C870E9465112C0183012C852F77222E6D
:1020500017C03801F2E06F0E711CF801A080B1804A
:1020600026FF03C0652D70E002C06FEF7FEFC50152
:102070002C870E945A112C012C852068222E830166
:1020800023FC1BC0832D90E048165906B0F4B7011D
:1020900080E290E00E9470113A94F4CFF50127FCA1
:1020A000859127FE81915F01B70190E00E94701138
:1020B00031103A94F1E04F1A51084114510471F76C
:1020C000E5C0843611F0893639F5F80127FF07C0DD
:1020D00060817181828193810C5F1F4F08C0608194
:1020E0007181072E000C880B990B0E5F1F4F2F7606
:1020F000722E97FF09C090958095709561957F4FDE
:102100008F4F9F4F2068722E2AE030E0A4010E947A
:10211000A811A82EA81844C0853729F42F7EB22E06
:102120002AE030E025C0F22FF97FBF2E8F36C1F0B4
:1021300018F4883579F0B4C0803719F0883721F069
:10214000AFC02F2F2061B22EB4FE0DC08B2D846046
:10215000B82E09C024FF0AC09F2F9660B92E06C072
:1021600028E030E005C020E130E002C020E132E0AC
:10217000F801B7FE07C060817181828193810C5F95
:102180001F4F06C06081718180E090E00E5F1F4F9D
:10219000A4010E94A811A82EA818FB2DFF777F2E5E
:1021A00076FE0BC0372D3E7FA51450F474FE0AC096
:1021B00072FC08C0372D3E7E05C0BA2C372D03C0F7
:1021C000BA2C01C0B52C34FF0DC0FE01EA0DF11D83
:1021D0008081803311F4397E09C032FF06C0B39488
:1021E000B39404C0832F867809F0B39433FD13C0F1
:1021F00030FF06C05A2CB31418F4530C5B18B32CE0
:10220000B31468F4B70180E290E03C870E9470113B
:10221000B3943C85F5CFB31410F43B1801C0312CB6
:1022200034FF12C0B70180E390E03C870E94701138
:102230003C8532FF17C031FD03C088E790E002C043
:1022400088E590E0B7010CC0832F867859F031FF04
:1022500002C08BE201C080E237FD8DE2B70190E061
:102260000E947011A51438F4B70180E390E00E9439
:1022700070115A94F7CFAA94F401EA0DF11D8081F0
:10228000B70190E00E947011A110F5CF332009F43E
:1022900051CEB70180E290E00E9470113A94F6CFDF
:1022A000F7018681978102C08FEF9FEF2C96E2E1C4
:1022B0000C946A12FC010590615070400110D8F72F
:1022C000809590958E0F9F1F0895FC01615070407E
:1022D00001900110D8F7809590958E0F9F1F08955B
:1022E0000F931F93CF93DF93FB01238121FD03C045
:1022F0008FEF9FEF28C022FF16C0468157812481AF
:1023000035814217530744F4A081B1819D012F5FAD
:102310003F4F318320838C93268137812F5F3F4F3E
:102320003783268310C0EB01092F182F0084F18515
:10233000E02D0995892BE1F68E819F8101969F837F
:102340008E83812F902FDF91CF911F910F91089550
:10235000FA01AA27283051F1203181F1E8946F93D6
:102360006E7F6E5F7F4F8F4F9F4FAF4FB1E03ED07C
:10237000B4E03CD0670F781F891F9A1FA11D680F1A
:10238000791F8A1F911DA11D6A0F711D811D911D4D
:10239000A11D20D009F468943F912AE0269F1124C2
:1023A0003019305D3193DEF6CF010895462F477026
:1023B000405D4193B3E00FD0C9F7F6CF462F4F7081
:1023C000405D4A3318F0495D31FD4052419302D0DF
:1023D000A9F7EACFB4E0A695979587957795679585
:1023E000BA95C9F700976105710508959B01AC0185
:1023F0000A2E06945795479537952795BA95C9F7AC
:10240000620F731F841F951FA01D0895F999FECFB9
:1024100092BD81BDF89A992780B50895262FF99924
:10242000FECF1FBA92BD81BD20BD0FB6F894FA9AB7
:10243000F99A0FBE01960895052E97FB1EF400949D
:102440000E94331257FD07D00E94851207FC03D06B
:102450004EF40C94331250954095309521953F4F92
:102460004F4F5F4F089590958095709561957F4F80
:102470008F4F9F4F08950E94E30CA59F900DB49F2E
:10248000900DA49F800D911D11240895B7FF0C9409
:102490003B120E943B12821B930B08952F923F9296
:1024A0004F925F926F927F928F929F92AF92BF9264
:1024B000CF92DF92EF92FF920F931F93CF93DF9310
:1024C000CDB7DEB7CA1BDB0B0FB6F894DEBF0FBE6D
:1024D000CDBF09942A88398848885F846E847D84BA
:1024E0008C849B84AA84B984C884DF80EE80FD80BC
:1024F0000C811B81AA81B981CE0FD11D0FB6F89432
:10250000DEBF0FBECDBFED010895A1E21A2EAA1BBA
:10251000BB1BFD010DC0AA1FBB1FEE1FFF1FA21793
:10252000B307E407F50720F0A21BB30BE40BF50B90
:10253000661F771F881F991F1A9469F76095709519
:10254000809590959B01AC01BD01CF010895F89451
:02255000FFCFBB
:1025520000000002000000007100000000007E0187
:10256200AA46034303420301000000444953544175
:102572004E43452E746F41676772656761746520CB
:102582003A2025640A00646973742064616E7320C2
:1025920069735F746F6F5F636C6F73652025640A84
:1025A20000494E20544553540044495354414E432C
:1025B200452E6C6173745F646973745F75706461D6
:0A25C2007465203A2025640A000029
:00000001FF
