:100000000C94C7000C94F0000C94F0000C94F000D9
:100010000C94F0000C94F0000C941E050C94F0006D
:100020000C94F0000C94F0000C94F0000C94DD0A99
:100030000C94F0000C94F0000C943D0A0C94F00029
:100040000C94F0000C94F0000C94F0000C94F00070
:100050000C94F0000C94F0000C94F0000C94FF0A47
:100060000C94F0000C94F0008405000658054F0530
:100070005505E205D705620C3F0B3F0B5F0C6B0C7F
:100080005B0C720C6E0C760C2E0C000C6E616E000C
:10009000696E660000407A10F35A00A0724E18098B
:1000A0000010A5D4E80000E87648170000E40B54DF
:1000B000020000CA9A3B000000E1F50500008096AE
:1000C0009800000040420F000000A08601000000E0
:1000D000102700000000E80300000000640000009A
:1000E00000000A00000000000100000000002C7663
:1000F000D888DC674F0823DFC1DFAE59E1B1B7967E
:10010000E5E3E453C63AE651997696E8E6C28426DA
:10011000EB898C9B62ED407C6FFCEFBC9C9F40F2B6
:10012000BAA56FA5F490055A2AF75C936B6CF96732
:100130006DC11BFCE0E40D47FEF520E6B500D0EDF7
:10014000902E0300943577050080841E080000205F
:100150004E0A000000C80C333333330F986E1283FD
:100160001141EF8D2114893BE65516CFFEE6DB18D1
:10017000D1844B381BF77C1D901DA4BBE424203296
:1001800084725E228100C9F124ECA1E53D2711248F
:100190001FBECFEFD8E0DEBFCDBF14BE0FB6F894C0
:1001A000A895809160008861809360001092600043
:1001B0000FBE11E0A0E0B1E0E2E4FCE202C0059075
:1001C0000D92A631B107D9F721E0A6E1B1E001C057
:1001D0001D92A33CB207E1F70E9424110C941F1654
:1001E0000C94000080910001909101018A9608957D
:1001F000CF93DF93FC01C0910001D09101019CE0FD
:10020000DE01D69601900D929A95E1F7CB010E94FE
:100210007E07CD5BDF4F8883E0910001F091010103
:10022000EE5BFF4F81E08083DF91CF910895CF9304
:10023000DF938091820190918301A0918401B0911C
:100240008501BF93AF939F938F938DE091E09F9330
:100250008F930E9441158091B9018F938091B801CD
:100260008F9381E191E09F938F930E944115C091FC
:100270000001D09101011BAA8091B8018AA7CE018B
:100280008A960E94090D9DAB8CABC0910001D09164
:1002900001018091820190918301A0918401B0912C
:1002A000850188839983AA83BB8319A61C820E9437
:1002B000F7069BEA899F912D11249695292F220FED
:1002C000920F891B8F5F88A7809100019091010197
:1002D000FC01EE5BFF4F108231962FEF20833196A9
:1002E00081E080838DB79EB70A960FB6F8949EBFC3
:1002F0000FBE8DBFDF91CF9108950F931F93E091B3
:100300000001F0910101DF01AD5BBF4F6C9186A947
:1003100090E02481222309F45BC04285538548176D
:10032000590709F449C0223008F45BC04189528959
:100330004817590709F443C0223009F44EC0408DD4
:10034000518D48175907F1F1233009F444C0478D06
:1003500050A148175907C9F1243009F440C046A1FB
:1003600057A14817590729F145E050E0253010F40E
:100370002F5F24839A01220F331F220F331F220F76
:10038000331F241B350BE20FF31F938782870091E5
:1003900082011091830120918401309185010583B0
:1003A00016832783308761878FEF8C931F910F917E
:1003B000089544E050E0DECF40E050E0DBCF41E084
:1003C00050E0D8CF42E050E0D5CF43E050E0D2CF6C
:1003D00040E050E0CDCF43E0C8CF42E0C6CF44E09C
:1003E000C4CF41E0C2CFCF92DF92EF92FF921F9332
:1003F000CF93DF93C0910001D09101018C818823BC
:1004000009F441C0815087FD3EC017E02FEF3FEF58
:100410004091820150918301609184017091850126
:10042000FE0197E08902E00DF11D1124DF01159610
:10043000C580D680E780F0844C195D096E097F097C
:100440004134510561057105E0F09C81692F70E030
:1004500061507109AB01440F551F440F551F440FE4
:10046000551F461B570B4C0F5D1FFA013596612F28
:1004700001900D926A95E1F7FA0133872287915036
:100480009C83815028F6DF91CF911F91FF90EF90D0
:10049000DF90CF900895E0910001F0910101248157
:1004A000222319F181858634F0F491E0892F2230DE
:1004B000E8F08089863408F491E0892F2230B1F089
:1004C0008789863408F491E0892F233079F0868D6E
:1004D000863408F491E0892F243041F085A18634D8
:1004E00030F0892F089590E0E1CF80E0089581E019
:1004F00008950E94F7068370E0910001F0910101D8
:100500008823A9F0833099F0813019F180A58330D8
:1005100069F00E949D066091A80180E00E94980603
:10052000E0910001F091010183E080A7089580A58A
:100530008130E1F30E949D066091BB018091BA0178
:100540000E949806E0910001F091010181E080A7EE
:10055000089580A5823051F30E949D0660E080914D
:10056000BC010E949806E0910001F091010182E037
:1005700080A70895CF92DF92EF92FF921F93CF93BF
:10058000DF93C0910001D0910101FE01EE5BFF4FAE
:100590009081913009F4B8C08C81882309F441C05E
:1005A000815087FD3EC017E02FEF3FEF4091820161
:1005B000509183016091840170918501FE01B7E043
:1005C0008B02E00DF11D1124DF011596C580D68048
:1005D000E780F0844C195D096E097F0941345105AB
:1005E00061057105E0F09C81692F70E0615071092F
:1005F000AB01440F551F440F551F440F551F461B99
:10060000570B4C0F5D1FFA013596612F01900D922B
:100610006A95E1F7FA013387228791509C838150D4
:1006200028F640918201509183016091840170917C
:10063000850188819981AA81BB818096A11DB11D08
:1006400084179507A607B70740F0DF91CF911F9158
:10065000FF90EF90DF90CF9008958091820190916C
:100660008301A0918401B091850188839983AA8335
:10067000BB8381E00E94B90AE0910001F091010181
:100680002481222389F181858634D0F581E0982F59
:100690002230C8F09089963408F481E0982F2230F7
:1006A00091F09789963408F481E0982F233059F01F
:1006B000968D963408F481E0982F243021F095A18E
:1006C000963400F1982F91110FC080A5882349F02E
:1006D00060E080E00E949806E0910001F091010145
:1006E00010A610A684E003C00E94790281E0DF9189
:1006F000CF911F91FF90EF90DF90CF900C94B90AAB
:1007000080E0C5CF91E0DFCFBE016D5B7F4FDB01A5
:100710001C912EA930E08C81882309F464C04A859D
:100720005B854217530709F45BC0823008F467C049
:1007300049895A894217530709F44FC0823009F496
:100740005BC0488D598D4217530709F443C083306D
:1007500009F44FC04F8D58A142175307C1F184309F
:1007600009F444C04EA15FA14217530769F195E017
:1007700045E050E0853030F58F5F8C83DA01AA0FB9
:10078000BB1FAA0FBB1FAA0FBB1FA41BB50BAC0F2F
:10079000BD1F1B963C932E931A97C0908201D09058
:1007A0008301E0908401F09085011596CD92DD9251
:1007B000ED92FC92189719961C939FEFDB019C9386
:1007C0001082EBCE892FDACF44E050E0D7CF43E060
:1007D00050E0D4CF42E050E0D1CF41E050E0CECF66
:1007E00040E050E0CBCF40E050E0C6CF94E044E0A2
:1007F000C0CF93E043E0BDCF92E042E0BACF41E00A
:10080000B8CFCF93E0910001F091010190A5981726
:1008100081F0C82F8230B9F0833069F08130D9F08F
:1008200060E080E00E949806E0910001F0910101F3
:10083000C0A7CF9108950E949D066091A80180E015
:100840000E949806F1CF0E949D0660E08091BC0155
:100850000E949806E9CF0E949D066091BB0180919D
:10086000BA010E949806E0CF089580E090E00895D4
:100870000895DF92EF92FF920F931F93CF93DF9330
:10088000F89414B817B81AB815B818B81BB8529A13
:100890005A9A14BC85E085BD8FEF87BD82E08093B6
:1008A0006E0010928000109281002FE83BE03093A0
:1008B00089002093880080936F005398239891EAD1
:1008C0009093B0008093B1001092B4001092B300E6
:1008D0008BE080BF83E080937F0086E080937C0084
:1008E00083E880937A0080917A00806480937A0014
:1008F00080917A0086FDFCCF10927C0083EA809381
:100900007A0081E080937B0081E090E00E94B51541
:100910008F3F11F08093660010928601C1E0C09372
:100920005F01C093A30110927D011092B70180E98D
:1009300090E00E94B51580937C0180917C018873C2
:1009400011F0C0937C011092A7011092A6018FEFC5
:1009500090E09093A5018093A401109282011092DF
:100960008301109284011092850181E08093190126
:1009700082E49FE09093B6018093B50180EB90E014
:100980000E94B515C82F81EB90E00E94B5152C2F61
:1009900030E0382B3093B9012093B80185E090E026
:1009A0000E94B5158093BC0189E090E00E94B515C6
:1009B0008093A8018CE090E00E94B5158093BA0165
:1009C00084E190E00E94B5158093BB0157E8E52EC5
:1009D00051E0F52E00E611E0C0E2D0E0CE010E9429
:1009E000B515D82ECE0101960E94B5152D2D30E0FB
:1009F000322F2227282BF701219331937F01CE013B
:100A0000C0960E94B515D82ECE01C1960E94B5158C
:100A10002D2D30E0322F2227282BF80121933193FE
:100A20008F012296CC33D105C9F67894DF91CF910E
:100A30001F910F91FF90EF90DF9008951F920F92FA
:100A40000FB60F9211248F930FB6F894A89580914A
:100A50006000886180936000109260000FBE8F91EB
:100A60000F900FBE0F901F9018953C01EB0110E006
:100A700099249A9484E0C82E96E0A92E23E8B22EF9
:100A800038E1D32E49E2E42E90911901E92FF0E0EC
:100A9000E730F105C8F7EC5CFF4F0C944F111123C0
:100AA00009F4FCC0C092190111E0FE010995ECCFD8
:100AB000809186018111EBC0F894A0927C00B092E5
:100AC0007A0080917A00806480937A0090917A0015
:100AD00096FDFCCF809178009091790078948B3AC4
:100AE000E2E09E070CF0EDC08938F2E09F070CF0C1
:100AF000EFC0873692400CF4CAC0559A549A3B9A7C
:100B00003A9A3D983C98C0CFF89480B7877F80BFD1
:100B100080917A008F7780937A0014B817B81AB84A
:100B200015B818B81BB80FB6F894A895D092600005
:100B30000FBEE0926000809160008064809360004E
:100B400093B7917F946093BFF89483B7816083BF1C
:100B50007894889583B78E7F83BF789410928601AE
:100B6000529A5A9A80917A00806880937A0087E539
:100B700092E00197F1F700C0000080B7886180BF64
:100B8000559A549A3B9A3A9A3D9A3C9AEFE1FEE480
:100B90003197F1F700C0000080918601811181C07A
:100BA000559854983B983A983D983C986DCF8091D1
:100BB0001701811141C01092B3001092B40010923D
:100BC000180162CF4899ECCF559A54983B983A98BF
:100BD0003D983C988FEC97E00197F1F700C000003A
:100BE000559854983B983A983D983C989FEFE1EE81
:100BF000F4E09150E040F040E1F700C0000044CF45
:100C0000559854983B9A3A9A3D983C98EFECF7E007
:100C10003197F1F700C00000559854983B983A98E6
:100C20003D983C98FFEF21EE84E0F1502040804059
:100C3000E1F700C0000028CF9091170180911801C2
:100C4000981709F421CF80911701809318018091A2
:100C50001701813009F450C0809117011092B30040
:100C60009092B4008230D9F19092B3009092B40087
:100C70008FE295E70197F1F700C000008091BB017A
:100C80009091BA019093B3008093B400FDCE559A31
:100C9000549A3B983A983D983C98F6CEF3010995C2
:100CA00001CF559A549A3B983A983D983C98FFEF5B
:100CB00020E782E0F15020408040E1F700C00000D2
:100CC0006FCF559854983B9A3A9A3D983C98DCCE11
:100CD000559854983B983A983D9A3C9AD5CEEFE275
:100CE000F5E73197F1F700C000008091A80110925C
:100CF000B3008093B400C8CE9092B3001092B400B9
:100D00008FE295E70197F1F700C000008091BC01E8
:100D10008093B3001092B400B7CE07C0EFECF7E0B9
:100D20003197F1F700C0000001970097B9F70895D7
:100D30008093B3006093B40008958FEF8093B30065
:100D40008093B4008FE090E0EFECF7E03197F1F79B
:100D500000C000000197C1F70895809186018111BC
:100D60001EC0F89487E080937C0083E880937A002B
:100D700080917A00806480937A0080917A0086FD69
:100D8000FCCF809178009091790010927C0023EA4A
:100D900020937A0021E020937B00789408958FEFD0
:100DA0009FEF08958091860181111EC0F89488EC10
:100DB00080937C0087E880937A0080917A00806439
:100DC00080937A0080917A0086FDFCCF8091780034
:100DD0009091790010927C0023EA20937A0021E020
:100DE00020937B00789408958FEF9FEF08950F93E1
:100DF0001F93CF93DF93E0E0F0E080E003EA11E09F
:100E0000D6E0C3E8A1E0B0E060E870E0F894D093E9
:100E10007C00C0937A0090917A00906490937A005D
:100E200090917A0096FDFCCF209178003091790066
:100E3000217090917A00906490937A0090917A005A
:100E400096FDFCCF409178005091790010927C0083
:100E500000937A0010937B0078944170241303C0B0
:100E60006150710999F6222339F09D010E2E01C0BF
:100E7000220F0A94EAF7822B3196E830F10509F047
:100E8000C3CFDF91CF911F910F91089580910201FF
:100E9000982F990F990F990F89279091160121E0AA
:100EA000290F20931601282F229526952770822737
:100EB0009695969589278093020108958093020163
:100EC000089580918601811116C0F89486E0809380
:100ED0007C0083E880937A0080917A00806480931C
:100EE0007A0080917A0086FDFCCF80917800909105
:100EF0007900789408958FEF9FEF08952F923F9295
:100F00004F925F926F927F928F929F92AF92BF9219
:100F1000CF92DF92EF92FF920F931F93CF93DF93C5
:100F200000D000D000D0CDB7DEB71C01DC01129696
:100F30000D90BC91A02DBE83AD83A438E3E0BE0725
:100F40000CF0C9C080916001909161018A179B07E4
:100F500008F437C100916201109163010A171B0761
:100F600008F42FC200916401109165010A171B0754
:100F700008F42FC200916601109167010A171B0740
:100F800008F42FC200916801109169010A171B072C
:100F900008F42FC200916A0110916B010A171B0718
:100FA00008F4EFC100916C0110916D010A171B0745
:100FB00008F427C200916E0110916F010A171B07F8
:100FC00008F427C200917001109171010A171B07E4
:100FD00008F427C200917201109173010A171B07D0
:100FE00008F427C200917401109175010A171B07BC
:100FF00008F427C200917601109177010A171B07A8
:1010000008F423C200917801109179010A171B0797
:1010100008F423C200917A0110917B010A171B0783
:1010200008F423C280E090E0A0EDB0E489839A83C5
:10103000AB83BC834CE0E42EF12CF701EE0FFF1FD5
:10104000E05AFE4F80819181B801681B790B80E0E6
:1010500090E00E94C4129B01AC010E94B0116B0190
:101060007C01AD81BE81BD01BB0F880B990B0E9435
:10107000C6124B015C01B80180E090E00E94C412EE
:101080002B013C0129813A814B815C81C701B6016A
:101090000E9452139B01AC01C301B2010E94AF1127
:1010A0009B01AC01C501B4010E94AF1120E030E00A
:1010B00040E251E40E9452130E948E128B01C7013C
:1010C000B6010E948E12AB01BC01C801BA010E9498
:1010D0003B11162F77C0DC01CD90DC908091870109
:1010E000909188018C159D0508F48CC01FEFE0904D
:1010F0008901F0908A01EC14FD0408F45EC1E090CF
:101100008B01F0908C01EC14FD0408F45EC1E090BA
:101110008D01F0908E01EC14FD0408F45EC1E090A6
:101120008F01F0909001EC14FD0408F45EC1E09092
:101130009101F0909201EC14FD0408F4C3C0E0901A
:101140009301F0909401EC14FD0408F456C1E09072
:101150009501F0909601EC14FD0408F456C1E0905E
:101160009701F0909801EC14FD0408F456C1E0904A
:101170009901F0909A01EC14FD0408F456C1E09036
:101180009B01F0909C01EC14FD0408F456C1E09022
:101190009D01F0909E01EC14FD0408F45AC1E0900A
:1011A0009F01F090A001EC14FD0408F45AC1E090F6
:1011B000A101F090A201EC14FD0408F45AC10AE563
:1011C00031C010E0ED81FE81ED3BF240FCF481E2A4
:1011D000810F26960FB6F894DEBF0FBECDBFDF910C
:1011E000CF911F910F91FF90EF90DF90CF90BF9024
:1011F000AF909F908F907F906F905F904F903F90B7
:101200002F90089500E081E2800FE3CFD101CD90CF
:10121000DC9080918701909188018C159D0508F0E4
:1012200066CF00E01F3F79F3ED81FE81BF01FF0F24
:10123000880B990B0E94C6126B017C01612F70E034
:1012400080E090E00E94C4124B015C01A70196016E
:1012500060E070E081E694E40E94AF119B01AC0174
:10126000C501B4010E9452134B015C01602F70E074
:1012700080E090E00E94C4122B013C0120E030E0AD
:101280004FE254E4C701B6010E94AF119B01AC01CB
:10129000C301B2010E9452139B01AC01C501B4010C
:1012A0000E94B01120E030E048E453E40E941C1298
:1012B00020E030E044E052E40E94B0110E94951218
:1012C000862F87CF05E085E090E0880F991FFC010D
:1012D000EB57FE4F80819181B701681B790B80E04D
:1012E00090E00E94C4129B01AC010E94B0114B011E
:1012F0005C01B601DD0C880B990B0E94C6122B0114
:101300003C01B70180E090E00E94C4126B017C01B7
:10131000602F70E080E090E00E94C41220E030E096
:1013200040E05FE30E94521320E030E0A9010E94F8
:10133000B011A50194010E9452139B01AC01C70199
:10134000B6010E94AF119B01AC01C301B2010E9422
:10135000AF1120E030E040E251E40E9452130E94BD
:101360008E127B01C501B4010E948E12AB01BC013B
:10137000C701BA010E943B11062F6F3F09F052CFFF
:1013800026CF65E085E090E07C01F1E0EF1AF108FE
:1013900070E080E090E00E94C41220E030E040E085
:1013A0005FE30E94521320E030E0A9010E94B011D7
:1013B00069837A838B839C8340CE01E081E090E057
:1013C00084CF61E081E090E0DFCF02E082E090E056
:1013D0007CCF62E082E090E0D7CF03E083E090E052
:1013E00074CF63E083E090E0CFCF04E084E090E04E
:1013F0006CCF64E084E090E0C7CF06E086E090E048
:1014000064CF66E086E090E0BFCF07E087E090E041
:101410005CCF67E087E090E0B7CF08E088E090E03D
:1014200054CF68E088E090E0AFCF09E089E090E039
:101430004CCF69E089E090E0A7CF0AE08AE090E035
:1014400044CF6AE08AE090E09FCF6BE08BE090E0D1
:101450009BCF0BE08BE090E038CF6CE08CE090E02D
:1014600093CF0CE08CE090E030CF6DE08DE090E029
:101470008BCF0DE08DE090E028CF1F920F920FB63A
:101480000F9211242F933F934F935F936F937F930A
:101490008F939F93AF93BF93EF93FF932091A601F8
:1014A0003091A7018091A4019091A501820F931F13
:1014B0009093A7018093A6018FEF90E09093A501F0
:1014C0008093A4018FEF87BD809182019091830169
:1014D000A0918401B09185010196A11DB11D809359
:1014E000820190938301A0938401B0938501809140
:1014F000860181110FC08091B5019091B6012091B4
:10150000A6013091A7018217930720F48091190159
:10151000843089F0FF91EF91BF91AF919F918F91AE
:101520007F916F915F914F913F912F910F900FBEDF
:101530000F901F901895E0910501F0910601099513
:10154000009741F30E94250D811109C00E940B14E0
:1015500099279093A5018093A40187BDDBCFE091EB
:101560000301F091040109951092A7011092A601C0
:10157000D1CF80FF11C0559A81FF11C0549A82FFCC
:1015800011C03B9A83FF11C03A9A84FF11C03D9A63
:1015900085FD11C03C980895559881FDEFCF549872
:1015A00082FDEFCF3B9883FDEFCF3A9884FDEFCFDC
:1015B0003D9885FFEFCF3C9A08951F920F920FB68A
:1015C0000F9211248F939F931092810010928500A7
:1015D0001092840081E080935F018093A3011092B8
:1015E000860110927C0093EA90937A0080937B00AE
:1015F0009F918F910F900FBE0F901F9018951F9283
:101600000F920FB60F9211242F933F934F935F9336
:101610006F937F938F939F93AF93BF93CF93DF93FA
:10162000EF93FF93209184003091850041E0409337
:10163000860180915F018823A9F1109285001092A4
:101640008400409381001092B70110925F01809155
:10165000A3018823A1F080917A0086FDFCCF8091C0
:10166000780090917900909381018093800181E0CE
:1016700080937C0093EA90937A0080937B00FF91A3
:10168000EF91DF91CF91BF91AF919F918F917F911A
:101690006F915F914F913F912F910F900FBE0F90DF
:1016A0001F901895C901875891098437994008F00F
:1016B00052C026583109A4EFB0E00E945511AA2764
:1016C000BB2788309105A105B10508F47BC0409384
:1016D0005F018091A301811152C080917D01E82FAB
:1016E000F0E0E755FE4F9091B70190838F5F8093B4
:1016F0007D018C3021F610928100109285001092AD
:1017000084004093A30110928601C091B301D0914F
:10171000B40189EA91E00E94090DC817D90709F0C0
:10172000AECF8091B20187FF61C098E7980F9330E8
:1017300030F0539823981092B4001092B30090E0C8
:10174000FC01E058F109EB30F10508F098CFE55CB9
:10175000FF4F0C944F11109281001092850010924F
:10176000840040935F014093A30110928601109280
:101770007C0083EA80937A0040937B0080CF809145
:101780007A0086FDFCCF809178009091790090934B
:101790007F0180937E0110927C0083EA80937A001F
:1017A00081E080937B009091B7019923D1F0109252
:1017B000810010928500109284008093A301109202
:1017C00086015DCF21E030E0F90102C0EE0FFF1F7E
:1017D0008A95E2F7CF019091B701892B8093B701E9
:1017E0004ECF1092A30110927D0149CFE0910701E5
:1017F000F09108016EE771E089EA91E009953FCF29
:101800008091A901823009F4DDC008F4BAC08330A8
:1018100009F4C6C0843009F0B1C0809117019091DD
:10182000AF01833009F4E3C08091AE01109218013A
:1018300023E0209317018093BA019093BB0180911C
:101840001901863009F41BCF539A239A1092B400E1
:101850001092B30086E08093190111CF8091190195
:10186000863099F0539A239A1092B4001092B300E4
:10187000559854983B983A983D983C981092170187
:101880001092180186E08093190181E090E09C019C
:101890000090A90102C0220F331F0A94E2F7809141
:1018A000B8019091B90182239323892B09F086C056
:1018B00010921701E4CE81E080931901E0CEE0E0C0
:1018C000F0E0099580916E008D7F80936E0016BCCC
:1018D000E0E0F0E7099510921901D1CE82E0809303
:1018E0001901CDCE85E080931901C9CE80911901EF
:1018F000833009F4C4CE80911901843009F4BFCE3D
:10190000539A239A1092B4001092B30083E080930C
:101910001901B5CE80911901863009F0B0CE6091E1
:10192000B80180EB90E00E94BD156091B90181EB98
:1019300090E00E94BD156091BC0185E090E00E949E
:10194000BD156091A80189E090E00E94BD156091ED
:10195000BA018CE090E00E94BD156091BB0184E16A
:1019600090E00E94BD15539823981092B4001092F5
:10197000B30081E0809319018091A90181115FCFAB
:101980007ECE882339F28130C9F78091AA019091E7
:10199000AB019093B9018093B801109217014FCF1A
:1019A00080911701823071F18091AD011092180180
:1019B00092E0909317018093A80141CF81E080933A
:1019C00017015DCE80911701813051F08091AC01FB
:1019D0001092180191E0909317018093BC012FCFD2
:1019E0008091AC019091BC018913F2CF28CF8091F6
:1019F000BB01981319CF8091AE012091BA018213D7
:101A000015CF1DCF8091AD019091A8018913CECF44
:101A100016CFFC01AC01465F5F4F8FEF9FEF219126
:101A20008227082E8295807F8025092E982F829507
:101A30008F700826869598278927880F880F880F2A
:101A40008025E417F50759F708950FB6F894A4B167
:101A500020917C012A2B24B921E030917C01203097
:101A600029F0000025B1232B25B904C00000000097
:101A7000000000C0000000000000309525B12323C5
:101A800025B92EEA2A95F1F72BEE30B735FF0AC0BB
:101A9000A4B930917C01309525B1232325B90FBE1F
:101AA00080E0089500002A9581F721E030917C01C3
:101AB000203029F0000025B1232B25B904C00000F7
:101AC0000000000000C0000000000000309525B1BB
:101AD000232325B9000024E52A95F1F7FC018CE0C9
:101AE000619170E0660F771F616072609AE041E07B
:101AF00050E09A0126233723232B30917C0120309C
:101B000029F0000025B1232B25B904C000000000F6
:101B1000000000C0000000000000309525B1232324
:101B200025B9000021E52A95F1F7440F551F9A9534
:101B300001F78A95A9F620B7206120BFA4B930919A
:101B40007C01309525B1232325B90FBE81E008958E
:101B5000A3E1B0E0EEEAFDE00C9464116C014B01EE
:101B60002A01FC0117821682838181FF43C3AE01E3
:101B70004F5F5F4F3A01F6019381F40193FD859128
:101B800093FF81914F01882309F430C3853239F4E2
:101B900093FD859193FF81914F01853239F4B60110
:101BA00090E00E94091552012501E5CF10E0F12CCB
:101BB00020E02032A0F48B3269F030F4803259F00A
:101BC000833269F420612CC08D3239F0803339F4CE
:101BD000216026C02260246023C0286021C027FD28
:101BE00027C030ED380F3A3078F426FF06C0FAE00F
:101BF0001F9F300D1124132F13C04AE0F49E300DA7
:101C00001124F32E20620CC08E3221F426FDEEC288
:101C1000206406C08C3611F4206802C0883641F476
:101C2000F40193FD859193FF81914F018111C1CF03
:101C30009BEB980F933018F42061805E06C09BE9FF
:101C4000980F933008F071C12F7E26FF16E02F7396
:101C5000322E853619F42064322E08C0863621F4DF
:101C6000F22FF0683F2E02C01111115037FE07C04D
:101C70001C3350F4EE24E394E10E27E00BC018303F
:101C800038F027E017E005C027E04CE3E42E02C05F
:101C9000212FE12C520144E0A40EB11CF20160811D
:101CA0007181828193810E2DA3010E941B142C014E
:101CB000098100FF02C003FF07C031FC08C032FEEB
:101CC00009C030E2232E07C02DE2222E04C09BE281
:101CD000292E01C0212C802F8C7019F0211068C290
:101CE000A8C237FE0FC0E40C04FF04C08A81813310
:101CF00009F4EA941E1474F5F8E0FE1578F588E00E
:101D0000E82E2CC036FC2AC0812F90E08415950562
:101D10009CF02CEF42162FEF520674F0432D4068D2
:101D2000342E0AC0E2E0F0E0EC0FFD1FE10FF11DE0
:101D30008081803319F411501111F4CF37FE0EC099
:101D4000EE24E394E10E812F90E0481659062CF41E
:101D5000141904C0EE24E39401C010E037FE06C05D
:101D60001414150434F4C201019605C085E090E016
:101D700002C081E090E021100196112331F0212F63
:101D800030E02F5F3F4F820F931F2F2D30E08217DF
:101D9000930714F4F81A01C0F12C832D897049F4CB
:101DA000FF2039F0B60180E290E00E940915FA9414
:101DB000F7CF222029F0B601822D90E00E9409156C
:101DC00033FC09C0FF2039F0B60180E390E00E94A7
:101DD0000915FA94F7CF37FE5AC0942D852D57FE7A
:101DE00002C090E080E0292E382E20E030E0A201F1
:101DF0004E1951095D874C87A201421953095F872B
:101E00004E87612F70E044275527461B570B598B8F
:101E1000488B5FEF2516350649F4B6018EE290E057
:101E20002A8B3B8B0E9409153B892A894214530453
:101E30006CF04C855D854215530544F4EE85FF85B5
:101E4000E20FF31FE60DF71D818101C080E351E031
:101E5000251A31082F5F3F4F4889598924163506C6
:101E60004CF0B60190E02A8B3B8B0E9409152A8921
:101E70003B89CFCF2414350439F49A81963318F472
:101E8000953311F404FF81E3B60190E04BC08A81E1
:101E9000813309F00F7EB60190E00E9409151111FF
:101EA00005C034FC18C085E690E017C0B6018EE28C
:101EB00090E00E94091582E0EE24E394E80EF3011D
:101EC000E80FF11D8081B60190E00E9409151150C4
:101ED0008E2D91F7E6CF85E490E0B6010E940915BA
:101EE00057FC05C04114510439F404FF05C0519456
:101EF000419451088DE201C08BE2B60190E00E944E
:101F0000091580E39AE0491651042CF08F5F5AE0DE
:101F1000451A5108F7CFB60190E00E940915B601A5
:101F2000C201C0960E94091557C1833631F083372C
:101F300079F0833509F058C021C05201E2E0AE0EBD
:101F4000B11CF2018081898301E010E0230114C0FB
:101F50005201F2E0AF0EB11CF2014080518026FF29
:101F600003C0612F70E002C06FEF7FEFC2012A8BC8
:101F70000E94FE148C012A892F7715C05201F2E0CD
:101F8000AF0EB11CF2014080518026FF03C0612FCB
:101F900070E002C06FEF7FEFC2012A8B0E94F31442
:101FA0008C012A892068322E23FD1AC08F2D90E0E3
:101FB00008171907A8F4B60180E290E00E940915FD
:101FC000FA94F4CFF20137FC859137FE81912F010D
:101FD000B60190E00E940915F110FA940150110920
:101FE0000115110579F7F8C0843611F0893659F5D5
:101FF000520127FF09C0F4E0AF0EB11CF20160816D
:102000007181828193810AC0F2E0AF0EB11CF201AE
:1020100060817181072E000C880B990B2F76322E70
:1020200097FF09C090958095709561957F4F8F4F70
:102030009F4F2068322E2AE030E0A3010E945715FE
:10204000E82EE6183FC0022F853721F40F7E2AE0E4
:1020500030E01DC0097F8F3691F018F4883559F0B3
:10206000C5C0803719F0883711F0C0C0006104FF87
:1020700009C0046007C024FF08C0066006C028E04D
:1020800030E005C020E130E002C020E132E0520142
:1020900007FF09C0F4E0AF0EB11CF201608171814D
:1020A0008281938108C0F2E0AF0EB11CF201608121
:1020B000718180E090E0A3010E945715E82EE61898
:1020C0000F77302E36FE0BC0332D3E7FE11650F4D5
:1020D00034FE0AC032FC08C0332D3E7E05C00E2DF2
:1020E000332D03C00E2D01C0012F34FF0CC0FE01A3
:1020F000EE0DF11D8081803311F4397E08C032FF6E
:1021000005C00E5F04C0832F867809F00F5F33FD92
:1021100013C030FF06C01E2D0F1518F41F0D101B25
:102120000F2D0F1568F4B60180E290E03B8B0E9402
:1021300009150F5F3B89F5CF0F1510F4F01A01C098
:10214000F12C34FF12C0B60180E390E03B8B0E947B
:1021500009153B8932FF17C031FD03C088E790E0C5
:1021600002C088E590E0B6010CC0832F867859F054
:1021700031FF02C08BE201C080E237FD8DE2B60183
:1021800090E00E940915E11638F4B60180E390E072
:102190000E9409151150F7CFEA94F301EE0DF11DDD
:1021A0008081B60190E00E940915E110F5CF14C0BE
:1021B000F4E0FF1558F584E0F81A33FE1EC0211034
:1021C00026C003FF2AC00CE810E0F32DF0713F2E6B
:1021D000F8018491811124C0FF2009F4E5CCB601F7
:1021E00080E290E00E940915FA94F6CFF60186810C
:1021F000978126C08FEF9FEF23C0B60180E290E069
:102200000E940915FA94F110F8CFD9CFF12CB6013C
:10221000822D90E00E940915D4CF00E910E0D5CFBF
:1022200031108052B60190E00E9409150F5F1F4FD8
:10223000CFCF23E02F1510F483E0BECFF12CC1CF18
:102240006396E2E10C9480110E94390488EF90E0DB
:10225000909308018093070182EF90E0909306012C
:10226000809305016AEB72E087E191E00E943505F9
:1022700080E090E0089597FB072E16F4009407D0B5
:1022800077FD09D00E949B1107FC05D03EF4909584
:1022900081959F4F0895709561957F4F0895EE0F3A
:1022A000FF1F0590F491E02D0994A29FB001B39F08
:1022B000C001A39F700D811D1124911DB29F700D4F
:1022C000811D1124911D08952F923F924F925F928C
:1022D0006F927F928F929F92AF92BF92CF92DF9236
:1022E000EF92FF920F931F93CF93DF93CDB7DEB79B
:1022F000CA1BDB0B0FB6F894DEBF0FBECDBF09942F
:102300002A88398848885F846E847D848C849B8485
:10231000AA84B984C884DF80EE80FD800C811B8193
:10232000AA81B981CE0FD11D0FB6F894DEBF0FBEC2
:10233000CDBFED010895AA1BBB1B51E107C0AA1F29
:10234000BB1FA617B70710F0A61BB70B881F991F56
:102350005A95A9F780959095BC01CD0108955058E4
:10236000BB27AA270E94C7110C9418130E940A13B6
:1023700038F00E94111320F039F49F3F19F426F42D
:102380000C9407130EF4E095E7FB0C940113E92F6E
:102390000E94291358F3BA17620773078407950739
:1023A00020F079F4A6F50C944B130EF4E0950B2E67
:1023B000BA2FA02D0B01B90190010C01CA01A00197
:1023C0001124FF27591B99F0593F50F4503E68F1F2
:1023D0001A16F040A22F232F342F4427585FF3CF33
:1023E000469537952795A795F0405395C9F77EF404
:1023F0001F16BA0B620B730B840BBAF09150A1F04D
:10240000FF0FBB1F661F771F881FC2F70EC0BA0FD2
:10241000621F731F841F48F4879577956795B7955A
:10242000F7959E3F08F0B0CF9395880F08F0992755
:10243000EE0F9795879508950E9430120C9418130B
:102440000E94111358F00E940A1340F029F45F3FD4
:1024500029F00C94011351110C944C130C94071394
:102460000E94291368F39923B1F3552391F3951B27
:10247000550BBB27AA2762177307840738F09F5FA5
:102480005F4F220F331F441FAA1FA9F335D00E2E12
:102490003AF0E0E832D091505040E695001CCAF77F
:1024A0002BD0FE2F29D0660F771F881FBB1F261742
:1024B00037074807AB07B0E809F0BB0B802DBF0119
:1024C000FF2793585F4F3AF09E3F510578F00C94E8
:1024D00001130C944C135F3FE4F3983ED4F38695BC
:1024E00077956795B795F7959F5FC9F7880F911D09
:1024F0009695879597F90895E1E0660F771F881FF5
:10250000BB1F621773078407BA0720F0621B730BA7
:10251000840BBA0BEE1F88F7E09508950E94951280
:102520006894B1110C944C1308950E94311388F0F3
:102530009F5798F0B92F9927B751B0F0E1F0660F87
:10254000771F881F991F1AF0BA95C9F714C0B130C8
:1025500091F00E944B13B1E008950C944B13672F38
:10256000782F8827B85F39F0B93FCCF386957795F7
:102570006795B395D9F73EF49095809570956195E0
:102580007F4F8F4F9F4F0895E89409C097FB3EF40B
:1025900090958095709561957F4F8F4F9F4F9923B0
:1025A000A9F0F92F96E9BB279395F695879577952E
:1025B0006795B795F111F8CFFAF4BB0F11F460FFEE
:1025C0001BC06F5F7F4F8F4F9F4F16C0882311F046
:1025D00096E911C0772321F09EE8872F762F05C05A
:1025E000662371F096E8862F70E060E02AF09A95F5
:1025F000660F771F881FDAF7880F9695879597F9EA
:10260000089597F99F6780E870E060E008959FEF74
:1026100080EC089500240A94161617061806090679
:10262000089500240A941216130614060506089548
:10263000092E0394000C11F4882352F0BB0F40F4D0
:10264000BF2B11F460FF04C06F5F7F4F8F4F9F4F10
:10265000089557FD9058440F551F59F05F3F71F092
:102660004795880F97FB991F61F09F3F79F08795F9
:102670000895121613061406551FF2CF4695F1DF82
:1026800008C0161617061806991FF1CF8695710512
:10269000610508940895E894BB2766277727CB0146
:1026A00097F908950E9465130C9418130E940A1359
:1026B00038F00E94111320F0952311F00C940113AF
:1026C0000C94071311240C944C130E94291370F3DB
:1026D000959FC1F3950F50E0551F629FF001729FC7
:1026E000BB27F00DB11D639FAA27F00DB11DAA1FD6
:1026F000649F6627B00DA11D661F829F2227B00D23
:10270000A11D621F739FB00DA11D621F839FA00DAD
:10271000611D221F749F3327A00D611D231F849FFD
:10272000600D211D822F762F6A2F11249F57504054
:102730009AF0F1F088234AF0EE0FFF1FBB1F661FCF
:10274000771F881F91505040A9F79E3F510580F098
:102750000C9401130C944C135F3FE4F3983ED4F3B4
:10276000869577956795B795F795E7959F5FC1F73C
:10277000FE2B880F911D9695879597F908958F9256
:102780009F92AF92BF92CF92DF92EF92FF92CF9340
:10279000DF93EC01688179818A819B8161157105E4
:1027A0008105910521F464E279ED8BE597E02DE157
:1027B00033EF41E050E00E94CB1549015A019B01E3
:1027C000AC01A7EAB1E40E94EA156B017C01ACEE12
:1027D000B4EFA50194010E94F815DC01CB018C0D2A
:1027E0009D1DAE1DBF1DB7FF03C00197A109B048D5
:1027F00088839983AA83BB839F77DF91CF91FF90D2
:10280000EF90DF90CF90BF90AF909F908F90089502
:102810000E94BF13089589E091E00E94BF130895BC
:10282000A0E0B0E08093090190930A01A0930B010E
:10283000B0930C010895283008F027E03327DA011F
:10284000990F311D87FD916000966105710539F47E
:1028500032602E5F3D9330E32A95E1F708959F3F64
:1028600030F080387105610509F03C5F3C5F3D93B5
:10287000913008F08068911DDF93CF931F930F93E1
:10288000FF92EF92192F987F9695E92F969596953E
:10289000E90FFF27E251FF4F99273327EE24FF244A
:1028A000A701E70105900894079428F4360FE71E66
:1028B000F81E491F511D660F771F881F991F069428
:1028C000A1F70590079428F4E70EF81E491F561F3C
:1028D000C11D770F881F991F661F0694A1F70590E9
:1028E000079428F4F80E491F561FC71FD11D880FE3
:1028F000991F661F771F0694A1F70590079420F48F
:10290000490F561FC71FD81F990F661F771F881FB3
:102910000694A9F784911095177041F0D695C79544
:1029200057954795F794E7941A95C1F7E4E9F0E0D5
:1029300068941590159135916591959105907FE278
:102940007395E118F10A430B560BC90BD009C0F778
:10295000E10CF11E431F561FC91FD01D7EF47033BA
:1029600011F48A95E6CFE894015030F0080F0AF48C
:102970000027021708F4202F2395022F7A3328F01E
:1029800079E37D932A95E9F710C07D932A9589F61E
:10299000069497956795379517951794E118F10A5E
:1029A000430B560BC90BD00998F023957E91739574
:1029B0007A3308F070E37C932013B8F77E9170614E
:1029C0007D9330F0839571E37D9370E32A95E1F771
:1029D0001124EF90FF900F911F91CF91DF919927D4
:1029E00087FD90950895FC0105906150704001109D
:1029F000D8F7809590958E0F9F1F0895FC01615028
:102A0000704001900110D8F7809590958E0F9F1F10
:102A100008950F931F93CF93DF93FB01238121FD33
:102A200003C08FEF9FEF28C022FF16C04681578159
:102A3000248135814217530744F4A081B1819D015F
:102A40002F5F3F4F318320838C93268137812F5F07
:102A50003F4F3783268310C0EB01092F182F0084C6
:102A6000F185E02D0995892BE1F68E819F810196F4
:102A70009F838E83812F902FDF91CF911F910F9194
:102A80000895A0E0B0E0E7E4F5E10C947411AE0124
:102A90004B5F5F4FFA0161917191AF018091BF016E
:102AA0009091C0010E94A80DE2E00C949011FA01EF
:102AB000AA27283051F1203181F1E8946F936E7F7D
:102AC0006E5F7F4F8F4F9F4FAF4FB1E03ED0B4E06E
:102AD0003CD0670F781F891F9A1FA11D680F791FAF
:102AE0008A1F911DA11D6A0F711D811D911DA11DC0
:102AF00020D009F468943F912AE0269F11243019D0
:102B0000305D3193DEF6CF010895462F4770405D6A
:102B10004193B3E00FD0C9F7F6CF462F4F70405D19
:102B20004A3318F0495D31FD4052419302D0A9F774
:102B3000EACFB4E0A6959795879577956795BA956E
:102B4000C9F700976105710508959B01AC010A2E34
:102B500006945795479537952795BA95C9F7620F0B
:102B6000731F841F951FA01D0895F999FECF92BD74
:102B700081BDF89A992780B50895262FF999FECF3F
:102B80001FBA92BD81BD20BD0FB6F894FA9AF99A8A
:102B90000FBE01960895052E97FB1EF400940E9427
:102BA000E21557FD07D00E94FD1507FC03D04EF437
:102BB0000C94E21550954095309521953F4F4F4F1D
:102BC0005F4F089590958095709561957F4F8F4FD9
:102BD0009F4F08950E945511A59F900DB49F900D91
:102BE000A49F800D911D11240895B7FF0C94EA1540
:102BF0000E94EA15821B930B0895A1E21A2EAA1BCC
:102C0000BB1BFD010DC0AA1FBB1FEE1FFF1FA2179C
:102C1000B307E407F50720F0A21BB30BE40BF50B99
:102C2000661F771F881F991F1A9469F76095709522
:102C3000809590959B01AC01BD01CF010895F8945A
:022C4000FFCFC4
:102C42001A01AA3804350434040100000025642066
:062C52000025640A0000E9
:00000001FF
