:100000000C94C7000C94F0000C94F0000C94F000D9
:100010000C94F0000C94F0000C94B2060C94F000D8
:100020000C94F0000C94F0000C94F0000C94710C03
:100030000C94F0000C94F0000C94D10B0C94F00094
:100040000C94F0000C94F0000C94F0000C94F00070
:100050000C94F0000C94F0000C94F0000C94930CB1
:100060000C94F0000C94F00018079407EC06E306DB
:10007000E90676076B07F60DD30CD30CF30DFF0DD5
:10008000EF0D060E020E0A0EC20D940D6E616E008B
:10009000696E660000407A10F35A00A0724E18098B
:1000A0000010A5D4E80000E87648170000E40B54DF
:1000B000020000CA9A3B000000E1F50500008096AE
:1000C0009800000040420F000000A08601000000E0
:1000D000102700000000E80300000000640000009A
:1000E00000000A00000000000100000000002C7663
:1000F000D888DC674F0823DFC1DFAE59E1B1B7967E
:10010000E5E3E453C63AE651997696E8E6C28426DA
:10011000EB898C9B62ED407C6FFCEFBC9C9F40F2B6
:10012000BAA56FA5F490055A2AF75C936B6CF96732
:100130006DC11BFCE0E40D47FEF520E6B500D0EDF7
:10014000902E0300943577050080841E080000205F
:100150004E0A000000C80C333333330F986E1283FD
:100160001141EF8D2114893BE65516CFFEE6DB18D1
:10017000D1844B381BF77C1D901DA4BBE424203296
:1001800084725E228100C9F124ECA1E53D2711248F
:100190001FBECFEFD8E0DEBFCDBF14BE0FB6F894C0
:1001A000A895809160008861809360001092600043
:1001B0000FBE11E0A0E0B1E0EEECFFE202C005905E
:1001C0000D92A234B107D9F722E0A2E4B1E001C058
:1001D0001D92A331B207E1F70E94B8120C94E51703
:1001E0000C9400008093C6008091C00085FFFCCF76
:1001F00080E090E0089580910E0190910F01825B64
:100200009F4F0895CF93DF93FC01C0910E01D091D1
:100210000F01DE01A65ABF4F9CE001900D929A9506
:10022000E1F7CB010E941209C959DF4F8883E091A1
:100230000E01F0910F01EA59FF4F81E08083DF91B9
:10024000CF910895CF93DF938091D2019091D30104
:10025000A091D401B091D501BF93AF939F938F9399
:100260008BE191E09F938F930E94D71680910902B2
:100270008F93809108028F9385E391E09F938F93F2
:100280000E94D716C0910E01D0910F01FE01E95ACC
:10029000FF4F1082CE01825B9F4F20910802FC012C
:1002A00020830E949D0EC85ADF4F99838883C09196
:1002B0000E01D0910F018091D2019091D301A091B4
:1002C000D401B091D50188839983AA83BB83FE01B1
:1002D000E45BFF4F10821C820E948B08C55BDF4FDE
:1002E0009BEA899F912D11249695292F220F920F19
:1002F000891B8F5F888380910E0190910F01FC0113
:10030000EA59FF4F108231962FEF2083319621E07A
:1003100020837B9710828DB79EB70A960FB6F8940C
:100320009EBF0FBE8DBFDF91CF910895F894519A73
:100330008CE090E09093C5008093C400E0ECF0E086
:1003400080818D7F8083E2ECF0E080818660808315
:10035000E1ECF0E080818860808380E091E0909320
:10036000100280930F02789408950F931F93CF93F8
:10037000DF93E0910E01F0910F01DF01A959BF4F0A
:100380006C91EF01C65ADF4F888190E024812223CF
:1003900009F49DC0428553854817590709F47CC06C
:1003A000223008F49FC0418952894817590709F43F
:1003B00076C0223009F49AC0408D518D48175907F4
:1003C00009F470C0233009F48BC0478D50A1481741
:1003D000590709F46AC0243009F48CC046A157A11A
:1003E0004817590709F464C0253009F481C045A5B0
:1003F00056A54817590709F45EC0263009F46AC0AB
:1004000044A955A94817590709F458C0273009F4D9
:100410006BC043AD54AD4817590709F452C028309A
:1004200009F45CC06897488159814817590709F455
:100430004BC0293009F450C027964881598148178C
:10044000590739F14AE050E02A3010F42F5F248335
:100450009A01220F331F220F331F220F331F241B39
:10046000350BE20FF31F938782870091D201109121
:10047000D3012091D4013091D501058316832783C0
:10048000308761878FEF8C93DF91CF911F910F9110
:10049000089549E050E0DCCF40E050E0D9CF41E0A2
:1004A00050E0D6CF42E050E0D3CF43E050E0D0CF91
:1004B00044E050E0CDCF45E050E0CACF46E050E008
:1004C000C7CF47E050E0C4CF48E050E0C1CF40E0A4
:1004D00050E0BCCF46E0B7CF49E0B5CF48E0B3CF5E
:1004E00043E0B1CF41E0AFCF47E0ADCF42E0ABCF8B
:1004F00045E0A9CF44E0A7CFCF92DF92EF92FF92E1
:100500001F93CF93DF93C0910E01D0910F018C8187
:10051000882309F441C0815087FD3EC017E02FEFCA
:100520003FEF4091D2015091D3016091D40170917D
:10053000D501FE0197E08902E00DF11D1124DF01D4
:100540001596C580D680E780F0844C195D096E0948
:100550007F094134510561057105E0F09C81692FE7
:1005600070E061507109AB01440F551F440F551FD6
:10057000440F551F461B570B4C0F5D1FFA01359654
:10058000612F01900D926A95E1F7FA013387228776
:1005900091509C83815028F6DF91CF911F91FF905D
:1005A000EF90DF90CF900895E0910E01F0910F0150
:1005B0002481222309F44DC08185813408F047C08D
:1005C00091E0892F223008F445C08089813408F4F5
:1005D00091E0892F2230F1F18789813408F491E08C
:1005E000892F2330B9F1868D813408F491E0892F69
:1005F000243081F185A1813408F491E0892F2530E0
:1006000049F184A5813408F491E0892F263011F155
:1006100083A9813408F491E0892F2730D9F082AD85
:10062000813408F491E0892F2830A1F0DF01AF5B1D
:10063000BF4F8C91813408F491E0892F293051F01B
:10064000E85BFF4F8081813430F0892F089590E07E
:10065000B8CF80E0089581E008950E948B088370F0
:10066000E0910E01F0910F01E55BFF4F8823B9F097
:100670008330A9F0813039F18081833079F00E9494
:1006800031086091F80180E00E942C08E0910E0191
:10069000F0910F01E55BFF4F83E080830895808137
:1006A0008130E1F30E94310860910B0280910A02CF
:1006B0000E942C08E0910E01F0910F01E55BFF4FC5
:1006C00081E0808308958081823041F30E94310867
:1006D00060E080910C020E942C08E0910E01F091E4
:1006E0000F01E55BFF4F82E080830895CF92DF9298
:1006F000EF92FF920F931F93CF93DF93C0910E0160
:10070000D0910F01FE01EA59FF4F9081913009F419
:1007100038C18C81882309F441C0815087FD3EC0D7
:1007200017E02FEF3FEF4091D2015091D30160913C
:10073000D4017091D501FE01B7E08B02E00DF11DEF
:100740001124DF011596C580D680E780F0844C190E
:100750005D096E097F094134510561057105E0F0BD
:100760009C81692F70E061507109AB01440F551FE6
:10077000440F551F440F551F461B570B4C0F5D1F51
:10078000FA013596612F01900D926A95E1F7FA0111
:100790003387228791509C83815028F64091D20163
:1007A0005091D3016091D4017091D50188819981D4
:1007B000AA81BB818096A11DB11D84179507A6074C
:1007C000B70748F0DF91CF911F910F91FF90EF9005
:1007D000DF90CF9008958091D2019091D301A091A4
:1007E000D401B091D50188839983AA83BB8381E02A
:1007F0000E944D0CE0910E01F0910F0184811F9237
:100800008F938FE191E09F938F930E94D716A091D1
:100810000E01B0910F010F900F900F900F90149652
:100820008C911497882331F1C0E0D0E00BE111E006
:10083000FE01EE0FFF1FEE0FFF1FEE0FFF1FEC1B61
:10084000FD0BEA0FFB1F81851F928F931F930F9360
:100850000E94D7162196A0910E01B0910F01149617
:100860008C91149790E00F900F900F900F90C817F5
:10087000D907F4F289E391E00E94ED16E0910E01B0
:10088000F0910F012481222309F40CC18185813468
:1008900008F05AC081E0982F223008F442C09089B5
:1008A000913408F481E0982F2230D9F1978991345E
:1008B00008F481E0982F2330A1F1968D913408F44B
:1008C00081E0982F243069F195A1913408F481E0FA
:1008D000982F253031F194A5913408F481E0982FB8
:1008E0002630F9F093A9913408F481E0982F27304D
:1008F000C1F092AD913408F481E0982F283089F04E
:10090000DF01AF5BBF4F9C91913408F481E0982FD9
:10091000293039F0DF01A85BBF4F9C919134B0F0D2
:10092000982F9923B1F0E35BFF4F82E080830E9410
:100930002D0381E0DF91CF911F910F91FF90EF90F8
:10094000DF90CF900C944D0C80E0A5CF91E09111F9
:10095000EACFDF01A35BBF4F81E08C93E55BFF4FE4
:100960008081882359F060E080E00E942C08E091AB
:100970000E01F0910F01E55BFF4F1082108284E0C1
:10098000D9CFBE0169597F4FDB011C911D972C9176
:1009900030E08C81882309F4ADC04A855B8542171D
:1009A000530709F48CC0823008F4A7C049895A89DA
:1009B0004217530709F489C0823009F4AFC0488D4B
:1009C000598D4217530709F47DC0833009F4A3C041
:1009D0004F8D58A14217530709F483C0843009F49E
:1009E00086C04EA15FA14217530709F477C0853036
:1009F00009F47AC04DA55EA54217530709F46BC0F0
:100A0000863009F485C04CA95DA94217530709F443
:100A10005FC0873009F479C04BAD5CAD4217530716
:100A200009F447C0883009F46DC058974D915C9126
:100A3000119742175307D1F1893009F460C0179616
:100A40004D915C9142175307B9F19AE04AE050E0AA
:100A50008A3030F58F5F8C83DA01AA0FBB1FAA0F93
:100A6000BB1FAA0FBB1FA41BB50BAC0FBD1F1B9652
:100A70003C932E931A97C090D201D090D301E0906E
:100A8000D401F090D5011596CD92DD92ED92FC92B5
:100A9000189719961C939FEFDB019C9310823ACE16
:100AA000892FDACFE35BFF4F108241CF48E050E05F
:100AB000D3CF47E050E0D0CF49E050E0CDCF40E089
:100AC00050E0CACF42E050E0C7CF41E050E0C4CF91
:100AD00046E050E0C1CF45E050E0BECF44E050E0FA
:100AE000BBCF43E050E0B8CF95E045E0B0CF94E015
:100AF00044E0ADCF40E050E0ADCF41E0A8CF99E079
:100B000049E0A5CF98E048E0A2CF97E047E09FCF2B
:100B100096E046E09CCF93E043E099CF92E042E03C
:100B200096CFCF93E0910E01F0910F01E55BFF4F5F
:100B30009081981791F0C82F8230C9F0833079F0F6
:100B40008130E9F060E080E00E942C08E0910E0125
:100B5000F0910F01E55BFF4FC083CF9108950E9494
:100B600031086091F80180E00E942C08EFCF0E94CC
:100B7000310860E080910C020E942C08E7CF0E94AF
:100B8000310860910B0280910A020E942C08DECF8E
:100B9000089580E090E008950895DF92EF92FF922B
:100BA0000F931F93CF93DF93F89414B817B81AB824
:100BB00015B818B81BB8529A5A9A14BC85E085BD6E
:100BC0008FEF87BD82E080936E00109280001092BC
:100BD00081002FE83BE030938900209388008093C8
:100BE0006F005398239891EA9093B0008093B100DE
:100BF0001092B4001092B3008BE080BF83E080932A
:100C00007F0086E080937C0083E880937A00809167
:100C10007A00806480937A0080917A0086FDFCCF10
:100C200010927C0083EA80937A0081E080937B00BD
:100C300081E090E00E947B178F3F11F08093660067
:100C40001092D601C1E0C093AF01C093F30110929E
:100C5000CD011092070280E990E00E947B178093FB
:100C6000CC018091CC01887311F0C093CC0110921B
:100C7000F7011092F6018FEF90E09093F5018093C9
:100C8000F4011092D2011092D3011092D40110926B
:100C9000D50181E08093450182E49FE090930602B4
:100CA0008093050280EB90E00E947B17C82F81EBB8
:100CB00090E00E947B172C2F30E0382B30930902F4
:100CC0002093080285E090E00E947B1780930C023D
:100CD00089E090E00E947B178093F8018CE090E01F
:100CE0000E947B1780930A0284E190E00E947B17A8
:100CF00080930B0257EDE52E51E0F52E00EB11E04D
:100D0000C0E2D0E0CE010E947B17D82ECE01019622
:100D10000E947B172D2D30E0322F2227282BF70140
:100D2000219331937F01CE01C0960E947B17D82E6C
:100D3000CE01C1960E947B172D2D30E0322F222745
:100D4000282BF801219331938F012296CC33D105C2
:100D5000C9F67894DF91CF911F910F91FF90EF909A
:100D6000DF9008951F920F920FB60F9211248F9368
:100D70000FB6F894A8958091600088618093600018
:100D8000109260000FBE8F910F900FBE0F901F90BA
:100D900018953C01EB0110E099249A9484E0C82E48
:100DA00096E0A92E23E8B22E38E1D32E49E2E42EB4
:100DB00090914501E92FF0E0E730F105C8F7EC5CD0
:100DC000FF4F0C94E512112309F4FCC0C0924501B9
:100DD00011E0FE010995ECCF8091D6018111EBC0A5
:100DE000F894A0927C00B0927A0080917A0080649E
:100DF00080937A0090917A0096FDFCCF80917800E4
:100E00009091790078948B3AE2E09E070CF0EDC067
:100E10008938F2E09F070CF0EFC0873692400CF45F
:100E2000CAC0559A549A3B9A3A9A3D983C98C0CF7A
:100E3000F89480B7877F80BF80917A008F77809306
:100E40007A0014B817B81AB815B818B81BB80FB686
:100E5000F894A895D09260000FBEE0926000809157
:100E6000600080648093600093B7917F946093BF2B
:100E7000F89483B7816083BF7894889583B78E7F19
:100E800083BF78941092D601529A5A9A80917A0030
:100E9000806880937A0087E592E00197F1F700C0BF
:100EA000000080B7886180BF559A549A3B9A3A9A5D
:100EB0003D9A3C9AEFE1FEE43197F1F700C0000063
:100EC0008091D601811181C0559854983B983A98E9
:100ED0003D983C986DCF80914301811141C01092A3
:100EE000B3001092B4001092440162CF4899ECCF45
:100EF000559A54983B983A983D983C988FEC97E0D7
:100F00000197F1F700C00000559854983B983A9823
:100F10003D983C989FEFE1EEF4E09150E040F040C6
:100F2000E1F700C0000044CF559854983B9A3A9A94
:100F30003D983C98EFECF7E03197F1F700C00000E6
:100F4000559854983B983A983D983C98FFEF21EE7D
:100F500084E0F15020408040E1F700C0000028CF3D
:100F60009091430180914401981709F421CF809119
:100F700043018093440180914301813009F450C0C2
:100F8000809143011092B3009092B4008230D9F165
:100F90009092B3009092B4008FE295E70197F1F739
:100FA00000C0000080910B0290910A029093B30060
:100FB0008093B400FDCE559A549A3B983A983D9848
:100FC0003C98F6CEF301099501CF559A549A3B9877
:100FD0003A983D983C98FFEF20E782E0F15020409E
:100FE0008040E1F700C000006FCF559854983B9ABD
:100FF0003A9A3D983C98DCCE559854983B983A984C
:101000003D9A3C9AD5CEEFE2F5E73197F1F700C073
:1010100000008091F8011092B3008093B400C8CE14
:101020009092B3001092B4008FE295E70197F1F728
:1010300000C0000080910C028093B3001092B400B5
:10104000B7CE07C0EFECF7E03197F1F700C0000032
:1010500001970097B9F708958093B3006093B400A7
:1010600008958FEF8093B3008093B4008FE090E0F9
:10107000EFECF7E03197F1F700C000000197C1F7FE
:1010800008958091D60181111EC0F89487E0809365
:101090007C0083E880937A0080917A00806480935A
:1010A0007A0080917A0086FDFCCF80917800909143
:1010B000790010927C0023EA20937A0021E02093AB
:1010C0007B00789408958FEF9FEF08958091D6016B
:1010D00081111EC0F89488EC80937C0087E880938F
:1010E0007A0080917A00806480937A0080917A00FF
:1010F00086FDFCCF809178009091790010927C0061
:1011000023EA20937A0021E020937B0078940895CD
:101110008FEF9FEF08950F931F93CF93DF93E0E03E
:10112000F0E080E003EA11E0D6E0C3E8A1E0B0E03F
:1011300060E870E0F894D0937C00C0937A009091BE
:101140007A00906490937A0090917A0096FDFCCF9B
:101150002091780030917900217090917A0090640C
:1011600090937A0090917A0096FDFCCF40917800A0
:101170005091790010927C0000937A0010937B00CC
:1011800078944170241303C06150710999F62223A9
:1011900039F09D010E2E01C0220F0A94EAF7822B2E
:1011A0003196E830F10509F0C3CFDF91CF911F915F
:1011B0000F91089580911001982F990F990F990F11
:1011C00089279091420121E0290F20934201282F85
:1011D0002295269527708227969596958927809344
:1011E000100108958093100108958091D601811116
:1011F00016C0F89486E080937C0083E880937A00A0
:1012000080917A00806480937A0080917A0086FDD4
:10121000FCCF8091780090917900789408958FEFB9
:101220009FEF08952F923F924F925F926F927F921D
:101230008F929F92AF92BF92CF92DF92EF92FF92E6
:101240000F931F93CF93DF9300D000D000D0CDB782
:10125000DEB71C01DC0112960D90BC91A02DBE835F
:10126000AD83A438E3E0BE070CF0C9C08091B001A3
:101270009091B1018A179B0708F437C10091B20120
:101280001091B3010A171B0708F42FC20091B40193
:101290001091B5010A171B0708F42FC20091B6017F
:1012A0001091B7010A171B0708F42FC20091B8016B
:1012B0001091B9010A171B0708F42FC20091BA0157
:1012C0001091BB010A171B0708F4EFC10091BC0184
:1012D0001091BD010A171B0708F427C20091BE0137
:1012E0001091BF010A171B0708F427C20091C00123
:1012F0001091C1010A171B0708F427C20091C2010F
:101300001091C3010A171B0708F427C20091C401FA
:101310001091C5010A171B0708F427C20091C601E6
:101320001091C7010A171B0708F423C20091C801D6
:101330001091C9010A171B0708F423C20091CA01C2
:101340001091CB010A171B0708F423C280E090E03C
:10135000A0EDB0E489839A83AB83BC834CE0E42E98
:10136000F12CF701EE0FFF1FE055FE4F80819181B8
:10137000B801681B790B80E090E00E945A149B0131
:10138000AC010E9446136B017C01AD81BE81BD01A1
:10139000BB0F880B990B0E945C144B015C01B801D8
:1013A00080E090E00E945A142B013C0129813A818F
:1013B0004B815C81C701B6010E94E8149B01AC011E
:1013C000C301B2010E9445139B01AC01C501B401E8
:1013D0000E94451320E030E040E251E40E94E8140E
:1013E0000E9424148B01C701B6010E942414AB0192
:1013F000BC01C801BA010E94D112162F77C0DC01CE
:10140000CD90DC908091D7019091D8018C159D05ED
:1014100008F48CC01FEFE090D901F090DA01EC14D1
:10142000FD0408F45EC1E090DB01F090DC01EC14F7
:10143000FD0408F45EC1E090DD01F090DE01EC14E3
:10144000FD0408F45EC1E090DF01F090E001EC14CF
:10145000FD0408F45EC1E090E101F090E201EC14BB
:10146000FD0408F4C3C0E090E301F090E401EC1443
:10147000FD0408F456C1E090E501F090E601EC149B
:10148000FD0408F456C1E090E701F090E801EC1487
:10149000FD0408F456C1E090E901F090EA01EC1473
:1014A000FD0408F456C1E090EB01F090EC01EC145F
:1014B000FD0408F456C1E090ED01F090EE01EC144B
:1014C000FD0408F45AC1E090EF01F090F001EC1433
:1014D000FD0408F45AC1E090F101F090F201EC141F
:1014E000FD0408F45AC10AE531C010E0ED81FE8127
:1014F000ED3BF240FCF481E2810F26960FB6F894A2
:10150000DEBF0FBECDBFDF91CF911F910F91FF9036
:10151000EF90DF90CF90BF90AF909F908F907F9093
:101520006F905F904F903F902F90089500E081E280
:10153000800FE3CFD101CD90DC908091D7019091C5
:10154000D8018C159D0508F066CF00E01F3F79F3A8
:10155000ED81FE81BF01FF0F880B990B0E945C1487
:101560006B017C01612F70E080E090E00E945A14D2
:101570004B015C01A701960160E070E081E694E414
:101580000E9445139B01AC01C501B4010E94E814FF
:101590004B015C01602F70E080E090E00E945A14E3
:1015A0002B013C0120E030E04FE254E4C701B601DA
:1015B0000E9445139B01AC01C301B2010E94E814D3
:1015C0009B01AC01C501B4010E94461320E030E04C
:1015D00048E453E40E94B21320E030E044E052E4D7
:1015E0000E9446130E942B14862F87CF05E085E0CA
:1015F00090E0880F991FFC01EB52FE4F8081918192
:10160000B701681B790B80E090E00E945A149B019F
:10161000AC010E9446134B015C01B601DD0C880B46
:10162000990B0E945C142B013C01B70180E090E013
:101630000E945A146B017C01602F70E080E090E002
:101640000E945A1420E030E040E05FE30E94E8147A
:1016500020E030E0A9010E944613A50194010E94F8
:10166000E8149B01AC01C701B6010E9445139B0120
:10167000AC01C301B2010E94451320E030E040E21A
:1016800051E40E94E8140E9424147B01C501B401B6
:101690000E942414AB01BC01C701BA010E94D112FF
:1016A000062F6F3F09F052CF26CF65E085E090E02E
:1016B0007C01F1E0EF1AF10870E080E090E00E9418
:1016C0005A1420E030E040E05FE30E94E81420E09C
:1016D00030E0A9010E94461369837A838B839C833F
:1016E00040CE01E081E090E084CF61E081E090E0D5
:1016F000DFCF02E082E090E07CCF62E082E090E029
:10170000D7CF03E083E090E074CF63E083E090E024
:10171000CFCF04E084E090E06CCF64E084E090E020
:10172000C7CF06E086E090E064CF66E086E090E018
:10173000BFCF07E087E090E05CCF67E087E090E014
:10174000B7CF08E088E090E054CF68E088E090E010
:10175000AFCF09E089E090E04CCF69E089E090E00C
:10176000A7CF0AE08AE090E044CF6AE08AE090E008
:101770009FCF6BE08BE090E09BCF0BE08BE090E0A5
:1017800038CF6CE08CE090E093CF0CE08CE090E000
:1017900030CF6DE08DE090E08BCF0DE08DE090E0FC
:1017A00028CF1F920F920FB60F9211242F933F93C1
:1017B0004F935F936F937F938F939F93AF93BF9359
:1017C000EF93FF932091F6013091F7018091F4019E
:1017D0009091F501820F931F9093F7018093F6018A
:1017E0008FEF90E09093F5018093F4018FEF87BD28
:1017F0008091D2019091D301A091D401B091D501F3
:101800000196A11DB11D8093D2019093D301A093A5
:10181000D401B093D5018091D60181110FC0809180
:101820000502909106022091F6013091F70182178E
:10183000930720F480914501843089F0FF91EF9166
:10184000BF91AF919F918F917F916F915F914F91D8
:101850003F912F910F900FBE0F901F901895E09120
:101860001301F09114010995009741F30E94B90EFC
:10187000811109C00E94A11599279093F5018093C9
:10188000F40187BDDBCFE0911101F09112010995C0
:101890001092F7011092F601D1CF80FF11C0559A36
:1018A00081FF11C0549A82FF11C03B9A83FF11C07F
:1018B0003A9A84FF11C03D9A85FD11C03C98089565
:1018C000559881FDEFCF549882FDEFCF3B9883FD73
:1018D000EFCF3A9884FDEFCF3D9885FFEFCF3C9A4C
:1018E00008951F920F920FB60F9211248F939F931A
:1018F00010928100109285001092840081E0809304
:10190000AF018093F3011092D60110927C0093EA0C
:1019100090937A0080937B009F918F910F900FBEE0
:101920000F901F9018951F920F920FB60F921124CF
:101930002F933F934F935F936F937F938F939F93D7
:10194000AF93BF93CF93DF93EF93FF9320918400E6
:101950003091850041E04093D6018091AF0188230A
:10196000A9F110928500109284004093810010929A
:1019700007021092AF018091F3018823A1F08091BA
:101980007A0086FDFCCF8091780090917900909349
:10199000D1018093D00181E080937C0093EA909301
:1019A0007A0080937B00FF91EF91DF91CF91BF91FF
:1019B000AF919F918F917F916F915F914F913F91E7
:1019C0002F910F900FBE0F901F901895C901875847
:1019D00091098437994008F052C026583109A4EF84
:1019E000B0E00E94EB12AA27BB2788309105A10521
:1019F000B10508F47BC04093AF018091F3018111E0
:101A000052C08091CD01E82FF0E0E750FE4F909159
:101A1000070290838F5F8093CD018C3021F6109266
:101A2000810010928500109284004093F30110927F
:101A3000D601C0910302D091040289EF91E00E9487
:101A40009D0EC817D90709F0AECF8091020287FF1B
:101A500061C098E7980F933030F053982398109214
:101A6000B4001092B30090E0FC01E058F109EB30B3
:101A7000F10508F098CFE55CFF4F0C94E512109249
:101A8000810010928500109284004093AF01409332
:101A9000F3011092D60110927C0083EA80937A00C1
:101AA00040937B0080CF80917A0086FDFCCF8091AF
:101AB0007800909179009093CF018093CE0110929D
:101AC0007C0083EA80937A0081E080937B00909190
:101AD00007029923D1F01092810010928500109294
:101AE00084008093F3011092D6015DCF21E030E0B5
:101AF000F90102C0EE0FFF1F8A95E2F7CF01909126
:101B00000702892B809307024ECF1092F3011092A7
:101B1000CD0149CFE0911501F09116016EEC71E015
:101B200089EF91E009953FCF8091F901823009F466
:101B3000DDC008F4BAC0833009F4C6C0843009F0AF
:101B4000B1C0809143019091FF01833009F4E3C05B
:101B50008091FE011092440123E020934301809381
:101B60000A0290930B0280914501863009F41BCF45
:101B7000539A239A1092B4001092B30086E0809397
:101B8000450111CF80914501863099F0539A239AEF
:101B90001092B4001092B300559854983B983A981C
:101BA0003D983C98109243011092440186E0809346
:101BB000450181E090E09C010090F90102C0220FF4
:101BC000331F0A94E2F78091080290910902822360
:101BD0009323892B09F086C010924301E4CE81E063
:101BE00080934501E0CEE0E0F0E0099580916E0041
:101BF0008D7F80936E0016BCE0E0F0E709951092AF
:101C00004501D1CE82E080934501CDCE85E0809321
:101C10004501C9CE80914501833009F4C4CE80913D
:101C20004501843009F4BFCE539A239A1092B40030
:101C30001092B30083E080934501B5CE80914501B9
:101C4000863009F0B0CE6091080280EB90E00E94EF
:101C500083176091090281EB90E00E9483176091E5
:101C60000C0285E090E00E9483176091F80189E002
:101C700090E00E94831760910A028CE090E00E943D
:101C8000831760910B0284E190E00E9483175398C0
:101C900023981092B4001092B30081E08093450124
:101CA0008091F90181115FCF7ECE882339F2813096
:101CB000C9F78091FA019091FB01909309028093FA
:101CC0000802109243014FCF80914301823071F19D
:101CD0008091FD011092440192E090934301809322
:101CE000F80141CF81E0809343015DCE80914301B3
:101CF000813051F08091FC011092440191E0909369
:101D0000430180930C022FCF8091FC0190910C0233
:101D10008913F2CF28CF80910B02981319CF8091AD
:101D2000FE0120910A02821315CF1DCF8091FD0183
:101D30009091F8018913CECF16CFFC01AC01465F1C
:101D40005F4F8FEF9FEF21918227082E8295807F32
:101D50008025092E982F82958F70082686959827C2
:101D60008927880F880F880F8025E417F50759F712
:101D700008950FB6F894A4B12091CC012A2B24B970
:101D800021E03091CC01203029F0000025B1232B37
:101D900025B904C000000000000000C000000000E1
:101DA0000000309525B1232325B92EEA2A95F1F7B5
:101DB0002BEE30B735FF0AC0A4B93091CC01309575
:101DC00025B1232325B90FBE80E0089500002A9590
:101DD00081F721E03091CC01203029F0000025B1BD
:101DE000232B25B904C000000000000000C0000043
:101DF00000000000309525B1232325B9000024E51B
:101E00002A95F1F7FC018CE0619170E0660F771F75
:101E1000616072609AE041E050E09A012623372326
:101E2000232B3091CC01203029F0000025B1232B49
:101E300025B904C000000000000000C00000000040
:101E40000000309525B1232325B9000021E52A950E
:101E5000F1F7440F551F9A9501F78A95A9F620B717
:101E6000206120BFA4B93091CC01309525B1232346
:101E700025B90FBE81E00895A3E1B0E0E2E4FFE000
:101E80000C94FA126C014B012A01FC011782168294
:101E9000838181FF43C3AE014F5F5F4F3A01F6017B
:101EA0009381F40193FD859193FF81914F018823E4
:101EB00009F430C3853239F493FD859193FF819104
:101EC0004F01853239F4B60190E00E949F1652010D
:101ED0002501E5CF10E0F12C20E02032A0F48B3278
:101EE00069F030F4803259F0833269F420612CC0FB
:101EF0008D3239F0803339F4216026C022602460AD
:101F000023C0286021C027FD27C030ED380F3A30AC
:101F100078F426FF06C0FAE01F9F300D1124132F1E
:101F200013C04AE0F49E300D1124F32E20620CC041
:101F30008E3221F426FDEEC2206406C08C3611F4E8
:101F4000206802C0883641F4F40193FD859193FF27
:101F500081914F018111C1CF9BEB980F933018F401
:101F60002061805E06C09BE9980F933008F071C134
:101F70002F7E26FF16E02F73322E853619F420644B
:101F8000322E08C0863621F4F22FF0683F2E02C0B0
:101F90001111115037FE07C01C3350F4EE24E394A6
:101FA000E10E27E00BC0183038F027E017E005C03D
:101FB00027E04CE3E42E02C0212FE12C520144E043
:101FC000A40EB11CF20160817181828193810E2D7A
:101FD000A3010E94B1152C01098100FF02C003FF7B
:101FE00007C031FC08C032FE09C030E2232E07C012
:101FF0002DE2222E04C09BE2292E01C0212C802F2D
:102000008C7019F0211068C2A8C237FE0FC0E40C12
:1020100004FF04C08A81813309F4EA941E1474F524
:10202000F8E0FE1578F588E0E82E2CC036FC2AC0D2
:10203000812F90E0841595059CF02CEF42162FEF30
:10204000520674F0432D4068342E0AC0E2E0F0E0FE
:10205000EC0FFD1FE10FF11D8081803319F4115049
:102060001111F4CF37FE0EC0EE24E394E10E812F60
:1020700090E0481659062CF4141904C0EE24E39499
:1020800001C010E037FE06C01414150434F4C20178
:10209000019605C085E090E002C081E090E021104B
:1020A0000196112331F0212F30E02F5F3F4F820F37
:1020B000931F2F2D30E08217930714F4F81A01C0F4
:1020C000F12C832D897049F4FF2039F0B60180E2AC
:1020D00090E00E949F16FA94F7CF222029F0B601D3
:1020E000822D90E00E949F1633FC09C0FF2039F03A
:1020F000B60180E390E00E949F16FA94F7CF37FE76
:102100005AC0942D852D57FE02C090E080E0292E04
:10211000382E20E030E0A2014E1951095D874C872E
:10212000A201421953095F874E87612F70E044274F
:102130005527461B570B598B488B5FEF25163506E5
:1021400049F4B6018EE290E02A8B3B8B0E949F16E9
:102150003B892A89421453046CF04C855D854215F5
:10216000530544F4EE85FF85E20FF31FE60DF71DDE
:10217000818101C080E351E0251A31082F5F3F4F74
:1021800048895989241635064CF0B60190E02A8B0F
:102190003B8B0E949F162A893B89CFCF241435049C
:1021A00039F49A81963318F4953311F404FF81E3DE
:1021B000B60190E04BC08A81813309F00F7EB601F1
:1021C00090E00E949F16111105C034FC18C085E6EE
:1021D00090E017C0B6018EE290E00E949F1682E068
:1021E000EE24E394E80EF301E80FF11D8081B601BF
:1021F00090E00E949F1611508E2D91F7E6CF85E456
:1022000090E0B6010E949F1657FC05C0411451048E
:1022100039F404FF05C05194419451088DE201C086
:102220008BE2B60190E00E949F1680E39AE0491687
:1022300051042CF08F5F5AE0451A5108F7CFB601D0
:1022400090E00E949F16B601C201C0960E949F16A0
:1022500057C1833631F0833779F0833509F058C0A0
:1022600021C05201E2E0AE0EB11CF20180818983EF
:1022700001E010E0230114C05201F2E0AF0EB11CE6
:10228000F2014080518026FF03C0612F70E002C040
:102290006FEF7FEFC2012A8B0E9494168C012A896E
:1022A0002F7715C05201F2E0AF0EB11CF201408051
:1022B000518026FF03C0612F70E002C06FEF7FEFF7
:1022C000C2012A8B0E9489168C012A892068322E2D
:1022D00023FD1AC08F2D90E008171907A8F4B60146
:1022E00080E290E00E949F16FA94F4CFF20137FC4E
:1022F000859137FE81912F01B60190E00E949F16D3
:10230000F110FA94015011090115110579F7F8C07F
:10231000843611F0893659F5520127FF09C0F4E0DF
:10232000AF0EB11CF20160817181828193810AC07C
:10233000F2E0AF0EB11CF20160817181072E000C3A
:10234000880B990B2F76322E97FF09C090958095B8
:10235000709561957F4F8F4F9F4F2068322E2AE0F6
:1023600030E0A3010E941D17E82EE6183FC0022F9F
:10237000853721F40F7E2AE030E01DC0097F8F36BB
:1023800091F018F4883559F0C5C0803719F08837B6
:1023900011F0C0C0006104FF09C0046007C024FF41
:1023A00008C0066006C028E030E005C020E130E04B
:1023B00002C020E132E0520107FF09C0F4E0AF0E95
:1023C000B11CF201608171818281938108C0F2E0C9
:1023D000AF0EB11CF2016081718180E090E0A30139
:1023E0000E941D17E82EE6180F77302E36FE0BC020
:1023F000332D3E7FE11650F434FE0AC032FC08C093
:10240000332D3E7E05C00E2D332D03C00E2D01C091
:10241000012F34FF0CC0FE01EE0DF11D80818033D1
:1024200011F4397E08C032FF05C00E5F04C0832F4F
:10243000867809F00F5F33FD13C030FF06C01E2DF4
:102440000F1518F41F0D101B0F2D0F1568F4B60192
:1024500080E290E03B8B0E949F160F5F3B89F5CF97
:102460000F1510F4F01A01C0F12C34FF12C0B601A0
:1024700080E390E03B8B0E949F163B8932FF17C0A0
:1024800031FD03C088E790E002C088E590E0B60126
:102490000CC0832F867859F031FF02C08BE201C057
:1024A00080E237FD8DE2B60190E00E949F16E116B2
:1024B00038F4B60180E390E00E949F161150F7CFE8
:1024C000EA94F301EE0DF11D8081B60190E00E94C7
:1024D0009F16E110F5CF14C0F4E0FF1558F584E025
:1024E000F81A33FE1EC0211026C003FF2AC00CE8D4
:1024F00010E0F32DF0713F2EF8018491811124C07A
:10250000FF2009F4E5CCB60180E290E00E949F161E
:10251000FA94F6CFF6018681978126C08FEF9FEF60
:1025200023C0B60180E290E00E949F16FA94F11059
:10253000F8CFD9CFF12CB601822D90E00E949F16E2
:10254000D4CF00E910E0D5CF31108052B60190E031
:102550000E949F160F5F1F4FCFCF23E02F1510F45F
:1025600083E0BECFF12CC1CF6396E2E10C94161349
:102570000E94CD0582E091E09093160180931501B1
:102580008BEF90E090931401809313010E949601C9
:1025900066E773E082E291E00E94C90680E090E085
:1025A000089597FB072E16F4009407D077FD09D005
:1025B0000E94311307FC05D03EF4909581959F4F02
:1025C0000895709561957F4F0895EE0FFF1F059058
:1025D000F491E02D0994A29FB001B39FC001A39F85
:1025E000700D811D1124911DB29F700D811D11244C
:1025F000911D08952F923F924F925F926F927F921A
:102600008F929F92AF92BF92CF92DF92EF92FF9202
:102610000F931F93CF93DF93CDB7DEB7CA1BDB0BAE
:102620000FB6F894DEBF0FBECDBF09942A88398853
:1026300048885F846E847D848C849B84AA84B9845A
:10264000C884DF80EE80FD800C811B81AA81B98166
:10265000CE0FD11D0FB6F894DEBF0FBECDBFED017A
:102660000895AA1BBB1B51E107C0AA1FBB1FA617D9
:10267000B70710F0A61BB70B881F991F5A95A9F72B
:1026800080959095BC01CD0108955058BB27AA278D
:102690000E945D130C94AE140E94A01438F00E94A6
:1026A000A71420F039F49F3F19F426F40C949D14DC
:1026B0000EF4E095E7FB0C949714E92F0E94BF14E9
:1026C00058F3BA17620773078407950720F079F467
:1026D000A6F50C94E1140EF4E0950B2EBA2FA02D64
:1026E0000B01B90190010C01CA01A0011124FF27BF
:1026F000591B99F0593F50F4503E68F11A16F040BA
:10270000A22F232F342F4427585FF3CF46953795B8
:102710002795A795F0405395C9F77EF41F16BA0B7D
:10272000620B730B840BBAF09150A1F0FF0FBB1F2B
:10273000661F771F881FC2F70EC0BA0F621F731F74
:10274000841F48F4879577956795B795F7959E3FD1
:1027500008F0B0CF9395880F08F09927EE0F979562
:10276000879508950E94C6130C94AE140E94A71476
:1027700058F00E94A01440F029F45F3F29F00C9417
:10278000971451110C94E2140C949D140E94BF14E0
:1027900068F39923B1F3552391F3951B550BBB2790
:1027A000AA2762177307840738F09F5F5F4F220FD5
:1027B000331F441FAA1FA9F335D00E2E3AF0E0E8CC
:1027C00032D091505040E695001CCAF72BD0FE2F16
:1027D00029D0660F771F881FBB1F261737074807AA
:1027E000AB07B0E809F0BB0B802DBF01FF27935862
:1027F0005F4F3AF09E3F510578F00C9497140C947B
:10280000E2145F3FE4F3983ED4F38695779567959D
:10281000B795F7959F5FC9F7880F911D9695879596
:1028200097F90895E1E0660F771F881FBB1F6217B5
:1028300073078407BA0720F0621B730B840BBA0B73
:10284000EE1F88F7E09508950E942B146894B1114B
:102850000C94E21408950E94C71488F09F5798F0D2
:10286000B92F9927B751B0F0E1F0660F771F881F95
:10287000991F1AF0BA95C9F714C0B13091F00E94AF
:10288000E114B1E008950C94E114672F782F8827A4
:10289000B85F39F0B93FCCF3869577956795B395D6
:1028A000D9F73EF490958095709561957F4F8F4F45
:1028B0009F4F0895E89409C097FB3EF4909580954A
:1028C000709561957F4F8F4F9F4F9923A9F0F92FF6
:1028D00096E9BB279395F695879577956795B79574
:1028E000F111F8CFFAF4BB0F11F460FF1BC06F5F5A
:1028F0007F4F8F4F9F4F16C0882311F096E911C06C
:10290000772321F09EE8872F762F05C0662371F08C
:1029100096E8862F70E060E02AF09A95660F771FA0
:10292000881FDAF7880F9695879597F9089597F994
:102930009F6780E870E060E008959FEF80EC089565
:1029400000240A941616170618060906089500248E
:102950000A9412161306140605060895092E039408
:10296000000C11F4882352F0BB0F40F4BF2B11F47C
:1029700060FF04C06F5F7F4F8F4F9F4F089557FDDB
:102980009058440F551F59F05F3F71F04795880FDD
:1029900097FB991F61F09F3F79F087950895121674
:1029A00013061406551FF2CF4695F1DF08C0161620
:1029B00017061806991FF1CF8695710561050894D1
:1029C0000895E894BB2766277727CB0197F90895E8
:1029D0000E94FB140C94AE140E94A01438F00E94C4
:1029E000A71420F0952311F00C9497140C949D14C7
:1029F00011240C94E2140E94BF1470F3959FC1F34C
:102A0000950F50E0551F629FF001729FBB27F00D9C
:102A1000B11D639FAA27F00DB11DAA1F649F6627F1
:102A2000B00DA11D661F829F2227B00DA11D621F40
:102A3000739FB00DA11D621F839FA00D611D221FFA
:102A4000749F3327A00D611D231F849F600D211DDE
:102A5000822F762F6A2F11249F5750409AF0F1F061
:102A600088234AF0EE0FFF1FBB1F661F771F881FCA
:102A700091505040A9F79E3F510580F00C94971457
:102A80000C94E2145F3FE4F3983ED4F38695779577
:102A90006795B795F795E7959F5FC1F7FE2B880F70
:102AA000911D9695879597F908958F929F92AF9271
:102AB000BF92CF92DF92EF92FF92CF93DF93EC0120
:102AC000688179818A819B816115710581059105F4
:102AD00021F464E279ED8BE597E02DE133EF41E0FD
:102AE00050E00E94911749015A019B01AC01A7EAED
:102AF000B1E40E94B0176B017C01ACEEB4EFA5010C
:102B000094010E94BE17DC01CB018C0D9D1DAE1DF2
:102B1000BF1DB7FF03C00197A109B04888839983FF
:102B2000AA83BB839F77DF91CF91FF90EF90DF90D7
:102B3000CF90BF90AF909F908F9008950E945515B1
:102B4000089587E191E00E9455150895A0E0B0E056
:102B50008093170190931801A0931901B0931A0163
:102B60000895283008F027E03327DA01990F311D46
:102B700087FD916000966105710539F432602E5F22
:102B80003D9330E32A95E1F708959F3F30F0803878
:102B90007105610509F03C5F3C5F3D93913008F0A1
:102BA0008068911DDF93CF931F930F93FF92EF9255
:102BB000192F987F9695E92F96959695E90FFF27FF
:102BC000E251FF4F99273327EE24FF24A701E701A5
:102BD00005900894079428F4360FE71EF81E491F45
:102BE000511D660F771F881F991F0694A1F7059046
:102BF000079428F4E70EF81E491F561FC11D770FD2
:102C0000881F991F661F0694A1F70590079428F462
:102C1000F80E491F561FC71FD11D880F991F661F29
:102C2000771F0694A1F70590079420F4490F561FCB
:102C3000C71FD81F990F661F771F881F0694A9F713
:102C400084911095177041F0D695C7955795479583
:102C5000F794E7941A95C1F7E4E9F0E068941590C9
:102C6000159135916591959105907FE27395E118E5
:102C7000F10A430B560BC90BD009C0F7E10CF11E4A
:102C8000431F561FC91FD01D7EF4703311F48A955F
:102C9000E6CFE894015030F0080F0AF4002702173D
:102CA00008F4202F2395022F7A3328F079E37D93BF
:102CB0002A95E9F710C07D932A9589F60694979591
:102CC0006795379517951794E118F10A430B560B42
:102CD000C90BD00998F023957E9173957A3308F04B
:102CE00070E37C932013B8F77E9170617D9330F090
:102CF000839571E37D9370E32A95E1F71124EF90BA
:102D0000FF900F911F91CF91DF91992787FD9095AB
:102D10000895FC010590615070400110D8F780952E
:102D200090958E0F9F1F0895FC0161507040019097
:102D30000110D8F7809590958E0F9F1F08950F93DF
:102D40001F93CF93DF93FB01238121FD03C08FEFFE
:102D50009FEF28C022FF16C046815781248135810C
:102D60004217530744F4A081B1819D012F5F3F4F6B
:102D7000318320838C93268137812F5F3F4F3783A8
:102D8000268310C0EB01092F182F0084F185E02D58
:102D90000995892BE1F68E819F8101969F838E8311
:102DA000812F902FDF91CF911F910F910895A0E077
:102DB000B0E0EDEDF6E10C940A13AE014B5F5F4F0E
:102DC000FA0161917191AF0180910F02909110020F
:102DD0000E943C0FE2E00C9426130F931F93CF93B5
:102DE000DF93E0910F02F0911002238121FF1BC0BD
:102DF0008C01D0E0C0E0F80181918F0160910F0259
:102E000070911002DB011896ED91FC9119978823BF
:102E100031F00995892B79F3DFEFCFEFECCF8AE022
:102E20000995892B19F08FEF9FEF02C08D2F9C2FF2
:102E3000DF91CF911F910F910895FA01AA272830B1
:102E400051F1203181F1E8946F936E7F6E5F7F4F77
:102E50008F4F9F4FAF4FB1E03ED0B4E03CD0670FF3
:102E6000781F891F9A1FA11D680F791F8A1F911D46
:102E7000A11D6A0F711D811D911DA11D20D009F496
:102E800068943F912AE0269F11243019305D3193D8
:102E9000DEF6CF010895462F4770405D4193B3E0C1
:102EA0000FD0C9F7F6CF462F4F70405D4A3318F068
:102EB000495D31FD4052419302D0A9F7EACFB4E019
:102EC000A6959795879577956795BA95C9F70097D1
:102ED0006105710508959B01AC010A2E0694579572
:102EE000479537952795BA95C9F7620F731F841FC9
:102EF000951FA01D0895F999FECF92BD81BDF89A46
:102F0000992780B50895262FF999FECF1FBA92BD53
:102F100081BD20BD0FB6F894FA9AF99A0FBE0196BA
:102F20000895052E97FB1EF400940E94A81757FDE4
:102F300007D00E94C31707FC03D04EF40C94A817C7
:102F400050954095309521953F4F4F4F5F4F0895D5
:102F500090958095709561957F4F8F4F9F4F089505
:102F60000E94EB12A59F900DB49F900DA49F800D21
:102F7000911D11240895B7FF0C94B0170E94B0174B
:102F8000821B930B0895A1E21A2EAA1BBB1BFD0105
:102F90000DC0AA1FBB1FEE1FFF1FA217B307E40738
:102FA000F50720F0A21BB30BE40BF50B661F771F90
:102FB000881F991F1A9469F7609570958095909570
:0E2FC0009B01AC01BD01CF010895F894FFCF35
:102FCE000000000200000000F200000000004601B8
:102FDE00AACC05C905C80501000000256420002003
:102FEE002020206D79646174612D3E6E625F766F74
:102FFE006973696E7325640A002D2D2D2D2D2D2DCF
:02300E000000C0
:00000001FF
