:100000000C94C7000C94F0000C94F0000C94F000D9
:100010000C94F0000C94F0000C9409080C94F0007F
:100020000C94F0000C94F0000C94F0000C94C80DAB
:100030000C94F0000C94F0000C94280D0C94F0003B
:100040000C94F0000C94F0000C94F0000C94F00070
:100050000C94F0000C94F0000C94F0000C94EA0D59
:100060000C94F0000C94F0006F08EB0843083A0879
:100070004008CD08C2084D0F2A0E2A0E4A0F560F0F
:10008000460F5D0F590F610F190FEB0E6E616E0079
:10009000696E660000407A10F35A00A0724E18098B
:1000A0000010A5D4E80000E87648170000E40B54DF
:1000B000020000CA9A3B000000E1F50500008096AE
:1000C0009800000040420F000000A08601000000E0
:1000D000102700000000E80300000000640000009A
:1000E00000000A00000000000100000000002C7663
:1000F000D888DC674F0823DFC1DFAE59E1B1B7967E
:10010000E5E3E453C63AE651997696E8E6C28426DA
:10011000EB898C9B62ED407C6FFCEFBC9C9F40F2B6
:10012000BAA56FA5F490055A2AF75C936B6CF96732
:100130006DC11BFCE0E40D47FEF520E6B500D0EDF7
:10014000902E0300943577050080841E080000205F
:100150004E0A000000C80C333333330F986E1283FD
:100160001141EF8D2114893BE65516CFFEE6DB18D1
:10017000D1844B381BF77C1D901DA4BBE424203296
:1001800084725E228100C9F124ECA1E53D2711248F
:100190001FBECFEFD8E0DEBFCDBF14BE0FB6F894C0
:1001A000A895809160008861809360001092600043
:1001B0000FBE11E0A0E0B1E0E6EDF2E302C0059071
:1001C0000D92A433B107D9F723E0A4E3B1E001C055
:1001D0001D92AD31B207E1F70E940F140C9469191A
:1001E0000C940000CF93DF93C0910001D0910101E6
:1001F000FE01E159FE4F1082CE018A599E4F209197
:100200001203FC012083319610820E94F40FC05922
:10021000DE4F99838883E0910001F0910101DF01B5
:10022000AE59BE4F1D921D921D921C9213971797A7
:100230008FEF8C9313971C9212968C931082959645
:1002400081E08C9311961C92D0971D921D921D9265
:100250001C9213971182128213821482EC5AFE4F61
:10026000108211821282138280E00E946D068091BA
:1002700013038F93809112038F9380E391E09F93F8
:100280008F930E945B180F900F900F900F90DF914B
:10029000CF910895CF92DF92EF92FF920F931F9329
:1002A000CF93DF9381E00E94A40DC0910001D09113
:1002B00001018091DC029091DD02A091DE02B091FB
:1002C000DF02FE01E05BFE4F80839183A283B38354
:1002D00089819A81AB81BC810097A105B10509F4A0
:1002E00042C0815087FD25C09E012E593E4F9BE0A4
:1002F0008E01055A1E4F492F582F5403F001112427
:10030000EC0FFD1FC484D584E684F784D9014D9198
:100310005D916D917C91C416D506E606F70638F01E
:100320003596D801492F01900D924A95E1F78150F9
:1003300010F781E0888383E00E946D0680910001C0
:1003400090910101DC01A65ABE4FFC01E55AFE4F17
:1003500080818C93DF91CF911F910F91FF90EF904F
:10036000DF90CF9008951882DF91CF911F910F9168
:10037000FF90EF90DF90CF900C94A406CF92DF9285
:10038000EF92FF920F931F93CF93DF93C0910001E1
:10039000D091010189819A81AB81BC810097A1052F
:1003A000B10591F1815087FD25C09E012E593E4F28
:1003B0009BE08E01055A1E4F492F582F5403F00120
:1003C0001124EC0FFD1FC484D584E684F784D90181
:1003D0004D915D916D917C91C416D506E606F706A8
:1003E00038F03596D801492F01900D924A95E1F7E2
:1003F000815010F781E0DF91CF911F910F91FF9015
:10040000EF90DF90CF90089580E0F5CF85E10E94D6
:10041000A40D0E949204E0910001F09101018181FC
:100420009281A381B481892B8A2B8B2BE1F0DF0190
:10043000A55ABE4F8C9111979C91981790F0E15B53
:10044000FE4F80818130A9F0823079F00E94EF0662
:10045000E0910001F0910101DF01A55ABE4F8C919E
:1004600011978C9308951082089581E00E946D0683
:10047000EFCF82E00E946D06EBCF8F929F92AF92FA
:10048000BF92CF92DF92EF92FF92CF93DF9384E0FF
:100490000E94A40DC0910001D091010149815A81AF
:1004A0006B817C81411551056105710509F49BC083
:1004B0008D81833308F477C0FE0170966A017B0159
:1004C00081E0C81AD108E108F10880E090E0DC0181
:1004D00008C020810196A11DB11D3B96233308F46D
:1004E00062C08C159D05AE05BF0599F7CE01855AF2
:1004F0009E4F9E01265A3E4FDC01FC91D901EC91A2
:10050000FE17F8F0C15BDE4F8881813009F467C0C7
:10051000823009F457C00E94EF06C0910001D091CB
:10052000010149815A816B817C8141155105610529
:10053000710509F44BC0CE01855A9E4F9E01265A83
:100540003E4F415047FD5DC0BE016E597E4F5BE09E
:100550004503F0011124EC0FFD1F84849584A684CB
:10056000B784DB01CD90DD90ED90FC908C149D0460
:10057000AE04BF0438F03596DC01F52E01900D92E3
:10058000FA94E1F7415020F7FC018081D9018C9366
:10059000DF91CF91FF90EF90DF90CF90BF90AF9021
:1005A0009F908F90089582E0888380E0DF91CF91C3
:1005B000FF90EF90DF90CF90BF90AF909F908F9083
:1005C0000C946D0681E00E946D06A7CFFE01E55AEE
:1005D000FE4F80819E01265A3E4F1882D7CF82E07F
:1005E0000E946D069ACFFE01E55AFE4F80819E0162
:1005F000265A3E4FF9019081891708F083CF18825F
:10060000C5CFDC018C91C2CFCF92DF92EF92FF92E7
:100610000F931F93CF93DF930E94FC04E09100019E
:10062000F0910101DF01A85ABE4F8C91813009F48D
:1006300073C04091DC025091DD026091DE02709146
:10064000DF02EF01C05BDE4F88819981AA81BB8107
:100650008096A11DB11D84179507A607B70708F05E
:1006600047C08091DC029091DD02A091DE02B09142
:10067000DF0288839983AA83BB838081813009F458
:1006800044C008F487C0823009F44DC0833081F53E
:1006900085E10E94A40D0E949204E0910001F09176
:1006A000010181819281A381B481892B8A2B8B2BBB
:1006B00009F4C8C0DF01A55ABE4F8C9111979C91D7
:1006C0009817A8F0E15BFE4F8081813009F4C7C024
:1006D000823009F0C1C081E00E946D06E091000106
:1006E000F0910101DF01A55ABE4F8C9111978C93B7
:1006F000E15BFE4F8081DF91CF911F910F91FF90C1
:10070000EF90DF90CF900C946D060E943D02E09137
:100710000001F0910101ECCF0E949E05E0910001E3
:10072000F091010186CF80E10E94A40D80E00E943B
:100730006D06C0910001D091010149815A816B8100
:100740007C814115510561057105C9F08D818333A7
:10075000D0F0FE017096415051096109710980E0A5
:1007600090E0DC0107C020810196A11DB11D3B96E0
:10077000233348F084179507A607B707A1F7188217
:10078000C85ADE4F18820E94B804E0910001F0912F
:100790000101AECF81E00E94A40DC0910001D09173
:1007A00001018091DC029091DD02A091DE02B09106
:1007B000DF02FE01E05BFE4F80839183A283B3835F
:1007C00089819A81AB81BC810097A105B105E1F1D6
:1007D000815087FD25C09E012E593E4F9BE08E0122
:1007E000055A1E4F492F582F5403F0011124EC0FC6
:1007F000FD1FC484D584E684F784D9014D915D91B1
:100800006D917C91C416D506E606F70638F035964C
:10081000D801492F01900D924A95E1F7815010F7C8
:1008200081E0888383E00E946D06E0910001F091F1
:100830000101DF01A65ABE4FEF01C55ADE4F888184
:100840008C9356CF108254CF18820E94A406E09158
:100850000001F09101014CCF0E94EF063FCF82E0F2
:100860000E946D063BCFCF93DF9380E10E94A40DE1
:1008700080E00E946D06C0910001D0910101498184
:100880005A816B817C814115510561057105C9F063
:100890008D818333D0F0FE0170964150510961097A
:1008A000710980E090E0DC0107C020810196A11D64
:1008B000B11D3B96233348F084179507A607B70769
:1008C000A1F71882C85ADE4F1882DF91CF910C949D
:1008D000B804E0910001F0910101418152816381EE
:1008E00074814115510561057105C1F0858183331E
:1008F000B8F07096415051096109710980E090E0AB
:10090000DC0107C020810196A11DB11D3B96233358
:1009100038F084179507A607B707A1F780E0089578
:1009200081E00895CF93DF930E942517BC01990FB2
:10093000880B990B0E94B71528E73CEB4FEF56E464
:100940000E94431618168CF48DE091E00E947118F5
:10095000C0910001D091010181E088830E94E209E9
:10096000C15BDE4F81708F5F8883DF91CF910895E7
:10097000CF93DF930E942517BC01990F880B990B29
:100980000E94B71528E73CEB4FEF56E40E94431650
:1009900018167CF5809113038F93809112038F9327
:1009A0008EE191E09F938F930E945B18C0910001AC
:1009B000D091010183E088830E94E209C15BDE4F90
:1009C00081708F5F88838091DC029091DD02A0911D
:1009D000DE02B091DF02E0910001F0910101EC5ADA
:1009E000FE4F80839183A283B3830F900F900F906B
:1009F0000F90DF91CF910895CF92DF92EF92FF9207
:100A00001F93CF93DF934091000150910101FA01B0
:100A100081819281A381B4810097A105B10509F478
:100A200053C09C012150310937FD4EC06BE0689FD7
:100A3000E001699FD00D11242697C40FD51F1BE03C
:100A40006FEF7FEF8091DC029091DD02A091DE02DA
:100A5000B091DF02CB80DC80ED80FE808C199D0997
:100A6000AE09BF098197A105B10530F1FA01C18036
:100A7000D280E380F4801C9DF0011D9DF00D1124B7
:100A8000E40FF51F3596DE01812F01900D928A95B6
:100A9000E1F7F1E0CF1AD108E108F1081C9DF0015F
:100AA0001D9DF00D1124E40FF51F77836683FA0175
:100AB000C182D282E382F482215031092B972F3FE9
:100AC000FFEF3F0709F0BECFDF91CF911F91FF905D
:100AD000EF90DF90CF900895E0910001F091010137
:100AE000E058FE4F8081813009F00895108280E146
:100AF0000E94A40DE0910001F09101014091DC02FF
:100B00005091DD026091DE027091DF02E65AFE4FE5
:100B1000808190E00696092E000CAA0BBB0B84176F
:100B20009507A607B70708F78091DC029091DD02D0
:100B3000A091DE02B091DF0280830895CF92DF9210
:100B4000EF92FF92CF93DF93C0910001D09101010A
:100B5000FE01E258FE4F60813C97408131967081E2
:100B6000C980DA80EB80FC80ED56F14080E090E0B7
:100B7000DC0150E09C018C159D05AE05BF0581F0A0
:100B8000208131810196A11DB11D3B9624173507A7
:100B900089F7DF91CF91FF90EF90DF90CF9008958C
:100BA0008E319105A105B10538F40196A11DB11D45
:100BB00089839A83AB83BC838BE0829FF001839F00
:100BC000F00D1124EC0FFD1F578346838091DC024A
:100BD0009091DD02A091DE02B091DF0280879187C3
:100BE000A287B3876583872F90E0A0E0B0E0848779
:100BF0009587A687B787C85ADE4F1882DF91CF91B5
:100C0000FF90EF90DF90CF900895CF93DF93FC019A
:100C1000C0910001D0910101DE01A85ABE4F81E0D0
:100C20008C935A969CE001900D929A95E1F7CB0136
:100C30000E94690AC258DE4F8883DF91CF910895E0
:100C4000CF93DF93C0910001D0910101FE01E158E3
:100C5000FE4F108270971082CE018A599E4F2091CC
:100C60001203FC0120833196298120830E94F40F16
:100C7000C059DE4F99838883E0910001F091010112
:100C8000E158FE4F81E08083DF91CF9108958091FC
:100C9000120390911303892B69F0809100019091C8
:100CA0000101FC01E158FE4F2081222351F08A59B5
:100CB0009E4F089580910001909101018A599E4FA5
:100CC000089580E090E00895E0910001F091010125
:100CD000E058FE4F81E080830895CF93E0910001BA
:100CE000F0910101E15BFE4F9081981791F0C82FC0
:100CF0008230D1F0833079F08130F1F060E080E033
:100D00000E948309E0910001F0910101E15BFE4F37
:100D1000C083CF9108950E94880960911503809146
:100D200014030E948309EECF0E9488096091020398
:100D300080E00E948309E6CF0E94880960E08091EC
:100D400016030E948309DECFCF930E94E209C82FC9
:100D5000C370E0910001F0910101E15BFE4F8081E1
:100D6000CC23B9F0C330A9F0C13039F1823079F029
:100D70000E9488096091020380E00E948309E0914B
:100D80000001F0910101E15BFE4F82E08083CF9191
:100D900008958330E1F30E948809609115038091E2
:100DA00014030E948309E0910001F0910101E15BCD
:100DB000FE4F83E08083CF910895813041F30E94FC
:100DC000880960E0809116030E948309E091000188
:100DD000F0910101E15BFE4FC083CF9108950E9425
:100DE000E209E0910001F0910101E15BFE4F80FF1B
:100DF00013C08081823079F00E94880960910203DB
:100E000080E00E948309E0910001F0910101E15B23
:100E1000FE4F82E08083089580818130E1F30E945B
:100E2000880960E0809116030E948309E091000127
:100E3000F0910101E15BFE4F81E080830895089508
:100E400080E090E008950895DF92EF92FF920F9373
:100E50001F93CF93DF93F89414B817B81AB815B846
:100E600018B81BB8529A5A9A14BC85E085BD8FEF0A
:100E700087BD82E080936E00109280001092810006
:100E80002FE83BE0309389002093880080936F0027
:100E90005398239891EA9093B0008093B1001092F8
:100EA000B4001092B3008BE080BF83E080937F009A
:100EB00086E080937C0083E880937A0080917A00BA
:100EC000806480937A0080917A0086FDFCCF109236
:100ED0007C0083EA80937A0081E080937B0081E04C
:100EE00090E00E94FF188F3F11F0809366001092EF
:100EF000E002C1E0C093B902C093FD021092D70294
:100F00001092110380E990E00E94FF188093D602AE
:100F10008091D602887311F0C093D602109201031B
:100F2000109200038FEF90E09093FF028093FE02F7
:100F30001092DC021092DD021092DE021092DF02AB
:100F400081E08093370182E49FE0909310038093C7
:100F50000F0380EB90E00E94FF18C82F81EB90E018
:100F60000E94FF182C2F30E0382B3093130320936E
:100F7000120385E090E00E94FF188093160389E039
:100F800090E00E94FF18809302038CE090E00E94A2
:100F9000FF188093140384E190E00E94FF1880936F
:100FA000150351EEE52E52E0F52E0AEB12E0C0E2F9
:100FB000D0E0CE010E94FF18D82ECE0101960E94EB
:100FC000FF182D2D30E0322F2227282BF7012193F7
:100FD00031937F01CE01C0960E94FF18D82ECE011A
:100FE000C1960E94FF182D2D30E0322F2227282B8A
:100FF000F801219331938F012296CC33D105C9F6A4
:101000007894DF91CF911F910F91FF90EF90DF9037
:1010100008951F920F920FB60F9211248F930FB65F
:10102000F894A89580916000886180936000109288
:1010300060000FBE8F910F900FBE0F901F901895FC
:101040003C01EB0110E099249A9484E0C82E96E0CC
:10105000A92E23E8B22E38E1D32E49E2E42E909156
:101060003701E92FF0E0E730F105C8F7EC5CFF4FFE
:101070000C944014112309F4FCC0C092370111E014
:10108000FE010995ECCF8091E0028111EBC0F8944C
:10109000A0927C00B0927A0080917A008064809364
:1010A0007A0090917A0096FDFCCF80917800909123
:1010B000790078948B3AE2E09E070CF0EDC0893815
:1010C000F2E09F070CF0EFC0873692400CF4CAC0E4
:1010D000559A549A3B9A3A9A3D983C98C0CFF894C6
:1010E00080B7877F80BF80917A008F7780937A0066
:1010F00014B817B81AB815B818B81BB80FB6F894C2
:10110000A895D09260000FBEE092600080916000D0
:1011100080648093600093B7917F946093BFF8944C
:1011200083B7816083BF7894889583B78E7F83BFB0
:1011300078941092E002529A5A9A80917A008068CC
:1011400080937A0087E592E00197F1F700C00000F4
:1011500080B7886180BF559A549A3B9A3A9A3D9AD3
:101160003C9AEFE1FEE43197F1F700C00000809176
:10117000E002811181C0559854983B983A983D9867
:101180003C986DCF80913501811141C01092B30020
:101190001092B4001092360162CF4899ECCF559A64
:1011A00054983B983A983D983C988FEC97E001977B
:1011B000F1F700C00000559854983B983A983D9834
:1011C0003C989FEFE1EEF4E09150E040F040E1F711
:1011D00000C0000044CF559854983B9A3A9A3D98E5
:1011E0003C98EFECF7E03197F1F700C0000055981C
:1011F00054983B983A983D983C98FFEF21EE84E054
:10120000F15020408040E1F700C0000028CF9091CD
:10121000350180913601981709F421CF809135016D
:101220008093360180913501813009F450C080915E
:1012300035011092B3009092B4008230D9F19092AF
:10124000B3009092B4008FE295E70197F1F700C0E8
:10125000000080911503909114039093B300809344
:10126000B400FDCE559A549A3B983A983D983C98D4
:10127000F6CEF301099501CF559A549A3B983A98C6
:101280003D983C98FFEF20E782E0F15020408040FD
:10129000E1F700C000006FCF559854983B9A3A9AF6
:1012A0003D983C98DCCE559854983B983A983D9A96
:1012B0003C9AD5CEEFE2F5E73197F1F700C0000098
:1012C000809102031092B3008093B400C8CE909234
:1012D000B3001092B4008FE295E70197F1F700C0D8
:1012E0000000809116038093B3001092B400B7CE33
:1012F00007C0EFECF7E03197F1F700C0000001976D
:101300000097B9F708958093B3006093B4000895EF
:101310008FEF8093B3008093B4008FE090E0EFEC08
:10132000F7E03197F1F700C000000197C1F7089589
:101330008091E00281111EC0F89487E080937C00C8
:1013400083E880937A0080917A00806480937A00A9
:1013500080917A0086FDFCCF809178009091790091
:1013600010927C0023EA20937A0021E020937B00F6
:10137000789408958FEF9FEF08958091E002811196
:101380001EC0F89488EC80937C0087E880937A00F4
:1013900080917A00806480937A0080917A0086FD43
:1013A000FCCF809178009091790010927C0023EA24
:1013B00020937A0021E020937B00789408958FEFAA
:1013C0009FEF08950F931F93CF93DF93E0E0F0E03A
:1013D00080E003EA11E0D6E0C3E8A1E0B0E060E815
:1013E00070E0F894D0937C00C0937A0090917A00DA
:1013F000906490937A0090917A0096FDFCCF2091B2
:10140000780030917900217090917A0090649093E7
:101410007A0090917A0096FDFCCF4091780050912F
:10142000790010927C0000937A0010937B007894EE
:101430004170241303C06150710999F6222339F0D9
:101440009D010E2E01C0220F0A94EAF7822B3196DD
:10145000E830F10509F0C3CFDF91CF911F910F91D3
:10146000089580910201982F990F990F990F89275C
:101470009091340121E0290F20933401282F2295E7
:101480002695277082279695969589278093020145
:1014900008958093020108958091E002811116C0A1
:1014A000F89486E080937C0083E880937A008091B2
:1014B0007A00806480937A0080917A0086FDFCCF68
:1014C0008091780090917900789408958FEF9FEF44
:1014D00008952F923F924F925F926F927F928F92D8
:1014E0009F92AF92BF92CF92DF92EF92FF920F93B3
:1014F0001F93CF93DF9300D000D000D0CDB7DEB7DD
:101500001C01DC0112960D90BC91A02DBE83AD8311
:10151000A438E3E0BE070CF0C9C08091BA029091F4
:10152000BB028A179B0708F437C10091BC021091D7
:10153000BD020A171B0708F42FC20091BE021091CA
:10154000BF020A171B0708F42FC20091C0021091B6
:10155000C1020A171B0708F42FC20091C2021091A2
:10156000C3020A171B0708F42FC20091C40210918E
:10157000C5020A171B0708F4EFC10091C6021091BB
:10158000C7020A171B0708F427C20091C80210916E
:10159000C9020A171B0708F427C20091CA0210915A
:1015A000CB020A171B0708F427C20091CC02109146
:1015B000CD020A171B0708F427C20091CE02109132
:1015C000CF020A171B0708F427C20091D00210911E
:1015D000D1020A171B0708F423C20091D20210910E
:1015E000D3020A171B0708F423C20091D4021091FA
:1015F000D5020A171B0708F423C280E090E0A0ED93
:10160000B0E489839A83AB83BC834CE0E42EF12C55
:10161000F701EE0FFF1FE654FD4F80819181B80165
:10162000681B790B80E090E00E94B5159B01AC012E
:101630000E94A1146B017C01AD81BE81BD01BB0F75
:10164000880B990B0E94B7154B015C01B80180E033
:1016500090E00E94B5152B013C0129813A814B8114
:101660005C81C701B6010E9448169B01AC01C30111
:10167000B2010E94A0149B01AC01C501B4010E94FB
:10168000A01420E030E040E251E40E9448160E949D
:101690007F158B01C701B6010E947F15AB01BC010C
:1016A000C801BA010E942C14162F77C0DC01CD901E
:1016B000DC908091E1029091E2028C159D0508F486
:1016C0008CC01FEFE090E302F090E402EC14FD0404
:1016D00008F45EC1E090E502F090E602EC14FD042F
:1016E00008F45EC1E090E702F090E802EC14FD041B
:1016F00008F45EC1E090E902F090EA02EC14FD0407
:1017000008F45EC1E090EB02F090EC02EC14FD04F2
:1017100008F4C3C0E090ED02F090EE02EC14FD047A
:1017200008F456C1E090EF02F090F002EC14FD04D2
:1017300008F456C1E090F102F090F202EC14FD04BE
:1017400008F456C1E090F302F090F402EC14FD04AA
:1017500008F456C1E090F502F090F602EC14FD0496
:1017600008F456C1E090F702F090F802EC14FD0482
:1017700008F45AC1E090F902F090FA02EC14FD046A
:1017800008F45AC1E090FB02F090FC02EC14FD0456
:1017900008F45AC10AE531C010E0ED81FE81ED3B4D
:1017A000F240FCF481E2810F26960FB6F894DEBF7A
:1017B0000FBECDBFDF91CF911F910F91FF90EF90A2
:1017C000DF90CF90BF90AF909F908F907F906F9061
:1017D0005F904F903F902F90089500E081E2800F3E
:1017E000E3CFD101CD90DC908091E1029091E202B3
:1017F0008C159D0508F066CF00E01F3F79F3ED8161
:10180000FE81BF01FF0F880B990B0E94B7156B017A
:101810007C01612F70E080E090E00E94B5154B01E3
:101820005C01A701960160E070E081E694E40E940B
:10183000A0149B01AC01C501B4010E9448164B01E4
:101840005C01602F70E080E090E00E94B5152B01F4
:101850003C0120E030E04FE254E4C701B6010E94B1
:10186000A0149B01AC01C301B2010E9448169B0168
:10187000AC01C501B4010E94A11420E030E048E4AD
:1018800053E40E940D1520E030E044E052E40E9451
:10189000A1140E948615862F87CF05E085E090E091
:1018A000880F991FFC01E152FD4F80819181B701A2
:1018B000681B790B80E090E00E94B5159B01AC019C
:1018C0000E94A1144B015C01B601DD0C880B990B41
:1018D0000E94B7152B013C01B70180E090E00E9407
:1018E000B5156B017C01602F70E080E090E00E94F4
:1018F000B51520E030E040E05FE30E94481620E0AC
:1019000030E0A9010E94A114A50194010E9448168B
:101910009B01AC01C701B6010E94A0149B01AC0160
:10192000C301B2010E94A01420E030E040E251E483
:101930000E9448160E947F157B01C501B4010E94D8
:101940007F15AB01BC01C701BA010E942C14062F00
:101950006F3F09F052CF26CF65E085E090E07C0133
:10196000F1E0EF1AF10870E080E090E00E94B51518
:1019700020E030E040E05FE30E94481620E030E0E5
:10198000A9010E94A11469837A838B839C8340CE32
:1019900001E081E090E084CF61E081E090E0DFCF82
:1019A00002E082E090E07CCF62E082E090E0D7CF7E
:1019B00003E083E090E074CF63E083E090E0CFCF7A
:1019C00004E084E090E06CCF64E084E090E0C7CF76
:1019D00006E086E090E064CF66E086E090E0BFCF6E
:1019E00007E087E090E05CCF67E087E090E0B7CF6A
:1019F00008E088E090E054CF68E088E090E0AFCF66
:101A000009E089E090E04CCF69E089E090E0A7CF61
:101A10000AE08AE090E044CF6AE08AE090E09FCF5D
:101A20006BE08BE090E09BCF0BE08BE090E038CF59
:101A30006CE08CE090E093CF0CE08CE090E030CF55
:101A40006DE08DE090E08BCF0DE08DE090E028CF51
:101A50001F920F920FB60F9211242F933F934F9323
:101A60005F936F937F938F939F93AF93BF93EF9306
:101A7000FF9320910003309101038091FE02909129
:101A8000FF02820F931F90930103809300038FEF57
:101A900090E09093FF028093FE028FEF87BD8091CC
:101AA000DC029091DD02A091DE02B091DF0201968E
:101AB000A11DB11D8093DC029093DD02A093DE0294
:101AC000B093DF028091E00281110FC080910F037B
:101AD0009091100320910003309101038217930726
:101AE00020F480913701843089F0FF91EF91BF910C
:101AF000AF919F918F917F916F915F914F913F91A6
:101B00002F910F900FBE0F901F901895E091050137
:101B1000F09106010995009741F30E941010811180
:101B200009C00E94251799279093FF028093FE0217
:101B300087BDDBCFE0910301F0910401099510927C
:101B4000010310920003D1CF80FF11C0559A81FF8D
:101B500011C0549A82FF11C03B9A83FF11C03A9A78
:101B600084FF11C03D9A85FD11C03C980895559899
:101B700081FDEFCF549882FDEFCF3B9883FDEFCFEF
:101B80003A9884FDEFCF3D9885FFEFCF3C9A0895BA
:101B90001F920F920FB60F9211248F939F93109262
:101BA0008100109285001092840081E08093B90238
:101BB0008093FD021092E00210927C0093EA9093D1
:101BC0007A0080937B009F918F910F900FBE0F90B2
:101BD0001F9018951F920F920FB60F9211242F93FA
:101BE0003F934F935F936F937F938F939F93AF93A5
:101BF000BF93CF93DF93EF93FF93209184003091B5
:101C0000850041E04093E0028091B9028823A9F168
:101C1000109285001092840040938100109211036D
:101C20001092B9028091FD028823A1F080917A0080
:101C300086FDFCCF80917800909179009093DB0233
:101C40008093DA0281E080937C0093EA90937A009B
:101C500080937B00FF91EF91DF91CF91BF91AF9186
:101C60009F918F917F916F915F914F913F912F91B4
:101C70000F900FBE0F901F901895C90187589109BA
:101C80008437994008F052C026583109A4EFB0E0DB
:101C90000E944614AA27BB2788309105A105B105EB
:101CA00008F47BC04093B9028091FD02811152C0BB
:101CB0008091D702E82FF0E0ED5FFC4F9091110387
:101CC00090838F5F8093D7028C3021F61092810031
:101CD00010928500109284004093FD021092E00261
:101CE000C0910D03D0910E0383E093E00E94F40FA6
:101CF000C817D90709F0AECF80910C0387FF61C0E8
:101D000098E7980F933030F0539823981092B400CE
:101D10001092B30090E0FC01E058F109EB30F105BE
:101D200008F098CFE55CFF4F0C94401410928100AE
:101D300010928500109284004093B9024093FD02F6
:101D40001092E00210927C0083EA80937A00409324
:101D50007B0080CF80917A0086FDFCCF8091780057
:101D6000909179009093D9028093D80210927C00D0
:101D700083EA80937A0081E080937B009091110345
:101D80009923D1F010928100109285001092840066
:101D90008093FD021092E0025DCF21E030E0F90176
:101DA00002C0EE0FFF1F8A95E2F7CF019091110359
:101DB000892B809311034ECF1092FD021092D7020F
:101DC00049CFE0910701F091080168ED72E083E0EE
:101DD00093E009953FCF80910303823009F4DDC081
:101DE00008F4BAC0833009F4C6C0843009F0B1C029
:101DF0008091350190910903833009F4E3C080910B
:101E000008031092360123E02093350180931403D8
:101E10009093150380913701863009F41BCF539AB4
:101E2000239A1092B4001092B30086E08093370199
:101E300011CF80913701863099F0539A239A1092EE
:101E4000B4001092B300559854983B983A983D9836
:101E50003C98109235011092360186E0809337014C
:101E600081E090E09C010090030302C0220F331F29
:101E70000A94E2F780911203909113038223932333
:101E8000892B09F086C010923501E4CE81E0809361
:101E90003701E0CEE0E0F0E0099580916E008D7FA3
:101EA00080936E0016BCE0E0F0E7099510923701D0
:101EB000D1CE82E080933701CDCE85E0809337018B
:101EC000C9CE80913701833009F4C4CE80913701A7
:101ED000843009F4BFCE539A239A1092B400109222
:101EE000B30083E080933701B5CE8091370186300F
:101EF00009F0B0CE6091120380EB90E00E940719C8
:101F00006091130381EB90E00E9407196091160322
:101F100085E090E00E9407196091020389E090E05B
:101F20000E940719609114038CE090E00E94071949
:101F30006091150384E190E00E940719539823985B
:101F40001092B4001092B30081E080933701809129
:101F5000030381115FCF7ECE882339F28130C9F728
:101F600080910403909105039093130380931203CF
:101F7000109235014FCF80913501823071F18091FF
:101F800007031092360192E090933501809302038B
:101F900041CF81E0809335015DCE80913501813064
:101FA00051F0809106031092360191E09093350133
:101FB000809316032FCF8091060390911603891307
:101FC000F2CF28CF80911503981319CF8091080381
:101FD00020911403821315CF1DCF80910703909198
:101FE00002038913CECF16CFFC01AC01465F5F4FD1
:101FF0008FEF9FEF21918227082E8295807F802589
:10200000092E982F82958F70082686959827892704
:10201000880F880F880F8025E417F50759F7089572
:102020000FB6F894A4B12091D6022A2B24B921E04E
:102030003091D602203029F0000025B1232B25B99C
:1020400004C000000000000000C00000000000000C
:10205000309525B1232325B92EEA2A95F1F72BEEE9
:1020600030B735FF0AC0A4B93091D602309525B1FA
:10207000232325B90FBE80E0089500002A9581F73B
:1020800021E03091D602203029F0000025B1232B29
:1020900025B904C000000000000000C000000000DE
:1020A0000000309525B1232325B9000024E52A95A9
:1020B000F1F7FC018CE0619170E0660F771F6160C1
:1020C00072609AE041E050E09A0126233723232BE7
:1020D0003091D602203029F0000025B1232B25B9FC
:1020E00004C000000000000000C00000000000006C
:1020F000309525B1232325B9000021E52A95F1F774
:10210000440F551F9A9501F78A95A9F620B72061CB
:1021100020BFA4B93091D602309525B1232325B92B
:102120000FBE81E00895A3E1B0E0E9E9F0E10C948D
:1021300055146C014B012A01FC0117821682838120
:1021400081FF43C3AE014F5F5F4F3A01F6019381B8
:10215000F40193FD859193FF81914F01882309F448
:1021600030C3853239F493FD859193FF81914F01FE
:10217000853239F4B60190E00E94231852012501FE
:10218000E5CF10E0F12C20E02032A0F48B3269F092
:1021900030F4803259F0833269F420612CC08D32E2
:1021A00039F0803339F4216026C02260246023C0D6
:1021B000286021C027FD27C030ED380F3A3078F471
:1021C00026FF06C0FAE01F9F300D1124132F13C005
:1021D0004AE0F49E300D1124F32E20620CC08E32A2
:1021E00021F426FDEEC2206406C08C3611F420686E
:1021F00002C0883641F4F40193FD859193FF8191EB
:102200004F018111C1CF9BEB980F933018F42061DF
:10221000805E06C09BE9980F933008F071C12F7E55
:1022200026FF16E02F73322E853619F42064322EE5
:1022300008C0863621F4F22FF0683F2E02C011113B
:10224000115037FE07C01C3350F4EE24E394E10E26
:1022500027E00BC0183038F027E017E005C027E072
:102260004CE3E42E02C0212FE12C520144E0A40EE5
:10227000B11CF20160817181828193810E2DA301D5
:102280000E9435172C01098100FF02C003FF07C01F
:1022900031FC08C032FE09C030E2232E07C02DE217
:1022A000222E04C09BE2292E01C0212C802F8C708D
:1022B00019F0211068C2A8C237FE0FC0E40C04FF59
:1022C00004C08A81813309F4EA941E1474F5F8E09D
:1022D000FE1578F588E0E82E2CC036FC2AC0812F48
:1022E00090E0841595059CF02CEF42162FEF5206D6
:1022F00074F0432D4068342E0AC0E2E0F0E0EC0FA9
:10230000FD1FE10FF11D8081803319F4115011116F
:10231000F4CF37FE0EC0EE24E394E10E812F90E05F
:10232000481659062CF4141904C0EE24E39401C095
:1023300010E037FE06C01414150434F4C2010196EF
:1023400005C085E090E002C081E090E02110019698
:10235000112331F0212F30E02F5F3F4F820F931F69
:102360002F2D30E08217930714F4F81A01C0F12CD6
:10237000832D897049F4FF2039F0B60180E290E0A6
:102380000E942318FA94F7CF222029F0B601822D5B
:1023900090E00E94231833FC09C0FF2039F0B601F9
:1023A00080E390E00E942318FA94F7CF37FE5AC0DA
:1023B000942D852D57FE02C090E080E0292E382E06
:1023C00020E030E0A2014E1951095D874C87A2013F
:1023D000421953095F874E87612F70E044275527C4
:1023E000461B570B598B488B5FEF2516350649F472
:1023F000B6018EE290E02A8B3B8B0E9423183B892A
:102400002A89421453046CF04C855D8542155305AE
:1024100044F4EE85FF85E20FF31FE60DF71D818181
:1024200001C080E351E0251A31082F5F3F4F4889F2
:102430005989241635064CF0B60190E02A8B3B8B67
:102440000E9423182A893B89CFCF2414350439F4FC
:102450009A81963318F4953311F404FF81E3B601A1
:1024600090E04BC08A81813309F00F7EB60190E085
:102470000E942318111105C034FC18C085E690E0B5
:1024800017C0B6018EE290E00E94231882E0EE248D
:10249000E394E80EF301E80FF11D8081B60190E0AE
:1024A0000E94231811508E2D91F7E6CF85E490E01D
:1024B000B6010E94231857FC05C04114510439F499
:1024C00004FF05C05194419451088DE201C08BE294
:1024D000B60190E00E94231880E39AE04916510467
:1024E0002CF08F5F5AE0451A5108F7CFB60190E003
:1024F0000E942318B601C201C0960E94231857C13A
:10250000833631F0833779F0833509F058C021C024
:102510005201E2E0AE0EB11CF2018081898301E03C
:1025200010E0230114C05201F2E0AF0EB11CF20121
:102530004080518026FF03C0612F70E002C06FEF22
:102540007FEFC2012A8B0E9418188C012A892F77ED
:1025500015C05201F2E0AF0EB11CF2014080518073
:1025600026FF03C0612F70E002C06FEF7FEFC20152
:102570002A8B0E940D188C012A892068322E23FD97
:102580001AC08F2D90E008171907A8F4B60180E251
:1025900090E00E942318FA94F4CFF20137FC859161
:1025A00037FE81912F01B60190E00E942318F110AF
:1025B000FA94015011090115110579F7F8C0843614
:1025C00011F0893659F5520127FF09C0F4E0AF0E2A
:1025D000B11CF20160817181828193810AC0F2E0B5
:1025E000AF0EB11CF20160817181072E000C880BC7
:1025F000990B2F76322E97FF09C090958095709594
:1026000061957F4F8F4F9F4F2068322E2AE030E038
:10261000A3010E94A118E82EE6183FC0022F8537BB
:1026200021F40F7E2AE030E01DC0097F8F3691F043
:1026300018F4883559F0C5C0803719F0883711F083
:10264000C0C0006104FF09C0046007C024FF08C0C7
:10265000066006C028E030E005C020E130E002C09E
:1026600020E132E0520107FF09C0F4E0AF0EB11CD7
:10267000F201608171818281938108C0F2E0AF0E26
:10268000B11CF2016081718180E090E0A3010E94A1
:10269000A118E82EE6180F77302E36FE0BC0332D2A
:1026A0003E7FE11650F434FE0AC032FC08C0332DE0
:1026B0003E7E05C00E2D332D03C00E2D01C0012F0F
:1026C00034FF0CC0FE01EE0DF11D8081803311F44A
:1026D000397E08C032FF05C00E5F04C0832F8678A4
:1026E00009F00F5F33FD13C030FF06C01E2D0F151C
:1026F00018F41F0D101B0F2D0F1568F4B60180E2A2
:1027000090E03B8B0E9423180F5F3B89F5CF0F159C
:1027100010F4F01A01C0F12C34FF12C0B60180E3AE
:1027200090E03B8B0E9423183B8932FF17C031FD9C
:1027300003C088E790E002C088E590E0B6010CC0D5
:10274000832F867859F031FF02C08BE201C080E20E
:1027500037FD8DE2B60190E00E942318E11638F4AF
:10276000B60180E390E00E9423181150F7CFEA945D
:10277000F301EE0DF11D8081B60190E00E94231857
:10278000E110F5CF14C0F4E0FF1558F584E0F81A15
:1027900033FE1EC0211026C003FF2AC00CE810E043
:1027A000F32DF0713F2EF8018491811124C0FF2098
:1027B00009F4E5CCB60180E290E00E942318FA9477
:1027C000F6CFF6018681978126C08FEF9FEF23C059
:1027D000B60180E290E00E942318FA94F110F8CF3D
:1027E000D9CFF12CB601822D90E00E942318D4CFCE
:1027F00000E910E0D5CF31108052B60190E00E9480
:1028000023180F5F1F4FCFCF23E02F1510F483E065
:10281000BECFF12CC1CF6396E2E10C9471140E94FB
:10282000240785E096E0909308018093070187E4F0
:1028300096E0909306018093050184E696E09093DC
:1028400004018093030164E073E082EF90E00E9452
:10285000200880E090E0089597FB072E16F400947E
:1028600007D077FD09D00E948C1407FC05D03EF4F8
:10287000909581959F4F0895709561957F4F08952C
:10288000EE0FFF1F0590F491E02D0994A29FB00177
:10289000B39FC001A39F700D811D1124911DB29F94
:1028A000700D811D1124911D08952F923F924F921A
:1028B0005F926F927F928F929F92AF92BF92CF92D0
:1028C000DF92EF92FF920F931F93CF93DF93CDB7D9
:1028D000DEB7CA1BDB0B0FB6F894DEBF0FBECDBF51
:1028E00009942A88398848885F846E847D848C8422
:1028F0009B84AA84B984C884DF80EE80FD800C812B
:102900001B81AA81B981CE0FD11D0FB6F894DEBF0D
:102910000FBECDBFED010895AA1BBB1B51E107C03F
:10292000AA1FBB1FA617B70710F0A61BB70B881F5F
:10293000991F5A95A9F780959095BC01CD010895EE
:102940005058BB27AA270E94B8140C9409160E945D
:10295000FB1538F00E94021620F039F49F3F19F45D
:1029600026F40C94F8150EF4E095E7FB0C94F215A0
:10297000E92F0E941A1658F3BA17620773078407E3
:10298000950720F079F4A6F50C943C160EF4E0952A
:102990000B2EBA2FA02D0B01B90190010C01CA0119
:1029A000A0011124FF27591B99F0593F50F4503EC4
:1029B00068F11A16F040A22F232F342F4427585FB6
:1029C000F3CF469537952795A795F0405395C9F7CE
:1029D0007EF41F16BA0B620B730B840BBAF0915086
:1029E000A1F0FF0FBB1F661F771F881FC2F70EC025
:1029F000BA0F621F731F841F48F4879577956795F8
:102A0000B795F7959E3F08F0B0CF9395880F08F0E3
:102A10009927EE0F9795879508950E9421150C949C
:102A200009160E94021658F00E94FB1540F029F486
:102A30005F3F29F00C94F21551110C943D160C9443
:102A4000F8150E941A1668F39923B1F3552391F3F0
:102A5000951B550BBB27AA2762177307840738F00D
:102A60009F5F5F4F220F331F441FAA1FA9F335D06A
:102A70000E2E3AF0E0E832D091505040E695001C1E
:102A8000CAF72BD0FE2F29D0660F771F881FBB1FD8
:102A9000261737074807AB07B0E809F0BB0B802DB6
:102AA000BF01FF2793585F4F3AF09E3F510578F0E2
:102AB0000C94F2150C943D165F3FE4F3983ED4F36A
:102AC000869577956795B795F7959F5FC9F7880FB6
:102AD000911D9695879597F90895E1E0660F771F08
:102AE000881FBB1F621773078407BA0720F0621B99
:102AF000730B840BBA0BEE1F88F7E09508950E94C4
:102B000086156894B1110C943D1608950E94221602
:102B100088F09F5798F0B92F9927B751B0F0E1F09E
:102B2000660F771F881F991F1AF0BA95C9F714C04E
:102B3000B13091F00E943C16B1E008950C943C161F
:102B4000672F782F8827B85F39F0B93FCCF3869587
:102B500077956795B395D9F73EF4909580957095E4
:102B600061957F4F8F4F9F4F0895E89409C097FB61
:102B70003EF490958095709561957F4F8F4F9F4F54
:102B80009923A9F0F92F96E9BB279395F695879598
:102B900077956795B795F111F8CFFAF4BB0F11F45B
:102BA00060FF1BC06F5F7F4F8F4F9F4F16C0882302
:102BB00011F096E911C0772321F09EE8872F762F38
:102BC00005C0662371F096E8862F70E060E02AF079
:102BD0009A95660F771F881FDAF7880F9695879565
:102BE00097F9089597F99F6780E870E060E008958D
:102BF0009FEF80EC089500240A9416161706180615
:102C00000906089500240A941216130614060506F0
:102C10000895092E0394000C11F4882352F0BB0F81
:102C200040F4BF2B11F460FF04C06F5F7F4F8F4FE4
:102C30009F4F089557FD9058440F551F59F05F3F1F
:102C400071F04795880F97FB991F61F09F3F79F0CE
:102C500087950895121613061406551FF2CF469550
:102C6000F1DF08C0161617061806991FF1CF8695D2
:102C70007105610508940895E894BB2766277727B6
:102C8000CB0197F908950E94B51608F48FEF0895C7
:102C90000E945B160C9409160E94FB1538F00E94E6
:102CA000021620F0952311F00C94F2150C94F815EF
:102CB00011240C943D160E941A1670F3959FC1F3CF
:102CC000950F50E0551F629FF001729FBB27F00DDA
:102CD000B11D639FAA27F00DB11DAA1F649F66272F
:102CE000B00DA11D661F829F2227B00DA11D621F7E
:102CF000739FB00DA11D621F839FA00D611D221F38
:102D0000749F3327A00D611D231F849F600D211D1B
:102D1000822F762F6A2F11249F5750409AF0F1F09E
:102D200088234AF0EE0FFF1FBB1F661F771F881F07
:102D300091505040A9F79E3F510580F00C94F21538
:102D40000C943D165F3FE4F3983ED4F38695779557
:102D50006795B795F795E7959F5FC1F7FE2B880FAD
:102D6000911D9695879597F90895990F0008550F2D
:102D7000AA0BE0E8FEEF16161706E807F907C0F001
:102D800012161306E407F50798F0621B730B840B09
:102D9000950B39F40A2661F0232B242B252B21F4E3
:102DA00008950A2609F4A140A6958FEF811D811D83
:102DB00008958F929F92AF92BF92CF92DF92EF923F
:102DC000FF92CF93DF93EC01688179818A819B81A7
:102DD000611571058105910521F464E279ED8BE5BA
:102DE00097E02DE133EF41E050E00E9415194901D1
:102DF0005A019B01AC01A7EAB1E40E9434196B01AE
:102E00007C01ACEEB4EFA50194010E944219DC01F3
:102E1000CB018C0D9D1DAE1DBF1DB7FF03C00197DB
:102E2000A109B04888839983AA83BB839F77DF91E8
:102E3000CF91FF90EF90DF90CF90BF90AF909F9099
:102E40008F9008950E94D916089589E091E00E941C
:102E5000D9160895A0E0B0E08093090190930A018B
:102E6000A0930B01B0930C010895283008F027E0DF
:102E70003327DA01990F311D87FD916000966105B6
:102E8000710539F432602E5F3D9330E32A95E1F706
:102E900008959F3F30F080387105610509F03C5F6F
:102EA0003C5F3D93913008F08068911DDF93CF9394
:102EB0001F930F93FF92EF92192F987F9695E92F0A
:102EC00096959695E90FFF27E251FF4F99273327F3
:102ED000EE24FF24A701E70105900894079428F445
:102EE000360FE71EF81E491F511D660F771F881FFA
:102EF000991F0694A1F70590079428F4E70EF81E91
:102F0000491F561FC11D770F881F991F661F069402
:102F1000A1F70590079428F4F80E491F561FC71F04
:102F2000D11D880F991F661F771F0694A1F7059082
:102F3000079420F4490F561FC71FD81F990F661F0B
:102F4000771F881F0694A9F784911095177041F098
:102F5000D695C79557954795F794E7941A95C1F775
:102F6000E4E9F0E06894159015913591659195919B
:102F700005907FE27395E118F10A430B560BC90BDC
:102F8000D009C0F7E10CF11E431F561FC91FD01D09
:102F90007EF4703311F48A95E6CFE894015030F056
:102FA000080F0AF40027021708F4202F2395022F98
:102FB0007A3328F079E37D932A95E9F710C07D9361
:102FC0002A9589F6069497956795379517951794DE
:102FD000E118F10A430B560BC90BD00998F0239561
:102FE0007E9173957A3308F070E37C932013B8F7E1
:102FF0007E9170617D9330F0839571E37D9370E3F2
:103000002A95E1F71124EF90FF900F911F91CF9136
:10301000DF91992787FD90950895FC0105906150F7
:1030200070400110D8F7809590958E0F9F1F0895DE
:10303000FC016150704001900110D8F78095909587
:103040008E0F9F1F08950F931F93CF93DF93FB0164
:10305000238121FD03C08FEF9FEF28C022FF16C000
:1030600046815781248135814217530744F4A0815A
:10307000B1819D012F5F3F4F318320838C93268147
:1030800037812F5F3F4F3783268310C0EB01092F15
:10309000182F0084F185E02D0995892BE1F68E81AA
:1030A0009F8101969F838E83812F902FDF91CF91F7
:1030B0001F910F910895A0E0B0E0E1E6F8E10C94D3
:1030C0006514AE014B5F5F4FFA0161917191AF01E1
:1030D0008091190390911A030E949310E2E00C94DE
:1030E00081140F931F93CF93DF93E0911903F09115
:1030F0001A03238121FF1BC08C01D0E0C0E0F8013E
:1031000081918F016091190370911A03DB01189668
:10311000ED91FC911997882331F00995892B79F36A
:10312000DFEFCFEFECCF8AE00995892B19F08FEF15
:103130009FEF02C08D2F9C2FDF91CF911F910F9198
:103140000895FA01AA27283051F1203181F1E8943D
:103150006F936E7F6E5F7F4F8F4F9F4FAF4FB1E08A
:103160003ED0B4E03CD0670F781F891F9A1FA11D85
:10317000680F791F8A1F911DA11D6A0F711D811D86
:10318000911DA11D20D009F468943F912AE0269F4B
:1031900011243019305D3193DEF6CF010895462FAA
:1031A0004770405D4193B3E00FD0C9F7F6CF462F8B
:1031B0004F70405D4A3318F0495D31FD40524193F4
:1031C00002D0A9F7EACFB4E0A695979587957795B1
:1031D0006795BA95C9F700976105710508959B0138
:1031E000AC010A2E06945795479537952795BA95C1
:1031F000C9F7620F731F841F951FA01D0895F999C9
:10320000FECF92BD81BDF89A992780B50895262FEB
:10321000F999FECF1FBA92BD81BD20BD0FB6F894BB
:10322000FA9AF99A0FBE01960895052E97FB1EF49F
:1032300000940E942C1957FD07D00E94471907FCE3
:1032400003D04EF40C942C1950954095309521954F
:103250003F4F4F4F5F4F08959095809570956195C2
:103260007F4F8F4F9F4F08950E944614A59F900D4A
:10327000B49F900DA49F800D911D11240895B7FF58
:103280000C9434190E943419821B930B0895A1E207
:103290001A2EAA1BBB1BFD010DC0AA1FBB1FEE1FD0
:1032A000FF1FA217B307E407F50720F0A21BB30B1B
:1032B000E40BF50B661F771F881F991F1A9469F797
:1032C00060957095809590959B01AC01BD01CF01F3
:0632D0000895F894FFCF01
:1032D6003801AA230720071F07010000006D616B54
:1032E600654A6F696E4465636973696F6E006D61E7
:1032F6006B654C656176654465636973696F6E20BD
:0433060025640A0030
:00000001FF
