:100000000C94C7000C94F0000C94F0000C94F000D9
:100010000C94F0000C94F0000C94E1040C94F000AB
:100020000C94F0000C94F0000C94F0000C94A00AD6
:100030000C94F0000C94F0000C94000A0C94F00066
:100040000C94F0000C94F0000C94F0000C94F00070
:100050000C94F0000C94F0000C94F0000C94C20A84
:100060000C94F0000C94F0004705C3051B05120525
:100070001805A5059A05250C020B020B220C2E0C67
:100080001E0C350C310C390CF10BC30B6E616E007C
:10009000696E660000407A10F35A00A0724E18098B
:1000A0000010A5D4E80000E87648170000E40B54DF
:1000B000020000CA9A3B000000E1F50500008096AE
:1000C0009800000040420F000000A08601000000E0
:1000D000102700000000E80300000000640000009A
:1000E00000000A00000000000100000000002C7663
:1000F000D888DC674F0823DFC1DFAE59E1B1B7967E
:10010000E5E3E453C63AE651997696E8E6C28426DA
:10011000EB898C9B62ED407C6FFCEFBC9C9F40F2B6
:10012000BAA56FA5F490055A2AF75C936B6CF96732
:100130006DC11BFCE0E40D47FEF520E6B500D0EDF7
:10014000902E0300943577050080841E080000205F
:100150004E0A000000C80C333333330F986E1283FD
:100160001141EF8D2114893BE65516CFFEE6DB18D1
:10017000D1844B381BF77C1D901DA4BBE424203296
:1001800084725E228100C9F124ECA1E53D2711248F
:100190001FBECFEFD8E0DEBFCDBF14BE0FB6F894C0
:1001A000A895809160008861809360001092600043
:1001B0000FBE11E0A0E0B1E0E4EDFBE202C005906B
:1001C0000D92A231B107D9F721E0A2E1B1E001C05F
:1001D0001D92A639B207E1F70E94E7100C94E815CA
:1001E0000C940000E0910001F091010181E0838F07
:1001F0000895CF93DF93CB01C0910001D09101010D
:1002000021E02E830E9441078987DF91CF910895D5
:1002100080918B0190918C01892B51F0E09100012C
:10022000F0910101228D222349F0CF010E9608950D
:1002300080910001909101010E96089580E090E078
:100240000895CF93DF93C0910001D09101011F8ADF
:1002500080918B018E87CE010E960E94CC0C998FD7
:10026000888FE0910001F091010116828FEF808765
:1002700081871082128E138E12821382148215824D
:100280008181882349F060E080E00E945B06E09174
:100290000001F0910101118280918C018F93809176
:1002A0008B018F938DE091E09F938F930E940A15AD
:1002B0000F900F900F900F90DF91CF910895E091E4
:1002C0000001F0910101838D813009F00895138EB2
:1002D00080E10E947C0AE0910001F09101014091CF
:1002E00055015091560160915701709158018085D8
:1002F00090E00696092E000CAA0BBB0B84179507FD
:10030000A607B70718F78091550190915601A09163
:100310005701B091580180870895CF9381E00E94E2
:100320007C0AE0910001F0910101809155019091CA
:100330005601A0915701B091580182839383A48301
:10034000B58386818130C1F110820E94BA06C82F20
:10035000C370D9F0C330C9F0E0910001F091010100
:100360008181C13009F44BC0823069F00E9460067F
:1003700060917B0180E00E945B06E0910001F091BA
:10038000010182E08183CF910895E0910001F09115
:10039000010181818330B9F30E94600660918E0172
:1003A00080918D010E945B06E0910001F0910101B6
:1003B00083E08183CF910895168240915501509139
:1003C00056016091570170915801428753876487A5
:1003D000758780838181833071F00E94600660910F
:1003E0008E0180918D010E945B06E0910001F091E9
:1003F000010183E0818381858087CF9108958130D9
:1004000011F20E94600660E080918F010E945B06FD
:10041000E0910001F0910101C183B5CFE0910001AD
:10042000F09101018681813011F080E008951682FB
:100430008091550190915601A0915701B0915801BA
:1004400082879387A487B58781E0089584E00E941E
:100450007C0AE0910001F09101018185833380F4F1
:1004600082E080838181882309F455C060E080E0C8
:100470000E945B06E0910001F09101011182089554
:100480009085891738F48681813021F11082818529
:10049000808708958181813069F0823071F10E94F6
:1004A000BA06E0910001F091010180FF23C0818133
:1004B000823049F30E94600660917B0180E00E94D7
:1004C0005B06E0910001F091010182E08183868169
:1004D0008130E1F616828091550190915601A091EC
:1004E0005701B091580182879387A487B58781858A
:1004F000808708958181813031F20E94600660E03A
:1005000080918F010E945B06E0910001F091010152
:1005100081E08183B8CF089580918B0190918C0107
:10052000E0910001F0910101892B09F445C040914F
:100530005501509156016091570170915801828187
:100540009381A481B5818096A11DB11D8417950763
:10055000A607B70780F58091550190915601A091AB
:100560005701B091580182839383A483B58380811E
:10057000813009F44CC008F448C0823009F0089575
:1005800080E10E947C0AE0910001F09101018181EB
:10059000882349F060E080E00E945B06E091000162
:1005A000F0910101118281E0828F8681813089F191
:1005B0001082128E16820895838D8130E1F7138E9A
:1005C00080E10E947C0AE0910001F09101014091DC
:1005D00055015091560160915701709158018085E5
:1005E00090E00696092E000CAA0BBB0B841795070A
:1005F000A607B70700F78091550190915601A09189
:100600005701B0915801808708950C948D010C9486
:10061000260216828091550190915601A0915701B2
:10062000B091580182879387A487B587089580E1A8
:100630000E947C0AE0910001F091010181818823F0
:1006400049F060E080E00E945B06E0910001F091DB
:100650000101118281E0828F8681813021F0108238
:10066000128E16820895168280915501909156013E
:10067000A0915701B091580182879387A487B587CD
:100680000895E0910001F091010181E0918593339B
:1006900008F080E00895CF93E0910001F09101010E
:1006A0009181981781F0C82F8230C1F0833069F0B2
:1006B0008130E1F060E080E00E945B06E0910001A3
:1006C000F0910101C183CF9108950E94600660916D
:1006D0008E0180918D010E945B06F0CF0E94600622
:1006E00060917B0180E00E945B06E8CF0E9460067B
:1006F00060E080918F010E945B06E0CFCF930E9463
:10070000BA06C82FC370E0910001F0910101818108
:10071000CC23A9F0C33099F0C13019F1823069F0CF
:100720000E94600660917B0180E00E945B06E09180
:100730000001F091010182E08183CF91089583301F
:10074000E1F30E94600660918E0180918D010E940C
:100750005B06E0910001F091010183E08183CF917C
:100760000895813051F30E94600660E080918F010E
:100770000E945B06E0910001F0910101C183CF91DD
:1007800008950E94BA06E0910001F091010180FFF6
:1007900011C08181823069F00E94600660917B0106
:1007A00080E00E945B06E0910001F091010182E08F
:1007B0008183089581818130E1F30E94600660E0C9
:1007C00080918F010E945B06E0910001F091010190
:1007D00081E081830895E0910001F091010181E0C1
:1007E00090E02681222311F080E090E008950895A2
:1007F00080E090E008950895DF92EF92FF920F93CA
:100800001F93CF93DF93F89414B817B81AB815B89C
:1008100018B81BB8529A5A9A14BC85E085BD8FEF60
:1008200087BD82E080936E0010928000109281005C
:100830002FE83BE0309389002093880080936F007D
:100840005398239891EA9093B0008093B10010924E
:10085000B4001092B3008BE080BF83E080937F00F0
:1008600086E080937C0083E880937A0080917A0010
:10087000806480937A0080917A0086FDFCCF10928C
:100880007C0083EA80937A0081E080937B0081E0A2
:1008900090E00E947E158F3F11F0809366001092C9
:1008A0005901C1E0C0933201C0937601109250010A
:1008B00010928A0180E990E00E947E1580934F019A
:1008C00080914F01887311F0C0934F0110927A010B
:1008D000109279018FEF90E09093780180937701E7
:1008E0001092550110925601109257011092580122
:1008F00081E08093150182E49FE0909389018093C9
:10090000880180EB90E00E947E15C82F81EB90E07B
:100910000E947E152C2F30E0382B30938C012093D1
:100920008B0185E090E00E947E1580938F0189E025
:1009300090E00E947E1580937B018CE090E00E9405
:100940007E1580938D0184E190E00E947E15809356
:100950008E015AE5E52E51E0F52E03E311E0C0E2E9
:10096000D0E0CE010E947E15D82ECE0101960E94C5
:100970007E152D2D30E0322F2227282BF7012193D1
:1009800031937F01CE01C0960E947E15D82ECE01F4
:10099000C1960E947E152D2D30E0322F2227282B64
:1009A000F801219331938F012296CC33D105C9F6FA
:1009B0007894DF91CF911F910F91FF90EF90DF908E
:1009C00008951F920F920FB60F9211248F930FB6B6
:1009D000F894A895809160008861809360001092DF
:1009E00060000FBE8F910F900FBE0F901F90189553
:1009F0003C01EB0110E099249A9484E0C82E96E023
:100A0000A92E23E8B22E38E1D32E49E2E42E9091AC
:100A10001501E92FF0E0E730F105C8F7EC5CFF4F76
:100A20000C941811112309F4FCC0C092150111E0B7
:100A3000FE010995ECCF809159018111EBC0F8942A
:100A4000A0927C00B0927A0080917A0080648093BA
:100A50007A0090917A0096FDFCCF80917800909179
:100A6000790078948B3AE2E09E070CF0EDC089386B
:100A7000F2E09F070CF0EFC0873692400CF4CAC03A
:100A8000559A549A3B9A3A9A3D983C98C0CFF8941C
:100A900080B7877F80BF80917A008F7780937A00BC
:100AA00014B817B81AB815B818B81BB80FB6F89418
:100AB000A895D09260000FBEE09260008091600027
:100AC00080648093600093B7917F946093BFF894A3
:100AD00083B7816083BF7894889583B78E7F83BF07
:100AE000789410925901529A5A9A80917A008068AB
:100AF00080937A0087E592E00197F1F700C000004B
:100B000080B7886180BF559A549A3B9A3A9A3D9A29
:100B10003C9AEFE1FEE43197F1F700C000008091CC
:100B20005901811181C0559854983B983A983D9845
:100B30003C986DCF80911301811141C01092B30098
:100B40001092B4001092140162CF4899ECCF559ADC
:100B500054983B983A983D983C988FEC97E00197D1
:100B6000F1F700C00000559854983B983A983D988A
:100B70003C989FEFE1EEF4E09150E040F040E1F767
:100B800000C0000044CF559854983B9A3A9A3D983B
:100B90003C98EFECF7E03197F1F700C00000559872
:100BA00054983B983A983D983C98FFEF21EE84E0AA
:100BB000F15020408040E1F700C0000028CF909124
:100BC000130180911401981709F421CF809113012A
:100BD0008093140180911301813009F450C08091F9
:100BE00013011092B3009092B4008230D9F1909228
:100BF000B3009092B4008FE295E70197F1F700C03F
:100C0000000080918E0190918D019093B3008093AC
:100C1000B400FDCE559A549A3B983A983D983C982A
:100C2000F6CEF301099501CF559A549A3B983A981C
:100C30003D983C98FFEF20E782E0F1502040804053
:100C4000E1F700C000006FCF559854983B9A3A9A4C
:100C50003D983C98DCCE559854983B983A983D9AEC
:100C60003C9AD5CEEFE2F5E73197F1F700C00000EE
:100C700080917B011092B3008093B400C8CE909213
:100C8000B3001092B4008FE295E70197F1F700C02E
:100C9000000080918F018093B3001092B400B7CE12
:100CA00007C0EFECF7E03197F1F700C000000197C3
:100CB0000097B9F708958093B3006093B400089546
:100CC0008FEF8093B3008093B4008FE090E0EFEC5F
:100CD000F7E03197F1F700C000000197C1F70895E0
:100CE0008091590181111EC0F89487E080937C00A7
:100CF00083E880937A0080917A00806480937A0000
:100D000080917A0086FDFCCF8091780090917900E7
:100D100010927C0023EA20937A0021E020937B004C
:100D2000789408958FEF9FEF089580915901811174
:100D30001EC0F89488EC80937C0087E880937A004A
:100D400080917A00806480937A0080917A0086FD99
:100D5000FCCF809178009091790010927C0023EA7A
:100D600020937A0021E020937B00789408958FEF00
:100D70009FEF08950F931F93CF93DF93E0E0F0E090
:100D800080E003EA11E0D6E0C3E8A1E0B0E060E86B
:100D900070E0F894D0937C00C0937A0090917A0030
:100DA000906490937A0090917A0096FDFCCF209108
:100DB000780030917900217090917A00906490933E
:100DC0007A0090917A0096FDFCCF40917800509186
:100DD000790010927C0000937A0010937B00789445
:100DE0004170241303C06150710999F6222339F030
:100DF0009D010E2E01C0220F0A94EAF7822B319634
:100E0000E830F10509F0C3CFDF91CF911F910F9129
:100E1000089580910201982F990F990F990F8927B2
:100E20009091120121E0290F20931201282F229581
:100E3000269527708227969596958927809302019B
:100E4000089580930201089580915901811116C07F
:100E5000F89486E080937C0083E880937A00809108
:100E60007A00806480937A0080917A0086FDFCCFBE
:100E70008091780090917900789408958FEF9FEF9A
:100E800008952F923F924F925F926F927F928F922E
:100E90009F92AF92BF92CF92DF92EF92FF920F9309
:100EA0001F93CF93DF9300D000D000D0CDB7DEB733
:100EB0001C01DC0112960D90BC91A02DBE83AD8368
:100EC000A438E3E0BE070CF0C9C0809133019091D3
:100ED00034018A179B0708F437C10091350110913E
:100EE00036010A171B0708F42FC200913701109131
:100EF00038010A171B0708F42FC20091390110911D
:100F00003A010A171B0708F42FC200913B01109108
:100F10003C010A171B0708F42FC200913D011091F4
:100F20003E010A171B0708F4EFC100913F01109121
:100F300040010A171B0708F427C2009141011091D4
:100F400042010A171B0708F427C2009143011091C0
:100F500044010A171B0708F427C2009145011091AC
:100F600046010A171B0708F427C200914701109198
:100F700048010A171B0708F427C200914901109184
:100F80004A010A171B0708F423C200914B01109174
:100F90004C010A171B0708F423C200914D01109160
:100FA0004E010A171B0708F423C280E090E0A0ED71
:100FB000B0E489839A83AB83BC834CE0E42EF12CAC
:100FC000F701EE0FFF1FED5CFE4F80819181B801AC
:100FD000681B790B80E090E00E948D129B01AC01B0
:100FE0000E9479116B017C01AD81BE81BD01BB0FF7
:100FF000880B990B0E948F124B015C01B80180E0B5
:1010000090E00E948D122B013C0129813A814B8195
:101010005C81C701B6010E941B139B01AC01C30197
:10102000B2010E9478119B01AC01C501B4010E947C
:10103000781120E030E040E251E40E941B130E944E
:1010400057128B01C701B6010E945712AB01BC01B8
:10105000C801BA010E940411162F77C0DC01CD909F
:10106000DC9080915A0190915B018C159D0508F4EC
:101070008CC01FEFE0905C01F0905D01EC14FD046A
:1010800008F45EC1E0905E01F0905F01EC14FD0495
:1010900008F45EC1E0906001F0906101EC14FD0481
:1010A00008F45EC1E0906201F0906301EC14FD046D
:1010B00008F45EC1E0906401F0906501EC14FD0459
:1010C00008F4C3C0E0906601F0906701EC14FD04E1
:1010D00008F456C1E0906801F0906901EC14FD0439
:1010E00008F456C1E0906A01F0906B01EC14FD0425
:1010F00008F456C1E0906C01F0906D01EC14FD0411
:1011000008F456C1E0906E01F0906F01EC14FD04FC
:1011100008F456C1E0907001F0907101EC14FD04E8
:1011200008F45AC1E0907201F0907301EC14FD04D0
:1011300008F45AC1E0907401F0907501EC14FD04BC
:1011400008F45AC10AE531C010E0ED81FE81ED3BA3
:10115000F240FCF481E2810F26960FB6F894DEBFD0
:101160000FBECDBFDF91CF911F910F91FF90EF90F8
:10117000DF90CF90BF90AF909F908F907F906F90B7
:101180005F904F903F902F90089500E081E2800F94
:10119000E3CFD101CD90DC9080915A0190915B0119
:1011A0008C159D0508F066CF00E01F3F79F3ED81B7
:1011B000FE81BF01FF0F880B990B0E948F126B01FC
:1011C0007C01612F70E080E090E00E948D124B0165
:1011D0005C01A701960160E070E081E694E40E9462
:1011E00078119B01AC01C501B4010E941B134B0196
:1011F0005C01602F70E080E090E00E948D122B0176
:101200003C0120E030E04FE254E4C701B6010E9407
:1012100078119B01AC01C301B2010E941B139B0119
:10122000AC01C501B4010E94791120E030E048E42E
:1012300053E40E94E51120E030E044E052E40E94D3
:1012400079110E945E12862F87CF05E085E090E03D
:10125000880F991FFC01E85AFE4F80819181B701E8
:10126000681B790B80E090E00E948D129B01AC011D
:101270000E9479114B015C01B601DD0C880B990BC2
:101280000E948F122B013C01B70180E090E00E9488
:101290008D126B017C01602F70E080E090E00E9475
:1012A0008D1220E030E040E05FE30E941B1320E05D
:1012B00030E0A9010E947911A50194010E941B133D
:1012C0009B01AC01C701B6010E9478119B01AC01E2
:1012D000C301B2010E94781120E030E040E251E405
:1012E0000E941B130E9457127B01C501B4010E948A
:1012F0005712AB01BC01C701BA010E940411062FAD
:101300006F3F09F052CF26CF65E085E090E07C0189
:10131000F1E0EF1AF10870E080E090E00E948D1299
:1013200020E030E040E05FE30E941B1320E030E06B
:10133000A9010E94791169837A838B839C8340CEB3
:1013400001E081E090E084CF61E081E090E0DFCFD8
:1013500002E082E090E07CCF62E082E090E0D7CFD4
:1013600003E083E090E074CF63E083E090E0CFCFD0
:1013700004E084E090E06CCF64E084E090E0C7CFCC
:1013800006E086E090E064CF66E086E090E0BFCFC4
:1013900007E087E090E05CCF67E087E090E0B7CFC0
:1013A00008E088E090E054CF68E088E090E0AFCFBC
:1013B00009E089E090E04CCF69E089E090E0A7CFB8
:1013C0000AE08AE090E044CF6AE08AE090E09FCFB4
:1013D0006BE08BE090E09BCF0BE08BE090E038CFB0
:1013E0006CE08CE090E093CF0CE08CE090E030CFAC
:1013F0006DE08DE090E08BCF0DE08DE090E028CFA8
:101400001F920F920FB60F9211242F933F934F9379
:101410005F936F937F938F939F93AF93BF93EF935C
:10142000FF932091790130917A0180917701909119
:101430007801820F931F90937A01809379018FEF47
:1014400090E090937801809377018FEF87BD809132
:10145000550190915601A0915701B0915801019604
:10146000A11DB11D8093550190935601A093570182
:10147000B09358018091590181110FC0809188016A
:10148000909189012091790130917A018217930717
:1014900020F480911501843089F0FF91EF91BF9184
:1014A000AF919F918F917F916F915F914F913F91FC
:1014B0002F910F900FBE0F901F901895E09105018E
:1014C000F09106010995009741F30E94E80C811103
:1014D00009C00E94D41399279093780180937701D3
:1014E00087BDDBCFE0910301F091040109951092D3
:1014F0007A0110927901D1CF80FF11C0559A81FFF6
:1015000011C0549A82FF11C03B9A83FF11C03A9ACE
:1015100084FF11C03D9A85FD11C03C9808955598EF
:1015200081FDEFCF549882FDEFCF3B9883FDEFCF45
:101530003A9884FDEFCF3D9885FFEFCF3C9A089510
:101540001F920F920FB60F9211248F939F931092B8
:101550008100109285001092840081E08093320116
:10156000809376011092590110927C0093EA909337
:101570007A0080937B009F918F910F900FBE0F9008
:101580001F9018951F920F920FB60F9211242F9350
:101590003F934F935F936F937F938F939F93AF93FB
:1015A000BF93CF93DF93EF93FF932091840030910B
:1015B000850041E040935901809132018823A9F1CF
:1015C00010928500109284004093810010928A014D
:1015D00010923201809176018823A1F080917A00E7
:1015E00086FDFCCF80917800909179009093540112
:1015F0008093530181E080937C0093EA90937A007A
:1016000080937B00FF91EF91DF91CF91BF91AF91DC
:101610009F918F917F916F915F914F913F912F910A
:101620000F900FBE0F901F901895C9018758910910
:101630008437994008F052C026583109A4EFB0E031
:101640000E941E11AA27BB2788309105A105B1056C
:1016500008F47BC04093320180917601811152C021
:1016600080915001E82FF0E0E458FE4F90918A01FC
:1016700090838F5F809350018C3021F6109281000F
:1016800010928500109284004093760110925901C7
:10169000C0918601D09187018CE791E00E94CC0C2B
:1016A000C817D90709F0AECF8091850187FF61C0C7
:1016B00098E7980F933030F0539823981092B40025
:1016C0001092B30090E0FC01E058F109EB30F10515
:1016D00008F098CFE55CFF4F0C9418111092810030
:1016E000109285001092840040933201409376015D
:1016F0001092590110927C0083EA80937A00409303
:101700007B0080CF80917A0086FDFCCF80917800AD
:1017100090917900909352018093510110927C0036
:1017200083EA80937A0081E080937B0090918A0124
:101730009923D1F0109281001092850010928400BC
:1017400080937601109259015DCF21E030E0F901DC
:1017500002C0EE0FFF1F8A95E2F7CF0190918A0138
:10176000892B80938A014ECF1092760110925001FE
:1017700049CFE0910701F091080161E571E08CE744
:1017800091E009953FCF80917C01823009F4DDC062
:1017900008F4BAC0833009F4C6C0843009F0B1C07F
:1017A0008091130190918201833009F4E3C080910C
:1017B00081011092140123E02093130180938D0185
:1017C00090938E0180911501863009F41BCF539AB6
:1017D000239A1092B4001092B30086E08093150112
:1017E00011CF80911501863099F0539A239A109267
:1017F000B4001092B300559854983B983A983D988D
:101800003C98109213011092140186E08093150108
:1018100081E090E09C0100907C0102C0220F331F08
:101820000A94E2F780918B0190918C01822393239B
:10183000892B09F086C010921301E4CE81E08093D9
:101840001501E0CEE0E0F0E0099580916E008D7F1B
:1018500080936E0016BCE0E0F0E709951092150148
:10186000D1CE82E080931501CDCE85E08093150125
:10187000C9CE80911501833009F4C4CE8091150141
:10188000843009F4BFCE539A239A1092B400109278
:10189000B30083E080931501B5CE809115018630A9
:1018A00009F0B0CE60918B0180EB90E00E9486152C
:1018B00060918C0181EB90E00E94861560918F0110
:1018C00085E090E00E94861560917B0189E090E0C0
:1018D0000E94861560918D018CE090E00E94861533
:1018E00060918E0184E190E00E94861553982398C0
:1018F0001092B4001092B30081E0809315018091A2
:101900007C0181115FCF7ECE882339F28130C9F707
:1019100080917D0190917E0190938C0180938B0149
:10192000109213014FCF80911301823071F1809199
:1019300080011092140192E09093130180937B0137
:1019400041CF81E0809313015DCE809113018130FE
:1019500051F080917F011092140191E09093130156
:1019600080938F012FCF80917F0190918F018913F8
:10197000F2CF28CF80918E01981319CF80918101E9
:1019800020918D01821315CF1DCF80918001909100
:101990007B018913CECF16CFFC01AC01465F5F4FB0
:1019A0008FEF9FEF21918227082E8295807F8025DF
:1019B000092E982F82958F7008268695982789275B
:1019C000880F880F880F8025E417F50759F70895C9
:1019D0000FB6F894A4B120914F012A2B24B921E02D
:1019E00030914F01203029F0000025B1232B25B97B
:1019F00004C000000000000000C000000000000063
:101A0000309525B1232325B92EEA2A95F1F72BEE3F
:101A100030B735FF0AC0A4B930914F01309525B1D8
:101A2000232325B90FBE80E0089500002A9581F791
:101A300021E030914F01203029F0000025B1232B07
:101A400025B904C000000000000000C00000000034
:101A50000000309525B1232325B9000024E52A95FF
:101A6000F1F7FC018CE0619170E0660F771F616017
:101A700072609AE041E050E09A0126233723232B3D
:101A800030914F01203029F0000025B1232B25B9DA
:101A900004C000000000000000C0000000000000C2
:101AA000309525B1232325B9000021E52A95F1F7CA
:101AB000440F551F9A9501F78A95A9F620B7206122
:101AC00020BFA4B930914F01309525B1232325B90A
:101AD0000FBE81E00895A3E1B0E0E1E7FDE00C94E2
:101AE0002D116C014B012A01FC01178216828381A2
:101AF00081FF43C3AE014F5F5F4F3A01F60193810F
:101B0000F40193FD859193FF81914F01882309F49E
:101B100030C3853239F493FD859193FF81914F0154
:101B2000853239F4B60190E00E94D21452012501A9
:101B3000E5CF10E0F12C20E02032A0F48B3269F0E8
:101B400030F4803259F0833269F420612CC08D3238
:101B500039F0803339F4216026C02260246023C02C
:101B6000286021C027FD27C030ED380F3A3078F4C7
:101B700026FF06C0FAE01F9F300D1124132F13C05B
:101B80004AE0F49E300D1124F32E20620CC08E32F8
:101B900021F426FDEEC2206406C08C3611F42068C4
:101BA00002C0883641F4F40193FD859193FF819141
:101BB0004F018111C1CF9BEB980F933018F4206136
:101BC000805E06C09BE9980F933008F071C12F7EAC
:101BD00026FF16E02F73322E853619F42064322E3C
:101BE00008C0863621F4F22FF0683F2E02C0111192
:101BF000115037FE07C01C3350F4EE24E394E10E7D
:101C000027E00BC0183038F027E017E005C027E0C8
:101C10004CE3E42E02C0212FE12C520144E0A40E3B
:101C2000B11CF20160817181828193810E2DA3012B
:101C30000E94E4132C01098100FF02C003FF07C0CA
:101C400031FC08C032FE09C030E2232E07C02DE26D
:101C5000222E04C09BE2292E01C0212C802F8C70E3
:101C600019F0211068C2A8C237FE0FC0E40C04FFAF
:101C700004C08A81813309F4EA941E1474F5F8E0F3
:101C8000FE1578F588E0E82E2CC036FC2AC0812F9E
:101C900090E0841595059CF02CEF42162FEF52062C
:101CA00074F0432D4068342E0AC0E2E0F0E0EC0FFF
:101CB000FD1FE10FF11D8081803319F411501111C6
:101CC000F4CF37FE0EC0EE24E394E10E812F90E0B6
:101CD000481659062CF4141904C0EE24E39401C0EC
:101CE00010E037FE06C01414150434F4C201019646
:101CF00005C085E090E002C081E090E021100196EF
:101D0000112331F0212F30E02F5F3F4F820F931FBF
:101D10002F2D30E08217930714F4F81A01C0F12C2C
:101D2000832D897049F4FF2039F0B60180E290E0FC
:101D30000E94D214FA94F7CF222029F0B601822D06
:101D400090E00E94D21433FC09C0FF2039F0B601A4
:101D500080E390E00E94D214FA94F7CF37FE5AC085
:101D6000942D852D57FE02C090E080E0292E382E5C
:101D700020E030E0A2014E1951095D874C87A20195
:101D8000421953095F874E87612F70E0442755271A
:101D9000461B570B598B488B5FEF2516350649F4C8
:101DA000B6018EE290E02A8B3B8B0E94D2143B89D5
:101DB0002A89421453046CF04C855D854215530505
:101DC00044F4EE85FF85E20FF31FE60DF71D8181D8
:101DD00001C080E351E0251A31082F5F3F4F488949
:101DE0005989241635064CF0B60190E02A8B3B8BBE
:101DF0000E94D2142A893B89CFCF2414350439F4A8
:101E00009A81963318F4953311F404FF81E3B601F7
:101E100090E04BC08A81813309F00F7EB60190E0DB
:101E20000E94D214111105C034FC18C085E690E060
:101E300017C0B6018EE290E00E94D21482E0EE2438
:101E4000E394E80EF301E80FF11D8081B60190E004
:101E50000E94D21411508E2D91F7E6CF85E490E0C8
:101E6000B6010E94D21457FC05C04114510439F444
:101E700004FF05C05194419451088DE201C08BE2EA
:101E8000B60190E00E94D21480E39AE04916510412
:101E90002CF08F5F5AE0451A5108F7CFB60190E059
:101EA0000E94D214B601C201C0960E94D21457C13A
:101EB000833631F0833779F0833509F058C021C07B
:101EC0005201E2E0AE0EB11CF2018081898301E093
:101ED00010E0230114C05201F2E0AF0EB11CF20178
:101EE0004080518026FF03C0612F70E002C06FEF79
:101EF0007FEFC2012A8B0E94C7148C012A892F7799
:101F000015C05201F2E0AF0EB11CF20140805180C9
:101F100026FF03C0612F70E002C06FEF7FEFC201A8
:101F20002A8B0E94BC148C012A892068322E23FD42
:101F30001AC08F2D90E008171907A8F4B60180E2A7
:101F400090E00E94D214FA94F4CFF20137FC85910C
:101F500037FE81912F01B60190E00E94D214F1105A
:101F6000FA94015011090115110579F7F8C084366A
:101F700011F0893659F5520127FF09C0F4E0AF0E80
:101F8000B11CF20160817181828193810AC0F2E00B
:101F9000AF0EB11CF20160817181072E000C880B1D
:101FA000990B2F76322E97FF09C0909580957095EA
:101FB00061957F4F8F4F9F4F2068322E2AE030E08F
:101FC000A3010E942015E82EE6183FC0022F853796
:101FD00021F40F7E2AE030E01DC0097F8F3691F09A
:101FE00018F4883559F0C5C0803719F0883711F0DA
:101FF000C0C0006104FF09C0046007C024FF08C01E
:10200000066006C028E030E005C020E130E002C0F4
:1020100020E132E0520107FF09C0F4E0AF0EB11C2D
:10202000F201608171818281938108C0F2E0AF0E7C
:10203000B11CF2016081718180E090E0A3010E94F7
:102040002015E82EE6180F77302E36FE0BC0332D04
:102050003E7FE11650F434FE0AC032FC08C0332D36
:102060003E7E05C00E2D332D03C00E2D01C0012F65
:1020700034FF0CC0FE01EE0DF11D8081803311F4A0
:10208000397E08C032FF05C00E5F04C0832F8678FA
:1020900009F00F5F33FD13C030FF06C01E2D0F1572
:1020A00018F41F0D101B0F2D0F1568F4B60180E2F8
:1020B00090E03B8B0E94D2140F5F3B89F5CF0F1548
:1020C00010F4F01A01C0F12C34FF12C0B60180E305
:1020D00090E03B8B0E94D2143B8932FF17C031FD48
:1020E00003C088E790E002C088E590E0B6010CC02C
:1020F000832F867859F031FF02C08BE201C080E265
:1021000037FD8DE2B60190E00E94D214E11638F45A
:10211000B60180E390E00E94D2141150F7CFEA9408
:10212000F301EE0DF11D8081B60190E00E94D21402
:10213000E110F5CF14C0F4E0FF1558F584E0F81A6B
:1021400033FE1EC0211026C003FF2AC00CE810E099
:10215000F32DF0713F2EF8018491811124C0FF20EE
:1021600009F4E5CCB60180E290E00E94D214FA9422
:10217000F6CFF6018681978126C08FEF9FEF23C0AF
:10218000B60180E290E00E94D214FA94F110F8CFE8
:10219000D9CFF12CB601822D90E00E94D214D4CF79
:1021A00000E910E0D5CF31108052B60190E00E94D6
:1021B000D2140F5F1F4FCFCF23E02F1510F483E011
:1021C000BECFF12CC1CF6396E2E10C9449110E947D
:1021D000FC0389EF90E0909308018093070188E069
:1021E00091E0909306018093050182EF90E0909337
:1021F0000401809303016CE872E081E291E00E94A7
:10220000F80480E090E0089597FB072E16F4009400
:1022100007D077FD09D00E94641107FC05D03EF479
:10222000909581959F4F0895709561957F4F089582
:10223000EE0FFF1F0590F491E02D0994A29FB001CD
:10224000B39FC001A39F700D811D1124911DB29FEA
:10225000700D811D1124911D08952F923F924F9270
:102260005F926F927F928F929F92AF92BF92CF9226
:10227000DF92EF92FF920F931F93CF93DF93CDB72F
:10228000DEB7CA1BDB0B0FB6F894DEBF0FBECDBFA7
:1022900009942A88398848885F846E847D848C8478
:1022A0009B84AA84B984C884DF80EE80FD800C8181
:1022B0001B81AA81B981CE0FD11D0FB6F894DEBF64
:1022C0000FBECDBFED010895AA1BBB1B51E107C096
:1022D000AA1FBB1FA617B70710F0A61BB70B881FB6
:1022E000991F5A95A9F780959095BC01CD01089545
:1022F0005058BB27AA270E9490110C94E1120E940B
:10230000D31238F00E94DA1220F039F49F3F19F40A
:1023100026F40C94D0120EF4E095E7FB0C94CA124C
:10232000E92F0E94F21258F3BA1762077307840765
:10233000950720F079F4A6F50C9414130EF4E095AB
:102340000B2EBA2FA02D0B01B90190010C01CA016F
:10235000A0011124FF27591B99F0593F50F4503E1A
:1023600068F11A16F040A22F232F342F4427585F0C
:10237000F3CF469537952795A795F0405395C9F724
:102380007EF41F16BA0B620B730B840BBAF09150DC
:10239000A1F0FF0FBB1F661F771F881FC2F70EC07B
:1023A000BA0F621F731F841F48F48795779567954E
:1023B000B795F7959E3F08F0B0CF9395880F08F03A
:1023C0009927EE0F9795879508950E94F9110C941F
:1023D000E1120E94DA1258F00E94D31240F029F460
:1023E0005F3F29F00C94CA1251110C9415130C94F0
:1023F000D0120E94F21268F39923B1F3552391F39E
:10240000951B550BBB27AA2762177307840738F063
:102410009F5F5F4F220F331F441FAA1FA9F335D0C0
:102420000E2E3AF0E0E832D091505040E695001C74
:10243000CAF72BD0FE2F29D0660F771F881FBB1F2E
:10244000261737074807AB07B0E809F0BB0B802D0C
:10245000BF01FF2793585F4F3AF09E3F510578F038
:102460000C94CA120C9415135F3FE4F3983ED4F316
:10247000869577956795B795F7959F5FC9F7880F0C
:10248000911D9695879597F90895E1E0660F771F5E
:10249000881FBB1F621773078407BA0720F0621BEF
:1024A000730B840BBA0BEE1F88F7E09508950E941A
:1024B0005E126894B1110C94151308950E94FA12DB
:1024C00088F09F5798F0B92F9927B751B0F0E1F0F5
:1024D000660F771F881F991F1AF0BA95C9F714C0A5
:1024E000B13091F00E941413B1E008950C941413CC
:1024F000672F782F8827B85F39F0B93FCCF38695DE
:1025000077956795B395D9F73EF49095809570953A
:1025100061957F4F8F4F9F4F0895E89409C097FBB7
:102520003EF490958095709561957F4F8F4F9F4FAA
:102530009923A9F0F92F96E9BB279395F6958795EE
:1025400077956795B795F111F8CFFAF4BB0F11F4B1
:1025500060FF1BC06F5F7F4F8F4F9F4F16C0882358
:1025600011F096E911C0772321F09EE8872F762F8E
:1025700005C0662371F096E8862F70E060E02AF0CF
:102580009A95660F771F881FDAF7880F96958795BB
:1025900097F9089597F99F6780E870E060E00895E3
:1025A0009FEF80EC089500240A941616170618066B
:1025B0000906089500240A94121613061406050647
:1025C0000895092E0394000C11F4882352F0BB0FD8
:1025D00040F4BF2B11F460FF04C06F5F7F4F8F4F3B
:1025E0009F4F089557FD9058440F551F59F05F3F76
:1025F00071F04795880F97FB991F61F09F3F79F025
:1026000087950895121613061406551FF2CF4695A6
:10261000F1DF08C0161617061806991FF1CF869528
:102620007105610508940895E894BB27662777270C
:10263000CB0197F908950E942E130C94E1120E9489
:10264000D31238F00E94DA1220F0952311F00C9486
:10265000CA120C94D01211240C9415130E94F21279
:1026600070F3959FC1F3950F50E0551F629FF001E5
:10267000729FBB27F00DB11D639FAA27F00DB11DFE
:10268000AA1F649F6627B00DA11D661F829F222787
:10269000B00DA11D621F739FB00DA11D621F839F0E
:1026A000A00D611D221F749F3327A00D611D231FE4
:1026B000849F600D211D822F762F6A2F11249F5732
:1026C00050409AF0F1F088234AF0EE0FFF1FBB1F35
:1026D000661F771F881F91505040A9F79E3F5105F4
:1026E00080F00C94CA120C9415135F3FE4F3983EEB
:1026F000D4F3869577956795B795F795E7959F5F9E
:10270000C1F7FE2B880F911D9695879597F908952F
:102710008F929F92AF92BF92CF92DF92EF92FF92F1
:10272000CF93DF93EC01688179818A819B81611568
:1027300071058105910521F464E279ED8BE597E05F
:102740002DE133EF41E050E00E94941549015A0118
:102750009B01AC01A7EAB1E40E94B3156B017C01B7
:10276000ACEEB4EFA50194010E94C115DC01CB01D0
:102770008C0D9D1DAE1DBF1DB7FF03C00197A109A4
:10278000B04888839983AA83BB839F77DF91CF91D9
:10279000FF90EF90DF90CF90BF90AF909F908F9081
:1027A00008950E948813089589E091E00E9488139B
:1027B0000895A0E0B0E08093090190930A01A093EE
:1027C0000B01B0930C010895283008F027E033275F
:1027D000DA01990F311D87FD916000966105710541
:1027E00039F432602E5F3D9330E32A95E1F7089586
:1027F0009F3F30F080387105610509F03C5F3C5F18
:102800003D93913008F08068911DDF93CF931F9323
:102810000F93FF92EF92192F987F9695E92F969537
:102820009695E90FFF27E251FF4F99273327EE24B2
:10283000FF24A701E70105900894079428F4360FB8
:10284000E71EF81E491F511D660F771F881F991F2D
:102850000694A1F70590079428F4E70EF81E491F87
:10286000561FC11D770F881F991F661F0694A1F779
:102870000590079428F4F80E491F561FC71FD11D55
:10288000880F991F661F771F0694A1F7059007947C
:1028900020F4490F561FC71FD81F990F661F771FB7
:1028A000881F0694A9F784911095177041F0D6956A
:1028B000C79557954795F794E7941A95C1F7E4E9BA
:1028C000F0E068941590159135916591959105907A
:1028D0007FE27395E118F10A430B560BC90BD0093F
:1028E000C0F7E10CF11E431F561FC91FD01D7EF417
:1028F000703311F48A95E6CFE894015030F0080F58
:102900000AF40027021708F4202F2395022F7A33A8
:1029100028F079E37D932A95E9F710C07D932A95F5
:1029200089F6069497956795379517951794E1184A
:10293000F10A430B560BC90BD00998F023957E91F1
:1029400073957A3308F070E37C932013B8F77E9187
:1029500070617D9330F0839571E37D9370E32A95E8
:10296000E1F71124EF90FF900F911F91CF91DF912C
:10297000992787FD90950895FC010590615070405E
:102980000110D8F7809590958E0F9F1F0895FC0138
:102990006150704001900110D8F7809590958E0F8E
:1029A0009F1F08950F931F93CF93DF93FB01238104
:1029B00021FD03C08FEF9FEF28C022FF16C0468184
:1029C0005781248135814217530744F4A081B18196
:1029D0009D012F5F3F4F318320838C932681378168
:1029E0002F5F3F4F3783268310C0EB01092F182F2D
:1029F0000084F185E02D0995892BE1F68E819F8178
:102A000001969F838E83812F902FDF91CF911F910D
:102A10000F910895A0E0B0E0E0E1F5E10C943D11E4
:102A2000AE014B5F5F4FFA0161917191AF018091EF
:102A30009201909193010E946B0DE2E00C94591168
:102A4000FA01AA27283051F1203181F1E8946F93DF
:102A50006E7F6E5F7F4F8F4F9F4FAF4FB1E03ED085
:102A6000B4E03CD0670F781F891F9A1FA11D680F23
:102A7000791F8A1F911DA11D6A0F711D811D911D56
:102A8000A11D20D009F468943F912AE0269F1124CB
:102A90003019305D3193DEF6CF010895462F47702F
:102AA000405D4193B3E00FD0C9F7F6CF462F4F708A
:102AB000405D4A3318F0495D31FD4052419302D0E8
:102AC000A9F7EACFB4E0A69597958795779567958E
:102AD000BA95C9F700976105710508959B01AC018E
:102AE0000A2E06945795479537952795BA95C9F7B5
:102AF000620F731F841F951FA01D0895F999FECFC3
:102B000092BD81BDF89A992780B50895262FF9992D
:102B1000FECF1FBA92BD81BD20BD0FB6F894FA9AC0
:102B2000F99A0FBE01960895052E97FB1EF40094A6
:102B30000E94AB1557FD07D00E94C61507FC03D0B5
:102B40004EF40C94AB1550954095309521953F4F20
:102B50004F4F5F4F089590958095709561957F4F89
:102B60008F4F9F4F08950E941E11A59F900DB49FF7
:102B7000900DA49F800D911D11240895B7FF0C9412
:102B8000B3150E94B315821B930B0895A1E21A2E70
:102B9000AA1BBB1BFD010DC0AA1FBB1FEE1FFF1F01
:102BA000A217B307E407F50720F0A21BB30BE40B51
:102BB000F50B661F771F881F991F1A9469F7609598
:102BC0007095809590959B01AC01BD01CF01089552
:042BD000F894FFCFA7
:102BD4001601AAFB03F803F7030100000025640AA9
:022BE4000000EF
:00000001FF
