:100000000C9446000C946F000C946F000C946F00DD
:100010000C946F000C946F000C94B6010C946F005C
:100020000C946F000C946F000C946F000C94750787
:100030000C946F000C946F000C94D5060C946F0018
:100040000C946F000C946F000C946F000C946F0074
:100050000C946F000C946F000C946F000C94970735
:100060000C946F000C946F001C029802F001E701E1
:10007000ED017A026F02FA08D707D707F7080309DC
:10008000F3080A0906090E09C608980811241FBEBC
:10009000CFEFD8E0DEBFCDBF14BE0FB6F894A89561
:1000A00080916000886180936000109260000FBEB4
:1000B00011E0A0E0B1E0E0ECFAE102C005900D92A1
:1000C000A031B107D9F721E0A0E1B1E001C01D9254
:1000D000A437B207E1F70E94400A0C945E0D0C941D
:1000E0000000109215011092140108956091000112
:1000F00070910101663971051CF181E090E09093E7
:10010000150180931401809102010E9430038091B7
:1001100000019091010103979093010180930001E8
:1001200080910201909103010397909303018093C2
:10013000020181E00E94510780ED97E00C942503B5
:10014000613571050CF51092150110921401809122
:1001500002010E94300380910001909101010396F9
:10016000909301018093000180910201909103011D
:100170000396909303018093020184E00E9451074B
:1001800080ED97E00C942503809114019091150166
:10019000892B09F0B8CFDBCF089580E090E0089577
:1001A0000895DF92EF92FF920F931F93CF93DF9307
:1001B000F89414B817B81AB815B818B81BB8529AEA
:1001C0005A9A14BC85E085BD8FEF87BD82E080938D
:1001D0006E0010928000109281002FE83BE0309377
:1001E00089002093880080936F005398239891EAA8
:1001F0009093B0008093B1001092B4001092B300BD
:100200008BE080BF83E080937F0086E080937C005A
:1002100083E880937A0080917A00806480937A00EA
:1002200080917A0086FDFCCF10927C0083EA809357
:100230007A0081E080937B0081E090E00E94F40CE2
:100240008F3F11F08093660010923D01C1E0C09392
:100250001601C0935A011092340110926E0180E988
:1002600090E00E94F40C80933301809133018873F5
:1002700011F0C093330110925E0110925D018FEF77
:1002800090E090935C0180935B0110923901109291
:100290003A0110923B0110923C0181E080931301DE
:1002A00082E49FE090936D0180936C0180EB90E07D
:1002B0000E94F40CC82F81EB90E00E94F40C2C2FCC
:1002C00030E0382B3093700120936F0185E090E08F
:1002D0000E94F40C8093730189E090E00E94F40C7A
:1002E00080935F018CE090E00E94F40C8093710198
:1002F00084E190E00E94F40C809372015EE3E52EAD
:1003000051E0F52E07E111E0C0E2D0E0CE010E94FD
:10031000F40CD82ECE0101960E94F40C2D2D30E065
:10032000322F2227282BF701219331937F01CE0111
:10033000C0960E94F40CD82ECE01C1960E94F40CF7
:100340002D2D30E0322F2227282BF80121933193D5
:100350008F012296CC33D105C9F67894DF91CF91E5
:100360001F910F91FF90EF90DF9008951F920F92D1
:100370000FB60F9211248F930FB6F894A895809121
:100380006000886180936000109260000FBE8F91C2
:100390000F900FBE0F901F9018953C01EB0110E0DD
:1003A00099249A9484E0C82E96E0A92E23E8B22ED0
:1003B00038E1D32E49E2E42E90911301E92FF0E0C9
:1003C000E730F105C8F7EC5CFF4F0C945F0A11238E
:1003D00009F4FCC0C092130111E0FE010995ECCFB5
:1003E00080913D018111EBC0F894A0927C00B09205
:1003F0007A0080917A00806480937A0090917A00EC
:1004000096FDFCCF809178009091790078948B3A9A
:10041000E2E09E070CF0EDC08938F2E09F070CF097
:10042000EFC0873692400CF4CAC0559A549A3B9A52
:100430003A9A3D983C98C0CFF89480B7877F80BFA8
:1004400080917A008F7780937A0014B817B81AB821
:1004500015B818B81BB80FB6F894A895D0926000DC
:100460000FBEE09260008091600080648093600025
:1004700093B7917F946093BFF89483B7816083BFF3
:100480007894889583B78E7F83BF789410923D01CE
:10049000529A5A9A80917A00806880937A0087E510
:1004A00092E00197F1F700C0000080B7886180BF3B
:1004B000559A549A3B9A3A9A3D9A3C9AEFE1FEE457
:1004C0003197F1F700C0000080913D01811181C09A
:1004D000559854983B983A983D983C986DCF8091A8
:1004E0001101811141C01092B3001092B40010921A
:1004F000120162CF4899ECCF559A54983B983A989C
:100500003D983C988FEC97E00197F1F700C0000010
:10051000559854983B983A983D983C989FEFE1EE57
:10052000F4E09150E040F040E1F700C0000044CF1B
:10053000559854983B9A3A9A3D983C98EFECF7E0DE
:100540003197F1F700C00000559854983B983A98BD
:100550003D983C98FFEF21EE84E0F1502040804030
:10056000E1F700C0000028CF9091110180911201A5
:10057000981709F421CF8091110180931201809185
:100580001101813009F450C0809111011092B30023
:100590009092B4008230D9F19092B3009092B4005E
:1005A0008FE295E70197F1F700C00000809172019A
:1005B000909171019093B3008093B400FDCE559A51
:1005C000549A3B983A983D983C98F6CEF301099599
:1005D00001CF559A549A3B983A983D983C98FFEF32
:1005E00020E782E0F15020408040E1F700C00000A9
:1005F0006FCF559854983B9A3A9A3D983C98DCCEE8
:10060000559854983B983A983D9A3C9AD5CEEFE24B
:10061000F5E73197F1F700C0000080915F0110927B
:10062000B3008093B400C8CE9092B3001092B4008F
:100630008FE295E70197F1F700C000008091730108
:100640008093B3001092B400B7CE07C0EFECF7E090
:100650003197F1F700C0000001970097B9F70895AE
:100660008093B3006093B40008958FEF8093B3003C
:100670008093B4008FE090E0EFECF7E03197F1F772
:1006800000C000000197C1F7089580913D018111DC
:100690001EC0F89487E080937C0083E880937A0002
:1006A00080917A00806480937A0080917A0086FD40
:1006B000FCCF809178009091790010927C0023EA21
:1006C00020937A0021E020937B00789408958FEFA7
:1006D0009FEF089580913D0181111EC0F89488EC30
:1006E00080937C0087E880937A0080917A00806410
:1006F00080937A0080917A0086FDFCCF809178000B
:100700009091790010927C0023EA20937A0021E0F6
:1007100020937B00789408958FEF9FEF08950F93B7
:100720001F93CF93DF93E0E0F0E080E003EA11E075
:10073000D6E0C3E8A1E0B0E060E870E0F894D093C0
:100740007C00C0937A0090917A00906490937A0034
:1007500090917A0096FDFCCF20917800309179003D
:10076000217090917A00906490937A0090917A0031
:1007700096FDFCCF409178005091790010927C005A
:1007800000937A0010937B0078944170241303C087
:100790006150710999F6222339F09D010E2E01C096
:1007A000220F0A94EAF7822B3196E830F10509F01E
:1007B000C3CFDF91CF911F910F91089580910401D4
:1007C000982F990F990F990F89279091100121E087
:1007D000290F20931001282F229526952770822714
:1007E0009695969589278093040108958093040136
:1007F000089580913D01811116C0F89486E08093A0
:100800007C0083E880937A0080917A0080648093F2
:100810007A0080917A0086FDFCCF809178009091DB
:100820007900789408958FEF9FEF08952F923F926B
:100830004F925F926F927F928F929F92AF92BF92F0
:10084000CF92DF92EF92FF920F931F93CF93DF939C
:1008500000D000D000D0CDB7DEB71C01DC0112966D
:100860000D90BC91A02DBE83AD83A438E3E0BE07FC
:100870000CF0C9C080911701909118018A179B074D
:1008800008F437C10091190110911A010A171B07CA
:1008900008F42FC200911B0110911C010A171B07BD
:1008A00008F42FC200911D0110911E010A171B07A9
:1008B00008F42FC200911F01109120010A171B0795
:1008C00008F42FC200912101109122010A171B0781
:1008D00008F4EFC100912301109124010A171B07AE
:1008E00008F427C200912501109126010A171B0761
:1008F00008F427C200912701109128010A171B074D
:1009000008F427C20091290110912A010A171B0738
:1009100008F427C200912B0110912C010A171B0724
:1009200008F427C200912D0110912E010A171B0710
:1009300008F423C200912F01109130010A171B0700
:1009400008F423C200913101109132010A171B07EC
:1009500008F423C280E090E0A0EDB0E489839A839C
:10096000AB83BC834CE0E42EF12CF701EE0FFF1FAC
:10097000E95EFE4F80819181B801681B790B80E0B0
:1009800090E00E949D0B9B01AC010E94890A6B01C3
:100990007C01AD81BE81BD01BB0F880B990B0E940C
:1009A0009F0B4B015C01B80180E090E00E949D0B21
:1009B0002B013C0129813A814B815C81C701B60141
:1009C0000E942B0C9B01AC01C301B2010E94880A5A
:1009D0009B01AC01C501B4010E94880A20E030E00F
:1009E00040E251E40E942B0C0E94670B8B01C7016F
:1009F000B6010E94670BAB01BC01C801BA010E949D
:100A00004B0A162F77C0DC01CD90DC9080913E011F
:100A100090913F018C159D0508F48CC01FEFE0906C
:100A20004001F0904101EC14FD0408F45EC1E09037
:100A30004201F0904301EC14FD0408F45EC1E09023
:100A40004401F0904501EC14FD0408F45EC1E0900F
:100A50004601F0904701EC14FD0408F45EC1E090FB
:100A60004801F0904901EC14FD0408F4C3C0E09083
:100A70004A01F0904B01EC14FD0408F456C1E090DB
:100A80004C01F0904D01EC14FD0408F456C1E090C7
:100A90004E01F0904F01EC14FD0408F456C1E090B3
:100AA0005001F0905101EC14FD0408F456C1E0909F
:100AB0005201F0905301EC14FD0408F456C1E0908B
:100AC0005401F0905501EC14FD0408F45AC1E09073
:100AD0005601F0905701EC14FD0408F45AC1E0905F
:100AE0005801F0905901EC14FD0408F45AC10AE5CC
:100AF00031C010E0ED81FE81ED3BF240FCF481E27B
:100B0000810F26960FB6F894DEBF0FBECDBFDF91E2
:100B1000CF911F910F91FF90EF90DF90CF90BF90FA
:100B2000AF909F908F907F906F905F904F903F908D
:100B30002F90089500E081E2800FE3CFD101CD90A6
:100B4000DC9080913E0190913F018C159D0508F04D
:100B500066CF00E01F3F79F3ED81FE81BF01FF0FFB
:100B6000880B990B0E949F0B6B017C01612F70E039
:100B700080E090E00E949D0B4B015C01A701960173
:100B800060E070E081E694E40E94880A9B01AC0179
:100B9000C501B4010E942B0C4B015C01602F70E079
:100BA00080E090E00E949D0B2B013C0120E030E0B2
:100BB0004FE254E4C701B6010E94880A9B01AC01D0
:100BC000C301B2010E942B0C9B01AC01C501B40111
:100BD0000E94890A20E030E048E453E40E94F50ACC
:100BE00020E030E044E052E40E94890A0E946E0B4B
:100BF000862F87CF05E085E090E0880F991FFC01E4
:100C0000E45CFE4F80819181B701681B790B80E025
:100C100090E00E949D0B9B01AC010E94890A4B0150
:100C20005C01B601DD0C880B990B0E949F0B2B0118
:100C30003C01B70180E090E00E949D0B6B017C01BC
:100C4000602F70E080E090E00E949D0B20E030E09B
:100C500040E05FE30E942B0C20E030E0A9010E94FD
:100C6000890AA50194010E942B0C9B01AC01C701CC
:100C7000B6010E94880A9B01AC01C301B2010E9427
:100C8000880A20E030E040E251E40E942B0C0E94F0
:100C9000670B7B01C501B4010E94670BAB01BC016E
:100CA000C701BA010E944B0A062F6F3F09F052CFCD
:100CB00026CF65E085E090E07C01F1E0EF1AF108D5
:100CC00070E080E090E00E949D0B20E030E040E08A
:100CD0005FE30E942B0C20E030E0A9010E94890A0A
:100CE00069837A838B839C8340CE01E081E090E02E
:100CF00084CF61E081E090E0DFCF02E082E090E02D
:100D00007CCF62E082E090E0D7CF03E083E090E028
:100D100074CF63E083E090E0CFCF04E084E090E024
:100D20006CCF64E084E090E0C7CF06E086E090E01E
:100D300064CF66E086E090E0BFCF07E087E090E018
:100D40005CCF67E087E090E0B7CF08E088E090E014
:100D500054CF68E088E090E0AFCF09E089E090E010
:100D60004CCF69E089E090E0A7CF0AE08AE090E00C
:100D700044CF6AE08AE090E09FCF6BE08BE090E0A8
:100D80009BCF0BE08BE090E038CF6CE08CE090E004
:100D900093CF0CE08CE090E030CF6DE08DE090E000
:100DA0008BCF0DE08DE090E028CF1F920F920FB611
:100DB0000F9211242F933F934F935F936F937F93E1
:100DC0008F939F93AF93BF93EF93FF9320915D0118
:100DD00030915E0180915B0190915C01820F931FC5
:100DE00090935E0180935D018FEF90E090935C01A2
:100DF00080935B018FEF87BD8091390190913A011B
:100E0000A0913B01B0913C010196A11DB11D8093C1
:100E1000390190933A01A0933B01B0933C0180913A
:100E20003D0181110FC080916C0190916D01209165
:100E30005D0130915E018217930720F480911301C8
:100E4000843089F0FF91EF91BF91AF919F918F9185
:100E50007F916F915F914F913F912F910F900FBEB6
:100E60000F901F901895E0910701F09108010995E6
:100E7000009741F30E94BD09811109C00E94E40C52
:100E8000992790935C0180935B0187BDDBCFE09154
:100E90000501F0910601099510925E0110925D0125
:100EA000D1CF80FF11C0559A81FF11C0549A82FFA3
:100EB00011C03B9A83FF11C03A9A84FF11C03D9A3A
:100EC00085FD11C03C980895559881FDEFCF549849
:100ED00082FDEFCF3B9883FDEFCF3A9884FDEFCFB3
:100EE0003D9885FFEFCF3C9A08951F920F920FB661
:100EF0000F9211248F939F9310928100109285007E
:100F00001092840081E08093160180935A01109220
:100F10003D0110927C0093EA90937A0080937B00CD
:100F20009F918F910F900FBE0F901F9018951F9259
:100F30000F920FB60F9211242F933F934F935F930D
:100F40006F937F938F939F93AF93BF93CF93DF93D1
:100F5000EF93FF93209184003091850041E040930E
:100F60003D01809116018823A9F11092850010920D
:100F700084004093810010926E01109216018091BE
:100F80005A018823A1F080917A0086FDFCCF8091E0
:100F9000780090917900909338018093370181E037
:100FA00080937C0093EA90937A0080937B00FF917A
:100FB000EF91DF91CF91BF91AF919F918F917F91F1
:100FC0006F915F914F913F912F910F900FBE0F90B6
:100FD0001F901895C901875891098437994008F0E6
:100FE00052C026583109A4EFB0E00E94650AAA2732
:100FF000BB2788309105A105B10508F47BC040935B
:10100000160180915A01811152C080913401E82F5C
:10101000F0E0E05AFE4F90916E0190838F5F8093D5
:1010200034018C3021F610928100109285001092CC
:10103000840040935A0110923D01C0916A01D09101
:101040006B0180E691E00E94A109C817D90709F059
:10105000AECF8091690187FF61C098E7980F933008
:1010600030F0539823981092B4001092B30090E09F
:10107000FC01E058F109EB30F10508F098CFE55C90
:10108000FF4F0C945F0A109281001092850010921D
:1010900084004093160140935A0110923D01109232
:1010A0007C0083EA80937A0040937B0080CF80911C
:1010B0007A0086FDFCCF8091780090917900909322
:1010C00036018093350110927C0083EA80937A0088
:1010D00081E080937B0090916E019923D1F0109272
:1010E0008100109285001092840080935A01109222
:1010F0003D015DCF21E030E0F90102C0EE0FFF1F9E
:101100008A95E2F7CF0190916E01892B80936E0151
:101110004ECF10925A011092340149CFE09109014B
:10112000F0910A0165E371E080E691E009953FCF17
:1011300080916001823009F4DDC008F4BAC08330C8
:1011400009F4C6C0843009F0B1C0809111019091BA
:101150006601833009F4E3C08091650110921201A9
:1011600023E020931101809371019093720180918B
:101170001301863009F41BCF539A239A1092B400BE
:101180001092B30086E08093130111CF8091130178
:10119000863099F0539A239A1092B4001092B300BB
:1011A000559854983B983A983D983C981092110164
:1011B0001092120186E08093130181E090E09C017F
:1011C0000090600102C0220F331F0A94E2F7809161
:1011D0006F019091700182239323892B09F086C0BF
:1011E00010921101E4CE81E080931301E0CEE0E0A3
:1011F000F0E0099580916E008D7F80936E0016BCA3
:10120000E0E0F0E7099510921301D1CE82E08093DF
:101210001301CDCE85E080931301C9CE80911301D7
:10122000833009F4C4CE80911301843009F4BFCE19
:10123000539A239A1092B4001092B30083E08093E3
:101240001301B5CE80911301863009F0B0CE6091C4
:101250006F0180EB90E00E94FC0C6091700181EBCB
:1012600090E00E94FC0C6091730185E090E00E9488
:10127000FC0C60915F0189E090E00E94FC0C6091A1
:1012800071018CE090E00E94FC0C6091720184E19D
:1012900090E00E94FC0C539823981092B400109296
:1012A000B30081E0809313018091600181115FCFD1
:1012B0007ECE882339F28130C9F780916101909107
:1012C00062019093700180936F01109211014FCFD2
:1012D00080911101823071F18091640110921201AC
:1012E00092E09093110180935F0141CF81E0809360
:1012F00011015DCE80911101813051F08091630127
:101300001092120191E090931101809373012FCFFD
:1013100080916301909173018913F2CF28CF80915E
:101320007201981319CF8091650120917101821388
:1013300015CF1DCF8091640190915F018913CECFAD
:1013400016CFFC01AC01465F5F4F8FEF9FEF2191FD
:101350008227082E8295807F8025092E982F8295DE
:101360008F700826869598278927880F880F880F01
:101370008025E417F50759F708950FB6F894A4B13E
:10138000209133012A2B24B921E030913301203000
:1013900029F0000025B1232B25B904C0000000006E
:1013A000000000C0000000000000309525B123239C
:1013B00025B92EEA2A95F1F72BEE30B735FF0AC092
:1013C000A4B930913301309525B1232325B90FBE3F
:1013D00080E0089500002A9581F721E030913301E3
:1013E000203029F0000025B1232B25B904C00000CE
:1013F0000000000000C0000000000000309525B192
:10140000232325B9000024E52A95F1F7FC018CE09F
:10141000619170E0660F771F616072609AE041E051
:1014200050E09A0126233723232B309133012030BB
:1014300029F0000025B1232B25B904C000000000CD
:10144000000000C0000000000000309525B12323FB
:1014500025B9000021E52A95F1F7440F551F9A950B
:1014600001F78A95A9F620B7206120BFA4B9309171
:101470003301309525B1232325B90FBE81E00895AE
:101480000E94D10066E770E081E790E00E94CD0104
:1014900080E090E0089597FB072E16F4009407D0A3
:1014A00077FD09D00E94740A07FC05D03EF49095A0
:1014B00081959F4F0895709561957F4F0895EE0F28
:1014C000FF1F0590F491E02D0994A29FB001B39FF6
:1014D000C001A39F700D811D1124911DB29F700D3D
:1014E000811D1124911D0895AA1BBB1B51E107C04A
:1014F000AA1FBB1FA617B70710F0A61BB70B881FA4
:10150000991F5A95A9F780959095BC01CD01089532
:101510005058BB27AA270E94A00A0C94F10B0E94E6
:10152000E30B38F00E94EA0B20F039F49F3F19F4E6
:1015300026F40C94E00B0EF4E095E7FB0C94DA0B28
:10154000E92F0E94020C58F3BA1762077307840749
:10155000950720F079F4A6F50C94240C0EF4E09590
:101560000B2EBA2FA02D0B01B90190010C01CA015D
:10157000A0011124FF27591B99F0593F50F4503E08
:1015800068F11A16F040A22F232F342F4427585FFA
:10159000F3CF469537952795A795F0405395C9F712
:1015A0007EF41F16BA0B620B730B840BBAF09150CA
:1015B000A1F0FF0FBB1F661F771F881FC2F70EC069
:1015C000BA0F621F731F841F48F48795779567953C
:1015D000B795F7959E3F08F0B0CF9395880F08F028
:1015E0009927EE0F9795879508950E94090B0C9403
:1015F000F10B0E94EA0B58F00E94E30B40F029F433
:101600005F3F29F00C94DA0B51110C94250C0C94CB
:10161000E00B0E94020C68F39923B1F3552391F378
:10162000951B550BBB27AA2762177307840738F051
:101630009F5F5F4F220F331F441FAA1FA9F335D0AE
:101640000E2E3AF0E0E832D091505040E695001C62
:10165000CAF72BD0FE2F29D0660F771F881FBB1F1C
:10166000261737074807AB07B0E809F0BB0B802DFA
:10167000BF01FF2793585F4F3AF09E3F510578F026
:101680000C94DA0B0C94250C5F3FE4F3983ED4F3F2
:10169000869577956795B795F7959F5FC9F7880FFA
:1016A000911D9695879597F90895E1E0660F771F4C
:1016B000881FBB1F621773078407BA0720F0621BDD
:1016C000730B840BBA0BEE1F88F7E09508950E9408
:1016D0006E0B6894B1110C94250C08950E940A0CAD
:1016E00088F09F5798F0B92F9927B751B0F0E1F0E3
:1016F000660F771F881F991F1AF0BA95C9F714C093
:10170000B13091F00E94240CB1E008950C94240CA7
:10171000672F782F8827B85F39F0B93FCCF38695CB
:1017200077956795B395D9F73EF490958095709528
:1017300061957F4F8F4F9F4F0895E89409C097FBA5
:101740003EF490958095709561957F4F8F4F9F4F98
:101750009923A9F0F92F96E9BB279395F6958795DC
:1017600077956795B795F111F8CFFAF4BB0F11F49F
:1017700060FF1BC06F5F7F4F8F4F9F4F16C0882346
:1017800011F096E911C0772321F09EE8872F762F7C
:1017900005C0662371F096E8862F70E060E02AF0BD
:1017A0009A95660F771F881FDAF7880F96958795A9
:1017B00097F9089597F99F6780E870E060E00895D1
:1017C0009FEF80EC089500240A9416161706180659
:1017D0000906089500240A94121613061406050635
:1017E0000895092E0394000C11F4882352F0BB0FC6
:1017F00040F4BF2B11F460FF04C06F5F7F4F8F4F29
:101800009F4F089557FD9058440F551F59F05F3F63
:1018100071F04795880F97FB991F61F09F3F79F012
:1018200087950895121613061406551FF2CF469594
:10183000F1DF08C0161617061806991FF1CF869516
:101840007105610508940895E894BB2766277727FA
:10185000CB0197F908950E943E0C0C94F10B0E9465
:10186000E30B38F00E94EA0B20F0952311F00C9462
:10187000DA0B0C94E00B11240C94250C0E94020C42
:1018800070F3959FC1F3950F50E0551F629FF001D3
:10189000729FBB27F00DB11D639FAA27F00DB11DEC
:1018A000AA1F649F6627B00DA11D661F829F222775
:1018B000B00DA11D621F739FB00DA11D621F839FFC
:1018C000A00D611D221F749F3327A00D611D231FD2
:1018D000849F600D211D822F762F6A2F11249F5720
:1018E00050409AF0F1F088234AF0EE0FFF1FBB1F23
:1018F000661F771F881F91505040A9F79E3F5105E2
:1019000080F00C94DA0B0C94250C5F3FE4F3983EC6
:10191000D4F3869577956795B795F795E7959F5F8B
:10192000C1F7FE2B880F911D9695879597F908951D
:101930008F929F92AF92BF92CF92DF92EF92FF92DF
:10194000CF93DF93EC01688179818A819B81611556
:1019500071058105910521F464E279ED8BE597E04D
:101960002DE133EF41E050E00E940A0D49015A0198
:101970009B01AC01A7EAB1E40E94290D6B017C0137
:10198000ACEEB4EFA50194010E94370DDC01CB0150
:101990008C0D9D1DAE1DBF1DB7FF03C00197A10992
:1019A000B04888839983AA83BB839F77DF91CF91C7
:1019B000FF90EF90DF90CF90BF90AF909F908F906F
:1019C00008950E94980C08958BE091E00E94980C75
:1019D0000895A0E0B0E080930B0190930C01A093D8
:1019E0000D01B0930E010895F999FECF92BD81BD0E
:1019F000F89A992780B50895262FF999FECF1FBA36
:101A000092BD81BD20BD0FB6F894FA9AF99A0FBE27
:101A100001960895052E97FB1EF400940E94210D57
:101A200057FD07D00E943C0D07FC03D04EF40C94E8
:101A3000210D50954095309521953F4F4F4F5F4F69
:101A4000089590958095709561957F4F8F4F9F4F2A
:101A500008950E94650AA59F900DB49F900DA49FC4
:101A6000800D911D11240895B7FF0C94290D0E943B
:101A7000290D821B930B0895A1E21A2EAA1BBB1BF2
:101A8000FD010DC0AA1FBB1FEE1FFF1FA217B3074A
:101A9000E407F50720F0A21BB30BE40BF50B661F60
:101AA000771F881F991F1A9469F760957095809524
:101AB00090959B01AC01BD01CF010895F894FFCF33
:101AC00050005000AAD000CD00CC00010000000062
:00000001FF
