:100000000C9446000C946F000C946F000C946F00DD
:100010000C946F000C946F000C94BB010C946F0057
:100020000C946F000C946F000C946F000C947A0782
:100030000C946F000C946F000C94DA060C946F0013
:100040000C946F000C946F000C946F000C946F0074
:100050000C946F000C946F000C946F000C949C0730
:100060000C946F000C946F0021029D02F501EC01CD
:10007000F2017F027402FF08DC07DC07FC080809B4
:10008000F8080F090B091309CB089D0811241FBE9E
:10009000CFEFD8E0DEBFCDBF14BE0FB6F894A89561
:1000A00080916000886180936000109260000FBEB4
:1000B00011E0A0E0B1E0E0EDF0E202C005900D92A9
:1000C000AC32B107D9F721E0ACE2B1E001C01D923A
:1000D000A839B207E1F70E94450A0C9466100C9407
:1000E00000008093C6008091C00085FFFCCF80E0B7
:1000F00090E0089589E191E00C94170DCB010E94E6
:100100001B0490E090932D0180932C0181E090E0FE
:1001100090932F0180932E01089580912E0190914C
:100120002F01019709F0089510922F0110922E01CE
:1001300080912D018F9380912C018F938FE191E01D
:100140009F938F930E94010D85E00E94560784E6DD
:1001500090E00E942A030F900F900F900F9080E084
:100160000C945607F894519A8CE090E09093C50057
:100170008093C400E0ECF0E080818D7F8083E2EC2E
:10018000F0E0808186608083E1ECF0E0808188602F
:10019000808380E091E0909395018093940178941E
:1001A0000895089580E090E008950895DF92EF9219
:1001B000FF920F931F93CF93DF93F89414B817B85F
:1001C0001AB815B818B81BB8529A5A9A14BC85E0D8
:1001D00085BD8FEF87BD82E080936E001092800016
:1001E000109281002FE83BE0309389002093880033
:1001F00080936F005398239891EA9093B000809376
:10020000B1001092B4001092B3008BE080BF83E085
:1002100080937F0086E080937C0083E880937A005F
:1002200080917A00806480937A0080917A0086FDC4
:10023000FCCF10927C0083EA80937A0081E0809367
:100240007B0081E090E00E94C50F8F3F11F080930A
:10025000660010925B01C1E0C0933401C093780145
:100260001092520110928C0180E990E00E94C50F1B
:100270008093510180915101887311F0C093510115
:1002800010927C0110927B018FEF90E090937A01A5
:1002900080937901109257011092580110925901E0
:1002A00010925A0181E08093330182E49FE09093A1
:1002B0008B0180938A0180EB90E00E94C50FC82FCC
:1002C00081EB90E00E94C50F2C2F30E0382B30934B
:1002D0008E0120938D0185E090E00E94C50F8093F0
:1002E000910189E090E00E94C50F80937D018CE030
:1002F00090E00E94C50F80938F0184E190E00E94FE
:10030000C50F809390015CE5E52E51E0F52E05E3E5
:1003100011E0C0E2D0E0CE010E94C50FD82ECE0180
:1003200001960E94C50F2D2D30E0322F2227282B59
:10033000F701219331937F01CE01C0960E94C50F32
:10034000D82ECE01C1960E94C50F2D2D30E0322F40
:100350002227282BF801219331938F012296CC3349
:10036000D105C9F67894DF91CF911F910F91FF903D
:10037000EF90DF9008951F920F920FB60F92112405
:100380008F930FB6F894A895809160008861809350
:100390006000109260000FBE8F910F900FBE0F9003
:1003A0001F9018953C01EB0110E099249A9484E089
:1003B000C82E96E0A92E23E8B22E38E1D32E49E2CA
:1003C000E42E90913301E92FF0E0E730F105C8F712
:1003D000EC5CFF4F0C946C0A112309F4FCC0C09232
:1003E000330111E0FE010995ECCF80915B01811191
:1003F000EBC0F894A0927C00B0927A0080917A00D1
:10040000806480937A0090917A0096FDFCCF809171
:1004100078009091790078948B3AE2E09E070CF096
:10042000EDC08938F2E09F070CF0EFC087369240AC
:100430000CF4CAC0559A549A3B9A3A9A3D983C9803
:10044000C0CFF89480B7877F80BF80917A008F7784
:1004500080937A0014B817B81AB815B818B81BB832
:100460000FB6F894A895D09260000FBEE09260009D
:100470008091600080648093600093B7917F946066
:1004800093BFF89483B7816083BF7894889583B7CE
:100490008E7F83BF789410925B01529A5A9A809112
:1004A0007A00806880937A0087E592E00197F1F7FF
:1004B00000C0000080B7886180BF559A549A3B9A6B
:1004C0003A9A3D9A3C9AEFE1FEE43197F1F700C089
:1004D000000080915B01811181C0559854983B9830
:1004E0003A983D983C986DCF80913101811141C07F
:1004F0001092B3001092B4001092320162CF48996A
:10050000ECCF559A54983B983A983D983C988FEC8C
:1005100097E00197F1F700C00000559854983B9878
:100520003A983D983C989FEFE1EEF4E09150E0401E
:10053000F040E1F700C0000044CF559854983B9A32
:100540003A9A3D983C98EFECF7E03197F1F700C00C
:100550000000559854983B983A983D983C98FFEF86
:1005600021EE84E0F15020408040E1F700C000001F
:1005700028CF9091310180913201981709F421CF51
:10058000809131018093320180913101813009F4F1
:1005900050C0809131011092B3009092B40082302B
:1005A000D9F19092B3009092B4008FE295E7019751
:1005B000F1F700C000008091900190918F0190931D
:1005C000B3008093B400FDCE559A549A3B983A9864
:1005D0003D983C98F6CEF301099501CF559A549A6F
:1005E0003B983A983D983C98FFEF20E782E0F15025
:1005F00020408040E1F700C000006FCF559854982C
:100600003B9A3A9A3D983C98DCCE559854983B9842
:100610003A983D9A3C9AD5CEEFE2F5E73197F1F75B
:1006200000C0000080917D011092B3008093B4005F
:10063000C8CE9092B3001092B4008FE295E7019774
:10064000F1F700C00000809191018093B3001092F7
:10065000B400B7CE07C0EFECF7E03197F1F700C078
:10066000000001970097B9F708958093B300609355
:10067000B40008958FEF8093B3008093B4008FE0AF
:1006800090E0EFECF7E03197F1F700C00000019740
:10069000C1F7089580915B0181111EC0F89487E035
:1006A00080937C0083E880937A0080917A00806454
:1006B00080937A0080917A0086FDFCCF809178004B
:1006C0009091790010927C0023EA20937A0021E037
:1006D00020937B00789408958FEF9FEF0895809189
:1006E0005B0181111EC0F89488EC80937C0087E840
:1006F00080937A0080917A00806480937A00809160
:100700007A0086FDFCCF809178009091790010925C
:100710007C0023EA20937A0021E020937B007894E8
:1007200008958FEF9FEF08950F931F93CF93DF935B
:10073000E0E0F0E080E003EA11E0D6E0C3E8A1E009
:10074000B0E060E870E0F894D0937C00C0937A0049
:1007500090917A00906490937A0090917A0096FD3F
:10076000FCCF2091780030917900217090917A002F
:10077000906490937A0090917A0096FDFCCF40911E
:1007800078005091790010927C0000937A001093C9
:100790007B0078944170241303C06150710999F66D
:1007A000222339F09D010E2E01C0220F0A94EAF790
:1007B000822B3196E830F10509F0C3CFDF91CF915C
:1007C0001F910F91089580910E01982F990F990F05
:1007D000990F89279091300121E0290F2093300152
:1007E000282F2295269527708227969596958927FA
:1007F00080930E01089580930E01089580915B010E
:10080000811116C0F89486E080937C0083E8809381
:100810007A0080917A00806480937A0080917A00D7
:1008200086FDFCCF809178009091790078940895AE
:100830008FEF9FEF08952F923F924F925F926F92AA
:100840007F928F929F92AF92BF92CF92DF92EF9260
:10085000FF920F931F93CF93DF9300D000D000D06F
:10086000CDB7DEB71C01DC0112960D90BC91A02D16
:10087000BE83AD83A438E3E0BE070CF0C9C080910D
:100880003501909136018A179B0708F437C1009112
:100890003701109138010A171B0708F42FC2009185
:1008A000390110913A010A171B0708F42FC2009171
:1008B0003B0110913C010A171B0708F42FC200915D
:1008C0003D0110913E010A171B0708F42FC2009149
:1008D0003F01109140010A171B0708F4EFC1009176
:1008E0004101109142010A171B0708F427C2009129
:1008F0004301109144010A171B0708F427C2009115
:100900004501109146010A171B0708F427C2009100
:100910004701109148010A171B0708F427C20091EC
:10092000490110914A010A171B0708F427C20091D8
:100930004B0110914C010A171B0708F423C20091C8
:100940004D0110914E010A171B0708F423C20091B4
:100950004F01109150010A171B0708F423C280E0D1
:1009600090E0A0EDB0E489839A83AB83BC834CE034
:10097000E42EF12CF701EE0FFF1FEB5CFE4F8081A0
:100980009181B801681B790B80E090E00E94AA0B6E
:100990009B01AC010E94960A6B017C01AD81BE8176
:1009A000BD01BB0F880B990B0E94AC0B4B015C0186
:1009B000B80180E090E00E94AA0B2B013C01298144
:1009C0003A814B815C81C701B6010E94380C9B01C2
:1009D000AC01C301B2010E94950A9B01AC01C501A3
:1009E000B4010E94950A20E030E040E251E40E9408
:1009F000380C0E94740B8B01C701B6010E94740B66
:100A0000AB01BC01C801BA010E94580A162F77C079
:100A1000DC01CD90DC9080915C0190915D018C15A2
:100A20009D0508F48CC01FEFE0905E01F0905F011F
:100A3000EC14FD0408F45EC1E0906001F0906101E7
:100A4000EC14FD0408F45EC1E0906201F0906301D3
:100A5000EC14FD0408F45EC1E0906401F0906501BF
:100A6000EC14FD0408F45EC1E0906601F0906701AB
:100A7000EC14FD0408F4C3C0E0906801F090690133
:100A8000EC14FD0408F456C1E0906A01F0906B018B
:100A9000EC14FD0408F456C1E0906C01F0906D0177
:100AA000EC14FD0408F456C1E0906E01F0906F0163
:100AB000EC14FD0408F456C1E0907001F09071014F
:100AC000EC14FD0408F456C1E0907201F09073013B
:100AD000EC14FD0408F45AC1E0907401F090750123
:100AE000EC14FD0408F45AC1E0907601F09077010F
:100AF000EC14FD0408F45AC10AE531C010E0ED81A0
:100B0000FE81ED3BF240FCF481E2810F26960FB6A8
:100B1000F894DEBF0FBECDBFDF91CF911F910F9133
:100B2000FF90EF90DF90CF90BF90AF909F908F900D
:100B30007F906F905F904F903F902F90089500E0CE
:100B400081E2800FE3CFD101CD90DC9080915C01F8
:100B500090915D018C159D0508F066CF00E01F3F68
:100B600079F3ED81FE81BF01FF0F880B990B0E9485
:100B7000AC0B6B017C01612F70E080E090E00E9483
:100B8000AA0B4B015C01A701960160E070E081E6D1
:100B900094E40E94950A9B01AC01C501B4010E9436
:100BA000380C4B015C01602F70E080E090E00E9407
:100BB000AA0B2B013C0120E030E04FE254E4C701D6
:100BC000B6010E94950A9B01AC01C301B2010E94CB
:100BD000380C9B01AC01C501B4010E94960A20E0CB
:100BE00030E048E453E40E94020B20E030E044E0AF
:100BF00052E40E94960A0E947B0B862F87CF05E065
:100C000085E090E0880F991FFC01E65AFE4F808135
:100C10009181B701681B790B80E090E00E94AA0BDC
:100C20009B01AC010E94960A4B015C01B601DD0CF0
:100C3000880B990B0E94AC0B2B013C01B70180E0A3
:100C400090E00E94AA0B6B017C01602F70E080E0B5
:100C500090E00E94AA0B20E030E040E05FE30E94B9
:100C6000380C20E030E0A9010E94960AA501940109
:100C70000E94380C9B01AC01C701B6010E94950A85
:100C80009B01AC01C301B2010E94950A20E030E053
:100C900040E251E40E94380C0E94740B7B01C501B4
:100CA000B4010E94740BAB01BC01C701BA010E94E0
:100CB000580A062F6F3F09F052CF26CF65E085E036
:100CC00090E07C01F1E0EF1AF10870E080E090E044
:100CD0000E94AA0B20E030E040E05FE30E94380C65
:100CE00020E030E0A9010E94960A69837A838B8311
:100CF0009C8340CE01E081E090E084CF61E081E020
:100D000090E0DFCF02E082E090E07CCF62E082E022
:100D100090E0D7CF03E083E090E074CF63E083E01E
:100D200090E0CFCF04E084E090E06CCF64E084E01A
:100D300090E0C7CF06E086E090E064CF66E086E012
:100D400090E0BFCF07E087E090E05CCF67E087E00E
:100D500090E0B7CF08E088E090E054CF68E088E00A
:100D600090E0AFCF09E089E090E04CCF69E089E006
:100D700090E0A7CF0AE08AE090E044CF6AE08AE002
:100D800090E09FCF6BE08BE090E09BCF0BE08BE09F
:100D900090E038CF6CE08CE090E093CF0CE08CE0FA
:100DA00090E030CF6DE08DE090E08BCF0DE08DE0F6
:100DB00090E028CF1F920F920FB60F9211242F931D
:100DC0003F934F935F936F937F938F939F93AF93D3
:100DD000BF93EF93FF9320917B0130917C01809131
:100DE000790190917A01820F931F90937C018093F7
:100DF0007B018FEF90E090937A01809379018FEFE0
:100E000087BD8091570190915801A0915901B091EF
:100E10005A010196A11DB11D80935701909358016D
:100E2000A0935901B0935A0180915B0181110FC0C9
:100E300080918A0190918B0120917B0130917C01FE
:100E40008217930720F480913301843089F0FF9159
:100E5000EF91BF91AF919F918F917F916F915F9132
:100E60004F913F912F910F900FBE0F901F901895AB
:100E7000E0911101F09112010995009741F30E9450
:100E8000C209811109C00E94F10C992790937A013F
:100E90008093790187BDDBCFE0910F01F0911001C4
:100EA000099510927C0110927B01D1CF80FF11C077
:100EB000559A81FF11C0549A82FF11C03B9A83FF5B
:100EC00011C03A9A84FF11C03D9A85FD11C03C982B
:100ED0000895559881FDEFCF549882FDEFCF3B9850
:100EE00083FDEFCF3A9884FDEFCF3D9885FFEFCF9C
:100EF0003C9A08951F920F920FB60F9211248F9370
:100F00009F9310928100109285001092840081E0DE
:100F1000809334018093780110925B0110927C00E1
:100F200093EA90937A0080937B009F918F910F902A
:100F30000FBE0F901F9018951F920F920FB60F9231
:100F400011242F933F934F935F936F937F938F93CE
:100F50009F93AF93BF93CF93DF93EF93FF93209132
:100F600084003091850041E040935B018091340121
:100F70008823A9F11092850010928400409381008B
:100F800010928C0110923401809178018823A1F095
:100F900080917A0086FDFCCF809178009091790055
:100FA000909356018093550181E080937C0093EAF1
:100FB00090937A0080937B00FF91EF91DF91CF9126
:100FC000BF91AF919F918F917F916F915F914F9161
:100FD0003F912F910F900FBE0F901F901895C90150
:100FE000875891098437994008F052C02658310932
:100FF000A4EFB0E00E94720AAA27BB2788309105AF
:10100000A105B10508F47BC04093340180917801BB
:10101000811152C080915201E82FF0E0E258FE4F5A
:1010200090918C0190838F5F809352018C3021F6D8
:1010300010928100109285001092840040937801F4
:1010400010925B01C0918801D09189018EE791E0F7
:101050000E94A609C817D90709F0AECF8091870171
:1010600087FF61C098E7980F933030F0539823982A
:101070001092B4001092B30090E0FC01E058F10926
:10108000EB30F10508F098CFE55CFF4F0C946C0A4B
:1010900010928100109285001092840040933401D8
:1010A0004093780110925B0110927C0083EA809358
:1010B0007A0040937B0080CF80917A0086FDFCCF40
:1010C000809178009091790090935401809353011E
:1010D00010927C0083EA80937A0081E080937B0009
:1010E00090918C019923D1F010928100109285008B
:1010F000109284008093780110925B015DCF21E013
:1011000030E0F90102C0EE0FFF1F8A95E2F7CF0130
:1011100090918C01892B80938C014ECF1092780195
:101120001092520149CFE0911301F091140163E54F
:1011300071E08EE791E009953FCF80917E0182308A
:1011400009F4DDC008F4BAC0833009F4C6C08430A5
:1011500009F0B1C08091310190918401833009F48C
:10116000E3C0809183011092320123E0209331018A
:1011700080938F019093900180913301863009F420
:101180001BCF539A239A1092B4001092B30086E0BA
:101190008093330111CF80913301863099F0539AB7
:1011A000239A1092B4001092B300559854983B982B
:1011B0003A983D983C98109231011092320186E0A5
:1011C0008093330181E090E09C0100907E0102C099
:1011D000220F331F0A94E2F780918D0190918E01C6
:1011E00082239323892B09F086C010923101E4CE2B
:1011F00081E080933301E0CEE0E0F0E0099580915A
:101200006E008D7F80936E0016BCE0E0F0E70995DC
:1012100010923301D1CE82E080933301CDCE85E0B0
:1012200080933301C9CE80913301833009F4C4CE59
:1012300080913301843009F4BFCE539A239A1092DF
:10124000B4001092B30083E080933301B5CE809157
:101250003301863009F0B0CE60918D0180EB90E0D3
:101260000E94CD0F60918E0181EB90E00E94CD0F26
:101270006091910185E090E00E94CD0F60917D0129
:1012800089E090E00E94CD0F60918F018CE090E0AA
:101290000E94CD0F6091900184E190E00E94CD0FFB
:1012A000539823981092B4001092B30081E0809379
:1012B000330180917E0181115FCF7ECE882339F288
:1012C0008130C9F780917F019091800190938E01C8
:1012D00080938D01109231014FCF80913101823086
:1012E00071F1809182011092320192E0909331016C
:1012F00080937D0141CF81E0809331015DCE80916B
:101300003101813051F0809181011092320191E0E0
:1013100090933101809391012FCF80918101909121
:1013200091018913F2CF28CF80919001981319CFA2
:101330008091830120918F01821315CF1DCF809161
:10134000820190917D018913CECF16CFFC01AC01B3
:10135000465F5F4F8FEF9FEF21918227082E829586
:10136000807F8025092E982F82958F70082686957C
:1013700098278927880F880F880F8025E417F5079D
:1013800059F708950FB6F894A4B1209151012A2B72
:1013900024B921E030915101203029F0000025B11D
:1013A000232B25B904C000000000000000C000008D
:1013B00000000000309525B1232325B92EEA2A9597
:1013C000F1F72BEE30B735FF0AC0A4B930915101C7
:1013D000309525B1232325B90FBE80E00895000084
:1013E0002A9581F721E030915101203029F0000049
:1013F00025B1232B25B904C000000000000000C067
:10140000000000000000309525B1232325B900001D
:1014100024E52A95F1F7FC018CE0619170E0660FFC
:10142000771F616072609AE041E050E09A012623E4
:101430003723232B30915101203029F0000025B1B2
:10144000232B25B904C000000000000000C00000EC
:1014500000000000309525B1232325B9000021E5C7
:101460002A95F1F7440F551F9A9501F78A95A9F629
:1014700020B7206120BFA4B930915101309525B12A
:10148000232325B90FBE81E008950E94B2000E9477
:10149000D6008EE790E090931401809313016DE8DD
:1014A00070E08AE790E00E94D20180E090E0089529
:1014B00097FB072E16F4009407D077FD09D00E9401
:1014C000810A07FC05D03EF4909581959F4F0895C1
:1014D000709561957F4F0895EE0FFF1F0590F49171
:1014E000E02D0994A29FB001B39FC001A39F700D8E
:1014F000811D1124911DB29F700D811D1124911D1C
:101500000895AA1BBB1B51E107C0AA1FBB1FA6174A
:10151000B70710F0A61BB70B881F991F5A95A9F79C
:1015200080959095BC01CD0108955058BB27AA27FE
:101530000E94AD0A0C94FE0B0E94F00B38F00E9442
:10154000F70B20F039F49F3F19F426F40C94ED0BBF
:101550000EF4E095E7FB0C94E70BE92F0E940F0CCB
:1015600058F3BA17620773078407950720F079F4D8
:10157000A6F50C94310C0EF4E0950B2EBA2FA02D8D
:101580000B01B90190010C01CA01A0011124FF2730
:10159000591B99F0593F50F4503E68F11A16F0402B
:1015A000A22F232F342F4427585FF3CF469537952A
:1015B0002795A795F0405395C9F77EF41F16BA0BEF
:1015C000620B730B840BBAF09150A1F0FF0FBB1F9D
:1015D000661F771F881FC2F70EC0BA0F621F731FE6
:1015E000841F48F4879577956795B795F7959E3F43
:1015F00008F0B0CF9395880F08F09927EE0F9795D4
:10160000879508950E94160B0C94FE0B0E94F70B11
:1016100058F00E94F00B40F029F45F3F29F00C9441
:10162000E70B51110C94320C0C94ED0B0E940F0C33
:1016300068F39923B1F3552391F3951B550BBB2701
:10164000AA2762177307840738F09F5F5F4F220F46
:10165000331F441FAA1FA9F335D00E2E3AF0E0E83D
:1016600032D091505040E695001CCAF72BD0FE2F87
:1016700029D0660F771F881FBB1F2617370748071B
:10168000AB07B0E809F0BB0B802DBF01FF279358D3
:101690005F4F3AF09E3F510578F00C94E70B0C94A5
:1016A000320C5F3FE4F3983ED4F3869577956795C7
:1016B000B795F7959F5FC9F7880F911D9695879508
:1016C00097F90895E1E0660F771F881FBB1F621727
:1016D00073078407BA0720F0621B730B840BBA0BE5
:1016E000EE1F88F7E09508950E947B0B6894B11176
:1016F0000C94320C08950E94170C88F09F5798F0B4
:10170000B92F9927B751B0F0E1F0660F771F881F06
:10171000991F1AF0BA95C9F714C0B13091F00E9420
:10172000310CB1E008950C94310C672F782F882785
:10173000B85F39F0B93FCCF3869577956795B39547
:10174000D9F73EF490958095709561957F4F8F4FB6
:101750009F4F0895E89409C097FB3EF490958095BB
:10176000709561957F4F8F4F9F4F9923A9F0F92F67
:1017700096E9BB279395F695879577956795B795E5
:10178000F111F8CFFAF4BB0F11F460FF1BC06F5FCB
:101790007F4F8F4F9F4F16C0882311F096E911C0DD
:1017A000772321F09EE8872F762F05C0662371F0FE
:1017B00096E8862F70E060E02AF09A95660F771F12
:1017C000881FDAF7880F9695879597F9089597F906
:1017D0009F6780E870E060E008959FEF80EC0895D7
:1017E00000240A9416161706180609060895002400
:1017F0000A9412161306140605060895092E03947A
:10180000000C11F4882352F0BB0F40F4BF2B11F4ED
:1018100060FF04C06F5F7F4F8F4F9F4F089557FD4C
:101820009058440F551F59F05F3F71F04795880F4E
:1018300097FB991F61F09F3F79F0879508951216E5
:1018400013061406551FF2CF4695F1DF08C0161691
:1018500017061806991FF1CF869571056105089442
:101860000895E894BB2766277727CB0197F9089559
:101870000E944B0C0C94FE0B0E94F00B38F00E945F
:10188000F70B20F0952311F00C94E70B0C94ED0B63
:1018900011240C94320C0E940F0C70F3959FC1F32D
:1018A000950F50E0551F629FF001729FBB27F00D0E
:1018B000B11D639FAA27F00DB11DAA1F649F662763
:1018C000B00DA11D661F829F2227B00DA11D621FB2
:1018D000739FB00DA11D621F839FA00D611D221F6C
:1018E000749F3327A00D611D231F849F600D211D50
:1018F000822F762F6A2F11249F5750409AF0F1F0D3
:1019000088234AF0EE0FFF1FBB1F661F771F881F3B
:1019100091505040A9F79E3F510580F00C94E70B81
:101920000C94320C5F3FE4F3983ED4F386957795A0
:101930006795B795F795E7959F5FC1F7FE2B880FE1
:10194000911D9695879597F908958F929F92AF92E2
:10195000BF92CF92DF92EF92FF92CF93DF93EC0191
:10196000688179818A819B81611571058105910565
:1019700021F464E279ED8BE597E02DE133EF41E06E
:1019800050E00E94DB0F49015A019B01AC01A7EA1C
:10199000B1E40E94FA0F6B017C01ACEEB4EFA5013B
:1019A00094010E940810DC01CB018C0D9D1DAE1D21
:1019B000BF1DB7FF03C00197A109B0488883998371
:1019C000AA83BB839F77DF91CF91FF90EF90DF9049
:1019D000CF90BF90AF909F908F9008950E94A50CDC
:1019E000089585E191E00E94A50C0895A0E0B0E083
:1019F0008093150190931601A0931701B0931801DD
:101A00000895A0E0B0E0E7E0FDE00C941D10AE0109
:101A10004B5F5F4FFA0161917191AF018091940129
:101A2000909195010E94470DE2E00C9439100F93BC
:101A30001F93CF93DF93E0919401F091950123815F
:101A400021FF1BC08C01D0E0C0E0F80181918F0123
:101A50006091940170919501DB011896ED91FC91D4
:101A60001997882331F00995892B79F3DFEFCFEFB0
:101A7000ECCF8AE00995892B19F08FEF9FEF02C018
:101A80008D2F9C2FDF91CF911F910F910895ACE086
:101A9000B0E0EDE4FDE00C940D107C016B018A01D7
:101AA000FC0117821682838181FFBDC1CE010196A0
:101AB0004C01F7019381F60193FD859193FF81918C
:101AC0006F01882309F4ABC1853239F493FD859108
:101AD00093FF81916F01853229F4B70190E00E9454
:101AE0002F0FE7CF512C312C20E02032A0F48B3285
:101AF00069F030F4803259F0833269F420612CC0EF
:101B00008D3239F0803339F4216026C022602460A0
:101B100023C0286021C027FD27C030ED380F3A30A0
:101B200078F426FF06C0FAE05F9E300D1124532E94
:101B300013C08AE0389E300D1124332E20620CC071
:101B40008E3221F426FD6BC1206406C08C3611F460
:101B5000206802C0883641F4F60193FD859193FF19
:101B600081916F018111C1CF982F9F7D9554933042
:101B700028F40C5F1F4FFFE3F9830DC0833631F06B
:101B8000833771F0833509F05BC022C0F801808192
:101B900089830E5F1F4F44244394512C540115C078
:101BA0003801F2E06F0E711CF801A080B18026FFB1
:101BB00003C0652D70E002C06FEF7FEFC5012C8779
:101BC0000E94240F2C0183012C852F77222E17C011
:101BD0003801F2E06F0E711CF801A080B18026FF81
:101BE00003C0652D70E002C06FEF7FEFC5012C8749
:101BF0000E94190F2C012C852068222E830123FCC2
:101C00001BC0832D90E048165906B0F4B70180E25E
:101C100090E00E942F0F3A94F4CFF50127FC8591B4
:101C200027FE81915F01B70190E00E942F0F3110D4
:101C30003A94F1E04F1A51084114510471F7E5C08C
:101C4000843611F0893639F5F80127FF07C0608125
:101C50007181828193810C5F1F4F08C06081718107
:101C6000072E000C880B990B0E5F1F4F2F76722EDC
:101C700097FF09C090958095709561957F4F8F4F24
:101C80009F4F2068722E2AE030E0A4010E94670F67
:101C9000A82EA81844C0853729F42F7EB22E2AE03A
:101CA00030E025C0F22FF97FBF2E8F36C1F018F437
:101CB000883579F0B4C0803719F0883721F0AFC08B
:101CC0002F2F2061B22EB4FE0DC08B2D8460B82E54
:101CD00009C024FF0AC09F2F9660B92E06C028E0D5
:101CE00030E005C020E130E002C020E132E0F80140
:101CF000B7FE07C060817181828193810C5F1F4FA5
:101D000006C06081718180E090E00E5F1F4FA401EA
:101D10000E94670FA82EA818FB2DFF777F2E76FE56
:101D20000BC0372D3E7FA51450F474FE0AC072FC20
:101D300008C0372D3E7E05C0BA2C372D03C0BA2C03
:101D400001C0B52C34FF0DC0FE01EA0DF11D8081EC
:101D5000803311F4397E09C032FF06C0B394B394C6
:101D600004C0832F867809F0B39433FD13C030FF8D
:101D700006C05A2CB31418F4530C5B18B32CB314CC
:101D800068F4B70180E290E03C870E942F0FB39483
:101D90003C85F5CFB31410F43B1801C0312C34FF4F
:101DA00012C0B70180E390E03C870E942F0F3C8572
:101DB00032FF17C031FD03C088E790E002C088E51C
:101DC00090E0B7010CC0832F867859F031FF02C034
:101DD0008BE201C080E237FD8DE2B70190E00E9406
:101DE0002F0FA51438F4B70180E390E00E942F0F65
:101DF0005A94F7CFAA94F401EA0DF11D8081B7013E
:101E000090E00E942F0FA110F5CF332009F451CE9E
:101E1000B70180E290E00E942F0F3A94F6CFF701CD
:101E20008681978102C08FEF9FEF2C96E2E10C94A0
:101E30002910FC010590615070400110D8F7809581
:101E400090958E0F9F1F0895FC0161507040019086
:101E50000110D8F7809590958E0F9F1F08950F93CE
:101E60001F93CF93DF93FB01238121FD03C08FEFED
:101E70009FEF28C022FF16C04681578124813581FB
:101E80004217530744F4A081B1819D012F5F3F4F5A
:101E9000318320838C93268137812F5F3F4F378397
:101EA000268310C0EB01092F182F0084F185E02D47
:101EB0000995892BE1F68E819F8101969F838E8300
:101EC000812F902FDF91CF911F910F910895FA01EB
:101ED000AA27283051F1203181F1E8946F936E7F69
:101EE0006E5F7F4F8F4F9F4FAF4FB1E03ED0B4E05A
:101EF0003CD0670F781F891F9A1FA11D680F791F9B
:101F00008A1F911DA11D6A0F711D811D911DA11DAB
:101F100020D009F468943F912AE0269F11243019BB
:101F2000305D3193DEF6CF010895462F4770405D56
:101F30004193B3E00FD0C9F7F6CF462F4F70405D05
:101F40004A3318F0495D31FD4052419302D0A9F760
:101F5000EACFB4E0A6959795879577956795BA955A
:101F6000C9F700976105710508959B01AC010A2E20
:101F700006945795479537952795BA95C9F7620FF7
:101F8000731F841F951FA01D0895F999FECF92BD60
:101F900081BDF89A992780B50895262FF999FECF2B
:101FA0001FBA92BD81BD20BD0FB6F894FA9AF99A76
:101FB0000FBE01960895052E97FB1EF400940E9413
:101FC000F20F57FD07D00E94441007FC03D04EF4D7
:101FD0000C94F20F50954095309521953F4F4F4FFF
:101FE0005F4F089590958095709561957F4F8F4FC5
:101FF0009F4F08950E94720AA59F900DB49F900D67
:10200000A49F800D911D11240895B7FF0C94FA0F21
:102010000E94FA0F821B930B08952F923F924F92CA
:102020005F926F927F928F929F92AF92BF92CF9268
:10203000DF92EF92FF920F931F93CF93DF93CDB771
:10204000DEB7CA1BDB0B0FB6F894DEBF0FBECDBFE9
:1020500009942A88398848885F846E847D848C84BA
:102060009B84AA84B984C884DF80EE80FD800C81C3
:102070001B81AA81B981CE0FD11D0FB6F894DEBFA6
:102080000FBECDBFED010895A1E21A2EAA1BBB1B06
:10209000FD010DC0AA1FBB1FEE1FFF1FA217B30734
:1020A000E407F50720F0A21BB30BE40BF50B661F4A
:1020B000771F881F991F1A9469F76095709580950E
:1020C00090959B01AC01BD01CF010895F894FFCF1D
:1020D0000000000200000000710000000000AAD50E
:1020E00000D200D1000100000073657475700064B7
:0C20F000697374616E6365202564000054
:00000001FF
