:100000000C9446000C946F000C946F000C946F00DD
:100010000C946F000C946F000C94D9010C946F0039
:100020000C946F000C946F000C946F000C94980764
:100030000C946F000C946F000C94F8060C946F00F5
:100040000C946F000C946F000C946F000C946F0074
:100050000C946F000C946F000C946F000C94BA0712
:100060000C946F000C946F003F02BB0213020A0253
:1000700010029D0292021D09FA07FA071A092609C1
:1000800016092D0929093109E908BB0811241FBEE9
:10009000CFEFD8E0DEBFCDBF14BE0FB6F894A89561
:1000A00080916000886180936000109260000FBEB4
:1000B00011E0A0E0B1E0E6E0FBE102C005900D92A6
:1000C000AC30B107D9F721E0ACE0B1E001C01D923E
:1000D000A437B207E1F70E94630A0C94810D0C94D7
:1000E000000082E090E090931101809310018091D4
:1000F000390190913A01A0913B01B0913C0180936C
:10010000120190931301A0931401B0931501089567
:100110004091390150913A0160913B0170913C014D
:100120008091120190911301A0911401B0911501D9
:10013000805C9F4FAF4FBF4F84179507A607B70747
:10014000D8F48091390190913A01A0913B01B0918E
:100150003C018093120190931301A0931401B0937A
:10016000150180911001909111018230910539F1B2
:10017000009719F0019791F0089581E00E947407AB
:100180000E94580360E0809173010E94530381E054
:1001900090E09093110180931001089580E10E94F6
:1001A00074070E94580360915F0180E00E9453032E
:1001B00082E090E09093110180931001089584E013
:1001C0000E9474070E94580360917201809171012E
:1001D0000E94530310921101109210010895089586
:1001E00080E090E008950895DF92EF92FF920F93E0
:1001F0001F93CF93DF93F89414B817B81AB815B8B3
:1002000018B81BB8529A5A9A14BC85E085BD8FEF76
:1002100087BD82E080936E00109280001092810072
:100220002FE83BE0309389002093880080936F0093
:100230005398239891EA9093B0008093B100109264
:10024000B4001092B3008BE080BF83E080937F0006
:1002500086E080937C0083E880937A0080917A0026
:10026000806480937A0080917A0086FDFCCF1092A2
:100270007C0083EA80937A0081E080937B0081E0B8
:1002800090E00E94170D8F3F11F08093660010924E
:100290003D01C1E0C0931601C0935A011092340190
:1002A00010926E0180E990E00E94170D8093330157
:1002B00080913301887311F0C093330110925E0175
:1002C00010925D018FEF90E090935C0180935B0151
:1002D0001092390110923A0110923B0110923C01A8
:1002E00081E080930F0182E49FE090936D01809301
:1002F0006C0180EB90E00E94170DC82F81EB90E01D
:100300000E94170D2C2F30E0382B30937001209372
:100310006F0185E090E00E94170D8093730189E0E2
:1003200090E00E94170D80935F018CE090E00E94A6
:10033000170D8093710184E190E00E94170D809366
:1003400072015EE3E52E51E0F52E07E111E0C0E217
:10035000D0E0CE010E94170DD82ECE0101960E944A
:10036000170D2D2D30E0322F2227282BF701219356
:1003700031937F01CE01C0960E94170DD82ECE0179
:10038000C1960E94170D2D2D30E0322F2227282BE9
:10039000F801219331938F012296CC33D105C9F610
:1003A0007894DF91CF911F910F91FF90EF90DF90A4
:1003B00008951F920F920FB60F9211248F930FB6CC
:1003C000F894A895809160008861809360001092F5
:1003D00060000FBE8F910F900FBE0F901F90189569
:1003E0003C01EB0110E099249A9484E0C82E96E039
:1003F000A92E23E8B22E38E1D32E49E2E42E9091C3
:100400000F01E92FF0E0E730F105C8F7EC5CFF4F92
:100410000C94820A112309F4FCC0C0920F0111E070
:10042000FE010995ECCF80913D018111EBC0F8945C
:10043000A0927C00B0927A0080917A0080648093D0
:100440007A0090917A0096FDFCCF8091780090918F
:10045000790078948B3AE2E09E070CF0EDC0893881
:10046000F2E09F070CF0EFC0873692400CF4CAC050
:10047000559A549A3B9A3A9A3D983C98C0CFF89432
:1004800080B7877F80BF80917A008F7780937A00D2
:1004900014B817B81AB815B818B81BB80FB6F8942E
:1004A000A895D09260000FBEE0926000809160003D
:1004B00080648093600093B7917F946093BFF894B9
:1004C00083B7816083BF7894889583B78E7F83BF1D
:1004D000789410923D01529A5A9A80917A008068DD
:1004E00080937A0087E592E00197F1F700C0000061
:1004F00080B7886180BF559A549A3B9A3A9A3D9A40
:100500003C9AEFE1FEE43197F1F700C000008091E2
:100510003D01811181C0559854983B983A983D9877
:100520003C986DCF80910D01811141C01092B300B4
:100530001092B40010920E0162CF4899ECCF559AF8
:1005400054983B983A983D983C988FEC97E00197E7
:10055000F1F700C00000559854983B983A983D98A0
:100560003C989FEFE1EEF4E09150E040F040E1F77D
:1005700000C0000044CF559854983B9A3A9A3D9851
:100580003C98EFECF7E03197F1F700C00000559888
:1005900054983B983A983D983C98FFEF21EE84E0C0
:1005A000F15020408040E1F700C0000028CF90913A
:1005B0000D0180910E01981709F421CF80910D0152
:1005C00080930E0180910D01813009F450C080911B
:1005D0000D011092B3009092B4008230D9F1909244
:1005E000B3009092B4008FE295E70197F1F700C055
:1005F000000080917201909171019093B3008093FB
:10060000B400FDCE559A549A3B983A983D983C9840
:10061000F6CEF301099501CF559A549A3B983A9832
:100620003D983C98FFEF20E782E0F1502040804069
:10063000E1F700C000006FCF559854983B9A3A9A62
:100640003D983C98DCCE559854983B983A983D9A02
:100650003C9AD5CEEFE2F5E73197F1F700C0000004
:1006600080915F011092B3008093B400C8CE909245
:10067000B3001092B4008FE295E70197F1F700C044
:100680000000809173018093B3001092B400B7CE44
:1006900007C0EFECF7E03197F1F700C000000197D9
:1006A0000097B9F708958093B3006093B40008955C
:1006B0008FEF8093B3008093B4008FE090E0EFEC75
:1006C000F7E03197F1F700C000000197C1F70895F6
:1006D00080913D0181111EC0F89487E080937C00D9
:1006E00083E880937A0080917A00806480937A0016
:1006F00080917A0086FDFCCF8091780090917900FE
:1007000010927C0023EA20937A0021E020937B0062
:10071000789408958FEF9FEF089580913D018111A6
:100720001EC0F89488EC80937C0087E880937A0060
:1007300080917A00806480937A0080917A0086FDAF
:10074000FCCF809178009091790010927C0023EA90
:1007500020937A0021E020937B00789408958FEF16
:100760009FEF08950F931F93CF93DF93E0E0F0E0A6
:1007700080E003EA11E0D6E0C3E8A1E0B0E060E881
:1007800070E0F894D0937C00C0937A0090917A0046
:10079000906490937A0090917A0096FDFCCF20911E
:1007A000780030917900217090917A009064909354
:1007B0007A0090917A0096FDFCCF4091780050919C
:1007C000790010927C0000937A0010937B0078945B
:1007D0004170241303C06150710999F6222339F046
:1007E0009D010E2E01C0220F0A94EAF7822B31964A
:1007F000E830F10509F0C3CFDF91CF911F910F9140
:10080000089580910001982F990F990F990F8927CA
:1008100090910C0121E0290F20930C01282F2295A3
:1008200026952770822796959695892780930001B3
:10083000089580930001089580913D01811116C0B3
:10084000F89486E080937C0083E880937A0080911E
:100850007A00806480937A0080917A0086FDFCCFD4
:100860008091780090917900789408958FEF9FEFB0
:1008700008952F923F924F925F926F927F928F9244
:100880009F92AF92BF92CF92DF92EF92FF920F931F
:100890001F93CF93DF9300D000D000D0CDB7DEB749
:1008A0001C01DC0112960D90BC91A02DBE83AD837E
:1008B000A438E3E0BE070CF0C9C080911701909105
:1008C00018018A179B0708F437C10091190110918C
:1008D0001A010A171B0708F42FC200911B0110917F
:1008E0001C010A171B0708F42FC200911D0110916B
:1008F0001E010A171B0708F42FC200911F01109157
:1009000020010A171B0708F42FC200912101109142
:1009100022010A171B0708F4EFC10091230110916F
:1009200024010A171B0708F427C200912501109122
:1009300026010A171B0708F427C20091270110910E
:1009400028010A171B0708F427C2009129011091FA
:100950002A010A171B0708F427C200912B011091E6
:100960002C010A171B0708F427C200912D011091D2
:100970002E010A171B0708F423C200912F011091C2
:1009800030010A171B0708F423C2009131011091AE
:1009900032010A171B0708F423C280E090E0A0EDA3
:1009A000B0E489839A83AB83BC834CE0E42EF12CC2
:1009B000F701EE0FFF1FE95EFE4F80819181B801C4
:1009C000681B790B80E090E00E94C00B9B01AC019A
:1009D0000E94AC0A6B017C01AD81BE81BD01BB0FE1
:1009E000880B990B0E94C20B4B015C01B80180E09F
:1009F00090E00E94C00B2B013C0129813A814B8180
:100A00005C81C701B6010E944E0C9B01AC01C30181
:100A1000B2010E94AB0A9B01AC01C501B4010E9466
:100A2000AB0A20E030E040E251E40E944E0C0E940C
:100A30008A0B8B01C701B6010E948A0BAB01BC0176
:100A4000C801BA010E946E0A162F77C0DC01CD9052
:100A5000DC9080913E0190913F018C159D0508F43A
:100A60008CC01FEFE0904001F0904101EC14FD04B8
:100A700008F45EC1E0904201F0904301EC14FD04E3
:100A800008F45EC1E0904401F0904501EC14FD04CF
:100A900008F45EC1E0904601F0904701EC14FD04BB
:100AA00008F45EC1E0904801F0904901EC14FD04A7
:100AB00008F4C3C0E0904A01F0904B01EC14FD042F
:100AC00008F456C1E0904C01F0904D01EC14FD0487
:100AD00008F456C1E0904E01F0904F01EC14FD0473
:100AE00008F456C1E0905001F0905101EC14FD045F
:100AF00008F456C1E0905201F0905301EC14FD044B
:100B000008F456C1E0905401F0905501EC14FD0436
:100B100008F45AC1E0905601F0905701EC14FD041E
:100B200008F45AC1E0905801F0905901EC14FD040A
:100B300008F45AC10AE531C010E0ED81FE81ED3BB9
:100B4000F240FCF481E2810F26960FB6F894DEBFE6
:100B50000FBECDBFDF91CF911F910F91FF90EF900E
:100B6000DF90CF90BF90AF909F908F907F906F90CD
:100B70005F904F903F902F90089500E081E2800FAA
:100B8000E3CFD101CD90DC9080913E0190913F0167
:100B90008C159D0508F066CF00E01F3F79F3ED81CD
:100BA000FE81BF01FF0F880B990B0E94C20B6B01E6
:100BB0007C01612F70E080E090E00E94C00B4B014F
:100BC0005C01A701960160E070E081E694E40E9478
:100BD000AB0A9B01AC01C501B4010E944E0C4B0154
:100BE0005C01602F70E080E090E00E94C00B2B0160
:100BF0003C0120E030E04FE254E4C701B6010E941E
:100C0000AB0A9B01AC01C301B2010E944E0C9B01D7
:100C1000AC01C501B4010E94AC0A20E030E048E418
:100C200053E40E94180B20E030E044E052E40E94BC
:100C3000AC0A0E94910B862F87CF05E085E090E0FB
:100C4000880F991FFC01E45CFE4F80819181B70100
:100C5000681B790B80E090E00E94C00B9B01AC0107
:100C60000E94AC0A4B015C01B601DD0C880B990BAC
:100C70000E94C20B2B013C01B70180E090E00E9472
:100C8000C00B6B017C01602F70E080E090E00E945F
:100C9000C00B20E030E040E05FE30E944E0C20E01B
:100CA00030E0A9010E94AC0AA50194010E944E0CFB
:100CB0009B01AC01C701B6010E94AB0A9B01AC01CC
:100CC000C301B2010E94AB0A20E030E040E251E4EF
:100CD0000E944E0C0E948A0B7B01C501B4010E9448
:100CE0008A0BAB01BC01C701BA010E946E0A062F34
:100CF0006F3F09F052CF26CF65E085E090E07C01A0
:100D0000F1E0EF1AF10870E080E090E00E94C00B83
:100D100020E030E040E05FE30E944E0C20E030E055
:100D2000A9010E94AC0A69837A838B839C8340CE9D
:100D300001E081E090E084CF61E081E090E0DFCFEE
:100D400002E082E090E07CCF62E082E090E0D7CFEA
:100D500003E083E090E074CF63E083E090E0CFCFE6
:100D600004E084E090E06CCF64E084E090E0C7CFE2
:100D700006E086E090E064CF66E086E090E0BFCFDA
:100D800007E087E090E05CCF67E087E090E0B7CFD6
:100D900008E088E090E054CF68E088E090E0AFCFD2
:100DA00009E089E090E04CCF69E089E090E0A7CFCE
:100DB0000AE08AE090E044CF6AE08AE090E09FCFCA
:100DC0006BE08BE090E09BCF0BE08BE090E038CFC6
:100DD0006CE08CE090E093CF0CE08CE090E030CFC2
:100DE0006DE08DE090E08BCF0DE08DE090E028CFBE
:100DF0001F920F920FB60F9211242F933F934F9390
:100E00005F936F937F938F939F93AF93BF93EF9372
:100E1000FF9320915D0130915E0180915B01909183
:100E20005C01820F931F90935E0180935D018FEFB1
:100E300090E090935C0180935B018FEF87BD809180
:100E4000390190913A01A0913B01B0913C0101968A
:100E5000A11DB11D8093390190933A01A0933B01EC
:100E6000B0933C0180913D0181110FC080916C01D4
:100E700090916D0120915D0130915E018217930781
:100E800020F480910F01843089F0FF91EF91BF91A0
:100E9000AF919F918F917F916F915F914F913F9112
:100EA0002F910F900FBE0F901F901895E0910301A6
:100EB000F09104010995009741F30E94E009811126
:100EC00009C00E94070D992790935C0180935B01F4
:100ED00087BDDBCFE0910101F091020109951092ED
:100EE0005E0110925D01D1CF80FF11C0559A81FF44
:100EF00011C0549A82FF11C03B9A83FF11C03A9AE5
:100F000084FF11C03D9A85FD11C03C980895559805
:100F100081FDEFCF549882FDEFCF3B9883FDEFCF5B
:100F20003A9884FDEFCF3D9885FFEFCF3C9A089526
:100F30001F920F920FB60F9211248F939F931092CE
:100F40008100109285001092840081E08093160148
:100F500080935A0110923D0110927C0093EA909385
:100F60007A0080937B009F918F910F900FBE0F901E
:100F70001F9018951F920F920FB60F9211242F9366
:100F80003F934F935F936F937F938F939F93AF9311
:100F9000BF93CF93DF93EF93FF9320918400309121
:100FA000850041E040933D01809116018823A9F11D
:100FB00010928500109284004093810010926E017F
:100FC0001092160180915A018823A1F080917A0035
:100FD00086FDFCCF80917800909179009093380144
:100FE0008093370181E080937C0093EA90937A00AC
:100FF00080937B00FF91EF91DF91CF91BF91AF91F3
:101000009F918F917F916F915F914F913F912F9120
:101010000F900FBE0F901F901895C9018758910926
:101020008437994008F052C026583109A4EFB0E047
:101030000E94880AAA27BB2788309105A105B1051F
:1010400008F47BC04093160180915A01811152C06F
:1010500080913401E82FF0E0E05AFE4F90916E014C
:1010600090838F5F809334018C3021F61092810041
:10107000109285001092840040935A0110923D0115
:10108000C0916A01D0916B0180E691E00E94C40991
:10109000C817D90709F0AECF8091690187FF61C0F9
:1010A00098E7980F933030F0539823981092B4003B
:1010B0001092B30090E0FC01E058F109EB30F1052B
:1010C00008F098CFE55CFF4F0C94820A10928100E3
:1010D00010928500109284004093160140935A01AB
:1010E00010923D0110927C0083EA80937A00409335
:1010F0007B0080CF80917A0086FDFCCF80917800C4
:1011000090917900909336018093350110927C0084
:1011100083EA80937A0081E080937B0090916E0156
:101120009923D1F0109281001092850010928400D2
:1011300080935A0110923D015DCF21E030E0F9012A
:1011400002C0EE0FFF1F8A95E2F7CF0190916E016A
:10115000892B80936E014ECF10925A011092340168
:1011600049CFE0910501F091060165E371E080E669
:1011700091E009953FCF80916001823009F4DDC094
:1011800008F4BAC0833009F4C6C0843009F0B1C095
:1011900080910D0190916601833009F4E3C0809144
:1011A000650110920E0123E020930D0180937101DF
:1011B0009093720180910F01863009F41BCF539AEE
:1011C000239A1092B4001092B30086E080930F012E
:1011D00011CF80910F01863099F0539A239A109283
:1011E000B4001092B300559854983B983A983D98A3
:1011F0003C9810920D0110920E0186E080930F0131
:1012000081E090E09C010090600102C0220F331F3A
:101210000A94E2F780916F019091700182239323E9
:10122000892B09F086C010920D01E4CE81E08093F5
:101230000F01E0CEE0E0F0E0099580916E008D7F37
:1012400080936E0016BCE0E0F0E7099510920F0164
:10125000D1CE82E080930F01CDCE85E080930F0147
:10126000C9CE80910F01833009F4C4CE80910F0163
:10127000843009F4BFCE539A239A1092B40010928E
:10128000B30083E080930F01B5CE80910F018630CB
:1012900009F0B0CE60916F0180EB90E00E941F0DCD
:1012A0006091700181EB90E00E941F0D60917301CD
:1012B00085E090E00E941F0D60915F0189E090E061
:1012C0000E941F0D609171018CE090E00E941F0D43
:1012D0006091720184E190E00E941F0D5398239861
:1012E0001092B4001092B30081E080930F018091BE
:1012F000600181115FCF7ECE882339F28130C9F73A
:1013000080916101909162019093700180936F01CF
:1013100010920D014FCF80910D01823071F18091BB
:10132000640110920E0192E090930D0180935F0191
:1013300041CF81E080930D015DCE80910D01813020
:1013400051F08091630110920E0191E090930D0194
:10135000809373012FCF8091630190917301891362
:10136000F2CF28CF80917201981319CF8091650137
:1013700020917101821315CF1DCF8091640190914E
:101380005F018913CECF16CFFC01AC01465F5F4FE2
:101390008FEF9FEF21918227082E8295807F8025F5
:1013A000092E982F82958F70082686959827892771
:1013B000880F880F880F8025E417F50759F70895DF
:1013C0000FB6F894A4B1209133012A2B24B921E05F
:1013D00030913301203029F0000025B1232B25B9AD
:1013E00004C000000000000000C000000000000079
:1013F000309525B1232325B92EEA2A95F1F72BEE56
:1014000030B735FF0AC0A4B930913301309525B10A
:10141000232325B90FBE80E0089500002A9581F7A7
:1014200021E030913301203029F0000025B1232B39
:1014300025B904C000000000000000C0000000004A
:101440000000309525B1232325B9000024E52A9515
:10145000F1F7FC018CE0619170E0660F771F61602D
:1014600072609AE041E050E09A0126233723232B53
:1014700030913301203029F0000025B1232B25B90C
:1014800004C000000000000000C0000000000000D8
:10149000309525B1232325B9000021E52A95F1F7E0
:1014A000440F551F9A9501F78A95A9F620B7206138
:1014B00020BFA4B930913301309525B1232325B93C
:1014C0000FBE81E008950E94F40068E870E081E7B3
:1014D00090E00E94F00180E090E0089597FB072ED5
:1014E00016F4009407D077FD09D00E94970A07FCF4
:1014F00005D03EF4909581959F4F08957095619524
:101500007F4F0895EE0FFF1F0590F491E02D099491
:10151000A29FB001B39FC001A39F700D811D112434
:10152000911DB29F700D811D1124911D0895AA1B5C
:10153000BB1B51E107C0AA1FBB1FA617B70710F0BE
:10154000A61BB70B881F991F5A95A9F780959095F0
:10155000BC01CD0108955058BB27AA270E94C30A99
:101560000C94140C0E94060C38F00E940D0C20F014
:1015700039F49F3F19F426F40C94030C0EF4E09513
:10158000E7FB0C94FD0BE92F0E94250C58F3BA17CA
:10159000620773078407950720F079F4A6F50C9489
:1015A000470C0EF4E0950B2EBA2FA02D0B01B901BC
:1015B00090010C01CA01A0011124FF27591B99F0C9
:1015C000593F50F4503E68F11A16F040A22F232FD5
:1015D000342F4427585FF3CF469537952795A79525
:1015E000F0405395C9F77EF41F16BA0B620B730BCC
:1015F000840BBAF09150A1F0FF0FBB1F661F771F3D
:10160000881FC2F70EC0BA0F621F731F841F48F4F1
:10161000879577956795B795F7959E3F08F0B0CF7A
:101620009395880F08F09927EE0F97958795089561
:101630000E942C0B0C94140C0E940D0C58F00E946C
:10164000060C40F029F45F3F29F00C94FD0B51117A
:101650000C94480C0C94030C0E94250C68F39923FD
:10166000B1F3552391F3951B550BBB27AA2762179E
:101670007307840738F09F5F5F4F220F331F441FAB
:10168000AA1FA9F335D00E2E3AF0E0E832D09150DF
:101690005040E695001CCAF72BD0FE2F29D0660FCC
:1016A000771F881FBB1F261737074807AB07B0E80F
:1016B00009F0BB0B802DBF01FF2793585F4F3AF015
:1016C0009E3F510578F00C94FD0B0C94480C5F3F45
:1016D000E4F3983ED4F3869577956795B795F7959B
:1016E0009F5FC9F7880F911D9695879597F9089583
:1016F000E1E0660F771F881FBB1F6217730784071F
:10170000BA0720F0621B730B840BBA0BEE1F88F72D
:10171000E09508950E94910B6894B1110C94480CC7
:1017200008950E942D0C88F09F5798F0B92F9927A3
:10173000B751B0F0E1F0660F771F881F991F1AF0BC
:10174000BA95C9F714C0B13091F00E94470CB1E0CE
:1017500008950C94470C672F782F8827B85F39F0CD
:10176000B93FCCF3869577956795B395D9F73EF455
:1017700090958095709561957F4F8F4F9F4F0895FD
:10178000E89409C097FB3EF490958095709561951B
:101790007F4F8F4F9F4F9923A9F0F92F96E9BB27D1
:1017A0009395F695879577956795B795F111F8CF4D
:1017B000FAF4BB0F11F460FF1BC06F5F7F4F8F4FB8
:1017C0009F4F16C0882311F096E911C0772321F0AE
:1017D0009EE8872F762F05C0662371F096E8862F46
:1017E00070E060E02AF09A95660F771F881FDAF79D
:1017F000880F9695879597F9089597F99F6780E8E0
:1018000070E060E008959FEF80EC089500240A9452
:101810001616170618060906089500240A941216CB
:101820001306140605060895092E0394000C11F4FE
:10183000882352F0BB0F40F4BF2B11F460FF04C0AB
:101840006F5F7F4F8F4F9F4F089557FD9058440F04
:10185000551F59F05F3F71F04795880F97FB991F0F
:1018600061F09F3F79F087950895121613061406CC
:10187000551FF2CF4695F1DF08C016161706180659
:10188000991FF1CF86957105610508940895E89434
:10189000BB2766277727CB0197F908950E94610C33
:1018A0000C94140C0E94060C38F00E940D0C20F0D1
:1018B000952311F00C94FD0B0C94030C11240C9443
:1018C000480C0E94250C70F3959FC1F3950F50E0D2
:1018D000551F629FF001729FBB27F00DB11D639FE2
:1018E000AA27F00DB11DAA1F649F6627B00DA11D88
:1018F000661F829F2227B00DA11D621F739FB00D2E
:10190000A11D621F839FA00D611D221F749F33279D
:10191000A00D611D231F849F600D211D822F762F36
:101920006A2F11249F5750409AF0F1F088234AF013
:10193000EE0FFF1FBB1F661F771F881F915050407F
:10194000A9F79E3F510580F00C94FD0B0C94480CB8
:101950005F3FE4F3983ED4F3869577956795B79506
:10196000F795E7959F5FC1F7FE2B880F911D969520
:10197000879597F908958F929F92AF92BF92CF92D9
:10198000DF92EF92FF92CF93DF93EC016881798130
:101990008A819B81611571058105910521F464E2BD
:1019A00079ED8BE597E02DE133EF41E050E00E94C7
:1019B0002D0D49015A019B01AC01A7EAB1E40E9437
:1019C0004C0D6B017C01ACEEB4EFA50194010E94BB
:1019D0005A0DDC01CB018C0D9D1DAE1DBF1DB7FF47
:1019E00003C00197A109B04888839983AA83BB8368
:1019F0009F77DF91CF91FF90EF90DF90CF90BF90D6
:101A0000AF909F908F9008950E94BB0C089587E03F
:101A100091E00E94BB0C0895A0E0B0E08093070124
:101A200090930801A0930901B0930A010895F999D0
:101A3000FECF92BD81BDF89A992780B50895262FD3
:101A4000F999FECF1FBA92BD81BD20BD0FB6F894A3
:101A5000FA9AF99A0FBE01960895052E97FB1EF487
:101A600000940E94440D57FD07D00E945F0D07FCB3
:101A700003D04EF40C94440D50954095309521952B
:101A80003F4F4F4F5F4F08959095809570956195AA
:101A90007F4F8F4F9F4F08950E94880AA59F900DFA
:101AA000B49F900DA49F800D911D11240895B7FF40
:101AB0000C944C0D0E944C0D821B930B0895A1E2D7
:101AC0001A2EAA1BBB1BFD010DC0AA1FBB1FEE1FB8
:101AD000FF1FA217B307E407F50720F0A21BB30B03
:101AE000E40BF50B661F771F881F991F1A9469F77F
:101AF00060957095809590959B01AC01BD01CF01DB
:061B00000895F894FFCFE8
:0C1B0600AAF300F000EF00010000000056
:00000001FF
