:100000000C94DB000C9404010C9404010C94040186
:100010000C9404010C9404010C94FC0B0C9404014A
:100020000C9404010C9404010C9404010C94BB1175
:100030000C9404010C9404010C941B110C94040105
:100040000C9404010C9404010C9404010C9404011C
:100050000C9404010C9404010C9404010C94DD1123
:100060000C9404010C940401620CDE0C360C2D0C73
:10007000330CC00CB50C40131D121D123D13491357
:10008000391350134C1354130C13DE12076342360A
:10009000B79BD8A71A39685618AEBAAB558C1D3C19
:1000A000B7CC5763BD6DEDFD753EF6177231BF00DD
:1000B0000000803F6E616E00696E660000407A103D
:1000C000F35A00A0724E18090010A5D4E80000E809
:1000D0007648170000E40B54020000CA9A3B000067
:1000E00000E1F505000080969800000040420F00F6
:1000F0000000A08601000000102700000000E803B7
:10010000000000006400000000000A000000000081
:100110000100000000002C76D888DC674F0823DF40
:10012000C1DFAE59E1B1B796E5E3E453C63AE65113
:10013000997696E8E6C28426EB898C9B62ED407C3A
:100140006FFCEFBC9C9F40F2BAA56FA5F490055AD6
:100150002AF75C936B6CF9676DC11BFCE0E40D47FB
:10016000FEF520E6B500D0ED902E0300943577051E
:100170000080841E080000204E0A000000C80C33D6
:100180003333330F986E12831141EF8D2114893B65
:10019000E65516CFFEE6DB18D1844B381BF77C1DE5
:1001A000901DA4BBE424203284725E228100C9F138
:1001B00024ECA1E53D2711241FBECFEFD8E0DEBF20
:1001C000CDBF14BE0FB6F894A895809160008861E9
:1001D00080936000109260000FBE11E0A0E0B1E0DB
:1001E000EEE9FCE302C005900D92AC35B107D9F7FA
:1001F00027E0ACE5B1E001C01D92A13FB207E1F7F5
:100200000E9402180C944D1E0C9400004F925F92B5
:100210006F927F928F929F92BF92CF92DF92EF92D6
:10022000FF920F931F93CF93DF93C0900001D09064
:100230000101F601E95DF94F8081811184C0C0E0C0
:10024000D0E01BEA04C0C0900001D09001010E94E0
:10025000D50DFE01EE0FFF1FCE0EDF1EF601E75D8E
:10026000FD4F819F912D11249695292F220F920FDA
:10027000891B90E0918380832196C830D10519F7BE
:10028000E0910001F0910101E95DF94F81E0808387
:100290008091E7078F938091E6078F938DE091E03F
:1002A0009F938F930E945A1D0F900F900F900F9065
:1002B000C0E0D0E00CE111E0E0910001F09101011B
:1002C000CE01880F991FE80FF91FE75DFD4F81816F
:1002D0008F9380818F931F930F930E945A1D2196B5
:1002E0000F900F900F900F90C830D10529F78AE03A
:1002F00090E00E94701D8091000190910101409159
:10030000B0075091B1076091B2077091B307FC013B
:10031000ED5DF94F4083518362837383EA5EF3405E
:1003200011821082DF91CF911F910F91FF90EF907A
:10033000DF90CF90BF909F908F907F906F905F9055
:100340004F900C94F606F601E75CFD4FE080F180DB
:10035000E114F10409F4A6C0E601CC5BDD4F68812D
:1003600070E080E090E00E94091A2B013C018E01B0
:10037000C0E0D0E0812C912CF801B0806B2D70E0B2
:1003800080E090E00E940B1AA30192010E94E21A01
:1003900018164CF46B2D70E080E090E00E94091A72
:1003A0002B013C014E012196065F1F4FCE15DF0544
:1003B00019F7C0E0D0E0C401880F991F880C991C80
:1003C000880C991C880C991C880E991E0AE211E071
:1003D00004C0C0900001D0900101F601E80DF91DA4
:1003E000EC0FFD1FE55CFD4F8081282F30E0FE0102
:1003F000EE0FFF1FCE0EDF1EF601E75DFD4F3183CE
:1004000020831F928F931F930F930E945A1D219652
:100410000F900F900F900F90C830D105D1F68EE25B
:1004200091E00E94771D0E94D50D682F70E080E05A
:1004300090E00E94091A20E030E040E85BE30E946F
:100440005D1B2FE135E84BE25FE30E94221987FD37
:100450005FC0E0910001F0910101C0E0D0E00AE24C
:1004600011E004C0E0910001F0910101CE01880F7C
:10047000991FE80FF91FE75DFD4F81818F93808100
:100480008F931F930F930E945A1D21960F900F90E8
:100490000F900F90C830D10529F78EE291E00E94AD
:1004A000771D29CF8091E7078F938091E6078F937F
:1004B00081E291E09F938F930E945A1D80910001E9
:1004C00090910101FC01E85DF94F21E0208340910A
:1004D000B0075091B1076091B2077091B30735979B
:1004E00040835183628373830F900F900F900F901E
:1004F000DF91CF911F910F91FF90EF90DF90CF9000
:10050000BF909F908F907F906F905F904F900895D5
:100510000E94D50D829586958770C82FD0E00E94E5
:10052000D50DE0910001F0910101CC0FDD1FCE0F40
:10053000DF1FC75DDD4F881F8827881F90E0019669
:1005400028813981820F931F63E070E00E941F1899
:100550009983888382CFCF93DF93C0910001D0919C
:100560000101FE01E95EFD4F1082CE01825F9D4FC9
:100570002091E607DC012C93319710820E94E7134B
:10058000C85EDD4F99838883E0910001F0910101FD
:10059000DF01A65FBD4F1D921D921D921C92139705
:1005A00017978FEF8C93AB5AB1091C9212968C93CC
:1005B0001082A353BF4F81E08C9311961C92A85DCB
:1005C000B1091D921D921D921C92139711821282E5
:1005D0001382148214961D921D921D921C921397E1
:1005E000AC52BB4F1C9211971C92AE5EB340119659
:1005F0001C921E92A051BC4F1D921D921D921C92E6
:10060000139716971D921D921D921C921397A85C2A
:10061000B44080EAED0119928A95E9F7AC55BF4FD5
:100620001D921D921D921C921397E15FFD4F88E071
:10063000DF011D928A95E9F70E94060183E0DF91B0
:10064000CF910C94C3080F931F930E943F040E9404
:1006500066060E94E4078091000190910101FC016F
:10066000E85AFE4F2081213009F456C00091B007AE
:100670001091B1072091B2073091B307FC01ED5DF5
:10068000F94F40815181628173814058584F6F4FBB
:100690007F4F4017510762077307B8F10091B00709
:1006A0001091B1072091B2073091B307FC01E05BD4
:1006B000FE4F4081518162817381405E5F4F6F4F79
:1006C0007F4F4017510762077307E0F44091B0076E
:1006D0005091B1076091B2077091B3074083518385
:1006E00062837383E852FB4F8081811104C01F91A4
:1006F0000F910C94790980E00E9497111F910F913E
:100700000C94FA081F910F9108950E9406018091A0
:10071000000190910101C2CF0E946C0580910001FF
:1007200090910101A3CFCF92DF92EF92FF920F93AE
:100730001F93CF93DF930091000110910101E80115
:10074000C55ADE4F05501E4FC12CD12C7601699140
:100750007991899199910E94091A9B01AC01C70175
:10076000B6010E94B6186B017C01C017D10779F75A
:1007700020E030E040E252E40E942719DF91CF915F
:100780001F910F91FF90EF90DF90CF90089560E060
:1007900070E080E89FE30895CF93DF93E09100013C
:1007A000F09101014091B0075091B1076091B207FB
:1007B0007091B307EF01C75DD94F88819981AA81F4
:1007C000BB81805C9F4FAF4FBF4F481759076A07E7
:1007D0007B07A8F18091B0079091B107A091B20773
:1007E000B091B30788839983AA83BB8341815281E7
:1007F000638174814115510561057105E1F08681C0
:10080000978183369105F1F0719641505109610944
:10081000710980E090E0DC0109C0208131810196FE
:10082000A11DB11D3B962336310561F08417950754
:10083000A607B70791F7DF91CF910C945908DF9184
:10084000CF9108950E94241CBC01990F880B990B2D
:100850000E940B1A20E030E0A9010E94E21A18164B
:1008600054F7DF91CF910C94130820E030E040E082
:100870005FE30E94B6180E94D319CB010895CF926E
:10088000DF92EF92FF921F93CF93DF93409100018D
:1008900050910101FA0181819281A381B481009775
:1008A000A105B10509F453C09C012150310937FD60
:1008B0004EC06BE0689FE001699FD00D1124269720
:1008C000C40FD51F1BE06FEF7FEF8091B0079091B1
:1008D000B107A091B207B091B307CB80DC80ED8067
:1008E000FE808C199D09AE09BF098197A105B1054C
:1008F00030F1FA01C180D280E380F4801C9DF001C8
:100900001D9DF00D1124E40FF51F3596DE01812F9A
:1009100001900D928A95E1F7F1E0CF1AD108E10834
:10092000F1081C9DF0011D9DF00D1124E40FF51F31
:1009300077836683FA01C182D282E382F4822150F6
:1009400031092B972F3FFFEF3F0709F0BECFDF9113
:10095000CF911F91FF90EF90DF90CF900895E0919D
:100960000001F0910101418152816381748141153F
:10097000510561057105E1F0868197818336910506
:10098000D1F07196415051096109710980E090E000
:10099000DC0109C0208131810196A11DB11D3B966A
:1009A0002336310541F084179507A607B70791F75D
:1009B00080E090E0089581E090E00895E0910001EA
:1009C000F0910101E85DFD4F8081813009F00895CB
:1009D000108280E10E949711E0910001F0910101E5
:1009E0004091B0075091B1076091B2077091B30781
:1009F000E65AFE4F808190E00696092E000CAA0B65
:100A0000BB0B84179507A607B70708F78091B007B7
:100A10009091B107A091B207B091B3078083089578
:100A2000CF92DF92EF92FF921F93CF93DF93C0910B
:100A30000001D0910101FE01EA5DFD4F10813C975C
:100A4000408150E0C980DA80EB80FC80E451F240C4
:100A500080E090E0DC01BC018C159D05AE05BF0572
:100A600059F1208131810196A11DB11D3B962417BA
:100A7000350789F78BE0869FF001879FF00D1124E1
:100A8000EC0FFD1F578346838091B0079091B1070B
:100A9000A091B207B091B30780879187A287B387EF
:100AA0001583C85ADE4F1882DF91CF911F91FF90B6
:100AB000EF90DF90CF9008958E319105A105B1059B
:100AC00018F061507109D6CF0196A11DB11D89831F
:100AD0009A83AB83BC83CECFCF92DF92EF92FF920B
:100AE0000F931F93CF93DF93E0910001F0910101E9
:100AF000DF01AA5DBD4F4C911C975C91252F30E022
:100B0000C180D280E380F480EF01269680E090E0FF
:100B1000DC01BC018C159D05AE05BF0509F4BBC009
:100B2000088119810196A11DB11D2B96021713078B
:100B300081F78BE0869FD001879FB00D1124AE0F07
:100B4000BF1F17963C932E9316970091B0071091F4
:100B5000B1072091B2073091B30718960D931D93FA
:100B60002D933C931B9715964C93EF01C75CDD4F7B
:100B7000688179819F012D5B3D4F80E090E001C04D
:100B800001968617970709F493C0265F3F4FD90156
:100B90001A974C915413F4CF9C01220F331F880FE6
:100BA000991F880F991F880F991F820F931F8E0F0F
:100BB0009F1FDC01AD5BBD4F5C93DF01A55EBD4FA8
:100BC0004C9139E2439F212D112422952F70EC0185
:100BD000C55CDD4F28837CE9279F400D11246DEC17
:100BE000469F512D1124569556955695219658831A
:100BF0002AE0529F401911244C93DC01A35CBD4FA5
:100C00004C93DF01A45EBD4F4C91439F512D1124A5
:100C100052955F7022965883579F400D1124469F2E
:100C2000512D1124569556955695219658832AE0B4
:100C3000529F401911244C93DC01A05CBD4F4C9392
:100C4000DF01A35EBD4F2C91239F312D11243295DE
:100C50003F7022963883379F200D11242C93DC019E
:100C6000AE5BBD4F269F212D1124269526952695F6
:100C70002C931296EF01CE5DDD4F88818C93E85A5C
:100C8000FE4F1082DF91CF911F910F91FF90EF9057
:100C9000DF90CF9008958E319105A105B10568F4DC
:100CA0000196A11DB11D81839283A383B48341CF9B
:100CB0008436910528F001976FCF6150710939CFC3
:100CC0009C012F5F3F4F3983288366CF0F931F937B
:100CD000CF93DF93C0910001D091010149815A81E6
:100CE0006B817C814115510561057105F1F08E81A3
:100CF0009F818336910509F443C0FE0171964150EE
:100D000051096109710980E090E0DC0109C020818E
:100D100031810196A11DB11D3B962336310581F12C
:100D200084179507A607B70791F78E0101501E4F4C
:100D3000F8014081518162817381CA01880F991F36
:100D4000880F991FC80FD91FC55ADE4F1882198204
:100D50001A821B82CB01BA016F5F7F4F8F4F9F4F6B
:100D600028E230E040E050E00E943318F801608350
:100D7000718382839383DF91CF911F910F910895A7
:100D80008E0101501E4FF8014081518162817381B3
:100D9000CA01880F991F880F991FC80FD91FC55AFC
:100DA000DE4F81E090E0A0E0B0E088839983AA83E1
:100DB000BB83D0CFCF93DF93FC01C0910001D091D2
:100DC0000101DE01A85ABE4F81E08C93AE53BF4FA4
:100DD0009CE001900D929A95E1F7CB010E945C0E88
:100DE000CA5DDD4F8883DF91CF910895FF920F9305
:100DF0001F93CF93DF93E0910001F0910101DF0198
:100E0000A95DBD4F1C9250971C9219978091E607DF
:100E10008C93C0E0D0E00AE211E004C0E091000150
:100E2000F0910101CE01880F991FE80FF91FE75DCE
:100E3000FD4F81818F9380818F931F930F930E9429
:100E40005A1D21960F900F900F900F90C830D1052A
:100E500029F78DE391E00E94771DC0910001D091A8
:100E60000101FE01E15DFD4F8081918124E6F22EBA
:100E7000F89EA001F99E500D1124DE01AF5CBD4F1C
:100E80008D919C911197BC01660F771F9C01220FD9
:100E9000331F220F331F220F331FCB01820F931FEB
:100EA000840F951F12966D917C911197680F791F91
:100EB00012962D913C911197F29EC001F39E900DD8
:100EC000112412962D913C911197A901440F551FA1
:100ED000220F331F220F331F220F331F240F351F02
:100EE000AC01420F531F9897CE01875D9D4FFC01C7
:100EF00080819181F89E8001F99E100D1124329617
:100F000080819181FC01EE0FFF1F9C01220F331F96
:100F1000220F331F220F331FCF01820F931F800F29
:100F2000911FFE01E35DFD4F20813181820F931FF0
:100F30008C937D976083319640830E949303CA5EB1
:100F4000DD4F20E030E048EC52E40E945D1B0E943F
:100F5000D3196883C0E0D0E00AE211E0E09100011B
:100F6000F0910101EC0FFD1FE25FFD4F80811F92A8
:100F70008F931F930F930E945A1D21960F900F90ED
:100F80000F900F90C930D10549F78BE491E00E9492
:100F9000771DC0910001D0910101CE01825F9D4F6C
:100FA0000E94E713C85EDD4F99838883E0910001BA
:100FB000F0910101E95DFD4F81E08083DF91CF91E8
:100FC0001F910F91FF900895CF93DF93C09100017F
:100FD000D0910101FE01E95DFD4F10820E94930353
:100FE000CA5EDD4F20E030E048EC52E40E945D1B19
:100FF0000E94D3196883C0910001D0910101CE01F4
:10100000825F9D4F0E94E713C85EDD4F99838883FE
:10101000E0910001F0910101E95DFD4F81E08083E5
:10102000DF91CF9108951F93CF93DF93C09100017B
:10103000D0910101FE01E95DFD4F10827097108291
:10104000CE01825F9D4F2091E607FC0120833196FF
:10105000DE01A75DBD4F2C912083319612962C9115
:101060002083319612962C912083319612962C91E2
:101070002083319612962C912083319612962C91D2
:101080002083319612962C912083319611E01083A3
:101090000E94E713C85EDD4F99838883E0910001C9
:1010A000F0910101E95DFD4F1083DF91CF911F9118
:1010B0000895CF93DF93C0910001D0910101FE010B
:1010C000E95DFD4F108270971082CE01825F9D4FC7
:1010D0002091E607FC0120833196DE01A75DBD4F1C
:1010E0002C912083319612962C9120833196129662
:1010F0002C912083319612962C9120833196129652
:101100002C912083319612962C9120833196129641
:101110002C912083319610820E94E713C85EDD4F28
:1011200099838883E0910001F0910101E95DFD4F11
:1011300081E08083DF91CF9108958091E6079091BF
:10114000E707892B69F08091000190910101FC0172
:10115000E95DFD4F2081222351F0825F9D4F08956C
:101160008091000190910101825F9D4F089580E080
:1011700090E00895E0910001F0910101E85DFD4FDC
:1011800081E080830895CF93E0910001F091010107
:10119000E15BFE4F9081981791F0C82F8230D1F01B
:1011A000833079F08130F1F060E080E00E94760DCC
:1011B000E0910001F0910101E15BFE4FC083CF910E
:1011C00008950E947B0D6091E9078091E8070E94D5
:1011D000760DEECF0E947B0D6091D60780E00E94D5
:1011E000760DE6CF0E947B0D60E08091EA070E94B9
:1011F000760DDECF60E080E00C94760DCF930E94F8
:10120000D50DC82FC370E0910001F0910101E15BA1
:10121000FE4F8081CC23B9F0C330A9F0C13039F141
:10122000823079F00E947B0D6091D60780E00E94A9
:10123000760DE0910001F0910101E15BFE4F82E04B
:101240008083CF9108958330E1F30E947B0D6091FC
:10125000E9078091E8070E94760DE0910001F09186
:101260000101E15BFE4F83E08083CF9108958130DF
:1012700041F30E947B0D60E08091EA070E94760DA9
:10128000E0910001F0910101E15BFE4FC083CF913D
:1012900008950E94D50DE0910001F0910101E15BFC
:1012A000FE4F80FF13C08081823079F00E947B0D59
:1012B0006091D60780E00E94760DE0910001F091E8
:1012C0000101E15BFE4F82E08083089580818130DF
:1012D000E1F30E947B0D60E08091EA070E94760DA9
:1012E000E0910001F0910101E15BFE4F81E080831C
:1012F00008954F925F926F927F928F929F92AF92DA
:10130000BF92CF92DF92EF92FF920F931F93CF93F2
:10131000DF9300D000D0CDB7DEB784E00E949711F4
:101320000091000110910101F80141805280638019
:101330007480411451046104710409F46FC135963D
:101340008BE0849DA001859D500D11244B5F5F4F64
:10135000400F511F80E090E0DC012081820F911D41
:10136000A11DB11D3B96E417F507B9F7BC01CD01EE
:10137000A30192010E943318CA01B9010E94091AFF
:101380006B017C01F801E75DFD4F60817181615067
:101390007109072E000C880B990B0E940B1A4B0148
:1013A0005C01F801E35DFD4F60817181615071095D
:1013B000072E000C880B990B0E940B1AA7019601AF
:1013C0000E945D1B9B01AC01C501B4010E94B618CF
:1013D0004B015C01F801EF5CFD4F60817181615050
:1013E0007109072E000C880B990B0E940B1A698358
:1013F0007A838B839C83C301B2010E94091A9B01EB
:10140000AC0169817A818B819C810E945D1B9B016B
:10141000AC01C501B4010E94B6184B015C01F80192
:10142000EB5CFD4F00811181015011090E94AF0456
:101430009C01029FC001039F900D129F900D1124EB
:10144000BC01990F880B990B0E940B1A9B01AC01F0
:10145000C501B4010E94B6184B015C010091000166
:1014600010910101F801E55DFD4F608171816150CE
:101470007109072E000C880B990B0E940B1A2B0187
:101480003C01F801E15DFD4F60817181615071099E
:10149000072E000C880B990B0E940B1AA7019601CE
:1014A0000E945D1B9B01AC01C301B2010E94B618F2
:1014B0006B017C01F801ED5CFD4F8081918101970A
:1014C000BC01990F880B990B0E940B1A2B013C0150
:1014D000F80161817281838194810E94091A9B01C4
:1014E000AC01C301B2010E945D1B9B01AC01C701AD
:1014F000B6010E94B6186B017C01F801E95CFD4F52
:1015000000811181015011090E94AF043C01C50105
:10151000B40190580E94A1194B015C01069DB001D5
:10152000079D700D169D700D1124072E000C880B61
:10153000990B0E940B1A9B01AC01C701B6010E94D6
:10154000B61890580E94A1196B017C018091EA079E
:1015500090E0CC97BC01990F880B990B0E940B1A55
:101560002B013C0120E030E040E85FE3C501B4011D
:101570000E94B6189B01AC0160E070E080E89FE338
:101580000E9427199B01AC01C301B2010E945D1B9F
:101590000E943504182F4091D60750E04C53510952
:1015A000BA01550F880B990B0E940B1A4B015C0175
:1015B00020E030E040E85FE3C701B6010E94B618C2
:1015C0009B01AC0160E070E080E89FE30E94271976
:1015D0009B01AC01C501B4010E945D1B0E94350452
:1015E0007C010E947B0DB701645C7F4F8CE3810F0F
:1015F0000F900F900F900F90DF91CF911F910F914F
:10160000FF90EF90DF90CF90BF90AF909F908F9022
:101610007F906F905F904F900C94760DC12CD12CE1
:101620007601B0CE089580E090E008950895DF92AD
:10163000EF92FF920F931F93CF93DF93F89414B818
:1016400017B81AB815B818B81BB8529A5A9A14BCD9
:1016500085E085BD8FEF87BD82E080936E0010929C
:101660008000109281002FE83BE0309389002093A6
:10167000880080936F005398239891EA9093B0006C
:101680008093B1001092B4001092B3008BE080BF41
:1016900083E080937F0086E080937C0083E88093E2
:1016A0007A0080917A00806480937A0080917A0039
:1016B00086FDFCCF10927C0083EA80937A0081E063
:1016C00080937B0081E090E00E94051E8F3F11F027
:1016D000809366001092B407C1E0C0938D07C09359
:1016E000D1071092AB071092E50780E990E00E94C5
:1016F000051E8093AA078091AA07887311F0C093F2
:10170000AA071092D5071092D4078FEF90E090931C
:10171000D3078093D2071092B0071092B1071092AE
:10172000B2071092B30781E080935F0182E49FE0EB
:101730009093E4078093E30780EB90E00E94051EFE
:10174000C82F81EB90E00E94051E2C2F30E0382B33
:101750003093E7072093E60785E090E00E94051E9E
:101760008093EA0789E090E00E94051E8093D607E7
:101770008CE090E00E94051E8093E80784E190E0F1
:101780000E94051E8093E90755EBE52E57E0F52EE4
:101790000EE817E0C0E2D0E0CE010E94051ED82E70
:1017A000CE0101960E94051E2D2D30E0322F2227FA
:1017B000282BF701219331937F01CE01C0960E941F
:1017C000051ED82ECE01C1960E94051E2D2D30E09B
:1017D000322F2227282BF801219331938F01229653
:1017E000CC33D105C9F67894DF91CF911F910F9139
:1017F000FF90EF90DF9008951F920F920FB60F9217
:1018000011248F930FB6F894A89580916000886199
:1018100080936000109260000FBE8F910F900FBEFA
:101820000F901F9018953C01EB0110E099249A94B9
:1018300084E0C82E96E0A92E23E8B22E38E1D32EFC
:1018400049E2E42E90915F01E92FF0E0E730F105E5
:10185000C8F7EC5CFF4F0C945518112309F4FCC039
:10186000C0925F0111E0FE010995ECCF8091B407B1
:101870008111EBC0F894A0927C00B0927A00809124
:101880007A00806480937A0090917A0096FDFCCF74
:10189000809178009091790078948B3AE2E09E07ED
:1018A0000CF0EDC08938F2E09F070CF0EFC08736EE
:1018B00092400CF4CAC0559A549A3B9A3A9A3D9871
:1018C0003C98C0CFF89480B7877F80BF80917A0022
:1018D0008F7780937A0014B817B81AB815B818B86B
:1018E0001BB80FB6F894A895D09260000FBEE09296
:1018F00060008091600080648093600093B7917F66
:10190000946093BFF89483B7816083BF789488957F
:1019100083B78E7F83BF78941092B407529A5A9AF5
:1019200080917A00806880937A0087E592E0019741
:10193000F1F700C0000080B7886180BF559A549AC3
:101940003B9A3A9A3D9A3C9AEFE1FEE43197F1F7DF
:1019500000C000008091B407811181C0559854984F
:101960003B983A983D983C986DCF80915D018111EC
:1019700041C01092B3001092B40010925E0162CF89
:101980004899ECCF559A54983B983A983D983C9892
:101990008FEC97E00197F1F700C00000559854983C
:1019A0003B983A983D983C989FEFE1EEF4E09150D7
:1019B000E040F040E1F700C0000044CF5598549853
:1019C0003B9A3A9A3D983C98EFECF7E03197F1F763
:1019D00000C00000559854983B983A983D983C9820
:1019E000FFEF21EE84E0F15020408040E1F700C09D
:1019F000000028CF90915D0180915E01981709F455
:101A000021CF80915D0180935E0180915D018130E5
:101A100009F450C080915D011092B3009092B4001F
:101A20008230D9F19092B3009092B4008FE295E7A2
:101A30000197F1F700C000008091E9079091E80755
:101A40009093B3008093B400FDCE559A549A3B987E
:101A50003A983D983C98F6CEF301099501CF559AF6
:101A6000549A3B983A983D983C98FFEF20E782E0E3
:101A7000F15020408040E1F700C000006FCF559842
:101A800054983B9A3A9A3D983C98DCCE5598549895
:101A90003B983A983D9A3C9AD5CEEFE2F5E73197DC
:101AA000F1F700C000008091D6071092B300809338
:101AB000B400C8CE9092B3001092B4008FE295E7C4
:101AC0000197F1F700C000008091EA078093B3000E
:101AD0001092B400B7CE07C0EFECF7E03197F1F702
:101AE00000C0000001970097B9F708958093B300F4
:101AF0006093B40008958FEF8093B3008093B40097
:101B00008FE090E0EFECF7E03197F1F700C00000D4
:101B10000197C1F708958091B40781111EC0F89410
:101B200087E080937C0083E880937A0080917A003C
:101B3000806480937A0080917A0086FDFCCF80914A
:101B400078009091790010927C0023EA20937A002B
:101B500021E020937B00789408958FEF9FEF089504
:101B60008091B40781111EC0F89488EC80937C00AA
:101B700087E880937A0080917A00806480937A006D
:101B800080917A0086FDFCCF809178009091790059
:101B900010927C0023EA20937A0021E020937B00BE
:101BA000789408958FEF9FEF08950F931F93CF932D
:101BB000DF93E0E0F0E080E003EA11E0D6E0C3E884
:101BC000A1E0B0E060E870E0F894D0937C00C093AE
:101BD0007A0090917A00906490937A0090917A00C4
:101BE00096FDFCCF20917800309179002170909182
:101BF0007A00906490937A0090917A0096FDFCCFE1
:101C0000409178005091790010927C0000937A0006
:101C100010937B0078944170241303C061507109C4
:101C200099F6222339F09D010E2E01C0220F0A944D
:101C3000EAF7822B3196E830F10509F0C3CFDF9146
:101C4000CF911F910F91089580910201982F990FC4
:101C5000990F990F892790915C0121E0290F20931A
:101C60005C01282F229526952770822796959695B8
:101C7000892780930201089580930201089580913D
:101C8000B407811116C0F89486E080937C0083E845
:101C900080937A0080917A00806480937A008091AA
:101CA0007A0086FDFCCF809178009091790078943D
:101CB00008958FEF9FEF08952F923F924F925F927A
:101CC0006F927F928F929F92AF92BF92CF92DF924C
:101CD000EF92FF920F931F93CF93DF9300D000D02A
:101CE00000D0CDB7DEB71C01DC0112960D90BC917F
:101CF000A02DBE83AD83A438E3E0BE070CF0C9C0BD
:101D000080918E0790918F078A179B0708F437C13F
:101D100000919007109191070A171B0708F42FC232
:101D200000919207109193070A171B0708F42FC21E
:101D300000919407109195070A171B0708F42FC20A
:101D400000919607109197070A171B0708F42FC2F6
:101D500000919807109199070A171B0708F4EFC123
:101D600000919A0710919B070A171B0708F427C2D6
:101D700000919C0710919D070A171B0708F427C2C2
:101D800000919E0710919F070A171B0708F427C2AE
:101D90000091A0071091A1070A171B0708F427C29A
:101DA0000091A2071091A3070A171B0708F427C286
:101DB0000091A4071091A5070A171B0708F423C276
:101DC0000091A6071091A7070A171B0708F423C262
:101DD0000091A8071091A9070A171B0708F423C24E
:101DE00080E090E0A0EDB0E489839A83AB83BC836C
:101DF0004CE0E42EF12CF701EE0FFF1FE257F84FF5
:101E000080819181B801681B790B80E090E00E948D
:101E1000091A9B01AC010E94B6186B017C01AD81CF
:101E2000BE81BD01BB0F880B990B0E940B1A4B01A1
:101E30005C01B80180E090E00E94091A2B013C018E
:101E400029813A814B815C81C701B6010E945D1BEB
:101E50009B01AC01C301B2010E94B5189B01AC010A
:101E6000C501B4010E94B51820E030E040E251E421
:101E70000E945D1B0E94D3198B01C701B6010E940D
:101E8000D319AB01BC01C801BA010E941F18162F5B
:101E900077C0DC01CD90DC908091B5079091B607BA
:101EA0008C159D0508F48CC01FEFE090B707F090EB
:101EB000B807EC14FD0408F45EC1E090B907F09097
:101EC000BA07EC14FD0408F45EC1E090BB07F09083
:101ED000BC07EC14FD0408F45EC1E090BD07F0906F
:101EE000BE07EC14FD0408F45EC1E090BF07F0905B
:101EF000C007EC14FD0408F4C3C0E090C107F090E3
:101F0000C207EC14FD0408F456C1E090C307F0903A
:101F1000C407EC14FD0408F456C1E090C507F09026
:101F2000C607EC14FD0408F456C1E090C707F09012
:101F3000C807EC14FD0408F456C1E090C907F090FE
:101F4000CA07EC14FD0408F456C1E090CB07F090EA
:101F5000CC07EC14FD0408F45AC1E090CD07F090D2
:101F6000CE07EC14FD0408F45AC1E090CF07F090BE
:101F7000D007EC14FD0408F45AC10AE531C010E0A2
:101F8000ED81FE81ED3BF240FCF481E2810F26966B
:101F90000FB6F894DEBF0FBECDBFDF91CF911F917A
:101FA0000F91FF90EF90DF90CF90BF90AF909F90F8
:101FB0008F907F906F905F904F903F902F900895FB
:101FC00000E081E2800FE3CFD101CD90DC908091E1
:101FD000B5079091B6078C159D0508F066CF00E017
:101FE0001F3F79F3ED81FE81BF01FF0F880B990B35
:101FF0000E940B1A6B017C01612F70E080E090E081
:102000000E94091A4B015C01A701960160E070E093
:1020100081E694E40E94B5189B01AC01C501B401AE
:102020000E945D1B4B015C01602F70E080E090E03E
:102030000E94091A2B013C0120E030E04FE254E4F9
:10204000C701B6010E94B5189B01AC01C301B201E2
:102050000E945D1B9B01AC01C501B4010E94B61832
:1020600020E030E048E453E40E94271920E030E00B
:1020700044E052E40E94B6180E94DA19862F87CFF6
:1020800005E085E090E0880F991FFC01ED54F84FC2
:1020900080819181B701681B790B80E090E00E94FC
:1020A000091A9B01AC010E94B6184B015C01B601F4
:1020B000DD0C880B990B0E940B1A2B013C01B70118
:1020C00080E090E00E94091A6B017C01602F70E0B3
:1020D00080E090E00E94091A20E030E040E05FE3F9
:1020E0000E945D1B20E030E0A9010E94B618A50106
:1020F00094010E945D1B9B01AC01C701B6010E94C7
:10210000B5189B01AC01C301B2010E94B51820E0D3
:1021100030E040E251E40E945D1B0E94D3197B0134
:10212000C501B4010E94D319AB01BC01C701BA01BA
:102130000E941F18062F6F3F09F052CF26CF65E08F
:1021400085E090E07C01F1E0EF1AF10870E080E0BA
:1021500090E00E94091A20E030E040E05FE30E9436
:102160005D1B20E030E0A9010E94B61869837A83E4
:102170008B839C8340CE01E081E090E084CF61E0DE
:1021800081E090E0DFCF02E082E090E07CCF62E08F
:1021900082E090E0D7CF03E083E090E074CF63E08B
:1021A00083E090E0CFCF04E084E090E06CCF64E087
:1021B00084E090E0C7CF06E086E090E064CF66E080
:1021C00086E090E0BFCF07E087E090E05CCF67E07B
:1021D00087E090E0B7CF08E088E090E054CF68E077
:1021E00088E090E0AFCF09E089E090E04CCF69E073
:1021F00089E090E0A7CF0AE08AE090E044CF6AE06F
:102200008AE090E09FCF6BE08BE090E09BCF0BE00B
:102210008BE090E038CF6CE08CE090E093CF0CE066
:102220008CE090E030CF6DE08DE090E08BCF0DE062
:102230008DE090E028CF1F920F920FB60F921124DD
:102240002F933F934F935F936F937F938F939F93BE
:10225000AF93BF93EF93FF932091D4073091D507AD
:102260008091D2079091D307820F931F9093D50747
:102270008093D4078FEF90E09093D3078093D20799
:102280008FEF87BD8091B0079091B107A091B20701
:10229000B091B3070196A11DB11D8093B007909333
:1022A000B107A093B207B093B3078091B40781112F
:1022B0000FC08091E3079091E4072091D4073091FB
:1022C000D5078217930720F480915F01843089F04D
:1022D000FF91EF91BF91AF919F918F917F916F91FE
:1022E0005F914F913F912F910F900FBE0F901F90D4
:1022F0001895E0910501F09106010995009741F3C9
:102300000E940314811109C00E94241C99279093F4
:10231000D3078093D20787BDDBCFE0910301F09113
:10232000040109951092D5071092D407D1CF80FFF0
:1023300011C0559A81FF11C0549A82FF11C03B9A77
:1023400083FF11C03A9A84FF11C03D9A85FD11C0E8
:102350003C980895559881FDEFCF549882FDEFCFBA
:102360003B9883FDEFCF3A9884FDEFCF3D9885FFF2
:10237000EFCF3C9A08951F920F920FB60F9211243F
:102380008F939F9310928100109285001092840089
:1023900081E080938D078093D1071092B40710924B
:1023A0007C0093EA90937A0080937B009F918F91B9
:1023B0000F900FBE0F901F9018951F920F920FB69F
:1023C0000F9211242F933F934F935F936F937F93BB
:1023D0008F939F93AF93BF93CF93DF93EF93FF932D
:1023E000209184003091850041E04093B4078091B2
:1023F0008D078823A9F110928500109284004093E4
:1024000081001092E50710928D078091D1078823F3
:10241000A1F080917A0086FDFCCF809178009091A8
:1024200079009093AF078093AE0781E080937C00A2
:1024300093EA90937A0080937B00FF91EF91DF9174
:10244000CF91BF91AF919F918F917F916F915F914C
:102450004F913F912F910F900FBE0F901F901895A5
:10246000C901875891098437994008F052C026580D
:102470003109A4EFB0E00E945B18AA27BB2788307F
:102480009105A105B10508F47BC040938D078091AB
:10249000D107811152C08091AB07E82FF0E0E952DB
:1024A000F84F9091E50790838F5F8093AB078C3056
:1024B00021F61092810010928500109284004093C2
:1024C000D1071092B407C091E107D091E20787EDE0
:1024D00097E00E94E713C817D90709F0AECF8091A3
:1024E000E00787FF61C098E7980F933030F053986A
:1024F00023981092B4001092B30090E0FC01E058D1
:10250000F109EB30F10508F098CFE55CFF4F0C9432
:10251000551810928100109285001092840040930B
:102520008D074093D1071092B40710927C0083EA84
:1025300080937A0040937B0080CF80917A0086FD63
:10254000FCCF80917800909179009093AD078093B3
:10255000AC0710927C0083EA80937A0081E080933C
:102560007B009091E5079923D1F0109281001092A1
:102570008500109284008093D1071092B4075DCF3C
:1025800021E030E0F90102C0EE0FFF1F8A95E2F76B
:10259000CF019091E507892B8093E5074ECF1092EC
:1025A000D1071092AB0749CFE0910701F0910801E4
:1025B0006CEA77E087ED97E009953FCF8091D707E8
:1025C000823009F4DDC008F4BAC0833009F4C6C013
:1025D000843009F0B1C080915D019091DD078330B6
:1025E00009F4E3C08091DC0710925E0123E02093A0
:1025F0005D018093E8079093E90780915F01863041
:1026000009F41BCF539A239A1092B4001092B3008E
:1026100086E080935F0111CF80915F01863099F051
:10262000539A239A1092B4001092B300559854987C
:102630003B983A983D983C9810925D0110925E014B
:1026400086E080935F0181E090E09C010090D707D5
:1026500002C0220F331F0A94E2F78091E60790919F
:10266000E70782239323892B09F086C010925D012E
:10267000E4CE81E080935F01E0CEE0E0F0E00995F8
:1026800080916E008D7F80936E0016BCE0E0F0E7D5
:10269000099510925F01D1CE82E080935F01CDCE8B
:1026A00085E080935F01C9CE80915F01833009F49A
:1026B000C4CE80915F01843009F4BFCE539A239A2F
:1026C0001092B4001092B30083E080935F01B5CE06
:1026D00080915F01863009F0B0CE6091E60780EB13
:1026E00090E00E940D1E6091E70781EB90E00E9450
:1026F0000D1E6091EA0785E090E00E940D1E60913A
:10270000D60789E090E00E940D1E6091E8078CE0FA
:1027100090E00E940D1E6091E90784E190E00E9424
:102720000D1E539823981092B4001092B30081E0CC
:1027300080935F018091D70781115FCF7ECE882380
:1027400039F28130C9F78091D8079091D9079093D9
:10275000E7078093E60710925D014FCF80915D01FE
:10276000823071F18091DB0710925E0192E09093CC
:102770005D018093D60741CF81E080935D015DCEFE
:1027800080915D01813051F08091DA0710925E01F5
:1027900091E090935D018093EA072FCF8091DA0753
:1027A0009091EA078913F2CF28CF8091E907981317
:1027B00019CF8091DC072091E807821315CF1DCF38
:1027C0008091DB079091D6078913CECF16CFFC01FD
:1027D000AC01465F5F4F8FEF9FEF21918227082E5C
:1027E0008295807F8025092E982F82958F700826EC
:1027F000869598278927880F880F880F8025E417EA
:10280000F50759F708950FB6F894A4B12091AA07D7
:102810002A2B24B921E03091AA07203029F00000AA
:1028200025B1232B25B904C000000000000000C022
:10283000000000000000309525B1232325B92EEAC1
:102840002A95F1F72BEE30B735FF0AC0A4B93091C5
:10285000AA07309525B1232325B90FBE80E008953E
:1028600000002A9581F721E03091AA07203029F055
:10287000000025B1232B25B904C000000000000092
:1028800000C0000000000000309525B1232325B9C9
:10289000000024E52A95F1F7FC018CE0619170E0DD
:1028A000660F771F616072609AE041E050E09A0124
:1028B00026233723232B3091AA07203029F000004C
:1028C00025B1232B25B904C000000000000000C082
:1028D000000000000000309525B1232325B9000039
:1028E00021E52A95F1F7440F551F9A9501F78A952E
:1028F000A9F620B7206120BFA4B93091AA0730956E
:1029000025B1232325B90FBE81E00895A3E1B0E0EE
:10291000ECE8F4E10C946A186C014B012A01FC010B
:1029200017821682838181FF43C3AE014F5F5F4FE1
:102930003A01F6019381F40193FD859193FF819112
:102940004F01882309F430C3853239F493FD859112
:1029500093FF81914F01853239F4B60190E00E94D6
:10296000221D52012501E5CF10E0F12C20E020329C
:10297000A0F48B3269F030F4803259F0833269F47C
:1029800020612CC08D3239F0803339F4216026C0AB
:102990002260246023C0286021C027FD27C030EDBD
:1029A000380F3A3078F426FF06C0FAE01F9F300D4A
:1029B0001124132F13C04AE0F49E300D1124F32E7E
:1029C00020620CC08E3221F426FDEEC2206406C0C7
:1029D0008C3611F4206802C0883641F4F40193FD6E
:1029E000859193FF81914F018111C1CF9BEB980F8E
:1029F000933018F42061805E06C09BE9980F9330F5
:102A000008F071C12F7E26FF16E02F73322E853617
:102A100019F42064322E08C0863621F4F22FF068B3
:102A20003F2E02C01111115037FE07C01C3350F465
:102A3000EE24E394E10E27E00BC0183038F027E0D5
:102A400017E005C027E04CE3E42E02C0212FE12C63
:102A5000520144E0A40EB11CF201608171818281B7
:102A600093810E2DA3010E94341C2C01098100FFCB
:102A700002C003FF07C031FC08C032FE09C030E2CB
:102A8000232E07C02DE2222E04C09BE2292E01C076
:102A9000212C802F8C7019F0211068C2A8C237FE3B
:102AA0000FC0E40C04FF04C08A81813309F4EA9466
:102AB0001E1474F5F8E0FE1578F588E0E82E2CC0B9
:102AC00036FC2AC0812F90E0841595059CF02CEFF0
:102AD00042162FEF520674F0432D4068342E0AC080
:102AE000E2E0F0E0EC0FFD1FE10FF11D808180338B
:102AF00019F411501111F4CF37FE0EC0EE24E394F7
:102B0000E10E812F90E0481659062CF4141904C0E8
:102B1000EE24E39401C010E037FE06C0141415043F
:102B200034F4C201019605C085E090E002C081E066
:102B300090E021100196112331F0212F30E02F5F1A
:102B40003F4F820F931F2F2D30E08217930714F40D
:102B5000F81A01C0F12C832D897049F4FF2039F057
:102B6000B60180E290E00E94221DFA94F7CF222065
:102B700029F0B601822D90E00E94221D33FC09C08D
:102B8000FF2039F0B60180E390E00E94221DFA9404
:102B9000F7CF37FE5AC0942D852D57FE02C090E026
:102BA00080E0292E382E20E030E0A2014E19510994
:102BB0005D874C87A201421953095F874E87612FB9
:102BC00070E044275527461B570B598B488B5FEF06
:102BD0002516350649F4B6018EE290E02A8B3B8B30
:102BE0000E94221D3B892A89421453046CF04C85B3
:102BF0005D854215530544F4EE85FF85E20FF31F12
:102C0000E60DF71D818101C080E351E0251A3108EE
:102C10002F5F3F4F48895989241635064CF0B6017D
:102C200090E02A8B3B8B0E94221D2A893B89CFCFC3
:102C30002414350439F49A81963318F4953311F439
:102C400004FF81E3B60190E04BC08A81813309F033
:102C50000F7EB60190E00E94221D111105C034FCC8
:102C600018C085E690E017C0B6018EE290E00E94A1
:102C7000221D82E0EE24E394E80EF301E80FF11D3B
:102C80008081B60190E00E94221D11508E2D91F797
:102C9000E6CF85E490E0B6010E94221D57FC05C0F6
:102CA0004114510439F404FF05C051944194510872
:102CB0008DE201C08BE2B60190E00E94221D80E30C
:102CC0009AE0491651042CF08F5F5AE0451A5108DA
:102CD000F7CFB60190E00E94221DB601C201C09656
:102CE0000E94221D57C1833631F0833779F0833536
:102CF00009F058C021C05201E2E0AE0EB11CF20151
:102D00008081898301E010E0230114C05201F2E0C8
:102D1000AF0EB11CF2014080518026FF03C0612F2D
:102D200070E002C06FEF7FEFC2012A8B0E94171D77
:102D30008C012A892F7715C05201F2E0AF0EB11C29
:102D4000F2014080518026FF03C0612F70E002C075
:102D50006FEF7FEFC2012A8B0E940C1D8C012A8924
:102D60002068322E23FD1AC08F2D90E00817190716
:102D7000A8F4B60180E290E00E94221DFA94F4CFFC
:102D8000F20137FC859137FE81912F01B60190E069
:102D90000E94221DF110FA9401501109011511052C
:102DA00079F7F8C0843611F0893659F5520127FFBA
:102DB00009C0F4E0AF0EB11CF20160817181828123
:102DC00093810AC0F2E0AF0EB11CF2016081718103
:102DD000072E000C880B990B2F76322E97FF09C017
:102DE00090958095709561957F4F8F4F9F4F20688C
:102DF000322E2AE030E0A3010E94A71DE82EE6183B
:102E00003FC0022F853721F40F7E2AE030E01DC03D
:102E1000097F8F3691F018F4883559F0C5C0803796
:102E200019F0883711F0C0C0006104FF09C00460C8
:102E300007C024FF08C0066006C028E030E005C0D7
:102E400020E130E002C020E132E0520107FF09C07A
:102E5000F4E0AF0EB11CF201608171818281938137
:102E600008C0F2E0AF0EB11CF2016081718180E018
:102E700090E0A3010E94A71DE82EE6180F77302EE0
:102E800036FE0BC0332D3E7FE11650F434FE0AC0EF
:102E900032FC08C0332D3E7E05C00E2D332D03C0FD
:102EA0000E2D01C0012F34FF0CC0FE01EE0DF11DEF
:102EB0008081803311F4397E08C032FF05C00E5F77
:102EC00004C0832F867809F00F5F33FD13C030FFF5
:102ED00006C01E2D0F1518F41F0D101B0F2D0F15FA
:102EE00068F4B60180E290E03B8B0E94221D0F5FE8
:102EF0003B89F5CF0F1510F4F01A01C0F12C34FF07
:102F000012C0B60180E390E03B8B0E94221D3B89FA
:102F100032FF17C031FD03C088E790E002C088E5AA
:102F200090E0B6010CC0832F867859F031FF02C0C3
:102F30008BE201C080E237FD8DE2B60190E00E9495
:102F4000221DE11638F4B60180E390E00E94221DB4
:102F50001150F7CFEA94F301EE0DF11D8081B60117
:102F600090E00E94221DE110F5CF14C0F4E0FF159F
:102F700058F584E0F81A33FE1EC0211026C003FF66
:102F80002AC004EB10E0F32DF0713F2EF80184917C
:102F9000811124C0FF2009F4E5CCB60180E290E065
:102FA0000E94221DFA94F6CFF6018681978126C0F1
:102FB0008FEF9FEF23C0B60180E290E00E94221DB8
:102FC000FA94F110F8CFD9CFF12CB601822D90E010
:102FD0000E94221DD4CF08EB10E0D5CF31108052D3
:102FE000B60190E00E94221D0F5F1F4FCFCF23E05C
:102FF0002F1510F483E0BECFF12CC1CF6396E2E130
:103000000C9486180E94170B8AED96E090930801A5
:10301000809307018DE998E0909306018093050164
:103020008AEB98E0909304018093030163E273E0DC
:103030008BEA92E00E94130C80E090E0089597FBE9
:10304000072E16F4009407D077FD09D00E94A1182E
:1030500007FC05D03EF4909581959F4F089570959B
:1030600061957F4F0895A1E21A2EAA1BBB1BFD019B
:103070000DC0AA1FBB1FEE1FFF1FA217B307E40757
:10308000F50720F0A21BB30BE40BF50B661F771FAF
:10309000881F991F1A9469F760957095809590958F
:1030A0009B01AC01BD01CF010895EE0FFF1F0590FC
:1030B000F491E02D0994A29FB001B39FC001A39F9A
:1030C000700D811D1124911DB29F700D811D112461
:1030D000911D08952F923F924F925F926F927F922F
:1030E0008F929F92AF92BF92CF92DF92EF92FF9218
:1030F0000F931F93CF93DF93CDB7DEB7CA1BDB0BC4
:103100000FB6F894DEBF0FBECDBF09942A88398868
:1031100048885F846E847D848C849B84AA84B9846F
:10312000C884DF80EE80FD800C811B81AA81B9817B
:10313000CE0FD11D0FB6F894DEBF0FBECDBFED018F
:103140000895AA1BBB1B51E107C0AA1FBB1FA617EE
:10315000B70710F0A61BB70B881F991F5A95A9F740
:1031600080959095BC01CD0108955058BB27AA27A2
:103170000E94CD180C94A81A0E949A1A38F00E9446
:10318000A11A20F039F49F3F19F426F40C94701A18
:103190000EF4E095E7FB0C946A1AE92F0E94B91A25
:1031A00058F3BA17620773078407950720F079F47C
:1031B000A6F50C94DB1A0EF4E0950B2EBA2FA02D79
:1031C0000B01B90190010C01CA01A0011124FF27D4
:1031D000591B99F0593F50F4503E68F11A16F040CF
:1031E000A22F232F342F4427585FF3CF46953795CE
:1031F0002795A795F0405395C9F77EF41F16BA0B93
:10320000620B730B840BBAF09150A1F0FF0FBB1F40
:10321000661F771F881FC2F70EC0BA0F621F731F89
:10322000841F48F4879577956795B795F7959E3FE6
:1032300008F0B0CF9395880F08F09927EE0F979577
:10324000879508950E94461A08F481E008950E9427
:103250003B190C94A81A0E94A11A58F00E949A1ABD
:1032600040F029F45F3F29F00C946A1A51110C9434
:10327000DC1A0C94701A0E94B91A68F39923B1F3FE
:10328000552391F3951B550BBB27AA27621773078C
:10329000840738F09F5F5F4F220F331F441FAA1F20
:1032A000A9F335D00E2E3AF0E0E832D091505040DC
:1032B000E695001CCAF72BD0FE2F29D0660F771F8A
:1032C000881FBB1F261737074807AB07B0E809F070
:1032D000BB0B802DBF01FF2793585F4F3AF09E3FF5
:1032E000510578F00C946A1A0C94DC1A5F3FE4F3F1
:1032F000983ED4F3869577956795B795F7959F5F38
:10330000C9F7880F911D9695879597F90895E1E083
:10331000660F771F881FBB1F621773078407BA07E2
:1033200020F0621B730B840BBA0BEE1F88F7E0953D
:10333000089529F416F00C946A1A0C94DB1A0C9474
:10334000701A0E94C11AA8F39638A0F707F80F92D6
:10335000E8942BE33AEA48EB5FE70E94731B0F9275
:103360000F920F924DB75EB70F920E94291BECE8A7
:10337000F0E00E94731A4F915F91EF91FF91E595F4
:10338000EE1FFF1F49F0FE57E0684427EE0F441F71
:10339000FA95E1F74195550B0E94F31A0F9007FE3D
:1033A0000C94E71A08950E94DA196894B1110C94EC
:1033B000DC1A08950E94C11A88F09F5798F0B92F1F
:1033C0009927B751B0F0E1F0660F771F881F991F5A
:1033D0001AF0BA95C9F714C0B13091F00E94DB1A07
:1033E000B1E008950C94DB1A672F782F8827B85F17
:1033F00039F0B93FCCF3869577956795B395D9F7B2
:103400003EF490958095709561957F4F8F4F9F4FBB
:103410000895E89409C097FB3EF4909580957095C7
:1034200061957F4F8F4F9F4F9923A9F0F92F96E910
:10343000BB279395F695879577956795B795F11185
:10344000F8CFFAF4BB0F11F460FF1BC06F5F7F4F22
:103450008F4F9F4F16C0882311F096E911C0772334
:1034600021F09EE8872F762F05C0662371F096E83D
:10347000862F70E060E02AF09A95660F771F881F0C
:10348000DAF7880F9695879597F90895990F0008B0
:10349000550FAA0BE0E8FEEF16161706E807F90726
:1034A000C0F012161306E407F50798F0621B730BC1
:1034B000840B950B39F40A2661F0232B242B252B42
:1034C00021F408950A2609F4A140A6958FEF811DE5
:1034D000811D089597F99F6780E870E060E0089586
:1034E0009FEF80EC0895DF93CF931F930F93FF928C
:1034F000EF92DF927B018C01689406C0DA2EEF0117
:103500000E94701BFE01E894A5912591359145918B
:103510005591A6F3EF010E94CD18FE019701A80175
:10352000DA9469F7DF90EF90FF900F911F91CF91A0
:10353000DF91089500240A94161617061806090646
:10354000089500240A941216130614060506089519
:10355000092E0394000C11F4882352F0BB0F40F4A1
:10356000BF2B11F460FF04C06F5F7F4F8F4F9F4FE1
:10357000089557FD9058440F551F59F05F3F71F063
:103580004795880F97FB991F61F09F3F79F08795CA
:103590000895121613061406551FF2CF4695F1DF53
:1035A00008C0161617061806991FF1CF86957105E3
:1035B000610508940895E894BB2766277727CB0117
:1035C00097F908950E94461A08F48FEF08959B0119
:1035D000AC0160E070E080E89FE30C9427190C9444
:1035E0006A1A0C94CA1B0E94C11AD8F39923C9F312
:1035F000940F511DA3F39150504094F059F088233B
:1036000032F0660F771F881F91505040C1F79E3FE0
:1036100051052CF7880F911D9695879597F9089578
:103620005F3FACF0983E9CF0BB27869577956795F9
:10363000B79508F4B1609395C1F7BB0F58F711F433
:1036400060FFE8CF6F5F7F4F8F4F9F4FE3CF0C94AA
:10365000DC1AFA01DC01AA0FBB1F9B01AC01BF57AA
:1036600028F4222733274427507820C0B75190F4FC
:10367000AB2F0024469537952795011CA395D2F3CF
:10368000002071F0220F331F441FB395DAF30ED0E0
:103690000C94B51861307105A0E88A07B94630F47A
:1036A0009B01AC016627772788279078309621F018
:1036B000208331834283538308950E94701B0C94AE
:1036C000A81A0E949A1A38F00E94A11A20F0952395
:1036D00011F00C946A1A0C94701A11240C94DC1AD0
:1036E0000E94B91A70F3959FC1F3950F50E0551FD2
:1036F000629FF001729FBB27F00DB11D639FAA2747
:10370000F00DB11DAA1F649F6627B00DA11D661F95
:10371000829F2227B00DA11D621F739FB00DA11DB6
:10372000621F839FA00D611D221F749F3327A00D70
:10373000611D231F849F600D211D822F762F6A2F0C
:1037400011249F5750409AF0F1F088234AF0EE0F71
:10375000FF1FBB1F661F771F881F91505040A9F79E
:103760009E3F510580F00C946A1A0C94DC1A5F3F5E
:10377000E4F3983ED4F3869577956795B795F795DA
:10378000E7959F5FC1F7FE2B880F911D9695879552
:1037900097F908959F3F31F0915020F487957795E0
:1037A0006795B795880F911D9695879597F9089518
:1037B0008F929F92AF92BF92CF92DF92EF92FF9241
:1037C000CF93DF93EC01688179818A819B816115B8
:1037D00071058105910521F464E279ED8BE597E0AF
:1037E0002DE133EF41E050E00E941B1E49015A01D8
:1037F0009B01AC01A7EAB1E40E943A1E6B017C0177
:10380000ACEEB4EFA50194010E94481EDC01CB018F
:103810008C0D9D1DAE1DBF1DB7FF03C00197A109F3
:10382000B04888839983AA83BB839F77DF91CF9128
:10383000FF90EF90DF90CF90BF90AF909F908F90D0
:1038400008950E94D81B089589E091E00E94D81B3A
:103850000895A0E0B0E08093090190930A01A0933D
:103860000B01B0930C010895283008F027E03327AE
:10387000DA01990F311D87FD916000966105710590
:1038800039F432602E5F3D9330E32A95E1F70895D5
:103890009F3F30F080387105610509F03C5F3C5F67
:1038A0003D93913008F08068911DDF93CF931F9373
:1038B0000F93FF92EF92192F987F9695E92F969587
:1038C0009695E90FFF27EA5EFE4F99273327EE24EE
:1038D000FF24A701E70105900894079428F4360F08
:1038E000E71EF81E491F511D660F771F881F991F7D
:1038F0000694A1F70590079428F4E70EF81E491FD7
:10390000561FC11D770F881F991F661F0694A1F7C8
:103910000590079428F4F80E491F561FC71FD11DA4
:10392000880F991F661F771F0694A1F705900794CB
:1039300020F4490F561FC71FD81F990F661F771F06
:10394000881F0694A9F784911095177041F0D695B9
:10395000C79557954795F794E7941A95C1F7ECEBFF
:10396000F0E06894159015913591659195910590C9
:103970007FE27395E118F10A430B560BC90BD0098E
:10398000C0F7E10CF11E431F561FC91FD01D7EF466
:10399000703311F48A95E6CFE894015030F0080FA7
:1039A0000AF40027021708F4202F2395022F7A33F8
:1039B00028F079E37D932A95E9F710C07D932A9545
:1039C00089F6069497956795379517951794E1189A
:1039D000F10A430B560BC90BD00998F023957E9141
:1039E00073957A3308F070E37C932013B8F77E91D7
:1039F00070617D9330F0839571E37D9370E32A9538
:103A0000E1F71124EF90FF900F911F91CF91DF917B
:103A1000992787FD90950895FC01059061507040AD
:103A20000110D8F7809590958E0F9F1F0895FC0187
:103A30006150704001900110D8F7809590958E0FDD
:103A40009F1F08950F931F93CF93DF93FB01238153
:103A500021FD03C08FEF9FEF28C022FF16C04681D3
:103A60005781248135814217530744F4A081B181E5
:103A70009D012F5F3F4F318320838C9326813781B7
:103A80002F5F3F4F3783268310C0EB01092F182F7C
:103A90000084F185E02D0995892BE1F68E819F81C7
:103AA00001969F838E83812F902FDF91CF911F915D
:103AB0000F910895A0E0B0E0E0E6FDE10C947A18E3
:103AC000AE014B5F5F4FFA0161917191AF0180913F
:103AD000ED079091EE070E948614E2E00C94961890
:103AE0006091ED077091EE070E94221D08950F93DB
:103AF0001F93CF93DF93E091ED07F091EE072381C1
:103B000021FF1BC08C01D0E0C0E0F80181918F0142
:103B10006091ED077091EE07DB011896ED91FC9135
:103B20001997882331F00995892B79F3DFEFCFEFCF
:103B3000ECCF8AE00995892B19F08FEF9FEF02C037
:103B40008D2F9C2FDF91CF911F910F910895FA0136
:103B5000AA27283051F1203181F1E8946F936E7FCC
:103B60006E5F7F4F8F4F9F4FAF4FB1E03ED0B4E0BD
:103B70003CD0670F781F891F9A1FA11D680F791FFE
:103B80008A1F911DA11D6A0F711D811D911DA11D0F
:103B900020D009F468943F912AE0269F112430191F
:103BA000305D3193DEF6CF010895462F4770405DBA
:103BB0004193B3E00FD0C9F7F6CF462F4F70405D69
:103BC0004A3318F0495D31FD4052419302D0A9F7C4
:103BD000EACFB4E0A6959795879577956795BA95BE
:103BE000C9F700976105710508959B01AC010A2E84
:103BF00006945795479537952795BA95C9F7620F5B
:103C0000731F841F951FA01D0895F999FECF92BDC3
:103C100081BDF89A992780B50895262FF999FECF8E
:103C20001FBA92BD81BD20BD0FB6F894FA9AF99AD9
:103C30000FBE01960895052E97FB1EF400940E9476
:103C4000321E57FD07D00E94331807FC03D04EF4F4
:103C50000C94321E50954095309521953F4F4F4F13
:103C60005F4F089590958095709561957F4F8F4F28
:103C70009F4F08950E945B18A59F900DB49F900DD3
:103C8000A49F800D911D11240895B7FF0C943A1E36
:0E3C90000E943A1E821B930B0895F894FFCFFA
:103C9E006001AA160B130B120B0100000025642005
:103CAE0067656E6F6D65207365740A00256420204C
:103CBE0000256420444945440A00256420006170B3
:103CCE00726573206D75746174696F6E0067656ED1
:103CDE006F6D65206D79646174610067656E6F6DDF
:0C3CEE0065207472616E736D69730000D4
:00000001FF
